{
	"BurnManger.sol": {
		"BurnManager": {
			"abi": [
				{
					"inputs": [
						{
							"internalType": "address",
							"name": "_nftContract",
							"type": "address"
						}
					],
					"stateMutability": "nonpayable",
					"type": "constructor"
				},
				{
					"inputs": [],
					"name": "FailedCall",
					"type": "error"
				},
				{
					"inputs": [],
					"name": "FeeExceedsMaximum",
					"type": "error"
				},
				{
					"inputs": [],
					"name": "FeeUnchanged",
					"type": "error"
				},
				{
					"inputs": [
						{
							"internalType": "uint256",
							"name": "balance",
							"type": "uint256"
						},
						{
							"internalType": "uint256",
							"name": "needed",
							"type": "uint256"
						}
					],
					"name": "InsufficientBalance",
					"type": "error"
				},
				{
					"inputs": [],
					"name": "InsufficientPayment",
					"type": "error"
				},
				{
					"inputs": [],
					"name": "InvalidTokenId",
					"type": "error"
				},
				{
					"inputs": [],
					"name": "NoFundsToWithdraw",
					"type": "error"
				},
				{
					"inputs": [],
					"name": "NotTokenOwner",
					"type": "error"
				},
				{
					"inputs": [
						{
							"internalType": "address",
							"name": "owner",
							"type": "address"
						}
					],
					"name": "OwnableInvalidOwner",
					"type": "error"
				},
				{
					"inputs": [
						{
							"internalType": "address",
							"name": "account",
							"type": "address"
						}
					],
					"name": "OwnableUnauthorizedAccount",
					"type": "error"
				},
				{
					"inputs": [],
					"name": "TokenAlreadyBurned",
					"type": "error"
				},
				{
					"inputs": [],
					"name": "WithdrawalFailed",
					"type": "error"
				},
				{
					"anonymous": false,
					"inputs": [
						{
							"indexed": false,
							"internalType": "uint256",
							"name": "oldFee",
							"type": "uint256"
						},
						{
							"indexed": false,
							"internalType": "uint256",
							"name": "newFee",
							"type": "uint256"
						}
					],
					"name": "BurnFeeUpdated",
					"type": "event"
				},
				{
					"anonymous": false,
					"inputs": [
						{
							"indexed": true,
							"internalType": "address",
							"name": "owner",
							"type": "address"
						},
						{
							"indexed": false,
							"internalType": "uint256",
							"name": "amount",
							"type": "uint256"
						}
					],
					"name": "FundsWithdrawn",
					"type": "event"
				},
				{
					"anonymous": false,
					"inputs": [
						{
							"indexed": true,
							"internalType": "address",
							"name": "previousOwner",
							"type": "address"
						},
						{
							"indexed": true,
							"internalType": "address",
							"name": "newOwner",
							"type": "address"
						}
					],
					"name": "OwnershipTransferred",
					"type": "event"
				},
				{
					"anonymous": false,
					"inputs": [
						{
							"indexed": false,
							"internalType": "address",
							"name": "account",
							"type": "address"
						}
					],
					"name": "Paused",
					"type": "event"
				},
				{
					"anonymous": false,
					"inputs": [
						{
							"indexed": true,
							"internalType": "address",
							"name": "burner",
							"type": "address"
						},
						{
							"indexed": false,
							"internalType": "uint32[]",
							"name": "tokenIds",
							"type": "uint32[]"
						},
						{
							"indexed": false,
							"internalType": "uint256",
							"name": "totalFee",
							"type": "uint256"
						},
						{
							"indexed": true,
							"internalType": "uint32",
							"name": "updateId",
							"type": "uint32"
						}
					],
					"name": "TokensBurned",
					"type": "event"
				},
				{
					"anonymous": false,
					"inputs": [
						{
							"indexed": false,
							"internalType": "address",
							"name": "account",
							"type": "address"
						}
					],
					"name": "Unpaused",
					"type": "event"
				},
				{
					"inputs": [],
					"name": "burnAmount",
					"outputs": [
						{
							"internalType": "uint16",
							"name": "",
							"type": "uint16"
						}
					],
					"stateMutability": "view",
					"type": "function"
				},
				{
					"inputs": [
						{
							"internalType": "uint32[]",
							"name": "tokenIds",
							"type": "uint32[]"
						},
						{
							"internalType": "uint32",
							"name": "update_id",
							"type": "uint32"
						}
					],
					"name": "createPremium",
					"outputs": [],
					"stateMutability": "payable",
					"type": "function"
				},
				{
					"inputs": [],
					"name": "getBurnFee",
					"outputs": [
						{
							"internalType": "uint256",
							"name": "",
							"type": "uint256"
						}
					],
					"stateMutability": "view",
					"type": "function"
				},
				{
					"inputs": [],
					"name": "getContractBalance",
					"outputs": [
						{
							"internalType": "uint256",
							"name": "",
							"type": "uint256"
						}
					],
					"stateMutability": "view",
					"type": "function"
				},
				{
					"inputs": [],
					"name": "getMaxBurnFee",
					"outputs": [
						{
							"internalType": "uint256",
							"name": "",
							"type": "uint256"
						}
					],
					"stateMutability": "pure",
					"type": "function"
				},
				{
					"inputs": [
						{
							"internalType": "uint32",
							"name": "tokenId",
							"type": "uint32"
						}
					],
					"name": "isTokenBurned",
					"outputs": [
						{
							"internalType": "bool",
							"name": "",
							"type": "bool"
						}
					],
					"stateMutability": "view",
					"type": "function"
				},
				{
					"inputs": [
						{
							"internalType": "uint32",
							"name": "tokenId",
							"type": "uint32"
						}
					],
					"name": "isUpdatedToken",
					"outputs": [
						{
							"internalType": "bool",
							"name": "",
							"type": "bool"
						}
					],
					"stateMutability": "view",
					"type": "function"
				},
				{
					"inputs": [],
					"name": "nftContract",
					"outputs": [
						{
							"internalType": "address",
							"name": "",
							"type": "address"
						}
					],
					"stateMutability": "view",
					"type": "function"
				},
				{
					"inputs": [],
					"name": "owner",
					"outputs": [
						{
							"internalType": "address",
							"name": "",
							"type": "address"
						}
					],
					"stateMutability": "view",
					"type": "function"
				},
				{
					"inputs": [],
					"name": "pause",
					"outputs": [],
					"stateMutability": "nonpayable",
					"type": "function"
				},
				{
					"inputs": [],
					"name": "paused",
					"outputs": [
						{
							"internalType": "bool",
							"name": "",
							"type": "bool"
						}
					],
					"stateMutability": "view",
					"type": "function"
				},
				{
					"inputs": [],
					"name": "renounceOwnership",
					"outputs": [],
					"stateMutability": "nonpayable",
					"type": "function"
				},
				{
					"inputs": [
						{
							"internalType": "uint16",
							"name": "amount",
							"type": "uint16"
						}
					],
					"name": "setBurnAmount",
					"outputs": [],
					"stateMutability": "nonpayable",
					"type": "function"
				},
				{
					"inputs": [
						{
							"internalType": "uint256",
							"name": "_newFee",
							"type": "uint256"
						}
					],
					"name": "setBurnFee",
					"outputs": [],
					"stateMutability": "nonpayable",
					"type": "function"
				},
				{
					"inputs": [
						{
							"internalType": "address",
							"name": "newOwner",
							"type": "address"
						}
					],
					"name": "transferOwnership",
					"outputs": [],
					"stateMutability": "nonpayable",
					"type": "function"
				},
				{
					"inputs": [],
					"name": "unpause",
					"outputs": [],
					"stateMutability": "nonpayable",
					"type": "function"
				},
				{
					"inputs": [],
					"name": "withdrawFunds",
					"outputs": [],
					"stateMutability": "nonpayable",
					"type": "function"
				},
				{
					"inputs": [
						{
							"internalType": "uint256",
							"name": "_amount",
							"type": "uint256"
						}
					],
					"name": "withdrawPartialFunds",
					"outputs": [],
					"stateMutability": "nonpayable",
					"type": "function"
				},
				{
					"stateMutability": "payable",
					"type": "receive"
				}
			],
			"devdoc": {
				"details": "Contract for managing NFT burns with payment system Uses OpenZeppelin standards for security and access control",
				"errors": {
					"FailedCall()": [
						{
							"details": "A call to an address target failed. The target may have reverted."
						}
					],
					"InsufficientBalance(uint256,uint256)": [
						{
							"details": "The ETH balance of the account is not enough to perform the operation."
						}
					],
					"OwnableInvalidOwner(address)": [
						{
							"details": "The owner is not a valid owner account. (eg. `address(0)`)"
						}
					],
					"OwnableUnauthorizedAccount(address)": [
						{
							"details": "The caller account is not authorized to perform an operation."
						}
					]
				},
				"events": {
					"Paused(address)": {
						"details": "Emitted when the pause is triggered by `account`."
					},
					"Unpaused(address)": {
						"details": "Emitted when the pause is lifted by `account`."
					}
				},
				"kind": "dev",
				"methods": {
					"owner()": {
						"details": "Returns the address of the current owner."
					},
					"paused()": {
						"details": "Returns true if the contract is paused, and false otherwise."
					},
					"renounceOwnership()": {
						"details": "Leaves the contract without owner. It will not be possible to call `onlyOwner` functions. Can only be called by the current owner. NOTE: Renouncing ownership will leave the contract without an owner, thereby disabling any functionality that is only available to the owner."
					},
					"transferOwnership(address)": {
						"details": "Transfers ownership of the contract to a new account (`newOwner`). Can only be called by the current owner."
					}
				},
				"title": "BurnManager",
				"version": 1
			},
			"evm": {
				"assembly": "    /* \"BurnManger.sol\":630:9041  contract BurnManager is Ownable, ReentrancyGuard, Pausable {... */\n  mstore(0x40, 0xa0)\n    /* \"BurnManger.sol\":807:822  0.0000001 ether */\n  0x174876e800\n    /* \"BurnManger.sol\":781:822  uint256 private burnFee = 0.0000001 ether */\n  0x03\n  sstore\n    /* \"BurnManger.sol\":856:858  10 */\n  0x0a\n    /* \"BurnManger.sol\":829:858  uint16 public burnAmount = 10 */\n  0x04\n  exp(0x0100, 0x00)\n  dup2\n  sload\n  dup2\n  0xffff\n  mul\n  not\n  and\n  swap1\n  dup4\n  0xffff\n  and\n  mul\n  or\n  swap1\n  sstore\n  pop\n    /* \"BurnManger.sol\":1684:1849  constructor(address _nftContract) Ownable(msg.sender) {... */\n  callvalue\n  dup1\n  iszero\n  tag_1\n  jumpi\n  0x00\n  dup1\n  revert\ntag_1:\n  pop\n  mload(0x40)\n  sub(codesize, bytecodeSize)\n  dup1\n  bytecodeSize\n  dup4\n  codecopy\n  dup2\n  dup2\n  add\n  0x40\n  mstore\n  dup2\n  add\n  swap1\n  tag_2\n  swap2\n  swap1\n  tag_3\n  jump\t// in\ntag_2:\n    /* \"BurnManger.sol\":1726:1736  msg.sender */\n  caller\n    /* \"@openzeppelin/contracts/access/Ownable.sol\":1297:1298  0 */\n  0x00\n    /* \"@openzeppelin/contracts/access/Ownable.sol\":1273:1299  initialOwner == address(0) */\n  0xffffffffffffffffffffffffffffffffffffffff\n  and\n    /* \"@openzeppelin/contracts/access/Ownable.sol\":1273:1285  initialOwner */\n  dup2\n    /* \"@openzeppelin/contracts/access/Ownable.sol\":1273:1299  initialOwner == address(0) */\n  0xffffffffffffffffffffffffffffffffffffffff\n  and\n  sub\n    /* \"@openzeppelin/contracts/access/Ownable.sol\":1269:1364  if (initialOwner == address(0)) {... */\n  tag_9\n  jumpi\n    /* \"@openzeppelin/contracts/access/Ownable.sol\":1350:1351  0 */\n  0x00\n    /* \"@openzeppelin/contracts/access/Ownable.sol\":1322:1353  OwnableInvalidOwner(address(0)) */\n  mload(0x40)\n  0x1e4fbdf700000000000000000000000000000000000000000000000000000000\n  dup2\n  mstore\n  0x04\n  add\n  tag_10\n  swap2\n  swap1\n  tag_11\n  jump\t// in\ntag_10:\n  mload(0x40)\n  dup1\n  swap2\n  sub\n  swap1\n  revert\n    /* \"@openzeppelin/contracts/access/Ownable.sol\":1269:1364  if (initialOwner == address(0)) {... */\ntag_9:\n    /* \"@openzeppelin/contracts/access/Ownable.sol\":1373:1405  _transferOwnership(initialOwner) */\n  tag_12\n    /* \"@openzeppelin/contracts/access/Ownable.sol\":1392:1404  initialOwner */\n  dup2\n    /* \"@openzeppelin/contracts/access/Ownable.sol\":1373:1391  _transferOwnership */\n  shl(0x20, tag_13)\n    /* \"@openzeppelin/contracts/access/Ownable.sol\":1373:1405  _transferOwnership(initialOwner) */\n  0x20\n  shr\n  jump\t// in\ntag_12:\n    /* \"@openzeppelin/contracts/access/Ownable.sol\":1225:1412  constructor(address initialOwner) {... */\n  pop\n    /* \"@openzeppelin/contracts/security/ReentrancyGuard.sol\":1716:1717  1 */\n  0x01\n    /* \"@openzeppelin/contracts/security/ReentrancyGuard.sol\":1821:1828  _status */\n  dup1\n    /* \"@openzeppelin/contracts/security/ReentrancyGuard.sol\":1821:1843  _status = _NOT_ENTERED */\n  dup2\n  swap1\n  sstore\n  pop\n    /* \"@openzeppelin/contracts/security/Pausable.sol\":1006:1011  false */\n  0x00\n    /* \"@openzeppelin/contracts/security/Pausable.sol\":996:1003  _paused */\n  0x02\n  0x00\n    /* \"@openzeppelin/contracts/security/Pausable.sol\":996:1011  _paused = false */\n  0x0100\n  exp\n  dup2\n  sload\n  dup2\n  0xff\n  mul\n  not\n  and\n  swap1\n  dup4\n  iszero\n  iszero\n  mul\n  or\n  swap1\n  sstore\n  pop\n    /* \"BurnManger.sol\":1777:1778  0 */\n  0x00\n    /* \"BurnManger.sol\":1753:1779  _nftContract == address(0) */\n  0xffffffffffffffffffffffffffffffffffffffff\n  and\n    /* \"BurnManger.sol\":1753:1765  _nftContract */\n  dup2\n    /* \"BurnManger.sol\":1753:1779  _nftContract == address(0) */\n  0xffffffffffffffffffffffffffffffffffffffff\n  and\n  sub\n    /* \"BurnManger.sol\":1749:1804  if (_nftContract == address(0)) revert InvalidTokenId() */\n  tag_17\n  jumpi\n    /* \"BurnManger.sol\":1788:1804  InvalidTokenId() */\n  mload(0x40)\n  0x3f6cc76800000000000000000000000000000000000000000000000000000000\n  dup2\n  mstore\n  0x04\n  add\n  mload(0x40)\n  dup1\n  swap2\n  sub\n  swap1\n  revert\n    /* \"BurnManger.sol\":1749:1804  if (_nftContract == address(0)) revert InvalidTokenId() */\ntag_17:\n    /* \"BurnManger.sol\":1829:1841  _nftContract */\n  dup1\n    /* \"BurnManger.sol\":1815:1841  nftContract = _nftContract */\n  0xffffffffffffffffffffffffffffffffffffffff\n  and\n  0x80\n  dup2\n  0xffffffffffffffffffffffffffffffffffffffff\n  and\n  dup2\n  mstore\n  pop\n  pop\n    /* \"BurnManger.sol\":1684:1849  constructor(address _nftContract) Ownable(msg.sender) {... */\n  pop\n    /* \"BurnManger.sol\":630:9041  contract BurnManager is Ownable, ReentrancyGuard, Pausable {... */\n  jump(tag_18)\n    /* \"@openzeppelin/contracts/access/Ownable.sol\":2912:3099  function _transferOwnership(address newOwner) internal virtual {... */\ntag_13:\n    /* \"@openzeppelin/contracts/access/Ownable.sol\":2985:3001  address oldOwner */\n  0x00\n    /* \"@openzeppelin/contracts/access/Ownable.sol\":3004:3010  _owner */\n  dup1\n  0x00\n  swap1\n  sload\n  swap1\n  0x0100\n  exp\n  swap1\n  div\n  0xffffffffffffffffffffffffffffffffffffffff\n  and\n    /* \"@openzeppelin/contracts/access/Ownable.sol\":2985:3010  address oldOwner = _owner */\n  swap1\n  pop\n    /* \"@openzeppelin/contracts/access/Ownable.sol\":3029:3037  newOwner */\n  dup2\n    /* \"@openzeppelin/contracts/access/Ownable.sol\":3020:3026  _owner */\n  0x00\n  dup1\n    /* \"@openzeppelin/contracts/access/Ownable.sol\":3020:3037  _owner = newOwner */\n  0x0100\n  exp\n  dup2\n  sload\n  dup2\n  0xffffffffffffffffffffffffffffffffffffffff\n  mul\n  not\n  and\n  swap1\n  dup4\n  0xffffffffffffffffffffffffffffffffffffffff\n  and\n  mul\n  or\n  swap1\n  sstore\n  pop\n    /* \"@openzeppelin/contracts/access/Ownable.sol\":3083:3091  newOwner */\n  dup2\n    /* \"@openzeppelin/contracts/access/Ownable.sol\":3052:3092  OwnershipTransferred(oldOwner, newOwner) */\n  0xffffffffffffffffffffffffffffffffffffffff\n  and\n    /* \"@openzeppelin/contracts/access/Ownable.sol\":3073:3081  oldOwner */\n  dup2\n    /* \"@openzeppelin/contracts/access/Ownable.sol\":3052:3092  OwnershipTransferred(oldOwner, newOwner) */\n  0xffffffffffffffffffffffffffffffffffffffff\n  and\n  0x8be0079c531659141344cd1fd0a4f28419497f9722a3daafe3b4186f6b6457e0\n  mload(0x40)\n  mload(0x40)\n  dup1\n  swap2\n  sub\n  swap1\n  log3\n    /* \"@openzeppelin/contracts/access/Ownable.sol\":2975:3099  {... */\n  pop\n    /* \"@openzeppelin/contracts/access/Ownable.sol\":2912:3099  function _transferOwnership(address newOwner) internal virtual {... */\n  pop\n  jump\t// out\n    /* \"#utility.yul\":88:205   */\ntag_21:\n    /* \"#utility.yul\":197:198   */\n  0x00\n    /* \"#utility.yul\":194:195   */\n  dup1\n    /* \"#utility.yul\":187:199   */\n  revert\n    /* \"#utility.yul\":334:460   */\ntag_23:\n    /* \"#utility.yul\":371:378   */\n  0x00\n    /* \"#utility.yul\":411:453   */\n  0xffffffffffffffffffffffffffffffffffffffff\n    /* \"#utility.yul\":404:409   */\n  dup3\n    /* \"#utility.yul\":400:454   */\n  and\n    /* \"#utility.yul\":389:454   */\n  swap1\n  pop\n    /* \"#utility.yul\":334:460   */\n  swap2\n  swap1\n  pop\n  jump\t// out\n    /* \"#utility.yul\":466:562   */\ntag_24:\n    /* \"#utility.yul\":503:510   */\n  0x00\n    /* \"#utility.yul\":532:556   */\n  tag_34\n    /* \"#utility.yul\":550:555   */\n  dup3\n    /* \"#utility.yul\":532:556   */\n  tag_23\n  jump\t// in\ntag_34:\n    /* \"#utility.yul\":521:556   */\n  swap1\n  pop\n    /* \"#utility.yul\":466:562   */\n  swap2\n  swap1\n  pop\n  jump\t// out\n    /* \"#utility.yul\":568:690   */\ntag_25:\n    /* \"#utility.yul\":641:665   */\n  tag_36\n    /* \"#utility.yul\":659:664   */\n  dup2\n    /* \"#utility.yul\":641:665   */\n  tag_24\n  jump\t// in\ntag_36:\n    /* \"#utility.yul\":634:639   */\n  dup2\n    /* \"#utility.yul\":631:666   */\n  eq\n    /* \"#utility.yul\":621:684   */\n  tag_37\n  jumpi\n    /* \"#utility.yul\":680:681   */\n  0x00\n    /* \"#utility.yul\":677:678   */\n  dup1\n    /* \"#utility.yul\":670:682   */\n  revert\n    /* \"#utility.yul\":621:684   */\ntag_37:\n    /* \"#utility.yul\":568:690   */\n  pop\n  jump\t// out\n    /* \"#utility.yul\":696:839   */\ntag_26:\n    /* \"#utility.yul\":753:758   */\n  0x00\n    /* \"#utility.yul\":784:790   */\n  dup2\n    /* \"#utility.yul\":778:791   */\n  mload\n    /* \"#utility.yul\":769:791   */\n  swap1\n  pop\n    /* \"#utility.yul\":800:833   */\n  tag_39\n    /* \"#utility.yul\":827:832   */\n  dup2\n    /* \"#utility.yul\":800:833   */\n  tag_25\n  jump\t// in\ntag_39:\n    /* \"#utility.yul\":696:839   */\n  swap3\n  swap2\n  pop\n  pop\n  jump\t// out\n    /* \"#utility.yul\":845:1196   */\ntag_3:\n    /* \"#utility.yul\":915:921   */\n  0x00\n    /* \"#utility.yul\":964:966   */\n  0x20\n    /* \"#utility.yul\":952:961   */\n  dup3\n    /* \"#utility.yul\":943:950   */\n  dup5\n    /* \"#utility.yul\":939:962   */\n  sub\n    /* \"#utility.yul\":935:967   */\n  slt\n    /* \"#utility.yul\":932:1051   */\n  iszero\n  tag_41\n  jumpi\n    /* \"#utility.yul\":970:1049   */\n  tag_42\n  tag_21\n  jump\t// in\ntag_42:\n    /* \"#utility.yul\":932:1051   */\ntag_41:\n    /* \"#utility.yul\":1090:1091   */\n  0x00\n    /* \"#utility.yul\":1115:1179   */\n  tag_43\n    /* \"#utility.yul\":1171:1178   */\n  dup5\n    /* \"#utility.yul\":1162:1168   */\n  dup3\n    /* \"#utility.yul\":1151:1160   */\n  dup6\n    /* \"#utility.yul\":1147:1169   */\n  add\n    /* \"#utility.yul\":1115:1179   */\n  tag_26\n  jump\t// in\ntag_43:\n    /* \"#utility.yul\":1105:1179   */\n  swap2\n  pop\n    /* \"#utility.yul\":1061:1189   */\n  pop\n    /* \"#utility.yul\":845:1196   */\n  swap3\n  swap2\n  pop\n  pop\n  jump\t// out\n    /* \"#utility.yul\":1202:1320   */\ntag_27:\n    /* \"#utility.yul\":1289:1313   */\n  tag_45\n    /* \"#utility.yul\":1307:1312   */\n  dup2\n    /* \"#utility.yul\":1289:1313   */\n  tag_24\n  jump\t// in\ntag_45:\n    /* \"#utility.yul\":1284:1287   */\n  dup3\n    /* \"#utility.yul\":1277:1314   */\n  mstore\n    /* \"#utility.yul\":1202:1320   */\n  pop\n  pop\n  jump\t// out\n    /* \"#utility.yul\":1326:1548   */\ntag_11:\n    /* \"#utility.yul\":1419:1423   */\n  0x00\n    /* \"#utility.yul\":1457:1459   */\n  0x20\n    /* \"#utility.yul\":1446:1455   */\n  dup3\n    /* \"#utility.yul\":1442:1460   */\n  add\n    /* \"#utility.yul\":1434:1460   */\n  swap1\n  pop\n    /* \"#utility.yul\":1470:1541   */\n  tag_47\n    /* \"#utility.yul\":1538:1539   */\n  0x00\n    /* \"#utility.yul\":1527:1536   */\n  dup4\n    /* \"#utility.yul\":1523:1540   */\n  add\n    /* \"#utility.yul\":1514:1520   */\n  dup5\n    /* \"#utility.yul\":1470:1541   */\n  tag_27\n  jump\t// in\ntag_47:\n    /* \"#utility.yul\":1326:1548   */\n  swap3\n  swap2\n  pop\n  pop\n  jump\t// out\n    /* \"BurnManger.sol\":630:9041  contract BurnManager is Ownable, ReentrancyGuard, Pausable {... */\ntag_18:\n  mload(0x80)\n  codecopy(0x00, dataOffset(sub_0), dataSize(sub_0))\n  0x00\n  assignImmutable(\"0x3ed49036aa79101305a3bfa1070275a6dbad22810edfdc0e3caad458e4a9b16b\")\n  return(0x00, dataSize(sub_0))\nstop\n\nsub_0: assembly {\n        /* \"BurnManger.sol\":630:9041  contract BurnManager is Ownable, ReentrancyGuard, Pausable {... */\n      mstore(0x40, 0x80)\n      jumpi(tag_1, lt(calldatasize, 0x04))\n      shr(0xe0, calldataload(0x00))\n      dup1\n      0x6f9fb98a\n      gt\n      tag_21\n      jumpi\n      dup1\n      0xaa4b10d1\n      gt\n      tag_22\n      jumpi\n      dup1\n      0xaa4b10d1\n      eq\n      tag_16\n      jumpi\n      dup1\n      0xc3d93ecd\n      eq\n      tag_17\n      jumpi\n      dup1\n      0xd4e0ed2e\n      eq\n      tag_18\n      jumpi\n      dup1\n      0xd56d229d\n      eq\n      tag_19\n      jumpi\n      dup1\n      0xf2fde38b\n      eq\n      tag_20\n      jumpi\n      jump(tag_2)\n    tag_22:\n      dup1\n      0x6f9fb98a\n      eq\n      tag_12\n      jumpi\n      dup1\n      0x715018a6\n      eq\n      tag_13\n      jumpi\n      dup1\n      0x8456cb59\n      eq\n      tag_14\n      jumpi\n      dup1\n      0x8da5cb5b\n      eq\n      tag_15\n      jumpi\n      jump(tag_2)\n    tag_21:\n      dup1\n      0x41989bef\n      gt\n      tag_23\n      jumpi\n      dup1\n      0x41989bef\n      eq\n      tag_7\n      jumpi\n      dup1\n      0x486a7e6b\n      eq\n      tag_8\n      jumpi\n      dup1\n      0x4bf2c7c9\n      eq\n      tag_9\n      jumpi\n      dup1\n      0x576aee51\n      eq\n      tag_10\n      jumpi\n      dup1\n      0x5c975abb\n      eq\n      tag_11\n      jumpi\n      jump(tag_2)\n    tag_23:\n      dup1\n      0x1deedfb5\n      eq\n      tag_3\n      jumpi\n      dup1\n      0x1df8473d\n      eq\n      tag_4\n      jumpi\n      dup1\n      0x24600fc3\n      eq\n      tag_5\n      jumpi\n      dup1\n      0x3f4ba83a\n      eq\n      tag_6\n      jumpi\n      jump(tag_2)\n    tag_1:\n      jumpi(tag_2, calldatasize)\n        /* \"BurnManger.sol\":8988:9030  revert(\"Direct ETH transfers not allowed\") */\n      mload(0x40)\n      0x08c379a000000000000000000000000000000000000000000000000000000000\n      dup2\n      mstore\n      0x04\n      add\n      tag_26\n      swap1\n      tag_27\n      jump\t// in\n    tag_26:\n      mload(0x40)\n      dup1\n      swap2\n      sub\n      swap1\n      revert\n        /* \"BurnManger.sol\":630:9041  contract BurnManager is Ownable, ReentrancyGuard, Pausable {... */\n    tag_2:\n      0x00\n      dup1\n      revert\n        /* \"BurnManger.sol\":7088:7236  function setBurnAmount(uint16 amount) external onlyOwner {... */\n    tag_3:\n      callvalue\n      dup1\n      iszero\n      tag_28\n      jumpi\n      0x00\n      dup1\n      revert\n    tag_28:\n      pop\n      tag_29\n      0x04\n      dup1\n      calldatasize\n      sub\n      dup2\n      add\n      swap1\n      tag_30\n      swap2\n      swap1\n      tag_31\n      jump\t// in\n    tag_30:\n      tag_32\n      jump\t// in\n    tag_29:\n      stop\n        /* \"BurnManger.sol\":7431:7612  function isUpdatedToken(uint32 tokenId) ... */\n    tag_4:\n      callvalue\n      dup1\n      iszero\n      tag_33\n      jumpi\n      0x00\n      dup1\n      revert\n    tag_33:\n      pop\n      tag_34\n      0x04\n      dup1\n      calldatasize\n      sub\n      dup2\n      add\n      swap1\n      tag_35\n      swap2\n      swap1\n      tag_36\n      jump\t// in\n    tag_35:\n      tag_37\n      jump\t// in\n    tag_34:\n      mload(0x40)\n      tag_38\n      swap2\n      swap1\n      tag_39\n      jump\t// in\n    tag_38:\n      mload(0x40)\n      dup1\n      swap2\n      sub\n      swap1\n      return\n        /* \"BurnManger.sol\":7877:8151  function withdrawFunds() external onlyOwner nonReentrant {... */\n    tag_5:\n      callvalue\n      dup1\n      iszero\n      tag_40\n      jumpi\n      0x00\n      dup1\n      revert\n    tag_40:\n      pop\n      tag_41\n      tag_42\n      jump\t// in\n    tag_41:\n      stop\n        /* \"BurnManger.sol\":8519:8586  function unpause() external onlyOwner {... */\n    tag_6:\n      callvalue\n      dup1\n      iszero\n      tag_43\n      jumpi\n      0x00\n      dup1\n      revert\n    tag_43:\n      pop\n      tag_44\n      tag_45\n      jump\t// in\n    tag_44:\n      stop\n        /* \"BurnManger.sol\":5290:7078  function createPremium(uint32[] calldata tokenIds, uint32 update_id)... */\n    tag_7:\n      tag_46\n      0x04\n      dup1\n      calldatasize\n      sub\n      dup2\n      add\n      swap1\n      tag_47\n      swap2\n      swap1\n      tag_48\n      jump\t// in\n    tag_47:\n      tag_49\n      jump\t// in\n    tag_46:\n      stop\n        /* \"BurnManger.sol\":829:858  uint16 public burnAmount = 10 */\n    tag_8:\n      callvalue\n      dup1\n      iszero\n      tag_50\n      jumpi\n      0x00\n      dup1\n      revert\n    tag_50:\n      pop\n      tag_51\n      tag_52\n      jump\t// in\n    tag_51:\n      mload(0x40)\n      tag_53\n      swap2\n      swap1\n      tag_54\n      jump\t// in\n    tag_53:\n      mload(0x40)\n      dup1\n      swap2\n      sub\n      swap1\n      return\n        /* \"BurnManger.sol\":7620:7869  function setBurnFee(uint256 _newFee) external onlyOwner {... */\n    tag_9:\n      callvalue\n      dup1\n      iszero\n      tag_55\n      jumpi\n      0x00\n      dup1\n      revert\n    tag_55:\n      pop\n      tag_56\n      0x04\n      dup1\n      calldatasize\n      sub\n      dup2\n      add\n      swap1\n      tag_57\n      swap2\n      swap1\n      tag_58\n      jump\t// in\n    tag_57:\n      tag_59\n      jump\t// in\n    tag_56:\n      stop\n        /* \"BurnManger.sol\":8810:8905  function getMaxBurnFee() external pure returns (uint256) {... */\n    tag_10:\n      callvalue\n      dup1\n      iszero\n      tag_60\n      jumpi\n      0x00\n      dup1\n      revert\n    tag_60:\n      pop\n      tag_61\n      tag_62\n      jump\t// in\n    tag_61:\n      mload(0x40)\n      tag_63\n      swap2\n      swap1\n      tag_64\n      jump\t// in\n    tag_63:\n      mload(0x40)\n      dup1\n      swap2\n      sub\n      swap1\n      return\n        /* \"@openzeppelin/contracts/security/Pausable.sol\":1615:1699  function paused() public view virtual returns (bool) {... */\n    tag_11:\n      callvalue\n      dup1\n      iszero\n      tag_65\n      jumpi\n      0x00\n      dup1\n      revert\n    tag_65:\n      pop\n      tag_66\n      tag_67\n      jump\t// in\n    tag_66:\n      mload(0x40)\n      tag_68\n      swap2\n      swap1\n      tag_39\n      jump\t// in\n    tag_68:\n      mload(0x40)\n      dup1\n      swap2\n      sub\n      swap1\n      return\n        /* \"BurnManger.sol\":8594:8703  function getContractBalance() external view returns (uint256) {... */\n    tag_12:\n      callvalue\n      dup1\n      iszero\n      tag_69\n      jumpi\n      0x00\n      dup1\n      revert\n    tag_69:\n      pop\n      tag_70\n      tag_71\n      jump\t// in\n    tag_70:\n      mload(0x40)\n      tag_72\n      swap2\n      swap1\n      tag_64\n      jump\t// in\n    tag_72:\n      mload(0x40)\n      dup1\n      swap2\n      sub\n      swap1\n      return\n        /* \"@openzeppelin/contracts/access/Ownable.sol\":2293:2394  function renounceOwnership() public virtual onlyOwner {... */\n    tag_13:\n      callvalue\n      dup1\n      iszero\n      tag_73\n      jumpi\n      0x00\n      dup1\n      revert\n    tag_73:\n      pop\n      tag_74\n      tag_75\n      jump\t// in\n    tag_74:\n      stop\n        /* \"BurnManger.sol\":8448:8511  function pause() external onlyOwner {... */\n    tag_14:\n      callvalue\n      dup1\n      iszero\n      tag_76\n      jumpi\n      0x00\n      dup1\n      revert\n    tag_76:\n      pop\n      tag_77\n      tag_78\n      jump\t// in\n    tag_77:\n      stop\n        /* \"@openzeppelin/contracts/access/Ownable.sol\":1638:1723  function owner() public view virtual returns (address) {... */\n    tag_15:\n      callvalue\n      dup1\n      iszero\n      tag_79\n      jumpi\n      0x00\n      dup1\n      revert\n    tag_79:\n      pop\n      tag_80\n      tag_81\n      jump\t// in\n    tag_80:\n      mload(0x40)\n      tag_82\n      swap2\n      swap1\n      tag_83\n      jump\t// in\n    tag_82:\n      mload(0x40)\n      dup1\n      swap2\n      sub\n      swap1\n      return\n        /* \"BurnManger.sol\":8711:8798  function getBurnFee() external view returns (uint256) {... */\n    tag_16:\n      callvalue\n      dup1\n      iszero\n      tag_84\n      jumpi\n      0x00\n      dup1\n      revert\n    tag_84:\n      pop\n      tag_85\n      tag_86\n      jump\t// in\n    tag_85:\n      mload(0x40)\n      tag_87\n      swap2\n      swap1\n      tag_64\n      jump\t// in\n    tag_87:\n      mload(0x40)\n      dup1\n      swap2\n      sub\n      swap1\n      return\n        /* \"BurnManger.sol\":7244:7423  function isTokenBurned(uint32 tokenId) ... */\n    tag_17:\n      callvalue\n      dup1\n      iszero\n      tag_88\n      jumpi\n      0x00\n      dup1\n      revert\n    tag_88:\n      pop\n      tag_89\n      0x04\n      dup1\n      calldatasize\n      sub\n      dup2\n      add\n      swap1\n      tag_90\n      swap2\n      swap1\n      tag_36\n      jump\t// in\n    tag_90:\n      tag_91\n      jump\t// in\n    tag_89:\n      mload(0x40)\n      tag_92\n      swap2\n      swap1\n      tag_39\n      jump\t// in\n    tag_92:\n      mload(0x40)\n      dup1\n      swap2\n      sub\n      swap1\n      return\n        /* \"BurnManger.sol\":8159:8440  function withdrawPartialFunds(uint256 _amount) external onlyOwner nonReentrant {... */\n    tag_18:\n      callvalue\n      dup1\n      iszero\n      tag_93\n      jumpi\n      0x00\n      dup1\n      revert\n    tag_93:\n      pop\n      tag_94\n      0x04\n      dup1\n      calldatasize\n      sub\n      dup2\n      add\n      swap1\n      tag_95\n      swap2\n      swap1\n      tag_58\n      jump\t// in\n    tag_95:\n      tag_96\n      jump\t// in\n    tag_94:\n      stop\n        /* \"BurnManger.sol\":738:774  address public immutable nftContract */\n    tag_19:\n      callvalue\n      dup1\n      iszero\n      tag_97\n      jumpi\n      0x00\n      dup1\n      revert\n    tag_97:\n      pop\n      tag_98\n      tag_99\n      jump\t// in\n    tag_98:\n      mload(0x40)\n      tag_100\n      swap2\n      swap1\n      tag_83\n      jump\t// in\n    tag_100:\n      mload(0x40)\n      dup1\n      swap2\n      sub\n      swap1\n      return\n        /* \"@openzeppelin/contracts/access/Ownable.sol\":2543:2758  function transferOwnership(address newOwner) public virtual onlyOwner {... */\n    tag_20:\n      callvalue\n      dup1\n      iszero\n      tag_101\n      jumpi\n      0x00\n      dup1\n      revert\n    tag_101:\n      pop\n      tag_102\n      0x04\n      dup1\n      calldatasize\n      sub\n      dup2\n      add\n      swap1\n      tag_103\n      swap2\n      swap1\n      tag_104\n      jump\t// in\n    tag_103:\n      tag_105\n      jump\t// in\n    tag_102:\n      stop\n        /* \"BurnManger.sol\":7088:7236  function setBurnAmount(uint16 amount) external onlyOwner {... */\n    tag_32:\n        /* \"@openzeppelin/contracts/access/Ownable.sol\":1531:1544  _checkOwner() */\n      tag_107\n        /* \"@openzeppelin/contracts/access/Ownable.sol\":1531:1542  _checkOwner */\n      tag_108\n        /* \"@openzeppelin/contracts/access/Ownable.sol\":1531:1544  _checkOwner() */\n      jump\t// in\n    tag_107:\n        /* \"BurnManger.sol\":7173:7174  0 */\n      0x00\n        /* \"BurnManger.sol\":7164:7170  amount */\n      dup2\n        /* \"BurnManger.sol\":7164:7174  amount > 0 */\n      0xffff\n      and\n      gt\n        /* \"BurnManger.sol\":7156:7198  require(amount > 0, \"Minimum must be > 0\") */\n      tag_110\n      jumpi\n      mload(0x40)\n      0x08c379a000000000000000000000000000000000000000000000000000000000\n      dup2\n      mstore\n      0x04\n      add\n      tag_111\n      swap1\n      tag_112\n      jump\t// in\n    tag_111:\n      mload(0x40)\n      dup1\n      swap2\n      sub\n      swap1\n      revert\n    tag_110:\n        /* \"BurnManger.sol\":7222:7228  amount */\n      dup1\n        /* \"BurnManger.sol\":7209:7219  burnAmount */\n      0x04\n      0x00\n        /* \"BurnManger.sol\":7209:7228  burnAmount = amount */\n      0x0100\n      exp\n      dup2\n      sload\n      dup2\n      0xffff\n      mul\n      not\n      and\n      swap1\n      dup4\n      0xffff\n      and\n      mul\n      or\n      swap1\n      sstore\n      pop\n        /* \"BurnManger.sol\":7088:7236  function setBurnAmount(uint16 amount) external onlyOwner {... */\n      pop\n      jump\t// out\n        /* \"BurnManger.sol\":7431:7612  function isUpdatedToken(uint32 tokenId) ... */\n    tag_37:\n        /* \"BurnManger.sol\":7556:7560  bool */\n      0x00\n        /* \"BurnManger.sol\":7528:7535  tokenId */\n      dup2\n        /* \"BurnManger.sol\":1565:1676  modifier validTokenId(uint256 tokenId) {... */\n      0xffffffff\n      and\n        /* \"BurnManger.sol\":1630:1631  0 */\n      0x00\n        /* \"BurnManger.sol\":1619:1626  tokenId */\n      dup2\n        /* \"BurnManger.sol\":1619:1631  tokenId == 0 */\n      sub\n        /* \"BurnManger.sol\":1615:1656  if (tokenId == 0) revert InvalidTokenId() */\n      tag_114\n      jumpi\n        /* \"BurnManger.sol\":1640:1656  InvalidTokenId() */\n      mload(0x40)\n      0x3f6cc76800000000000000000000000000000000000000000000000000000000\n      dup2\n      mstore\n      0x04\n      add\n      mload(0x40)\n      dup1\n      swap2\n      sub\n      swap1\n      revert\n        /* \"BurnManger.sol\":1615:1656  if (tokenId == 0) revert InvalidTokenId() */\n    tag_114:\n        /* \"BurnManger.sol\":7586:7595  isUpdated */\n      0x06\n        /* \"BurnManger.sol\":7586:7604  isUpdated[tokenId] */\n      0x00\n        /* \"BurnManger.sol\":7596:7603  tokenId */\n      dup5\n        /* \"BurnManger.sol\":7586:7604  isUpdated[tokenId] */\n      0xffffffff\n      and\n      0xffffffff\n      and\n      dup2\n      mstore\n      0x20\n      add\n      swap1\n      dup2\n      mstore\n      0x20\n      add\n      0x00\n      keccak256\n      0x00\n      swap1\n      sload\n      swap1\n      0x0100\n      exp\n      swap1\n      div\n      0xff\n      and\n        /* \"BurnManger.sol\":7579:7604  return isUpdated[tokenId] */\n      swap2\n      pop\n        /* \"BurnManger.sol\":7431:7612  function isUpdatedToken(uint32 tokenId) ... */\n      pop\n      swap2\n      swap1\n      pop\n      jump\t// out\n        /* \"BurnManger.sol\":7877:8151  function withdrawFunds() external onlyOwner nonReentrant {... */\n    tag_42:\n        /* \"@openzeppelin/contracts/access/Ownable.sol\":1531:1544  _checkOwner() */\n      tag_117\n        /* \"@openzeppelin/contracts/access/Ownable.sol\":1531:1542  _checkOwner */\n      tag_108\n        /* \"@openzeppelin/contracts/access/Ownable.sol\":1531:1544  _checkOwner() */\n      jump\t// in\n    tag_117:\n        /* \"@openzeppelin/contracts/security/ReentrancyGuard.sol\":2261:2282  _nonReentrantBefore() */\n      tag_119\n        /* \"@openzeppelin/contracts/security/ReentrancyGuard.sol\":2261:2280  _nonReentrantBefore */\n      tag_120\n        /* \"@openzeppelin/contracts/security/ReentrancyGuard.sol\":2261:2282  _nonReentrantBefore() */\n      jump\t// in\n    tag_119:\n        /* \"BurnManger.sol\":7945:7960  uint256 balance */\n      0x00\n        /* \"BurnManger.sol\":7963:7984  address(this).balance */\n      selfbalance\n        /* \"BurnManger.sol\":7945:7984  uint256 balance = address(this).balance */\n      swap1\n      pop\n        /* \"BurnManger.sol\":8010:8011  0 */\n      0x00\n        /* \"BurnManger.sol\":7999:8006  balance */\n      dup2\n        /* \"BurnManger.sol\":7999:8011  balance == 0 */\n      sub\n        /* \"BurnManger.sol\":7995:8039  if (balance == 0) revert NoFundsToWithdraw() */\n      tag_122\n      jumpi\n        /* \"BurnManger.sol\":8020:8039  NoFundsToWithdraw() */\n      mload(0x40)\n      0x67e3990d00000000000000000000000000000000000000000000000000000000\n      dup2\n      mstore\n      0x04\n      add\n      mload(0x40)\n      dup1\n      swap2\n      sub\n      swap1\n      revert\n        /* \"BurnManger.sol\":7995:8039  if (balance == 0) revert NoFundsToWithdraw() */\n    tag_122:\n        /* \"BurnManger.sol\":8060:8095  payable(owner()).sendValue(balance) */\n      tag_123\n        /* \"BurnManger.sol\":8087:8094  balance */\n      dup2\n        /* \"BurnManger.sol\":8068:8075  owner() */\n      tag_124\n        /* \"BurnManger.sol\":8068:8073  owner */\n      tag_81\n        /* \"BurnManger.sol\":8068:8075  owner() */\n      jump\t// in\n    tag_124:\n        /* \"BurnManger.sol\":8060:8086  payable(owner()).sendValue */\n      0xffffffffffffffffffffffffffffffffffffffff\n      and\n      tag_125\n      swap1\n        /* \"BurnManger.sol\":8060:8095  payable(owner()).sendValue(balance) */\n      swap2\n      swap1\n      0xffffffff\n      and\n      jump\t// in\n    tag_123:\n        /* \"BurnManger.sol\":8126:8133  owner() */\n      tag_126\n        /* \"BurnManger.sol\":8126:8131  owner */\n      tag_81\n        /* \"BurnManger.sol\":8126:8133  owner() */\n      jump\t// in\n    tag_126:\n        /* \"BurnManger.sol\":8111:8143  FundsWithdrawn(owner(), balance) */\n      0xffffffffffffffffffffffffffffffffffffffff\n      and\n      0xeaff4b37086828766ad3268786972c0cd24259d4c87a80f9d3963a3c3d999b0d\n        /* \"BurnManger.sol\":8135:8142  balance */\n      dup3\n        /* \"BurnManger.sol\":8111:8143  FundsWithdrawn(owner(), balance) */\n      mload(0x40)\n      tag_127\n      swap2\n      swap1\n      tag_64\n      jump\t// in\n    tag_127:\n      mload(0x40)\n      dup1\n      swap2\n      sub\n      swap1\n      log2\n        /* \"BurnManger.sol\":7934:8151  {... */\n      pop\n        /* \"@openzeppelin/contracts/security/ReentrancyGuard.sol\":2303:2323  _nonReentrantAfter() */\n      tag_128\n        /* \"@openzeppelin/contracts/security/ReentrancyGuard.sol\":2303:2321  _nonReentrantAfter */\n      tag_129\n        /* \"@openzeppelin/contracts/security/ReentrancyGuard.sol\":2303:2323  _nonReentrantAfter() */\n      jump\t// in\n    tag_128:\n        /* \"BurnManger.sol\":7877:8151  function withdrawFunds() external onlyOwner nonReentrant {... */\n      jump\t// out\n        /* \"BurnManger.sol\":8519:8586  function unpause() external onlyOwner {... */\n    tag_45:\n        /* \"@openzeppelin/contracts/access/Ownable.sol\":1531:1544  _checkOwner() */\n      tag_131\n        /* \"@openzeppelin/contracts/access/Ownable.sol\":1531:1542  _checkOwner */\n      tag_108\n        /* \"@openzeppelin/contracts/access/Ownable.sol\":1531:1544  _checkOwner() */\n      jump\t// in\n    tag_131:\n        /* \"BurnManger.sol\":8568:8578  _unpause() */\n      tag_133\n        /* \"BurnManger.sol\":8568:8576  _unpause */\n      tag_134\n        /* \"BurnManger.sol\":8568:8578  _unpause() */\n      jump\t// in\n    tag_133:\n        /* \"BurnManger.sol\":8519:8586  function unpause() external onlyOwner {... */\n      jump\t// out\n        /* \"BurnManger.sol\":5290:7078  function createPremium(uint32[] calldata tokenIds, uint32 update_id)... */\n    tag_49:\n        /* \"@openzeppelin/contracts/security/ReentrancyGuard.sol\":2261:2282  _nonReentrantBefore() */\n      tag_136\n        /* \"@openzeppelin/contracts/security/ReentrancyGuard.sol\":2261:2280  _nonReentrantBefore */\n      tag_120\n        /* \"@openzeppelin/contracts/security/ReentrancyGuard.sol\":2261:2282  _nonReentrantBefore() */\n      jump\t// in\n    tag_136:\n        /* \"@openzeppelin/contracts/security/Pausable.sol\":1239:1258  _requireNotPaused() */\n      tag_138\n        /* \"@openzeppelin/contracts/security/Pausable.sol\":1239:1256  _requireNotPaused */\n      tag_139\n        /* \"@openzeppelin/contracts/security/Pausable.sol\":1239:1258  _requireNotPaused() */\n      jump\t// in\n    tag_138:\n        /* \"BurnManger.sol\":5455:5472  uint32 tokenCount */\n      0x00\n        /* \"BurnManger.sol\":5482:5490  tokenIds */\n      dup4\n      dup4\n        /* \"BurnManger.sol\":5482:5497  tokenIds.length */\n      swap1\n      pop\n        /* \"BurnManger.sol\":5455:5498  uint32 tokenCount = uint32(tokenIds.length) */\n      swap1\n      pop\n        /* \"BurnManger.sol\":5527:5528  0 */\n      0x00\n        /* \"BurnManger.sol\":5513:5523  tokenCount */\n      dup2\n        /* \"BurnManger.sol\":5513:5528  tokenCount == 0 */\n      0xffffffff\n      and\n      sub\n        /* \"BurnManger.sol\":5509:5558  if (tokenCount == 0) revert(\"No tokens provided\") */\n      tag_141\n      jumpi\n        /* \"BurnManger.sol\":5530:5558  revert(\"No tokens provided\") */\n      mload(0x40)\n      0x08c379a000000000000000000000000000000000000000000000000000000000\n      dup2\n      mstore\n      0x04\n      add\n      tag_142\n      swap1\n      tag_143\n      jump\t// in\n    tag_142:\n      mload(0x40)\n      dup1\n      swap2\n      sub\n      swap1\n      revert\n        /* \"BurnManger.sol\":5509:5558  if (tokenCount == 0) revert(\"No tokens provided\") */\n    tag_141:\n        /* \"BurnManger.sol\":5587:5597  burnAmount */\n      0x04\n      0x00\n      swap1\n      sload\n      swap1\n      0x0100\n      exp\n      swap1\n      div\n      0xffff\n      and\n        /* \"BurnManger.sol\":5573:5597  tokenCount != burnAmount */\n      0xffff\n      and\n        /* \"BurnManger.sol\":5573:5583  tokenCount */\n      dup2\n        /* \"BurnManger.sol\":5573:5597  tokenCount != burnAmount */\n      0xffffffff\n      and\n      eq\n        /* \"BurnManger.sol\":5569:5639  if (tokenCount != burnAmount) revert(\"Burn the required token amount\") */\n      tag_144\n      jumpi\n        /* \"BurnManger.sol\":5599:5639  revert(\"Burn the required token amount\") */\n      mload(0x40)\n      0x08c379a000000000000000000000000000000000000000000000000000000000\n      dup2\n      mstore\n      0x04\n      add\n      tag_145\n      swap1\n      tag_146\n      jump\t// in\n    tag_145:\n      mload(0x40)\n      dup1\n      swap2\n      sub\n      swap1\n      revert\n        /* \"BurnManger.sol\":5569:5639  if (tokenCount != burnAmount) revert(\"Burn the required token amount\") */\n    tag_144:\n        /* \"BurnManger.sol\":5652:5668  uint256 totalFee */\n      0x00\n        /* \"BurnManger.sol\":5671:5678  burnFee */\n      sload(0x03)\n        /* \"BurnManger.sol\":5652:5678  uint256 totalFee = burnFee */\n      swap1\n      pop\n        /* \"BurnManger.sol\":5705:5713  totalFee */\n      dup1\n        /* \"BurnManger.sol\":5693:5702  msg.value */\n      callvalue\n        /* \"BurnManger.sol\":5693:5713  msg.value < totalFee */\n      lt\n        /* \"BurnManger.sol\":5689:5745  if (msg.value < totalFee) revert(\"Insufficient payment\") */\n      iszero\n      tag_147\n      jumpi\n        /* \"BurnManger.sol\":5715:5745  revert(\"Insufficient payment\") */\n      mload(0x40)\n      0x08c379a000000000000000000000000000000000000000000000000000000000\n      dup2\n      mstore\n      0x04\n      add\n      tag_148\n      swap1\n      tag_149\n      jump\t// in\n    tag_148:\n      mload(0x40)\n      dup1\n      swap2\n      sub\n      swap1\n      revert\n        /* \"BurnManger.sol\":5689:5745  if (msg.value < totalFee) revert(\"Insufficient payment\") */\n    tag_147:\n        /* \"BurnManger.sol\":5758:5777  IERC721Burnable nft */\n      0x00\n        /* \"BurnManger.sol\":5796:5807  nftContract */\n      immutable(\"0x3ed49036aa79101305a3bfa1070275a6dbad22810edfdc0e3caad458e4a9b16b\")\n        /* \"BurnManger.sol\":5758:5808  IERC721Burnable nft = IERC721Burnable(nftContract) */\n      swap1\n      pop\n        /* \"BurnManger.sol\":5888:5898  msg.sender */\n      caller\n        /* \"BurnManger.sol\":5862:5898  nft.ownerOf(update_id) != msg.sender */\n      0xffffffffffffffffffffffffffffffffffffffff\n      and\n        /* \"BurnManger.sol\":5862:5865  nft */\n      dup2\n        /* \"BurnManger.sol\":5862:5873  nft.ownerOf */\n      0xffffffffffffffffffffffffffffffffffffffff\n      and\n      0x6352211e\n        /* \"BurnManger.sol\":5874:5883  update_id */\n      dup7\n        /* \"BurnManger.sol\":5862:5884  nft.ownerOf(update_id) */\n      mload(0x40)\n      dup3\n      0xffffffff\n      and\n      0xe0\n      shl\n      dup2\n      mstore\n      0x04\n      add\n      tag_150\n      swap2\n      swap1\n      tag_151\n      jump\t// in\n    tag_150:\n      0x20\n      mload(0x40)\n      dup1\n      dup4\n      sub\n      dup2\n      dup7\n      gas\n      staticcall\n      iszero\n      dup1\n      iszero\n      tag_153\n      jumpi\n      returndatasize\n      0x00\n      dup1\n      returndatacopy\n      revert(0x00, returndatasize)\n    tag_153:\n      pop\n      pop\n      pop\n      pop\n      mload(0x40)\n      returndatasize\n      not(0x1f)\n      0x1f\n      dup3\n      add\n      and\n      dup3\n      add\n      dup1\n      0x40\n      mstore\n      pop\n      dup2\n      add\n      swap1\n      tag_154\n      swap2\n      swap1\n      tag_155\n      jump\t// in\n    tag_154:\n        /* \"BurnManger.sol\":5862:5898  nft.ownerOf(update_id) != msg.sender */\n      0xffffffffffffffffffffffffffffffffffffffff\n      and\n      eq\n        /* \"BurnManger.sol\":5858:5925  if (nft.ownerOf(update_id) != msg.sender) revert(\"Not token owner\") */\n      tag_156\n      jumpi\n        /* \"BurnManger.sol\":5900:5925  revert(\"Not token owner\") */\n      mload(0x40)\n      0x08c379a000000000000000000000000000000000000000000000000000000000\n      dup2\n      mstore\n      0x04\n      add\n      tag_157\n      swap1\n      tag_158\n      jump\t// in\n    tag_157:\n      mload(0x40)\n      dup1\n      swap2\n      sub\n      swap1\n      revert\n        /* \"BurnManger.sol\":5858:5925  if (nft.ownerOf(update_id) != msg.sender) revert(\"Not token owner\") */\n    tag_156:\n        /* \"BurnManger.sol\":5940:5948  isBurned */\n      0x05\n        /* \"BurnManger.sol\":5940:5959  isBurned[update_id] */\n      0x00\n        /* \"BurnManger.sol\":5949:5958  update_id */\n      dup6\n        /* \"BurnManger.sol\":5940:5959  isBurned[update_id] */\n      0xffffffff\n      and\n      0xffffffff\n      and\n      dup2\n      mstore\n      0x20\n      add\n      swap1\n      dup2\n      mstore\n      0x20\n      add\n      0x00\n      keccak256\n      0x00\n      swap1\n      sload\n      swap1\n      0x0100\n      exp\n      swap1\n      div\n      0xff\n      and\n        /* \"BurnManger.sol\":5936:5991  if (isBurned[update_id]) revert(\"Token already burned\") */\n      iszero\n      tag_159\n      jumpi\n        /* \"BurnManger.sol\":5961:5991  revert(\"Token already burned\") */\n      mload(0x40)\n      0x08c379a000000000000000000000000000000000000000000000000000000000\n      dup2\n      mstore\n      0x04\n      add\n      tag_160\n      swap1\n      tag_161\n      jump\t// in\n    tag_160:\n      mload(0x40)\n      dup1\n      swap2\n      sub\n      swap1\n      revert\n        /* \"BurnManger.sol\":5936:5991  if (isBurned[update_id]) revert(\"Token already burned\") */\n    tag_159:\n        /* \"BurnManger.sol\":6006:6015  isUpdated */\n      0x06\n        /* \"BurnManger.sol\":6006:6026  isUpdated[update_id] */\n      0x00\n        /* \"BurnManger.sol\":6016:6025  update_id */\n      dup6\n        /* \"BurnManger.sol\":6006:6026  isUpdated[update_id] */\n      0xffffffff\n      and\n      0xffffffff\n      and\n      dup2\n      mstore\n      0x20\n      add\n      swap1\n      dup2\n      mstore\n      0x20\n      add\n      0x00\n      keccak256\n      0x00\n      swap1\n      sload\n      swap1\n      0x0100\n      exp\n      swap1\n      div\n      0xff\n      and\n        /* \"BurnManger.sol\":6002:6059  if (isUpdated[update_id]) revert(\"Token already updated\") */\n      iszero\n      tag_162\n      jumpi\n        /* \"BurnManger.sol\":6028:6059  revert(\"Token already updated\") */\n      mload(0x40)\n      0x08c379a000000000000000000000000000000000000000000000000000000000\n      dup2\n      mstore\n      0x04\n      add\n      tag_163\n      swap1\n      tag_164\n      jump\t// in\n    tag_163:\n      mload(0x40)\n      dup1\n      swap2\n      sub\n      swap1\n      revert\n        /* \"BurnManger.sol\":6002:6059  if (isUpdated[update_id]) revert(\"Token already updated\") */\n    tag_162:\n        /* \"BurnManger.sol\":6126:6134  uint32 i */\n      0x00\n        /* \"BurnManger.sol\":6121:6449  for (uint32 i = 0; i < tokenCount; i++) {... */\n    tag_165:\n        /* \"BurnManger.sol\":6144:6154  tokenCount */\n      dup4\n        /* \"BurnManger.sol\":6140:6154  i < tokenCount */\n      0xffffffff\n      and\n        /* \"BurnManger.sol\":6140:6141  i */\n      dup2\n        /* \"BurnManger.sol\":6140:6154  i < tokenCount */\n      0xffffffff\n      and\n      lt\n        /* \"BurnManger.sol\":6121:6449  for (uint32 i = 0; i < tokenCount; i++) {... */\n      iszero\n      tag_166\n      jumpi\n        /* \"BurnManger.sol\":6176:6190  uint32 tokenId */\n      0x00\n        /* \"BurnManger.sol\":6193:6201  tokenIds */\n      dup8\n      dup8\n        /* \"BurnManger.sol\":6202:6203  i */\n      dup4\n        /* \"BurnManger.sol\":6193:6204  tokenIds[i] */\n      0xffffffff\n      and\n      dup2\n      dup2\n      lt\n      tag_168\n      jumpi\n      tag_169\n      tag_170\n      jump\t// in\n    tag_169:\n    tag_168:\n      swap1\n      pop\n      0x20\n      mul\n      add\n      0x20\n      dup2\n      add\n      swap1\n      tag_171\n      swap2\n      swap1\n      tag_36\n      jump\t// in\n    tag_171:\n        /* \"BurnManger.sol\":6176:6204  uint32 tokenId = tokenIds[i] */\n      swap1\n      pop\n        /* \"BurnManger.sol\":6234:6243  update_id */\n      dup6\n        /* \"BurnManger.sol\":6223:6243  tokenId == update_id */\n      0xffffffff\n      and\n        /* \"BurnManger.sol\":6223:6230  tokenId */\n      dup2\n        /* \"BurnManger.sol\":6223:6243  tokenId == update_id */\n      0xffffffff\n      and\n      sub\n        /* \"BurnManger.sol\":6219:6289  if (tokenId == update_id) revert(\"update_id cannot be among tokenIds\") */\n      tag_172\n      jumpi\n        /* \"BurnManger.sol\":6245:6289  revert(\"update_id cannot be among tokenIds\") */\n      mload(0x40)\n      0x08c379a000000000000000000000000000000000000000000000000000000000\n      dup2\n      mstore\n      0x04\n      add\n      tag_173\n      swap1\n      tag_174\n      jump\t// in\n    tag_173:\n      mload(0x40)\n      dup1\n      swap2\n      sub\n      swap1\n      revert\n        /* \"BurnManger.sol\":6219:6289  if (tokenId == update_id) revert(\"update_id cannot be among tokenIds\") */\n    tag_172:\n        /* \"BurnManger.sol\":6308:6316  isBurned */\n      0x05\n        /* \"BurnManger.sol\":6308:6325  isBurned[tokenId] */\n      0x00\n        /* \"BurnManger.sol\":6317:6324  tokenId */\n      dup3\n        /* \"BurnManger.sol\":6308:6325  isBurned[tokenId] */\n      0xffffffff\n      and\n      0xffffffff\n      and\n      dup2\n      mstore\n      0x20\n      add\n      swap1\n      dup2\n      mstore\n      0x20\n      add\n      0x00\n      keccak256\n      0x00\n      swap1\n      sload\n      swap1\n      0x0100\n      exp\n      swap1\n      div\n      0xff\n      and\n        /* \"BurnManger.sol\":6304:6357  if (isBurned[tokenId]) revert(\"Token already burned\") */\n      iszero\n      tag_175\n      jumpi\n        /* \"BurnManger.sol\":6327:6357  revert(\"Token already burned\") */\n      mload(0x40)\n      0x08c379a000000000000000000000000000000000000000000000000000000000\n      dup2\n      mstore\n      0x04\n      add\n      tag_176\n      swap1\n      tag_161\n      jump\t// in\n    tag_176:\n      mload(0x40)\n      dup1\n      swap2\n      sub\n      swap1\n      revert\n        /* \"BurnManger.sol\":6304:6357  if (isBurned[tokenId]) revert(\"Token already burned\") */\n    tag_175:\n        /* \"BurnManger.sol\":6400:6410  msg.sender */\n      caller\n        /* \"BurnManger.sol\":6376:6410  nft.ownerOf(tokenId) != msg.sender */\n      0xffffffffffffffffffffffffffffffffffffffff\n      and\n        /* \"BurnManger.sol\":6376:6379  nft */\n      dup4\n        /* \"BurnManger.sol\":6376:6387  nft.ownerOf */\n      0xffffffffffffffffffffffffffffffffffffffff\n      and\n      0x6352211e\n        /* \"BurnManger.sol\":6388:6395  tokenId */\n      dup4\n        /* \"BurnManger.sol\":6376:6396  nft.ownerOf(tokenId) */\n      mload(0x40)\n      dup3\n      0xffffffff\n      and\n      0xe0\n      shl\n      dup2\n      mstore\n      0x04\n      add\n      tag_177\n      swap2\n      swap1\n      tag_151\n      jump\t// in\n    tag_177:\n      0x20\n      mload(0x40)\n      dup1\n      dup4\n      sub\n      dup2\n      dup7\n      gas\n      staticcall\n      iszero\n      dup1\n      iszero\n      tag_179\n      jumpi\n      returndatasize\n      0x00\n      dup1\n      returndatacopy\n      revert(0x00, returndatasize)\n    tag_179:\n      pop\n      pop\n      pop\n      pop\n      mload(0x40)\n      returndatasize\n      not(0x1f)\n      0x1f\n      dup3\n      add\n      and\n      dup3\n      add\n      dup1\n      0x40\n      mstore\n      pop\n      dup2\n      add\n      swap1\n      tag_180\n      swap2\n      swap1\n      tag_155\n      jump\t// in\n    tag_180:\n        /* \"BurnManger.sol\":6376:6410  nft.ownerOf(tokenId) != msg.sender */\n      0xffffffffffffffffffffffffffffffffffffffff\n      and\n      eq\n        /* \"BurnManger.sol\":6372:6437  if (nft.ownerOf(tokenId) != msg.sender) revert(\"Not token owner\") */\n      tag_181\n      jumpi\n        /* \"BurnManger.sol\":6412:6437  revert(\"Not token owner\") */\n      mload(0x40)\n      0x08c379a000000000000000000000000000000000000000000000000000000000\n      dup2\n      mstore\n      0x04\n      add\n      tag_182\n      swap1\n      tag_158\n      jump\t// in\n    tag_182:\n      mload(0x40)\n      dup1\n      swap2\n      sub\n      swap1\n      revert\n        /* \"BurnManger.sol\":6372:6437  if (nft.ownerOf(tokenId) != msg.sender) revert(\"Not token owner\") */\n    tag_181:\n        /* \"BurnManger.sol\":6161:6449  {... */\n      pop\n        /* \"BurnManger.sol\":6156:6159  i++ */\n      dup1\n      dup1\n      0x01\n      add\n      swap2\n      pop\n      pop\n        /* \"BurnManger.sol\":6121:6449  for (uint32 i = 0; i < tokenCount; i++) {... */\n      jump(tag_165)\n    tag_166:\n      pop\n        /* \"BurnManger.sol\":6520:6524  true */\n      0x01\n        /* \"BurnManger.sol\":6497:6506  isUpdated */\n      0x06\n        /* \"BurnManger.sol\":6497:6517  isUpdated[update_id] */\n      0x00\n        /* \"BurnManger.sol\":6507:6516  update_id */\n      dup7\n        /* \"BurnManger.sol\":6497:6517  isUpdated[update_id] */\n      0xffffffff\n      and\n      0xffffffff\n      and\n      dup2\n      mstore\n      0x20\n      add\n      swap1\n      dup2\n      mstore\n      0x20\n      add\n      0x00\n      keccak256\n      0x00\n        /* \"BurnManger.sol\":6497:6524  isUpdated[update_id] = true */\n      0x0100\n      exp\n      dup2\n      sload\n      dup2\n      0xff\n      mul\n      not\n      and\n      swap1\n      dup4\n      iszero\n      iszero\n      mul\n      or\n      swap1\n      sstore\n      pop\n        /* \"BurnManger.sol\":6540:6548  uint32 i */\n      0x00\n        /* \"BurnManger.sol\":6535:6701  for (uint32 i = 0; i < tokenCount; i++) {... */\n    tag_183:\n        /* \"BurnManger.sol\":6558:6568  tokenCount */\n      dup4\n        /* \"BurnManger.sol\":6554:6568  i < tokenCount */\n      0xffffffff\n      and\n        /* \"BurnManger.sol\":6554:6555  i */\n      dup2\n        /* \"BurnManger.sol\":6554:6568  i < tokenCount */\n      0xffffffff\n      and\n      lt\n        /* \"BurnManger.sol\":6535:6701  for (uint32 i = 0; i < tokenCount; i++) {... */\n      iszero\n      tag_184\n      jumpi\n        /* \"BurnManger.sol\":6590:6604  uint32 tokenId */\n      0x00\n        /* \"BurnManger.sol\":6607:6615  tokenIds */\n      dup8\n      dup8\n        /* \"BurnManger.sol\":6616:6617  i */\n      dup4\n        /* \"BurnManger.sol\":6607:6618  tokenIds[i] */\n      0xffffffff\n      and\n      dup2\n      dup2\n      lt\n      tag_186\n      jumpi\n      tag_187\n      tag_170\n      jump\t// in\n    tag_187:\n    tag_186:\n      swap1\n      pop\n      0x20\n      mul\n      add\n      0x20\n      dup2\n      add\n      swap1\n      tag_188\n      swap2\n      swap1\n      tag_36\n      jump\t// in\n    tag_188:\n        /* \"BurnManger.sol\":6590:6618  uint32 tokenId = tokenIds[i] */\n      swap1\n      pop\n        /* \"BurnManger.sol\":6653:6657  true */\n      0x01\n        /* \"BurnManger.sol\":6633:6641  isBurned */\n      0x05\n        /* \"BurnManger.sol\":6633:6650  isBurned[tokenId] */\n      0x00\n        /* \"BurnManger.sol\":6642:6649  tokenId */\n      dup4\n        /* \"BurnManger.sol\":6633:6650  isBurned[tokenId] */\n      0xffffffff\n      and\n      0xffffffff\n      and\n      dup2\n      mstore\n      0x20\n      add\n      swap1\n      dup2\n      mstore\n      0x20\n      add\n      0x00\n      keccak256\n      0x00\n        /* \"BurnManger.sol\":6633:6657  isBurned[tokenId] = true */\n      0x0100\n      exp\n      dup2\n      sload\n      dup2\n      0xff\n      mul\n      not\n      and\n      swap1\n      dup4\n      iszero\n      iszero\n      mul\n      or\n      swap1\n      sstore\n      pop\n        /* \"BurnManger.sol\":6672:6675  nft */\n      dup3\n        /* \"BurnManger.sol\":6672:6680  nft.burn */\n      0xffffffffffffffffffffffffffffffffffffffff\n      and\n      0x42966c68\n        /* \"BurnManger.sol\":6681:6688  tokenId */\n      dup3\n        /* \"BurnManger.sol\":6672:6689  nft.burn(tokenId) */\n      mload(0x40)\n      dup3\n      0xffffffff\n      and\n      0xe0\n      shl\n      dup2\n      mstore\n      0x04\n      add\n      tag_189\n      swap2\n      swap1\n      tag_151\n      jump\t// in\n    tag_189:\n      0x00\n      mload(0x40)\n      dup1\n      dup4\n      sub\n      dup2\n      0x00\n      dup8\n      dup1\n      extcodesize\n      iszero\n      dup1\n      iszero\n      tag_190\n      jumpi\n      0x00\n      dup1\n      revert\n    tag_190:\n      pop\n      gas\n      call\n      iszero\n      dup1\n      iszero\n      tag_192\n      jumpi\n      returndatasize\n      0x00\n      dup1\n      returndatacopy\n      revert(0x00, returndatasize)\n    tag_192:\n      pop\n      pop\n      pop\n      pop\n        /* \"BurnManger.sol\":6575:6701  {... */\n      pop\n        /* \"BurnManger.sol\":6570:6573  i++ */\n      dup1\n      dup1\n      0x01\n      add\n      swap2\n      pop\n      pop\n        /* \"BurnManger.sol\":6535:6701  for (uint32 i = 0; i < tokenCount; i++) {... */\n      jump(tag_183)\n    tag_184:\n      pop\n        /* \"BurnManger.sol\":6812:6821  update_id */\n      dup4\n        /* \"BurnManger.sol\":6767:6822  TokensBurned(msg.sender, tokenIds, totalFee, update_id) */\n      0xffffffff\n      and\n        /* \"BurnManger.sol\":6780:6790  msg.sender */\n      caller\n        /* \"BurnManger.sol\":6767:6822  TokensBurned(msg.sender, tokenIds, totalFee, update_id) */\n      0xffffffffffffffffffffffffffffffffffffffff\n      and\n      0x26ccc16f7fcb4f9c2582bcba8e2aa8bfc16139ad280d11913ccfb99777825ee0\n        /* \"BurnManger.sol\":6792:6800  tokenIds */\n      dup9\n      dup9\n        /* \"BurnManger.sol\":6802:6810  totalFee */\n      dup7\n        /* \"BurnManger.sol\":6767:6822  TokensBurned(msg.sender, tokenIds, totalFee, update_id) */\n      mload(0x40)\n      tag_193\n      swap4\n      swap3\n      swap2\n      swap1\n      tag_194\n      jump\t// in\n    tag_193:\n      mload(0x40)\n      dup1\n      swap2\n      sub\n      swap1\n      log3\n        /* \"BurnManger.sol\":6866:6880  uint256 excess */\n      0x00\n        /* \"BurnManger.sol\":6895:6903  totalFee */\n      dup3\n        /* \"BurnManger.sol\":6883:6892  msg.value */\n      callvalue\n        /* \"BurnManger.sol\":6883:6903  msg.value - totalFee */\n      tag_195\n      swap2\n      swap1\n      tag_196\n      jump\t// in\n    tag_195:\n        /* \"BurnManger.sol\":6866:6903  uint256 excess = msg.value - totalFee */\n      swap1\n      pop\n        /* \"BurnManger.sol\":6927:6928  0 */\n      0x00\n        /* \"BurnManger.sol\":6918:6924  excess */\n      dup2\n        /* \"BurnManger.sol\":6918:6928  excess > 0 */\n      gt\n        /* \"BurnManger.sol\":6914:7071  if (excess > 0) {... */\n      iszero\n      tag_197\n      jumpi\n        /* \"BurnManger.sol\":6946:6958  bool success */\n      0x00\n        /* \"BurnManger.sol\":6972:6982  msg.sender */\n      caller\n        /* \"BurnManger.sol\":6964:6988  payable(msg.sender).call */\n      0xffffffffffffffffffffffffffffffffffffffff\n      and\n        /* \"BurnManger.sol\":6996:7002  excess */\n      dup3\n        /* \"BurnManger.sol\":6964:7007  payable(msg.sender).call{value: excess}(\"\") */\n      mload(0x40)\n      tag_198\n      swap1\n      tag_199\n      jump\t// in\n    tag_198:\n      0x00\n      mload(0x40)\n      dup1\n      dup4\n      sub\n      dup2\n      dup6\n      dup8\n      gas\n      call\n      swap3\n      pop\n      pop\n      pop\n      returndatasize\n      dup1\n      0x00\n      dup2\n      eq\n      tag_202\n      jumpi\n      mload(0x40)\n      swap2\n      pop\n      and(add(returndatasize, 0x3f), not(0x1f))\n      dup3\n      add\n      0x40\n      mstore\n      returndatasize\n      dup3\n      mstore\n      returndatasize\n      0x00\n      0x20\n      dup5\n      add\n      returndatacopy\n      jump(tag_201)\n    tag_202:\n      0x60\n      swap2\n      pop\n    tag_201:\n      pop\n        /* \"BurnManger.sol\":6945:7007  (bool success, ) = payable(msg.sender).call{value: excess}(\"\") */\n      pop\n      swap1\n      pop\n        /* \"BurnManger.sol\":7027:7034  success */\n      dup1\n        /* \"BurnManger.sol\":7022:7059  if (!success) revert(\"Refund failed\") */\n      tag_203\n      jumpi\n        /* \"BurnManger.sol\":7036:7059  revert(\"Refund failed\") */\n      mload(0x40)\n      0x08c379a000000000000000000000000000000000000000000000000000000000\n      dup2\n      mstore\n      0x04\n      add\n      tag_204\n      swap1\n      tag_205\n      jump\t// in\n    tag_204:\n      mload(0x40)\n      dup1\n      swap2\n      sub\n      swap1\n      revert\n        /* \"BurnManger.sol\":7022:7059  if (!success) revert(\"Refund failed\") */\n    tag_203:\n        /* \"BurnManger.sol\":6930:7071  {... */\n      pop\n        /* \"BurnManger.sol\":6914:7071  if (excess > 0) {... */\n    tag_197:\n        /* \"BurnManger.sol\":5444:7078  {... */\n      pop\n      pop\n      pop\n      pop\n        /* \"@openzeppelin/contracts/security/ReentrancyGuard.sol\":2303:2323  _nonReentrantAfter() */\n      tag_206\n        /* \"@openzeppelin/contracts/security/ReentrancyGuard.sol\":2303:2321  _nonReentrantAfter */\n      tag_129\n        /* \"@openzeppelin/contracts/security/ReentrancyGuard.sol\":2303:2323  _nonReentrantAfter() */\n      jump\t// in\n    tag_206:\n        /* \"BurnManger.sol\":5290:7078  function createPremium(uint32[] calldata tokenIds, uint32 update_id)... */\n      pop\n      pop\n      pop\n      jump\t// out\n        /* \"BurnManger.sol\":829:858  uint16 public burnAmount = 10 */\n    tag_52:\n      0x04\n      0x00\n      swap1\n      sload\n      swap1\n      0x0100\n      exp\n      swap1\n      div\n      0xffff\n      and\n      dup2\n      jump\t// out\n        /* \"BurnManger.sol\":7620:7869  function setBurnFee(uint256 _newFee) external onlyOwner {... */\n    tag_59:\n        /* \"@openzeppelin/contracts/access/Ownable.sol\":1531:1544  _checkOwner() */\n      tag_208\n        /* \"@openzeppelin/contracts/access/Ownable.sol\":1531:1542  _checkOwner */\n      tag_108\n        /* \"@openzeppelin/contracts/access/Ownable.sol\":1531:1544  _checkOwner() */\n      jump\t// in\n    tag_208:\n        /* \"BurnManger.sol\":1061:1070  0.1 ether */\n      0x016345785d8a0000\n        /* \"BurnManger.sol\":7691:7698  _newFee */\n      dup2\n        /* \"BurnManger.sol\":7691:7713  _newFee > MAX_BURN_FEE */\n      gt\n        /* \"BurnManger.sol\":7687:7741  if (_newFee > MAX_BURN_FEE) revert FeeExceedsMaximum() */\n      iszero\n      tag_210\n      jumpi\n        /* \"BurnManger.sol\":7722:7741  FeeExceedsMaximum() */\n      mload(0x40)\n      0xaf9c21dc00000000000000000000000000000000000000000000000000000000\n      dup2\n      mstore\n      0x04\n      add\n      mload(0x40)\n      dup1\n      swap2\n      sub\n      swap1\n      revert\n        /* \"BurnManger.sol\":7687:7741  if (_newFee > MAX_BURN_FEE) revert FeeExceedsMaximum() */\n    tag_210:\n        /* \"BurnManger.sol\":7762:7776  uint256 oldFee */\n      0x00\n        /* \"BurnManger.sol\":7779:7786  burnFee */\n      sload(0x03)\n        /* \"BurnManger.sol\":7762:7786  uint256 oldFee = burnFee */\n      swap1\n      pop\n        /* \"BurnManger.sol\":7807:7814  _newFee */\n      dup2\n        /* \"BurnManger.sol\":7797:7804  burnFee */\n      0x03\n        /* \"BurnManger.sol\":7797:7814  burnFee = _newFee */\n      dup2\n      swap1\n      sstore\n      pop\n        /* \"BurnManger.sol\":7830:7861  BurnFeeUpdated(oldFee, _newFee) */\n      0x78f1461296bad7bd716a7673aa3e659cc091c348a7ed4cfef7ce452c3052f2fb\n        /* \"BurnManger.sol\":7845:7851  oldFee */\n      dup2\n        /* \"BurnManger.sol\":7853:7860  _newFee */\n      dup4\n        /* \"BurnManger.sol\":7830:7861  BurnFeeUpdated(oldFee, _newFee) */\n      mload(0x40)\n      tag_211\n      swap3\n      swap2\n      swap1\n      tag_212\n      jump\t// in\n    tag_211:\n      mload(0x40)\n      dup1\n      swap2\n      sub\n      swap1\n      log1\n        /* \"BurnManger.sol\":7676:7869  {... */\n      pop\n        /* \"BurnManger.sol\":7620:7869  function setBurnFee(uint256 _newFee) external onlyOwner {... */\n      pop\n      jump\t// out\n        /* \"BurnManger.sol\":8810:8905  function getMaxBurnFee() external pure returns (uint256) {... */\n    tag_62:\n        /* \"BurnManger.sol\":8858:8865  uint256 */\n      0x00\n        /* \"BurnManger.sol\":1061:1070  0.1 ether */\n      0x016345785d8a0000\n        /* \"BurnManger.sol\":8878:8897  return MAX_BURN_FEE */\n      swap1\n      pop\n        /* \"BurnManger.sol\":8810:8905  function getMaxBurnFee() external pure returns (uint256) {... */\n      swap1\n      jump\t// out\n        /* \"@openzeppelin/contracts/security/Pausable.sol\":1615:1699  function paused() public view virtual returns (bool) {... */\n    tag_67:\n        /* \"@openzeppelin/contracts/security/Pausable.sol\":1662:1666  bool */\n      0x00\n        /* \"@openzeppelin/contracts/security/Pausable.sol\":1685:1692  _paused */\n      0x02\n      0x00\n      swap1\n      sload\n      swap1\n      0x0100\n      exp\n      swap1\n      div\n      0xff\n      and\n        /* \"@openzeppelin/contracts/security/Pausable.sol\":1678:1692  return _paused */\n      swap1\n      pop\n        /* \"@openzeppelin/contracts/security/Pausable.sol\":1615:1699  function paused() public view virtual returns (bool) {... */\n      swap1\n      jump\t// out\n        /* \"BurnManger.sol\":8594:8703  function getContractBalance() external view returns (uint256) {... */\n    tag_71:\n        /* \"BurnManger.sol\":8647:8654  uint256 */\n      0x00\n        /* \"BurnManger.sol\":8674:8695  address(this).balance */\n      selfbalance\n        /* \"BurnManger.sol\":8667:8695  return address(this).balance */\n      swap1\n      pop\n        /* \"BurnManger.sol\":8594:8703  function getContractBalance() external view returns (uint256) {... */\n      swap1\n      jump\t// out\n        /* \"@openzeppelin/contracts/access/Ownable.sol\":2293:2394  function renounceOwnership() public virtual onlyOwner {... */\n    tag_75:\n        /* \"@openzeppelin/contracts/access/Ownable.sol\":1531:1544  _checkOwner() */\n      tag_217\n        /* \"@openzeppelin/contracts/access/Ownable.sol\":1531:1542  _checkOwner */\n      tag_108\n        /* \"@openzeppelin/contracts/access/Ownable.sol\":1531:1544  _checkOwner() */\n      jump\t// in\n    tag_217:\n        /* \"@openzeppelin/contracts/access/Ownable.sol\":2357:2387  _transferOwnership(address(0)) */\n      tag_219\n        /* \"@openzeppelin/contracts/access/Ownable.sol\":2384:2385  0 */\n      0x00\n        /* \"@openzeppelin/contracts/access/Ownable.sol\":2357:2375  _transferOwnership */\n      tag_220\n        /* \"@openzeppelin/contracts/access/Ownable.sol\":2357:2387  _transferOwnership(address(0)) */\n      jump\t// in\n    tag_219:\n        /* \"@openzeppelin/contracts/access/Ownable.sol\":2293:2394  function renounceOwnership() public virtual onlyOwner {... */\n      jump\t// out\n        /* \"BurnManger.sol\":8448:8511  function pause() external onlyOwner {... */\n    tag_78:\n        /* \"@openzeppelin/contracts/access/Ownable.sol\":1531:1544  _checkOwner() */\n      tag_222\n        /* \"@openzeppelin/contracts/access/Ownable.sol\":1531:1542  _checkOwner */\n      tag_108\n        /* \"@openzeppelin/contracts/access/Ownable.sol\":1531:1544  _checkOwner() */\n      jump\t// in\n    tag_222:\n        /* \"BurnManger.sol\":8495:8503  _pause() */\n      tag_224\n        /* \"BurnManger.sol\":8495:8501  _pause */\n      tag_225\n        /* \"BurnManger.sol\":8495:8503  _pause() */\n      jump\t// in\n    tag_224:\n        /* \"BurnManger.sol\":8448:8511  function pause() external onlyOwner {... */\n      jump\t// out\n        /* \"@openzeppelin/contracts/access/Ownable.sol\":1638:1723  function owner() public view virtual returns (address) {... */\n    tag_81:\n        /* \"@openzeppelin/contracts/access/Ownable.sol\":1684:1691  address */\n      0x00\n        /* \"@openzeppelin/contracts/access/Ownable.sol\":1710:1716  _owner */\n      dup1\n      0x00\n      swap1\n      sload\n      swap1\n      0x0100\n      exp\n      swap1\n      div\n      0xffffffffffffffffffffffffffffffffffffffff\n      and\n        /* \"@openzeppelin/contracts/access/Ownable.sol\":1703:1716  return _owner */\n      swap1\n      pop\n        /* \"@openzeppelin/contracts/access/Ownable.sol\":1638:1723  function owner() public view virtual returns (address) {... */\n      swap1\n      jump\t// out\n        /* \"BurnManger.sol\":8711:8798  function getBurnFee() external view returns (uint256) {... */\n    tag_86:\n        /* \"BurnManger.sol\":8756:8763  uint256 */\n      0x00\n        /* \"BurnManger.sol\":8783:8790  burnFee */\n      sload(0x03)\n        /* \"BurnManger.sol\":8776:8790  return burnFee */\n      swap1\n      pop\n        /* \"BurnManger.sol\":8711:8798  function getBurnFee() external view returns (uint256) {... */\n      swap1\n      jump\t// out\n        /* \"BurnManger.sol\":7244:7423  function isTokenBurned(uint32 tokenId) ... */\n    tag_91:\n        /* \"BurnManger.sol\":7368:7372  bool */\n      0x00\n        /* \"BurnManger.sol\":7340:7347  tokenId */\n      dup2\n        /* \"BurnManger.sol\":1565:1676  modifier validTokenId(uint256 tokenId) {... */\n      0xffffffff\n      and\n        /* \"BurnManger.sol\":1630:1631  0 */\n      0x00\n        /* \"BurnManger.sol\":1619:1626  tokenId */\n      dup2\n        /* \"BurnManger.sol\":1619:1631  tokenId == 0 */\n      sub\n        /* \"BurnManger.sol\":1615:1656  if (tokenId == 0) revert InvalidTokenId() */\n      tag_229\n      jumpi\n        /* \"BurnManger.sol\":1640:1656  InvalidTokenId() */\n      mload(0x40)\n      0x3f6cc76800000000000000000000000000000000000000000000000000000000\n      dup2\n      mstore\n      0x04\n      add\n      mload(0x40)\n      dup1\n      swap2\n      sub\n      swap1\n      revert\n        /* \"BurnManger.sol\":1615:1656  if (tokenId == 0) revert InvalidTokenId() */\n    tag_229:\n        /* \"BurnManger.sol\":7398:7406  isBurned */\n      0x05\n        /* \"BurnManger.sol\":7398:7415  isBurned[tokenId] */\n      0x00\n        /* \"BurnManger.sol\":7407:7414  tokenId */\n      dup5\n        /* \"BurnManger.sol\":7398:7415  isBurned[tokenId] */\n      0xffffffff\n      and\n      0xffffffff\n      and\n      dup2\n      mstore\n      0x20\n      add\n      swap1\n      dup2\n      mstore\n      0x20\n      add\n      0x00\n      keccak256\n      0x00\n      swap1\n      sload\n      swap1\n      0x0100\n      exp\n      swap1\n      div\n      0xff\n      and\n        /* \"BurnManger.sol\":7391:7415  return isBurned[tokenId] */\n      swap2\n      pop\n        /* \"BurnManger.sol\":7244:7423  function isTokenBurned(uint32 tokenId) ... */\n      pop\n      swap2\n      swap1\n      pop\n      jump\t// out\n        /* \"BurnManger.sol\":8159:8440  function withdrawPartialFunds(uint256 _amount) external onlyOwner nonReentrant {... */\n    tag_96:\n        /* \"@openzeppelin/contracts/access/Ownable.sol\":1531:1544  _checkOwner() */\n      tag_232\n        /* \"@openzeppelin/contracts/access/Ownable.sol\":1531:1542  _checkOwner */\n      tag_108\n        /* \"@openzeppelin/contracts/access/Ownable.sol\":1531:1544  _checkOwner() */\n      jump\t// in\n    tag_232:\n        /* \"@openzeppelin/contracts/security/ReentrancyGuard.sol\":2261:2282  _nonReentrantBefore() */\n      tag_234\n        /* \"@openzeppelin/contracts/security/ReentrancyGuard.sol\":2261:2280  _nonReentrantBefore */\n      tag_120\n        /* \"@openzeppelin/contracts/security/ReentrancyGuard.sol\":2261:2282  _nonReentrantBefore() */\n      jump\t// in\n    tag_234:\n        /* \"BurnManger.sol\":8264:8265  0 */\n      0x00\n        /* \"BurnManger.sol\":8253:8260  _amount */\n      dup2\n        /* \"BurnManger.sol\":8253:8265  _amount == 0 */\n      eq\n        /* \"BurnManger.sol\":8253:8300  _amount == 0 || _amount > address(this).balance */\n      dup1\n      tag_236\n      jumpi\n      pop\n        /* \"BurnManger.sol\":8279:8300  address(this).balance */\n      selfbalance\n        /* \"BurnManger.sol\":8269:8276  _amount */\n      dup2\n        /* \"BurnManger.sol\":8269:8300  _amount > address(this).balance */\n      gt\n        /* \"BurnManger.sol\":8253:8300  _amount == 0 || _amount > address(this).balance */\n    tag_236:\n        /* \"BurnManger.sol\":8249:8328  if (_amount == 0 || _amount > address(this).balance) revert NoFundsToWithdraw() */\n      iszero\n      tag_237\n      jumpi\n        /* \"BurnManger.sol\":8309:8328  NoFundsToWithdraw() */\n      mload(0x40)\n      0x67e3990d00000000000000000000000000000000000000000000000000000000\n      dup2\n      mstore\n      0x04\n      add\n      mload(0x40)\n      dup1\n      swap2\n      sub\n      swap1\n      revert\n        /* \"BurnManger.sol\":8249:8328  if (_amount == 0 || _amount > address(this).balance) revert NoFundsToWithdraw() */\n    tag_237:\n        /* \"BurnManger.sol\":8349:8384  payable(owner()).sendValue(_amount) */\n      tag_238\n        /* \"BurnManger.sol\":8376:8383  _amount */\n      dup2\n        /* \"BurnManger.sol\":8357:8364  owner() */\n      tag_239\n        /* \"BurnManger.sol\":8357:8362  owner */\n      tag_81\n        /* \"BurnManger.sol\":8357:8364  owner() */\n      jump\t// in\n    tag_239:\n        /* \"BurnManger.sol\":8349:8375  payable(owner()).sendValue */\n      0xffffffffffffffffffffffffffffffffffffffff\n      and\n      tag_125\n      swap1\n        /* \"BurnManger.sol\":8349:8384  payable(owner()).sendValue(_amount) */\n      swap2\n      swap1\n      0xffffffff\n      and\n      jump\t// in\n    tag_238:\n        /* \"BurnManger.sol\":8415:8422  owner() */\n      tag_240\n        /* \"BurnManger.sol\":8415:8420  owner */\n      tag_81\n        /* \"BurnManger.sol\":8415:8422  owner() */\n      jump\t// in\n    tag_240:\n        /* \"BurnManger.sol\":8400:8432  FundsWithdrawn(owner(), _amount) */\n      0xffffffffffffffffffffffffffffffffffffffff\n      and\n      0xeaff4b37086828766ad3268786972c0cd24259d4c87a80f9d3963a3c3d999b0d\n        /* \"BurnManger.sol\":8424:8431  _amount */\n      dup3\n        /* \"BurnManger.sol\":8400:8432  FundsWithdrawn(owner(), _amount) */\n      mload(0x40)\n      tag_241\n      swap2\n      swap1\n      tag_64\n      jump\t// in\n    tag_241:\n      mload(0x40)\n      dup1\n      swap2\n      sub\n      swap1\n      log2\n        /* \"@openzeppelin/contracts/security/ReentrancyGuard.sol\":2303:2323  _nonReentrantAfter() */\n      tag_242\n        /* \"@openzeppelin/contracts/security/ReentrancyGuard.sol\":2303:2321  _nonReentrantAfter */\n      tag_129\n        /* \"@openzeppelin/contracts/security/ReentrancyGuard.sol\":2303:2323  _nonReentrantAfter() */\n      jump\t// in\n    tag_242:\n        /* \"BurnManger.sol\":8159:8440  function withdrawPartialFunds(uint256 _amount) external onlyOwner nonReentrant {... */\n      pop\n      jump\t// out\n        /* \"BurnManger.sol\":738:774  address public immutable nftContract */\n    tag_99:\n      immutable(\"0x3ed49036aa79101305a3bfa1070275a6dbad22810edfdc0e3caad458e4a9b16b\")\n      dup2\n      jump\t// out\n        /* \"@openzeppelin/contracts/access/Ownable.sol\":2543:2758  function transferOwnership(address newOwner) public virtual onlyOwner {... */\n    tag_105:\n        /* \"@openzeppelin/contracts/access/Ownable.sol\":1531:1544  _checkOwner() */\n      tag_244\n        /* \"@openzeppelin/contracts/access/Ownable.sol\":1531:1542  _checkOwner */\n      tag_108\n        /* \"@openzeppelin/contracts/access/Ownable.sol\":1531:1544  _checkOwner() */\n      jump\t// in\n    tag_244:\n        /* \"@openzeppelin/contracts/access/Ownable.sol\":2647:2648  0 */\n      0x00\n        /* \"@openzeppelin/contracts/access/Ownable.sol\":2627:2649  newOwner == address(0) */\n      0xffffffffffffffffffffffffffffffffffffffff\n      and\n        /* \"@openzeppelin/contracts/access/Ownable.sol\":2627:2635  newOwner */\n      dup2\n        /* \"@openzeppelin/contracts/access/Ownable.sol\":2627:2649  newOwner == address(0) */\n      0xffffffffffffffffffffffffffffffffffffffff\n      and\n      sub\n        /* \"@openzeppelin/contracts/access/Ownable.sol\":2623:2714  if (newOwner == address(0)) {... */\n      tag_246\n      jumpi\n        /* \"@openzeppelin/contracts/access/Ownable.sol\":2700:2701  0 */\n      0x00\n        /* \"@openzeppelin/contracts/access/Ownable.sol\":2672:2703  OwnableInvalidOwner(address(0)) */\n      mload(0x40)\n      0x1e4fbdf700000000000000000000000000000000000000000000000000000000\n      dup2\n      mstore\n      0x04\n      add\n      tag_247\n      swap2\n      swap1\n      tag_83\n      jump\t// in\n    tag_247:\n      mload(0x40)\n      dup1\n      swap2\n      sub\n      swap1\n      revert\n        /* \"@openzeppelin/contracts/access/Ownable.sol\":2623:2714  if (newOwner == address(0)) {... */\n    tag_246:\n        /* \"@openzeppelin/contracts/access/Ownable.sol\":2723:2751  _transferOwnership(newOwner) */\n      tag_248\n        /* \"@openzeppelin/contracts/access/Ownable.sol\":2742:2750  newOwner */\n      dup2\n        /* \"@openzeppelin/contracts/access/Ownable.sol\":2723:2741  _transferOwnership */\n      tag_220\n        /* \"@openzeppelin/contracts/access/Ownable.sol\":2723:2751  _transferOwnership(newOwner) */\n      jump\t// in\n    tag_248:\n        /* \"@openzeppelin/contracts/access/Ownable.sol\":2543:2758  function transferOwnership(address newOwner) public virtual onlyOwner {... */\n      pop\n      jump\t// out\n        /* \"@openzeppelin/contracts/access/Ownable.sol\":1796:1958  function _checkOwner() internal view virtual {... */\n    tag_108:\n        /* \"@openzeppelin/contracts/access/Ownable.sol\":1866:1878  _msgSender() */\n      tag_250\n        /* \"@openzeppelin/contracts/access/Ownable.sol\":1866:1876  _msgSender */\n      tag_251\n        /* \"@openzeppelin/contracts/access/Ownable.sol\":1866:1878  _msgSender() */\n      jump\t// in\n    tag_250:\n        /* \"@openzeppelin/contracts/access/Ownable.sol\":1855:1878  owner() != _msgSender() */\n      0xffffffffffffffffffffffffffffffffffffffff\n      and\n        /* \"@openzeppelin/contracts/access/Ownable.sol\":1855:1862  owner() */\n      tag_252\n        /* \"@openzeppelin/contracts/access/Ownable.sol\":1855:1860  owner */\n      tag_81\n        /* \"@openzeppelin/contracts/access/Ownable.sol\":1855:1862  owner() */\n      jump\t// in\n    tag_252:\n        /* \"@openzeppelin/contracts/access/Ownable.sol\":1855:1878  owner() != _msgSender() */\n      0xffffffffffffffffffffffffffffffffffffffff\n      and\n      eq\n        /* \"@openzeppelin/contracts/access/Ownable.sol\":1851:1952  if (owner() != _msgSender()) {... */\n      tag_253\n      jumpi\n        /* \"@openzeppelin/contracts/access/Ownable.sol\":1928:1940  _msgSender() */\n      tag_254\n        /* \"@openzeppelin/contracts/access/Ownable.sol\":1928:1938  _msgSender */\n      tag_251\n        /* \"@openzeppelin/contracts/access/Ownable.sol\":1928:1940  _msgSender() */\n      jump\t// in\n    tag_254:\n        /* \"@openzeppelin/contracts/access/Ownable.sol\":1901:1941  OwnableUnauthorizedAccount(_msgSender()) */\n      mload(0x40)\n      0x118cdaa700000000000000000000000000000000000000000000000000000000\n      dup2\n      mstore\n      0x04\n      add\n      tag_255\n      swap2\n      swap1\n      tag_83\n      jump\t// in\n    tag_255:\n      mload(0x40)\n      dup1\n      swap2\n      sub\n      swap1\n      revert\n        /* \"@openzeppelin/contracts/access/Ownable.sol\":1851:1952  if (owner() != _msgSender()) {... */\n    tag_253:\n        /* \"@openzeppelin/contracts/access/Ownable.sol\":1796:1958  function _checkOwner() internal view virtual {... */\n      jump\t// out\n        /* \"@openzeppelin/contracts/security/ReentrancyGuard.sol\":2336:2623  function _nonReentrantBefore() private {... */\n    tag_120:\n        /* \"@openzeppelin/contracts/security/ReentrancyGuard.sol\":1759:1760  2 */\n      0x02\n        /* \"@openzeppelin/contracts/security/ReentrancyGuard.sol\":2468:2475  _status */\n      sload(0x01)\n        /* \"@openzeppelin/contracts/security/ReentrancyGuard.sol\":2468:2487  _status != _ENTERED */\n      sub\n        /* \"@openzeppelin/contracts/security/ReentrancyGuard.sol\":2460:2523  require(_status != _ENTERED, \"ReentrancyGuard: reentrant call\") */\n      tag_257\n      jumpi\n      mload(0x40)\n      0x08c379a000000000000000000000000000000000000000000000000000000000\n      dup2\n      mstore\n      0x04\n      add\n      tag_258\n      swap1\n      tag_259\n      jump\t// in\n    tag_258:\n      mload(0x40)\n      dup1\n      swap2\n      sub\n      swap1\n      revert\n    tag_257:\n        /* \"@openzeppelin/contracts/security/ReentrancyGuard.sol\":1759:1760  2 */\n      0x02\n        /* \"@openzeppelin/contracts/security/ReentrancyGuard.sol\":2598:2605  _status */\n      0x01\n        /* \"@openzeppelin/contracts/security/ReentrancyGuard.sol\":2598:2616  _status = _ENTERED */\n      dup2\n      swap1\n      sstore\n      pop\n        /* \"@openzeppelin/contracts/security/ReentrancyGuard.sol\":2336:2623  function _nonReentrantBefore() private {... */\n      jump\t// out\n        /* \"@openzeppelin/contracts/utils/Address.sol\":1290:1655  function sendValue(address payable recipient, uint256 amount) internal {... */\n    tag_125:\n        /* \"@openzeppelin/contracts/utils/Address.sol\":1399:1405  amount */\n      dup1\n        /* \"@openzeppelin/contracts/utils/Address.sol\":1375:1396  address(this).balance */\n      selfbalance\n        /* \"@openzeppelin/contracts/utils/Address.sol\":1375:1405  address(this).balance < amount */\n      lt\n        /* \"@openzeppelin/contracts/utils/Address.sol\":1371:1496  if (address(this).balance < amount) {... */\n      iszero\n      tag_261\n      jumpi\n        /* \"@openzeppelin/contracts/utils/Address.sol\":1455:1476  address(this).balance */\n      selfbalance\n        /* \"@openzeppelin/contracts/utils/Address.sol\":1478:1484  amount */\n      dup2\n        /* \"@openzeppelin/contracts/utils/Address.sol\":1428:1485  Errors.InsufficientBalance(address(this).balance, amount) */\n      mload(0x40)\n      0xcf47918100000000000000000000000000000000000000000000000000000000\n      dup2\n      mstore\n      0x04\n      add\n      tag_262\n      swap3\n      swap2\n      swap1\n      tag_212\n      jump\t// in\n    tag_262:\n      mload(0x40)\n      dup1\n      swap2\n      sub\n      swap1\n      revert\n        /* \"@openzeppelin/contracts/utils/Address.sol\":1371:1496  if (address(this).balance < amount) {... */\n    tag_261:\n        /* \"@openzeppelin/contracts/utils/Address.sol\":1507:1519  bool success */\n      0x00\n        /* \"@openzeppelin/contracts/utils/Address.sol\":1521:1544  bytes memory returndata */\n      dup1\n        /* \"@openzeppelin/contracts/utils/Address.sol\":1548:1557  recipient */\n      dup4\n        /* \"@openzeppelin/contracts/utils/Address.sol\":1548:1562  recipient.call */\n      0xffffffffffffffffffffffffffffffffffffffff\n      and\n        /* \"@openzeppelin/contracts/utils/Address.sol\":1570:1576  amount */\n      dup4\n        /* \"@openzeppelin/contracts/utils/Address.sol\":1548:1581  recipient.call{value: amount}(\"\") */\n      mload(0x40)\n      tag_263\n      swap1\n      tag_199\n      jump\t// in\n    tag_263:\n      0x00\n      mload(0x40)\n      dup1\n      dup4\n      sub\n      dup2\n      dup6\n      dup8\n      gas\n      call\n      swap3\n      pop\n      pop\n      pop\n      returndatasize\n      dup1\n      0x00\n      dup2\n      eq\n      tag_266\n      jumpi\n      mload(0x40)\n      swap2\n      pop\n      and(add(returndatasize, 0x3f), not(0x1f))\n      dup3\n      add\n      0x40\n      mstore\n      returndatasize\n      dup3\n      mstore\n      returndatasize\n      0x00\n      0x20\n      dup5\n      add\n      returndatacopy\n      jump(tag_265)\n    tag_266:\n      0x60\n      swap2\n      pop\n    tag_265:\n      pop\n        /* \"@openzeppelin/contracts/utils/Address.sol\":1506:1581  (bool success, bytes memory returndata) = recipient.call{value: amount}(\"\") */\n      swap2\n      pop\n      swap2\n      pop\n        /* \"@openzeppelin/contracts/utils/Address.sol\":1596:1603  success */\n      dup2\n        /* \"@openzeppelin/contracts/utils/Address.sol\":1591:1649  if (!success) {... */\n      tag_267\n      jumpi\n        /* \"@openzeppelin/contracts/utils/Address.sol\":1619:1638  _revert(returndata) */\n      tag_268\n        /* \"@openzeppelin/contracts/utils/Address.sol\":1627:1637  returndata */\n      dup2\n        /* \"@openzeppelin/contracts/utils/Address.sol\":1619:1626  _revert */\n      tag_269\n        /* \"@openzeppelin/contracts/utils/Address.sol\":1619:1638  _revert(returndata) */\n      jump\t// in\n    tag_268:\n        /* \"@openzeppelin/contracts/utils/Address.sol\":1591:1649  if (!success) {... */\n    tag_267:\n        /* \"@openzeppelin/contracts/utils/Address.sol\":1361:1655  {... */\n      pop\n      pop\n        /* \"@openzeppelin/contracts/utils/Address.sol\":1290:1655  function sendValue(address payable recipient, uint256 amount) internal {... */\n      pop\n      pop\n      jump\t// out\n        /* \"@openzeppelin/contracts/security/ReentrancyGuard.sol\":2629:2838  function _nonReentrantAfter() private {... */\n    tag_129:\n        /* \"@openzeppelin/contracts/security/ReentrancyGuard.sol\":1716:1717  1 */\n      0x01\n        /* \"@openzeppelin/contracts/security/ReentrancyGuard.sol\":2809:2816  _status */\n      dup1\n        /* \"@openzeppelin/contracts/security/ReentrancyGuard.sol\":2809:2831  _status = _NOT_ENTERED */\n      dup2\n      swap1\n      sstore\n      pop\n        /* \"@openzeppelin/contracts/security/ReentrancyGuard.sol\":2629:2838  function _nonReentrantAfter() private {... */\n      jump\t// out\n        /* \"@openzeppelin/contracts/security/Pausable.sol\":2433:2550  function _unpause() internal virtual whenPaused {... */\n    tag_134:\n        /* \"@openzeppelin/contracts/security/Pausable.sol\":1486:1502  _requirePaused() */\n      tag_272\n        /* \"@openzeppelin/contracts/security/Pausable.sol\":1486:1500  _requirePaused */\n      tag_273\n        /* \"@openzeppelin/contracts/security/Pausable.sol\":1486:1502  _requirePaused() */\n      jump\t// in\n    tag_272:\n        /* \"@openzeppelin/contracts/security/Pausable.sol\":2501:2506  false */\n      0x00\n        /* \"@openzeppelin/contracts/security/Pausable.sol\":2491:2498  _paused */\n      0x02\n      0x00\n        /* \"@openzeppelin/contracts/security/Pausable.sol\":2491:2506  _paused = false */\n      0x0100\n      exp\n      dup2\n      sload\n      dup2\n      0xff\n      mul\n      not\n      and\n      swap1\n      dup4\n      iszero\n      iszero\n      mul\n      or\n      swap1\n      sstore\n      pop\n        /* \"@openzeppelin/contracts/security/Pausable.sol\":2521:2543  Unpaused(_msgSender()) */\n      0x5db9ee0a495bf2e6ff9c91a7834c1ba4fdd244a5e8aa4e537bd38aeae4b073aa\n        /* \"@openzeppelin/contracts/security/Pausable.sol\":2530:2542  _msgSender() */\n      tag_275\n        /* \"@openzeppelin/contracts/security/Pausable.sol\":2530:2540  _msgSender */\n      tag_251\n        /* \"@openzeppelin/contracts/security/Pausable.sol\":2530:2542  _msgSender() */\n      jump\t// in\n    tag_275:\n        /* \"@openzeppelin/contracts/security/Pausable.sol\":2521:2543  Unpaused(_msgSender()) */\n      mload(0x40)\n      tag_276\n      swap2\n      swap1\n      tag_83\n      jump\t// in\n    tag_276:\n      mload(0x40)\n      dup1\n      swap2\n      sub\n      swap1\n      log1\n        /* \"@openzeppelin/contracts/security/Pausable.sol\":2433:2550  function _unpause() internal virtual whenPaused {... */\n      jump\t// out\n        /* \"@openzeppelin/contracts/security/Pausable.sol\":1767:1873  function _requireNotPaused() internal view virtual {... */\n    tag_139:\n        /* \"@openzeppelin/contracts/security/Pausable.sol\":1837:1845  paused() */\n      tag_278\n        /* \"@openzeppelin/contracts/security/Pausable.sol\":1837:1843  paused */\n      tag_67\n        /* \"@openzeppelin/contracts/security/Pausable.sol\":1837:1845  paused() */\n      jump\t// in\n    tag_278:\n        /* \"@openzeppelin/contracts/security/Pausable.sol\":1836:1845  !paused() */\n      iszero\n        /* \"@openzeppelin/contracts/security/Pausable.sol\":1828:1866  require(!paused(), \"Pausable: paused\") */\n      tag_279\n      jumpi\n      mload(0x40)\n      0x08c379a000000000000000000000000000000000000000000000000000000000\n      dup2\n      mstore\n      0x04\n      add\n      tag_280\n      swap1\n      tag_281\n      jump\t// in\n    tag_280:\n      mload(0x40)\n      dup1\n      swap2\n      sub\n      swap1\n      revert\n    tag_279:\n        /* \"@openzeppelin/contracts/security/Pausable.sol\":1767:1873  function _requireNotPaused() internal view virtual {... */\n      jump\t// out\n        /* \"@openzeppelin/contracts/access/Ownable.sol\":2912:3099  function _transferOwnership(address newOwner) internal virtual {... */\n    tag_220:\n        /* \"@openzeppelin/contracts/access/Ownable.sol\":2985:3001  address oldOwner */\n      0x00\n        /* \"@openzeppelin/contracts/access/Ownable.sol\":3004:3010  _owner */\n      dup1\n      0x00\n      swap1\n      sload\n      swap1\n      0x0100\n      exp\n      swap1\n      div\n      0xffffffffffffffffffffffffffffffffffffffff\n      and\n        /* \"@openzeppelin/contracts/access/Ownable.sol\":2985:3010  address oldOwner = _owner */\n      swap1\n      pop\n        /* \"@openzeppelin/contracts/access/Ownable.sol\":3029:3037  newOwner */\n      dup2\n        /* \"@openzeppelin/contracts/access/Ownable.sol\":3020:3026  _owner */\n      0x00\n      dup1\n        /* \"@openzeppelin/contracts/access/Ownable.sol\":3020:3037  _owner = newOwner */\n      0x0100\n      exp\n      dup2\n      sload\n      dup2\n      0xffffffffffffffffffffffffffffffffffffffff\n      mul\n      not\n      and\n      swap1\n      dup4\n      0xffffffffffffffffffffffffffffffffffffffff\n      and\n      mul\n      or\n      swap1\n      sstore\n      pop\n        /* \"@openzeppelin/contracts/access/Ownable.sol\":3083:3091  newOwner */\n      dup2\n        /* \"@openzeppelin/contracts/access/Ownable.sol\":3052:3092  OwnershipTransferred(oldOwner, newOwner) */\n      0xffffffffffffffffffffffffffffffffffffffff\n      and\n        /* \"@openzeppelin/contracts/access/Ownable.sol\":3073:3081  oldOwner */\n      dup2\n        /* \"@openzeppelin/contracts/access/Ownable.sol\":3052:3092  OwnershipTransferred(oldOwner, newOwner) */\n      0xffffffffffffffffffffffffffffffffffffffff\n      and\n      0x8be0079c531659141344cd1fd0a4f28419497f9722a3daafe3b4186f6b6457e0\n      mload(0x40)\n      mload(0x40)\n      dup1\n      swap2\n      sub\n      swap1\n      log3\n        /* \"@openzeppelin/contracts/access/Ownable.sol\":2975:3099  {... */\n      pop\n        /* \"@openzeppelin/contracts/access/Ownable.sol\":2912:3099  function _transferOwnership(address newOwner) internal virtual {... */\n      pop\n      jump\t// out\n        /* \"@openzeppelin/contracts/security/Pausable.sol\":2186:2301  function _pause() internal virtual whenNotPaused {... */\n    tag_225:\n        /* \"@openzeppelin/contracts/security/Pausable.sol\":1239:1258  _requireNotPaused() */\n      tag_284\n        /* \"@openzeppelin/contracts/security/Pausable.sol\":1239:1256  _requireNotPaused */\n      tag_139\n        /* \"@openzeppelin/contracts/security/Pausable.sol\":1239:1258  _requireNotPaused() */\n      jump\t// in\n    tag_284:\n        /* \"@openzeppelin/contracts/security/Pausable.sol\":2255:2259  true */\n      0x01\n        /* \"@openzeppelin/contracts/security/Pausable.sol\":2245:2252  _paused */\n      0x02\n      0x00\n        /* \"@openzeppelin/contracts/security/Pausable.sol\":2245:2259  _paused = true */\n      0x0100\n      exp\n      dup2\n      sload\n      dup2\n      0xff\n      mul\n      not\n      and\n      swap1\n      dup4\n      iszero\n      iszero\n      mul\n      or\n      swap1\n      sstore\n      pop\n        /* \"@openzeppelin/contracts/security/Pausable.sol\":2274:2294  Paused(_msgSender()) */\n      0x62e78cea01bee320cd4e420270b5ea74000d11b0c9f74754ebdbfc544b05a258\n        /* \"@openzeppelin/contracts/security/Pausable.sol\":2281:2293  _msgSender() */\n      tag_286\n        /* \"@openzeppelin/contracts/security/Pausable.sol\":2281:2291  _msgSender */\n      tag_251\n        /* \"@openzeppelin/contracts/security/Pausable.sol\":2281:2293  _msgSender() */\n      jump\t// in\n    tag_286:\n        /* \"@openzeppelin/contracts/security/Pausable.sol\":2274:2294  Paused(_msgSender()) */\n      mload(0x40)\n      tag_287\n      swap2\n      swap1\n      tag_83\n      jump\t// in\n    tag_287:\n      mload(0x40)\n      dup1\n      swap2\n      sub\n      swap1\n      log1\n        /* \"@openzeppelin/contracts/security/Pausable.sol\":2186:2301  function _pause() internal virtual whenNotPaused {... */\n      jump\t// out\n        /* \"@openzeppelin/contracts/utils/Context.sol\":656:752  function _msgSender() internal view virtual returns (address) {... */\n    tag_251:\n        /* \"@openzeppelin/contracts/utils/Context.sol\":709:716  address */\n      0x00\n        /* \"@openzeppelin/contracts/utils/Context.sol\":735:745  msg.sender */\n      caller\n        /* \"@openzeppelin/contracts/utils/Context.sol\":728:745  return msg.sender */\n      swap1\n      pop\n        /* \"@openzeppelin/contracts/utils/Context.sol\":656:752  function _msgSender() internal view virtual returns (address) {... */\n      swap1\n      jump\t// out\n        /* \"@openzeppelin/contracts/utils/Address.sol\":5559:6046  function _revert(bytes memory returndata) private pure {... */\n    tag_269:\n        /* \"@openzeppelin/contracts/utils/Address.sol\":5710:5711  0 */\n      0x00\n        /* \"@openzeppelin/contracts/utils/Address.sol\":5690:5700  returndata */\n      dup2\n        /* \"@openzeppelin/contracts/utils/Address.sol\":5690:5707  returndata.length */\n      mload\n        /* \"@openzeppelin/contracts/utils/Address.sol\":5690:5711  returndata.length > 0 */\n      gt\n        /* \"@openzeppelin/contracts/utils/Address.sol\":5686:6040  if (returndata.length > 0) {... */\n      iszero\n      tag_290\n      jumpi\n        /* \"@openzeppelin/contracts/utils/Address.sol\":5887:5897  returndata */\n      dup1\n        /* \"@openzeppelin/contracts/utils/Address.sol\":5881:5898  mload(returndata) */\n      mload\n        /* \"@openzeppelin/contracts/utils/Address.sol\":5943:5958  returndata_size */\n      dup1\n        /* \"@openzeppelin/contracts/utils/Address.sol\":5930:5940  returndata */\n      dup3\n        /* \"@openzeppelin/contracts/utils/Address.sol\":5926:5928  32 */\n      0x20\n        /* \"@openzeppelin/contracts/utils/Address.sol\":5922:5941  add(32, returndata) */\n      add\n        /* \"@openzeppelin/contracts/utils/Address.sol\":5915:5959  revert(add(32, returndata), returndata_size) */\n      revert\n        /* \"@openzeppelin/contracts/utils/Address.sol\":5686:6040  if (returndata.length > 0) {... */\n    tag_290:\n        /* \"@openzeppelin/contracts/utils/Address.sol\":6010:6029  Errors.FailedCall() */\n      mload(0x40)\n      0xd6bda27500000000000000000000000000000000000000000000000000000000\n      dup2\n      mstore\n      0x04\n      add\n      mload(0x40)\n      dup1\n      swap2\n      sub\n      swap1\n      revert\n        /* \"@openzeppelin/contracts/security/Pausable.sol\":1945:2051  function _requirePaused() internal view virtual {... */\n    tag_273:\n        /* \"@openzeppelin/contracts/security/Pausable.sol\":2011:2019  paused() */\n      tag_293\n        /* \"@openzeppelin/contracts/security/Pausable.sol\":2011:2017  paused */\n      tag_67\n        /* \"@openzeppelin/contracts/security/Pausable.sol\":2011:2019  paused() */\n      jump\t// in\n    tag_293:\n        /* \"@openzeppelin/contracts/security/Pausable.sol\":2003:2044  require(paused(), \"Pausable: not paused\") */\n      tag_294\n      jumpi\n      mload(0x40)\n      0x08c379a000000000000000000000000000000000000000000000000000000000\n      dup2\n      mstore\n      0x04\n      add\n      tag_295\n      swap1\n      tag_296\n      jump\t// in\n    tag_295:\n      mload(0x40)\n      dup1\n      swap2\n      sub\n      swap1\n      revert\n    tag_294:\n        /* \"@openzeppelin/contracts/security/Pausable.sol\":1945:2051  function _requirePaused() internal view virtual {... */\n      jump\t// out\n        /* \"#utility.yul\":7:176   */\n    tag_297:\n        /* \"#utility.yul\":91:102   */\n      0x00\n        /* \"#utility.yul\":125:131   */\n      dup3\n        /* \"#utility.yul\":120:123   */\n      dup3\n        /* \"#utility.yul\":113:132   */\n      mstore\n        /* \"#utility.yul\":165:169   */\n      0x20\n        /* \"#utility.yul\":160:163   */\n      dup3\n        /* \"#utility.yul\":156:170   */\n      add\n        /* \"#utility.yul\":141:170   */\n      swap1\n      pop\n        /* \"#utility.yul\":7:176   */\n      swap3\n      swap2\n      pop\n      pop\n      jump\t// out\n        /* \"#utility.yul\":182:364   */\n    tag_298:\n        /* \"#utility.yul\":322:356   */\n      0x44697265637420455448207472616e7366657273206e6f7420616c6c6f776564\n        /* \"#utility.yul\":318:319   */\n      0x00\n        /* \"#utility.yul\":310:316   */\n      dup3\n        /* \"#utility.yul\":306:320   */\n      add\n        /* \"#utility.yul\":299:357   */\n      mstore\n        /* \"#utility.yul\":182:364   */\n      pop\n      jump\t// out\n        /* \"#utility.yul\":370:736   */\n    tag_299:\n        /* \"#utility.yul\":512:515   */\n      0x00\n        /* \"#utility.yul\":533:600   */\n      tag_368\n        /* \"#utility.yul\":597:599   */\n      0x20\n        /* \"#utility.yul\":592:595   */\n      dup4\n        /* \"#utility.yul\":533:600   */\n      tag_297\n      jump\t// in\n    tag_368:\n        /* \"#utility.yul\":526:600   */\n      swap2\n      pop\n        /* \"#utility.yul\":609:702   */\n      tag_369\n        /* \"#utility.yul\":698:701   */\n      dup3\n        /* \"#utility.yul\":609:702   */\n      tag_298\n      jump\t// in\n    tag_369:\n        /* \"#utility.yul\":727:729   */\n      0x20\n        /* \"#utility.yul\":722:725   */\n      dup3\n        /* \"#utility.yul\":718:730   */\n      add\n        /* \"#utility.yul\":711:730   */\n      swap1\n      pop\n        /* \"#utility.yul\":370:736   */\n      swap2\n      swap1\n      pop\n      jump\t// out\n        /* \"#utility.yul\":742:1161   */\n    tag_27:\n        /* \"#utility.yul\":908:912   */\n      0x00\n        /* \"#utility.yul\":946:948   */\n      0x20\n        /* \"#utility.yul\":935:944   */\n      dup3\n        /* \"#utility.yul\":931:949   */\n      add\n        /* \"#utility.yul\":923:949   */\n      swap1\n      pop\n        /* \"#utility.yul\":995:1004   */\n      dup2\n        /* \"#utility.yul\":989:993   */\n      dup2\n        /* \"#utility.yul\":985:1005   */\n      sub\n        /* \"#utility.yul\":981:982   */\n      0x00\n        /* \"#utility.yul\":970:979   */\n      dup4\n        /* \"#utility.yul\":966:983   */\n      add\n        /* \"#utility.yul\":959:1006   */\n      mstore\n        /* \"#utility.yul\":1023:1154   */\n      tag_371\n        /* \"#utility.yul\":1149:1153   */\n      dup2\n        /* \"#utility.yul\":1023:1154   */\n      tag_299\n      jump\t// in\n    tag_371:\n        /* \"#utility.yul\":1015:1154   */\n      swap1\n      pop\n        /* \"#utility.yul\":742:1161   */\n      swap2\n      swap1\n      pop\n      jump\t// out\n        /* \"#utility.yul\":1248:1365   */\n    tag_301:\n        /* \"#utility.yul\":1357:1358   */\n      0x00\n        /* \"#utility.yul\":1354:1355   */\n      dup1\n        /* \"#utility.yul\":1347:1359   */\n      revert\n        /* \"#utility.yul\":1371:1488   */\n    tag_302:\n        /* \"#utility.yul\":1480:1481   */\n      0x00\n        /* \"#utility.yul\":1477:1478   */\n      dup1\n        /* \"#utility.yul\":1470:1482   */\n      revert\n        /* \"#utility.yul\":1494:1583   */\n    tag_303:\n        /* \"#utility.yul\":1530:1537   */\n      0x00\n        /* \"#utility.yul\":1570:1576   */\n      0xffff\n        /* \"#utility.yul\":1563:1568   */\n      dup3\n        /* \"#utility.yul\":1559:1577   */\n      and\n        /* \"#utility.yul\":1548:1577   */\n      swap1\n      pop\n        /* \"#utility.yul\":1494:1583   */\n      swap2\n      swap1\n      pop\n      jump\t// out\n        /* \"#utility.yul\":1589:1709   */\n    tag_304:\n        /* \"#utility.yul\":1661:1684   */\n      tag_377\n        /* \"#utility.yul\":1678:1683   */\n      dup2\n        /* \"#utility.yul\":1661:1684   */\n      tag_303\n      jump\t// in\n    tag_377:\n        /* \"#utility.yul\":1654:1659   */\n      dup2\n        /* \"#utility.yul\":1651:1685   */\n      eq\n        /* \"#utility.yul\":1641:1703   */\n      tag_378\n      jumpi\n        /* \"#utility.yul\":1699:1700   */\n      0x00\n        /* \"#utility.yul\":1696:1697   */\n      dup1\n        /* \"#utility.yul\":1689:1701   */\n      revert\n        /* \"#utility.yul\":1641:1703   */\n    tag_378:\n        /* \"#utility.yul\":1589:1709   */\n      pop\n      jump\t// out\n        /* \"#utility.yul\":1715:1852   */\n    tag_305:\n        /* \"#utility.yul\":1760:1765   */\n      0x00\n        /* \"#utility.yul\":1798:1804   */\n      dup2\n        /* \"#utility.yul\":1785:1805   */\n      calldataload\n        /* \"#utility.yul\":1776:1805   */\n      swap1\n      pop\n        /* \"#utility.yul\":1814:1846   */\n      tag_380\n        /* \"#utility.yul\":1840:1845   */\n      dup2\n        /* \"#utility.yul\":1814:1846   */\n      tag_304\n      jump\t// in\n    tag_380:\n        /* \"#utility.yul\":1715:1852   */\n      swap3\n      swap2\n      pop\n      pop\n      jump\t// out\n        /* \"#utility.yul\":1858:2185   */\n    tag_31:\n        /* \"#utility.yul\":1916:1922   */\n      0x00\n        /* \"#utility.yul\":1965:1967   */\n      0x20\n        /* \"#utility.yul\":1953:1962   */\n      dup3\n        /* \"#utility.yul\":1944:1951   */\n      dup5\n        /* \"#utility.yul\":1940:1963   */\n      sub\n        /* \"#utility.yul\":1936:1968   */\n      slt\n        /* \"#utility.yul\":1933:2052   */\n      iszero\n      tag_382\n      jumpi\n        /* \"#utility.yul\":1971:2050   */\n      tag_383\n      tag_301\n      jump\t// in\n    tag_383:\n        /* \"#utility.yul\":1933:2052   */\n    tag_382:\n        /* \"#utility.yul\":2091:2092   */\n      0x00\n        /* \"#utility.yul\":2116:2168   */\n      tag_384\n        /* \"#utility.yul\":2160:2167   */\n      dup5\n        /* \"#utility.yul\":2151:2157   */\n      dup3\n        /* \"#utility.yul\":2140:2149   */\n      dup6\n        /* \"#utility.yul\":2136:2158   */\n      add\n        /* \"#utility.yul\":2116:2168   */\n      tag_305\n      jump\t// in\n    tag_384:\n        /* \"#utility.yul\":2106:2168   */\n      swap2\n      pop\n        /* \"#utility.yul\":2062:2178   */\n      pop\n        /* \"#utility.yul\":1858:2185   */\n      swap3\n      swap2\n      pop\n      pop\n      jump\t// out\n        /* \"#utility.yul\":2191:2284   */\n    tag_306:\n        /* \"#utility.yul\":2227:2234   */\n      0x00\n        /* \"#utility.yul\":2267:2277   */\n      0xffffffff\n        /* \"#utility.yul\":2260:2265   */\n      dup3\n        /* \"#utility.yul\":2256:2278   */\n      and\n        /* \"#utility.yul\":2245:2278   */\n      swap1\n      pop\n        /* \"#utility.yul\":2191:2284   */\n      swap2\n      swap1\n      pop\n      jump\t// out\n        /* \"#utility.yul\":2290:2410   */\n    tag_307:\n        /* \"#utility.yul\":2362:2385   */\n      tag_387\n        /* \"#utility.yul\":2379:2384   */\n      dup2\n        /* \"#utility.yul\":2362:2385   */\n      tag_306\n      jump\t// in\n    tag_387:\n        /* \"#utility.yul\":2355:2360   */\n      dup2\n        /* \"#utility.yul\":2352:2386   */\n      eq\n        /* \"#utility.yul\":2342:2404   */\n      tag_388\n      jumpi\n        /* \"#utility.yul\":2400:2401   */\n      0x00\n        /* \"#utility.yul\":2397:2398   */\n      dup1\n        /* \"#utility.yul\":2390:2402   */\n      revert\n        /* \"#utility.yul\":2342:2404   */\n    tag_388:\n        /* \"#utility.yul\":2290:2410   */\n      pop\n      jump\t// out\n        /* \"#utility.yul\":2416:2553   */\n    tag_308:\n        /* \"#utility.yul\":2461:2466   */\n      0x00\n        /* \"#utility.yul\":2499:2505   */\n      dup2\n        /* \"#utility.yul\":2486:2506   */\n      calldataload\n        /* \"#utility.yul\":2477:2506   */\n      swap1\n      pop\n        /* \"#utility.yul\":2515:2547   */\n      tag_390\n        /* \"#utility.yul\":2541:2546   */\n      dup2\n        /* \"#utility.yul\":2515:2547   */\n      tag_307\n      jump\t// in\n    tag_390:\n        /* \"#utility.yul\":2416:2553   */\n      swap3\n      swap2\n      pop\n      pop\n      jump\t// out\n        /* \"#utility.yul\":2559:2886   */\n    tag_36:\n        /* \"#utility.yul\":2617:2623   */\n      0x00\n        /* \"#utility.yul\":2666:2668   */\n      0x20\n        /* \"#utility.yul\":2654:2663   */\n      dup3\n        /* \"#utility.yul\":2645:2652   */\n      dup5\n        /* \"#utility.yul\":2641:2664   */\n      sub\n        /* \"#utility.yul\":2637:2669   */\n      slt\n        /* \"#utility.yul\":2634:2753   */\n      iszero\n      tag_392\n      jumpi\n        /* \"#utility.yul\":2672:2751   */\n      tag_393\n      tag_301\n      jump\t// in\n    tag_393:\n        /* \"#utility.yul\":2634:2753   */\n    tag_392:\n        /* \"#utility.yul\":2792:2793   */\n      0x00\n        /* \"#utility.yul\":2817:2869   */\n      tag_394\n        /* \"#utility.yul\":2861:2868   */\n      dup5\n        /* \"#utility.yul\":2852:2858   */\n      dup3\n        /* \"#utility.yul\":2841:2850   */\n      dup6\n        /* \"#utility.yul\":2837:2859   */\n      add\n        /* \"#utility.yul\":2817:2869   */\n      tag_308\n      jump\t// in\n    tag_394:\n        /* \"#utility.yul\":2807:2869   */\n      swap2\n      pop\n        /* \"#utility.yul\":2763:2879   */\n      pop\n        /* \"#utility.yul\":2559:2886   */\n      swap3\n      swap2\n      pop\n      pop\n      jump\t// out\n        /* \"#utility.yul\":2892:2982   */\n    tag_309:\n        /* \"#utility.yul\":2926:2933   */\n      0x00\n        /* \"#utility.yul\":2969:2974   */\n      dup2\n        /* \"#utility.yul\":2962:2975   */\n      iszero\n        /* \"#utility.yul\":2955:2976   */\n      iszero\n        /* \"#utility.yul\":2944:2976   */\n      swap1\n      pop\n        /* \"#utility.yul\":2892:2982   */\n      swap2\n      swap1\n      pop\n      jump\t// out\n        /* \"#utility.yul\":2988:3097   */\n    tag_310:\n        /* \"#utility.yul\":3069:3090   */\n      tag_397\n        /* \"#utility.yul\":3084:3089   */\n      dup2\n        /* \"#utility.yul\":3069:3090   */\n      tag_309\n      jump\t// in\n    tag_397:\n        /* \"#utility.yul\":3064:3067   */\n      dup3\n        /* \"#utility.yul\":3057:3091   */\n      mstore\n        /* \"#utility.yul\":2988:3097   */\n      pop\n      pop\n      jump\t// out\n        /* \"#utility.yul\":3103:3313   */\n    tag_39:\n        /* \"#utility.yul\":3190:3194   */\n      0x00\n        /* \"#utility.yul\":3228:3230   */\n      0x20\n        /* \"#utility.yul\":3217:3226   */\n      dup3\n        /* \"#utility.yul\":3213:3231   */\n      add\n        /* \"#utility.yul\":3205:3231   */\n      swap1\n      pop\n        /* \"#utility.yul\":3241:3306   */\n      tag_399\n        /* \"#utility.yul\":3303:3304   */\n      0x00\n        /* \"#utility.yul\":3292:3301   */\n      dup4\n        /* \"#utility.yul\":3288:3305   */\n      add\n        /* \"#utility.yul\":3279:3285   */\n      dup5\n        /* \"#utility.yul\":3241:3306   */\n      tag_310\n      jump\t// in\n    tag_399:\n        /* \"#utility.yul\":3103:3313   */\n      swap3\n      swap2\n      pop\n      pop\n      jump\t// out\n        /* \"#utility.yul\":3319:3436   */\n    tag_311:\n        /* \"#utility.yul\":3428:3429   */\n      0x00\n        /* \"#utility.yul\":3425:3426   */\n      dup1\n        /* \"#utility.yul\":3418:3430   */\n      revert\n        /* \"#utility.yul\":3442:3559   */\n    tag_312:\n        /* \"#utility.yul\":3551:3552   */\n      0x00\n        /* \"#utility.yul\":3548:3549   */\n      dup1\n        /* \"#utility.yul\":3541:3553   */\n      revert\n        /* \"#utility.yul\":3565:3682   */\n    tag_313:\n        /* \"#utility.yul\":3674:3675   */\n      0x00\n        /* \"#utility.yul\":3671:3672   */\n      dup1\n        /* \"#utility.yul\":3664:3676   */\n      revert\n        /* \"#utility.yul\":3704:4271   */\n    tag_314:\n        /* \"#utility.yul\":3776:3784   */\n      0x00\n        /* \"#utility.yul\":3786:3792   */\n      dup1\n        /* \"#utility.yul\":3836:3839   */\n      dup4\n        /* \"#utility.yul\":3829:3833   */\n      0x1f\n        /* \"#utility.yul\":3821:3827   */\n      dup5\n        /* \"#utility.yul\":3817:3834   */\n      add\n        /* \"#utility.yul\":3813:3840   */\n      slt\n        /* \"#utility.yul\":3803:3925   */\n      tag_404\n      jumpi\n        /* \"#utility.yul\":3844:3923   */\n      tag_405\n      tag_311\n      jump\t// in\n    tag_405:\n        /* \"#utility.yul\":3803:3925   */\n    tag_404:\n        /* \"#utility.yul\":3957:3963   */\n      dup3\n        /* \"#utility.yul\":3944:3964   */\n      calldataload\n        /* \"#utility.yul\":3934:3964   */\n      swap1\n      pop\n        /* \"#utility.yul\":3987:4005   */\n      0xffffffffffffffff\n        /* \"#utility.yul\":3979:3985   */\n      dup2\n        /* \"#utility.yul\":3976:4006   */\n      gt\n        /* \"#utility.yul\":3973:4090   */\n      iszero\n      tag_406\n      jumpi\n        /* \"#utility.yul\":4009:4088   */\n      tag_407\n      tag_312\n      jump\t// in\n    tag_407:\n        /* \"#utility.yul\":3973:4090   */\n    tag_406:\n        /* \"#utility.yul\":4123:4127   */\n      0x20\n        /* \"#utility.yul\":4115:4121   */\n      dup4\n        /* \"#utility.yul\":4111:4128   */\n      add\n        /* \"#utility.yul\":4099:4128   */\n      swap2\n      pop\n        /* \"#utility.yul\":4177:4180   */\n      dup4\n        /* \"#utility.yul\":4169:4173   */\n      0x20\n        /* \"#utility.yul\":4161:4167   */\n      dup3\n        /* \"#utility.yul\":4157:4174   */\n      mul\n        /* \"#utility.yul\":4147:4155   */\n      dup4\n        /* \"#utility.yul\":4143:4175   */\n      add\n        /* \"#utility.yul\":4140:4181   */\n      gt\n        /* \"#utility.yul\":4137:4265   */\n      iszero\n      tag_408\n      jumpi\n        /* \"#utility.yul\":4184:4263   */\n      tag_409\n      tag_313\n      jump\t// in\n    tag_409:\n        /* \"#utility.yul\":4137:4265   */\n    tag_408:\n        /* \"#utility.yul\":3704:4271   */\n      swap3\n      pop\n      swap3\n      swap1\n      pop\n      jump\t// out\n        /* \"#utility.yul\":4277:4977   */\n    tag_48:\n        /* \"#utility.yul\":4370:4376   */\n      0x00\n        /* \"#utility.yul\":4378:4384   */\n      dup1\n        /* \"#utility.yul\":4386:4392   */\n      0x00\n        /* \"#utility.yul\":4435:4437   */\n      0x40\n        /* \"#utility.yul\":4423:4432   */\n      dup5\n        /* \"#utility.yul\":4414:4421   */\n      dup7\n        /* \"#utility.yul\":4410:4433   */\n      sub\n        /* \"#utility.yul\":4406:4438   */\n      slt\n        /* \"#utility.yul\":4403:4522   */\n      iszero\n      tag_411\n      jumpi\n        /* \"#utility.yul\":4441:4520   */\n      tag_412\n      tag_301\n      jump\t// in\n    tag_412:\n        /* \"#utility.yul\":4403:4522   */\n    tag_411:\n        /* \"#utility.yul\":4589:4590   */\n      0x00\n        /* \"#utility.yul\":4578:4587   */\n      dup5\n        /* \"#utility.yul\":4574:4591   */\n      add\n        /* \"#utility.yul\":4561:4592   */\n      calldataload\n        /* \"#utility.yul\":4619:4637   */\n      0xffffffffffffffff\n        /* \"#utility.yul\":4611:4617   */\n      dup2\n        /* \"#utility.yul\":4608:4638   */\n      gt\n        /* \"#utility.yul\":4605:4722   */\n      iszero\n      tag_413\n      jumpi\n        /* \"#utility.yul\":4641:4720   */\n      tag_414\n      tag_302\n      jump\t// in\n    tag_414:\n        /* \"#utility.yul\":4605:4722   */\n    tag_413:\n        /* \"#utility.yul\":4754:4833   */\n      tag_415\n        /* \"#utility.yul\":4825:4832   */\n      dup7\n        /* \"#utility.yul\":4816:4822   */\n      dup3\n        /* \"#utility.yul\":4805:4814   */\n      dup8\n        /* \"#utility.yul\":4801:4823   */\n      add\n        /* \"#utility.yul\":4754:4833   */\n      tag_314\n      jump\t// in\n    tag_415:\n        /* \"#utility.yul\":4736:4833   */\n      swap4\n      pop\n      swap4\n      pop\n        /* \"#utility.yul\":4532:4843   */\n      pop\n        /* \"#utility.yul\":4882:4884   */\n      0x20\n        /* \"#utility.yul\":4908:4960   */\n      tag_416\n        /* \"#utility.yul\":4952:4959   */\n      dup7\n        /* \"#utility.yul\":4943:4949   */\n      dup3\n        /* \"#utility.yul\":4932:4941   */\n      dup8\n        /* \"#utility.yul\":4928:4950   */\n      add\n        /* \"#utility.yul\":4908:4960   */\n      tag_308\n      jump\t// in\n    tag_416:\n        /* \"#utility.yul\":4898:4960   */\n      swap2\n      pop\n        /* \"#utility.yul\":4853:4970   */\n      pop\n        /* \"#utility.yul\":4277:4977   */\n      swap3\n      pop\n      swap3\n      pop\n      swap3\n      jump\t// out\n        /* \"#utility.yul\":4983:5098   */\n    tag_315:\n        /* \"#utility.yul\":5068:5091   */\n      tag_418\n        /* \"#utility.yul\":5085:5090   */\n      dup2\n        /* \"#utility.yul\":5068:5091   */\n      tag_303\n      jump\t// in\n    tag_418:\n        /* \"#utility.yul\":5063:5066   */\n      dup3\n        /* \"#utility.yul\":5056:5092   */\n      mstore\n        /* \"#utility.yul\":4983:5098   */\n      pop\n      pop\n      jump\t// out\n        /* \"#utility.yul\":5104:5322   */\n    tag_54:\n        /* \"#utility.yul\":5195:5199   */\n      0x00\n        /* \"#utility.yul\":5233:5235   */\n      0x20\n        /* \"#utility.yul\":5222:5231   */\n      dup3\n        /* \"#utility.yul\":5218:5236   */\n      add\n        /* \"#utility.yul\":5210:5236   */\n      swap1\n      pop\n        /* \"#utility.yul\":5246:5315   */\n      tag_420\n        /* \"#utility.yul\":5312:5313   */\n      0x00\n        /* \"#utility.yul\":5301:5310   */\n      dup4\n        /* \"#utility.yul\":5297:5314   */\n      add\n        /* \"#utility.yul\":5288:5294   */\n      dup5\n        /* \"#utility.yul\":5246:5315   */\n      tag_315\n      jump\t// in\n    tag_420:\n        /* \"#utility.yul\":5104:5322   */\n      swap3\n      swap2\n      pop\n      pop\n      jump\t// out\n        /* \"#utility.yul\":5328:5405   */\n    tag_316:\n        /* \"#utility.yul\":5365:5372   */\n      0x00\n        /* \"#utility.yul\":5394:5399   */\n      dup2\n        /* \"#utility.yul\":5383:5399   */\n      swap1\n      pop\n        /* \"#utility.yul\":5328:5405   */\n      swap2\n      swap1\n      pop\n      jump\t// out\n        /* \"#utility.yul\":5411:5533   */\n    tag_317:\n        /* \"#utility.yul\":5484:5508   */\n      tag_423\n        /* \"#utility.yul\":5502:5507   */\n      dup2\n        /* \"#utility.yul\":5484:5508   */\n      tag_316\n      jump\t// in\n    tag_423:\n        /* \"#utility.yul\":5477:5482   */\n      dup2\n        /* \"#utility.yul\":5474:5509   */\n      eq\n        /* \"#utility.yul\":5464:5527   */\n      tag_424\n      jumpi\n        /* \"#utility.yul\":5523:5524   */\n      0x00\n        /* \"#utility.yul\":5520:5521   */\n      dup1\n        /* \"#utility.yul\":5513:5525   */\n      revert\n        /* \"#utility.yul\":5464:5527   */\n    tag_424:\n        /* \"#utility.yul\":5411:5533   */\n      pop\n      jump\t// out\n        /* \"#utility.yul\":5539:5678   */\n    tag_318:\n        /* \"#utility.yul\":5585:5590   */\n      0x00\n        /* \"#utility.yul\":5623:5629   */\n      dup2\n        /* \"#utility.yul\":5610:5630   */\n      calldataload\n        /* \"#utility.yul\":5601:5630   */\n      swap1\n      pop\n        /* \"#utility.yul\":5639:5672   */\n      tag_426\n        /* \"#utility.yul\":5666:5671   */\n      dup2\n        /* \"#utility.yul\":5639:5672   */\n      tag_317\n      jump\t// in\n    tag_426:\n        /* \"#utility.yul\":5539:5678   */\n      swap3\n      swap2\n      pop\n      pop\n      jump\t// out\n        /* \"#utility.yul\":5684:6013   */\n    tag_58:\n        /* \"#utility.yul\":5743:5749   */\n      0x00\n        /* \"#utility.yul\":5792:5794   */\n      0x20\n        /* \"#utility.yul\":5780:5789   */\n      dup3\n        /* \"#utility.yul\":5771:5778   */\n      dup5\n        /* \"#utility.yul\":5767:5790   */\n      sub\n        /* \"#utility.yul\":5763:5795   */\n      slt\n        /* \"#utility.yul\":5760:5879   */\n      iszero\n      tag_428\n      jumpi\n        /* \"#utility.yul\":5798:5877   */\n      tag_429\n      tag_301\n      jump\t// in\n    tag_429:\n        /* \"#utility.yul\":5760:5879   */\n    tag_428:\n        /* \"#utility.yul\":5918:5919   */\n      0x00\n        /* \"#utility.yul\":5943:5996   */\n      tag_430\n        /* \"#utility.yul\":5988:5995   */\n      dup5\n        /* \"#utility.yul\":5979:5985   */\n      dup3\n        /* \"#utility.yul\":5968:5977   */\n      dup6\n        /* \"#utility.yul\":5964:5986   */\n      add\n        /* \"#utility.yul\":5943:5996   */\n      tag_318\n      jump\t// in\n    tag_430:\n        /* \"#utility.yul\":5933:5996   */\n      swap2\n      pop\n        /* \"#utility.yul\":5889:6006   */\n      pop\n        /* \"#utility.yul\":5684:6013   */\n      swap3\n      swap2\n      pop\n      pop\n      jump\t// out\n        /* \"#utility.yul\":6019:6137   */\n    tag_319:\n        /* \"#utility.yul\":6106:6130   */\n      tag_432\n        /* \"#utility.yul\":6124:6129   */\n      dup2\n        /* \"#utility.yul\":6106:6130   */\n      tag_316\n      jump\t// in\n    tag_432:\n        /* \"#utility.yul\":6101:6104   */\n      dup3\n        /* \"#utility.yul\":6094:6131   */\n      mstore\n        /* \"#utility.yul\":6019:6137   */\n      pop\n      pop\n      jump\t// out\n        /* \"#utility.yul\":6143:6365   */\n    tag_64:\n        /* \"#utility.yul\":6236:6240   */\n      0x00\n        /* \"#utility.yul\":6274:6276   */\n      0x20\n        /* \"#utility.yul\":6263:6272   */\n      dup3\n        /* \"#utility.yul\":6259:6277   */\n      add\n        /* \"#utility.yul\":6251:6277   */\n      swap1\n      pop\n        /* \"#utility.yul\":6287:6358   */\n      tag_434\n        /* \"#utility.yul\":6355:6356   */\n      0x00\n        /* \"#utility.yul\":6344:6353   */\n      dup4\n        /* \"#utility.yul\":6340:6357   */\n      add\n        /* \"#utility.yul\":6331:6337   */\n      dup5\n        /* \"#utility.yul\":6287:6358   */\n      tag_319\n      jump\t// in\n    tag_434:\n        /* \"#utility.yul\":6143:6365   */\n      swap3\n      swap2\n      pop\n      pop\n      jump\t// out\n        /* \"#utility.yul\":6371:6497   */\n    tag_320:\n        /* \"#utility.yul\":6408:6415   */\n      0x00\n        /* \"#utility.yul\":6448:6490   */\n      0xffffffffffffffffffffffffffffffffffffffff\n        /* \"#utility.yul\":6441:6446   */\n      dup3\n        /* \"#utility.yul\":6437:6491   */\n      and\n        /* \"#utility.yul\":6426:6491   */\n      swap1\n      pop\n        /* \"#utility.yul\":6371:6497   */\n      swap2\n      swap1\n      pop\n      jump\t// out\n        /* \"#utility.yul\":6503:6599   */\n    tag_321:\n        /* \"#utility.yul\":6540:6547   */\n      0x00\n        /* \"#utility.yul\":6569:6593   */\n      tag_437\n        /* \"#utility.yul\":6587:6592   */\n      dup3\n        /* \"#utility.yul\":6569:6593   */\n      tag_320\n      jump\t// in\n    tag_437:\n        /* \"#utility.yul\":6558:6593   */\n      swap1\n      pop\n        /* \"#utility.yul\":6503:6599   */\n      swap2\n      swap1\n      pop\n      jump\t// out\n        /* \"#utility.yul\":6605:6723   */\n    tag_322:\n        /* \"#utility.yul\":6692:6716   */\n      tag_439\n        /* \"#utility.yul\":6710:6715   */\n      dup2\n        /* \"#utility.yul\":6692:6716   */\n      tag_321\n      jump\t// in\n    tag_439:\n        /* \"#utility.yul\":6687:6690   */\n      dup3\n        /* \"#utility.yul\":6680:6717   */\n      mstore\n        /* \"#utility.yul\":6605:6723   */\n      pop\n      pop\n      jump\t// out\n        /* \"#utility.yul\":6729:6951   */\n    tag_83:\n        /* \"#utility.yul\":6822:6826   */\n      0x00\n        /* \"#utility.yul\":6860:6862   */\n      0x20\n        /* \"#utility.yul\":6849:6858   */\n      dup3\n        /* \"#utility.yul\":6845:6863   */\n      add\n        /* \"#utility.yul\":6837:6863   */\n      swap1\n      pop\n        /* \"#utility.yul\":6873:6944   */\n      tag_441\n        /* \"#utility.yul\":6941:6942   */\n      0x00\n        /* \"#utility.yul\":6930:6939   */\n      dup4\n        /* \"#utility.yul\":6926:6943   */\n      add\n        /* \"#utility.yul\":6917:6923   */\n      dup5\n        /* \"#utility.yul\":6873:6944   */\n      tag_322\n      jump\t// in\n    tag_441:\n        /* \"#utility.yul\":6729:6951   */\n      swap3\n      swap2\n      pop\n      pop\n      jump\t// out\n        /* \"#utility.yul\":6957:7079   */\n    tag_323:\n        /* \"#utility.yul\":7030:7054   */\n      tag_443\n        /* \"#utility.yul\":7048:7053   */\n      dup2\n        /* \"#utility.yul\":7030:7054   */\n      tag_321\n      jump\t// in\n    tag_443:\n        /* \"#utility.yul\":7023:7028   */\n      dup2\n        /* \"#utility.yul\":7020:7055   */\n      eq\n        /* \"#utility.yul\":7010:7073   */\n      tag_444\n      jumpi\n        /* \"#utility.yul\":7069:7070   */\n      0x00\n        /* \"#utility.yul\":7066:7067   */\n      dup1\n        /* \"#utility.yul\":7059:7071   */\n      revert\n        /* \"#utility.yul\":7010:7073   */\n    tag_444:\n        /* \"#utility.yul\":6957:7079   */\n      pop\n      jump\t// out\n        /* \"#utility.yul\":7085:7224   */\n    tag_324:\n        /* \"#utility.yul\":7131:7136   */\n      0x00\n        /* \"#utility.yul\":7169:7175   */\n      dup2\n        /* \"#utility.yul\":7156:7176   */\n      calldataload\n        /* \"#utility.yul\":7147:7176   */\n      swap1\n      pop\n        /* \"#utility.yul\":7185:7218   */\n      tag_446\n        /* \"#utility.yul\":7212:7217   */\n      dup2\n        /* \"#utility.yul\":7185:7218   */\n      tag_323\n      jump\t// in\n    tag_446:\n        /* \"#utility.yul\":7085:7224   */\n      swap3\n      swap2\n      pop\n      pop\n      jump\t// out\n        /* \"#utility.yul\":7230:7559   */\n    tag_104:\n        /* \"#utility.yul\":7289:7295   */\n      0x00\n        /* \"#utility.yul\":7338:7340   */\n      0x20\n        /* \"#utility.yul\":7326:7335   */\n      dup3\n        /* \"#utility.yul\":7317:7324   */\n      dup5\n        /* \"#utility.yul\":7313:7336   */\n      sub\n        /* \"#utility.yul\":7309:7341   */\n      slt\n        /* \"#utility.yul\":7306:7425   */\n      iszero\n      tag_448\n      jumpi\n        /* \"#utility.yul\":7344:7423   */\n      tag_449\n      tag_301\n      jump\t// in\n    tag_449:\n        /* \"#utility.yul\":7306:7425   */\n    tag_448:\n        /* \"#utility.yul\":7464:7465   */\n      0x00\n        /* \"#utility.yul\":7489:7542   */\n      tag_450\n        /* \"#utility.yul\":7534:7541   */\n      dup5\n        /* \"#utility.yul\":7525:7531   */\n      dup3\n        /* \"#utility.yul\":7514:7523   */\n      dup6\n        /* \"#utility.yul\":7510:7532   */\n      add\n        /* \"#utility.yul\":7489:7542   */\n      tag_324\n      jump\t// in\n    tag_450:\n        /* \"#utility.yul\":7479:7542   */\n      swap2\n      pop\n        /* \"#utility.yul\":7435:7552   */\n      pop\n        /* \"#utility.yul\":7230:7559   */\n      swap3\n      swap2\n      pop\n      pop\n      jump\t// out\n        /* \"#utility.yul\":7565:7734   */\n    tag_325:\n        /* \"#utility.yul\":7705:7726   */\n      0x4d696e696d756d206d757374206265203e203000000000000000000000000000\n        /* \"#utility.yul\":7701:7702   */\n      0x00\n        /* \"#utility.yul\":7693:7699   */\n      dup3\n        /* \"#utility.yul\":7689:7703   */\n      add\n        /* \"#utility.yul\":7682:7727   */\n      mstore\n        /* \"#utility.yul\":7565:7734   */\n      pop\n      jump\t// out\n        /* \"#utility.yul\":7740:8106   */\n    tag_326:\n        /* \"#utility.yul\":7882:7885   */\n      0x00\n        /* \"#utility.yul\":7903:7970   */\n      tag_453\n        /* \"#utility.yul\":7967:7969   */\n      0x13\n        /* \"#utility.yul\":7962:7965   */\n      dup4\n        /* \"#utility.yul\":7903:7970   */\n      tag_297\n      jump\t// in\n    tag_453:\n        /* \"#utility.yul\":7896:7970   */\n      swap2\n      pop\n        /* \"#utility.yul\":7979:8072   */\n      tag_454\n        /* \"#utility.yul\":8068:8071   */\n      dup3\n        /* \"#utility.yul\":7979:8072   */\n      tag_325\n      jump\t// in\n    tag_454:\n        /* \"#utility.yul\":8097:8099   */\n      0x20\n        /* \"#utility.yul\":8092:8095   */\n      dup3\n        /* \"#utility.yul\":8088:8100   */\n      add\n        /* \"#utility.yul\":8081:8100   */\n      swap1\n      pop\n        /* \"#utility.yul\":7740:8106   */\n      swap2\n      swap1\n      pop\n      jump\t// out\n        /* \"#utility.yul\":8112:8531   */\n    tag_112:\n        /* \"#utility.yul\":8278:8282   */\n      0x00\n        /* \"#utility.yul\":8316:8318   */\n      0x20\n        /* \"#utility.yul\":8305:8314   */\n      dup3\n        /* \"#utility.yul\":8301:8319   */\n      add\n        /* \"#utility.yul\":8293:8319   */\n      swap1\n      pop\n        /* \"#utility.yul\":8365:8374   */\n      dup2\n        /* \"#utility.yul\":8359:8363   */\n      dup2\n        /* \"#utility.yul\":8355:8375   */\n      sub\n        /* \"#utility.yul\":8351:8352   */\n      0x00\n        /* \"#utility.yul\":8340:8349   */\n      dup4\n        /* \"#utility.yul\":8336:8353   */\n      add\n        /* \"#utility.yul\":8329:8376   */\n      mstore\n        /* \"#utility.yul\":8393:8524   */\n      tag_456\n        /* \"#utility.yul\":8519:8523   */\n      dup2\n        /* \"#utility.yul\":8393:8524   */\n      tag_326\n      jump\t// in\n    tag_456:\n        /* \"#utility.yul\":8385:8524   */\n      swap1\n      pop\n        /* \"#utility.yul\":8112:8531   */\n      swap2\n      swap1\n      pop\n      jump\t// out\n        /* \"#utility.yul\":8537:8705   */\n    tag_327:\n        /* \"#utility.yul\":8677:8697   */\n      0x4e6f20746f6b656e732070726f76696465640000000000000000000000000000\n        /* \"#utility.yul\":8673:8674   */\n      0x00\n        /* \"#utility.yul\":8665:8671   */\n      dup3\n        /* \"#utility.yul\":8661:8675   */\n      add\n        /* \"#utility.yul\":8654:8698   */\n      mstore\n        /* \"#utility.yul\":8537:8705   */\n      pop\n      jump\t// out\n        /* \"#utility.yul\":8711:9077   */\n    tag_328:\n        /* \"#utility.yul\":8853:8856   */\n      0x00\n        /* \"#utility.yul\":8874:8941   */\n      tag_459\n        /* \"#utility.yul\":8938:8940   */\n      0x12\n        /* \"#utility.yul\":8933:8936   */\n      dup4\n        /* \"#utility.yul\":8874:8941   */\n      tag_297\n      jump\t// in\n    tag_459:\n        /* \"#utility.yul\":8867:8941   */\n      swap2\n      pop\n        /* \"#utility.yul\":8950:9043   */\n      tag_460\n        /* \"#utility.yul\":9039:9042   */\n      dup3\n        /* \"#utility.yul\":8950:9043   */\n      tag_327\n      jump\t// in\n    tag_460:\n        /* \"#utility.yul\":9068:9070   */\n      0x20\n        /* \"#utility.yul\":9063:9066   */\n      dup3\n        /* \"#utility.yul\":9059:9071   */\n      add\n        /* \"#utility.yul\":9052:9071   */\n      swap1\n      pop\n        /* \"#utility.yul\":8711:9077   */\n      swap2\n      swap1\n      pop\n      jump\t// out\n        /* \"#utility.yul\":9083:9502   */\n    tag_143:\n        /* \"#utility.yul\":9249:9253   */\n      0x00\n        /* \"#utility.yul\":9287:9289   */\n      0x20\n        /* \"#utility.yul\":9276:9285   */\n      dup3\n        /* \"#utility.yul\":9272:9290   */\n      add\n        /* \"#utility.yul\":9264:9290   */\n      swap1\n      pop\n        /* \"#utility.yul\":9336:9345   */\n      dup2\n        /* \"#utility.yul\":9330:9334   */\n      dup2\n        /* \"#utility.yul\":9326:9346   */\n      sub\n        /* \"#utility.yul\":9322:9323   */\n      0x00\n        /* \"#utility.yul\":9311:9320   */\n      dup4\n        /* \"#utility.yul\":9307:9324   */\n      add\n        /* \"#utility.yul\":9300:9347   */\n      mstore\n        /* \"#utility.yul\":9364:9495   */\n      tag_462\n        /* \"#utility.yul\":9490:9494   */\n      dup2\n        /* \"#utility.yul\":9364:9495   */\n      tag_328\n      jump\t// in\n    tag_462:\n        /* \"#utility.yul\":9356:9495   */\n      swap1\n      pop\n        /* \"#utility.yul\":9083:9502   */\n      swap2\n      swap1\n      pop\n      jump\t// out\n        /* \"#utility.yul\":9508:9688   */\n    tag_329:\n        /* \"#utility.yul\":9648:9680   */\n      0x4275726e2074686520726571756972656420746f6b656e20616d6f756e740000\n        /* \"#utility.yul\":9644:9645   */\n      0x00\n        /* \"#utility.yul\":9636:9642   */\n      dup3\n        /* \"#utility.yul\":9632:9646   */\n      add\n        /* \"#utility.yul\":9625:9681   */\n      mstore\n        /* \"#utility.yul\":9508:9688   */\n      pop\n      jump\t// out\n        /* \"#utility.yul\":9694:10060   */\n    tag_330:\n        /* \"#utility.yul\":9836:9839   */\n      0x00\n        /* \"#utility.yul\":9857:9924   */\n      tag_465\n        /* \"#utility.yul\":9921:9923   */\n      0x1e\n        /* \"#utility.yul\":9916:9919   */\n      dup4\n        /* \"#utility.yul\":9857:9924   */\n      tag_297\n      jump\t// in\n    tag_465:\n        /* \"#utility.yul\":9850:9924   */\n      swap2\n      pop\n        /* \"#utility.yul\":9933:10026   */\n      tag_466\n        /* \"#utility.yul\":10022:10025   */\n      dup3\n        /* \"#utility.yul\":9933:10026   */\n      tag_329\n      jump\t// in\n    tag_466:\n        /* \"#utility.yul\":10051:10053   */\n      0x20\n        /* \"#utility.yul\":10046:10049   */\n      dup3\n        /* \"#utility.yul\":10042:10054   */\n      add\n        /* \"#utility.yul\":10035:10054   */\n      swap1\n      pop\n        /* \"#utility.yul\":9694:10060   */\n      swap2\n      swap1\n      pop\n      jump\t// out\n        /* \"#utility.yul\":10066:10485   */\n    tag_146:\n        /* \"#utility.yul\":10232:10236   */\n      0x00\n        /* \"#utility.yul\":10270:10272   */\n      0x20\n        /* \"#utility.yul\":10259:10268   */\n      dup3\n        /* \"#utility.yul\":10255:10273   */\n      add\n        /* \"#utility.yul\":10247:10273   */\n      swap1\n      pop\n        /* \"#utility.yul\":10319:10328   */\n      dup2\n        /* \"#utility.yul\":10313:10317   */\n      dup2\n        /* \"#utility.yul\":10309:10329   */\n      sub\n        /* \"#utility.yul\":10305:10306   */\n      0x00\n        /* \"#utility.yul\":10294:10303   */\n      dup4\n        /* \"#utility.yul\":10290:10307   */\n      add\n        /* \"#utility.yul\":10283:10330   */\n      mstore\n        /* \"#utility.yul\":10347:10478   */\n      tag_468\n        /* \"#utility.yul\":10473:10477   */\n      dup2\n        /* \"#utility.yul\":10347:10478   */\n      tag_330\n      jump\t// in\n    tag_468:\n        /* \"#utility.yul\":10339:10478   */\n      swap1\n      pop\n        /* \"#utility.yul\":10066:10485   */\n      swap2\n      swap1\n      pop\n      jump\t// out\n        /* \"#utility.yul\":10491:10661   */\n    tag_331:\n        /* \"#utility.yul\":10631:10653   */\n      0x496e73756666696369656e74207061796d656e74000000000000000000000000\n        /* \"#utility.yul\":10627:10628   */\n      0x00\n        /* \"#utility.yul\":10619:10625   */\n      dup3\n        /* \"#utility.yul\":10615:10629   */\n      add\n        /* \"#utility.yul\":10608:10654   */\n      mstore\n        /* \"#utility.yul\":10491:10661   */\n      pop\n      jump\t// out\n        /* \"#utility.yul\":10667:11033   */\n    tag_332:\n        /* \"#utility.yul\":10809:10812   */\n      0x00\n        /* \"#utility.yul\":10830:10897   */\n      tag_471\n        /* \"#utility.yul\":10894:10896   */\n      0x14\n        /* \"#utility.yul\":10889:10892   */\n      dup4\n        /* \"#utility.yul\":10830:10897   */\n      tag_297\n      jump\t// in\n    tag_471:\n        /* \"#utility.yul\":10823:10897   */\n      swap2\n      pop\n        /* \"#utility.yul\":10906:10999   */\n      tag_472\n        /* \"#utility.yul\":10995:10998   */\n      dup3\n        /* \"#utility.yul\":10906:10999   */\n      tag_331\n      jump\t// in\n    tag_472:\n        /* \"#utility.yul\":11024:11026   */\n      0x20\n        /* \"#utility.yul\":11019:11022   */\n      dup3\n        /* \"#utility.yul\":11015:11027   */\n      add\n        /* \"#utility.yul\":11008:11027   */\n      swap1\n      pop\n        /* \"#utility.yul\":10667:11033   */\n      swap2\n      swap1\n      pop\n      jump\t// out\n        /* \"#utility.yul\":11039:11458   */\n    tag_149:\n        /* \"#utility.yul\":11205:11209   */\n      0x00\n        /* \"#utility.yul\":11243:11245   */\n      0x20\n        /* \"#utility.yul\":11232:11241   */\n      dup3\n        /* \"#utility.yul\":11228:11246   */\n      add\n        /* \"#utility.yul\":11220:11246   */\n      swap1\n      pop\n        /* \"#utility.yul\":11292:11301   */\n      dup2\n        /* \"#utility.yul\":11286:11290   */\n      dup2\n        /* \"#utility.yul\":11282:11302   */\n      sub\n        /* \"#utility.yul\":11278:11279   */\n      0x00\n        /* \"#utility.yul\":11267:11276   */\n      dup4\n        /* \"#utility.yul\":11263:11280   */\n      add\n        /* \"#utility.yul\":11256:11303   */\n      mstore\n        /* \"#utility.yul\":11320:11451   */\n      tag_474\n        /* \"#utility.yul\":11446:11450   */\n      dup2\n        /* \"#utility.yul\":11320:11451   */\n      tag_332\n      jump\t// in\n    tag_474:\n        /* \"#utility.yul\":11312:11451   */\n      swap1\n      pop\n        /* \"#utility.yul\":11039:11458   */\n      swap2\n      swap1\n      pop\n      jump\t// out\n        /* \"#utility.yul\":11464:11524   */\n    tag_333:\n        /* \"#utility.yul\":11492:11495   */\n      0x00\n        /* \"#utility.yul\":11513:11518   */\n      dup2\n        /* \"#utility.yul\":11506:11518   */\n      swap1\n      pop\n        /* \"#utility.yul\":11464:11524   */\n      swap2\n      swap1\n      pop\n      jump\t// out\n        /* \"#utility.yul\":11530:11670   */\n    tag_334:\n        /* \"#utility.yul\":11579:11588   */\n      0x00\n        /* \"#utility.yul\":11612:11664   */\n      tag_477\n        /* \"#utility.yul\":11630:11663   */\n      tag_478\n        /* \"#utility.yul\":11639:11662   */\n      tag_479\n        /* \"#utility.yul\":11656:11661   */\n      dup5\n        /* \"#utility.yul\":11639:11662   */\n      tag_306\n      jump\t// in\n    tag_479:\n        /* \"#utility.yul\":11630:11663   */\n      tag_333\n      jump\t// in\n    tag_478:\n        /* \"#utility.yul\":11612:11664   */\n      tag_316\n      jump\t// in\n    tag_477:\n        /* \"#utility.yul\":11599:11664   */\n      swap1\n      pop\n        /* \"#utility.yul\":11530:11670   */\n      swap2\n      swap1\n      pop\n      jump\t// out\n        /* \"#utility.yul\":11676:11805   */\n    tag_335:\n        /* \"#utility.yul\":11762:11798   */\n      tag_481\n        /* \"#utility.yul\":11792:11797   */\n      dup2\n        /* \"#utility.yul\":11762:11798   */\n      tag_334\n      jump\t// in\n    tag_481:\n        /* \"#utility.yul\":11757:11760   */\n      dup3\n        /* \"#utility.yul\":11750:11799   */\n      mstore\n        /* \"#utility.yul\":11676:11805   */\n      pop\n      pop\n      jump\t// out\n        /* \"#utility.yul\":11811:12031   */\n    tag_151:\n        /* \"#utility.yul\":11903:11907   */\n      0x00\n        /* \"#utility.yul\":11941:11943   */\n      0x20\n        /* \"#utility.yul\":11930:11939   */\n      dup3\n        /* \"#utility.yul\":11926:11944   */\n      add\n        /* \"#utility.yul\":11918:11944   */\n      swap1\n      pop\n        /* \"#utility.yul\":11954:12024   */\n      tag_483\n        /* \"#utility.yul\":12021:12022   */\n      0x00\n        /* \"#utility.yul\":12010:12019   */\n      dup4\n        /* \"#utility.yul\":12006:12023   */\n      add\n        /* \"#utility.yul\":11997:12003   */\n      dup5\n        /* \"#utility.yul\":11954:12024   */\n      tag_335\n      jump\t// in\n    tag_483:\n        /* \"#utility.yul\":11811:12031   */\n      swap3\n      swap2\n      pop\n      pop\n      jump\t// out\n        /* \"#utility.yul\":12037:12180   */\n    tag_336:\n        /* \"#utility.yul\":12094:12099   */\n      0x00\n        /* \"#utility.yul\":12125:12131   */\n      dup2\n        /* \"#utility.yul\":12119:12132   */\n      mload\n        /* \"#utility.yul\":12110:12132   */\n      swap1\n      pop\n        /* \"#utility.yul\":12141:12174   */\n      tag_485\n        /* \"#utility.yul\":12168:12173   */\n      dup2\n        /* \"#utility.yul\":12141:12174   */\n      tag_323\n      jump\t// in\n    tag_485:\n        /* \"#utility.yul\":12037:12180   */\n      swap3\n      swap2\n      pop\n      pop\n      jump\t// out\n        /* \"#utility.yul\":12186:12537   */\n    tag_155:\n        /* \"#utility.yul\":12256:12262   */\n      0x00\n        /* \"#utility.yul\":12305:12307   */\n      0x20\n        /* \"#utility.yul\":12293:12302   */\n      dup3\n        /* \"#utility.yul\":12284:12291   */\n      dup5\n        /* \"#utility.yul\":12280:12303   */\n      sub\n        /* \"#utility.yul\":12276:12308   */\n      slt\n        /* \"#utility.yul\":12273:12392   */\n      iszero\n      tag_487\n      jumpi\n        /* \"#utility.yul\":12311:12390   */\n      tag_488\n      tag_301\n      jump\t// in\n    tag_488:\n        /* \"#utility.yul\":12273:12392   */\n    tag_487:\n        /* \"#utility.yul\":12431:12432   */\n      0x00\n        /* \"#utility.yul\":12456:12520   */\n      tag_489\n        /* \"#utility.yul\":12512:12519   */\n      dup5\n        /* \"#utility.yul\":12503:12509   */\n      dup3\n        /* \"#utility.yul\":12492:12501   */\n      dup6\n        /* \"#utility.yul\":12488:12510   */\n      add\n        /* \"#utility.yul\":12456:12520   */\n      tag_336\n      jump\t// in\n    tag_489:\n        /* \"#utility.yul\":12446:12520   */\n      swap2\n      pop\n        /* \"#utility.yul\":12402:12530   */\n      pop\n        /* \"#utility.yul\":12186:12537   */\n      swap3\n      swap2\n      pop\n      pop\n      jump\t// out\n        /* \"#utility.yul\":12543:12708   */\n    tag_337:\n        /* \"#utility.yul\":12683:12700   */\n      0x4e6f7420746f6b656e206f776e65720000000000000000000000000000000000\n        /* \"#utility.yul\":12679:12680   */\n      0x00\n        /* \"#utility.yul\":12671:12677   */\n      dup3\n        /* \"#utility.yul\":12667:12681   */\n      add\n        /* \"#utility.yul\":12660:12701   */\n      mstore\n        /* \"#utility.yul\":12543:12708   */\n      pop\n      jump\t// out\n        /* \"#utility.yul\":12714:13080   */\n    tag_338:\n        /* \"#utility.yul\":12856:12859   */\n      0x00\n        /* \"#utility.yul\":12877:12944   */\n      tag_492\n        /* \"#utility.yul\":12941:12943   */\n      0x0f\n        /* \"#utility.yul\":12936:12939   */\n      dup4\n        /* \"#utility.yul\":12877:12944   */\n      tag_297\n      jump\t// in\n    tag_492:\n        /* \"#utility.yul\":12870:12944   */\n      swap2\n      pop\n        /* \"#utility.yul\":12953:13046   */\n      tag_493\n        /* \"#utility.yul\":13042:13045   */\n      dup3\n        /* \"#utility.yul\":12953:13046   */\n      tag_337\n      jump\t// in\n    tag_493:\n        /* \"#utility.yul\":13071:13073   */\n      0x20\n        /* \"#utility.yul\":13066:13069   */\n      dup3\n        /* \"#utility.yul\":13062:13074   */\n      add\n        /* \"#utility.yul\":13055:13074   */\n      swap1\n      pop\n        /* \"#utility.yul\":12714:13080   */\n      swap2\n      swap1\n      pop\n      jump\t// out\n        /* \"#utility.yul\":13086:13505   */\n    tag_158:\n        /* \"#utility.yul\":13252:13256   */\n      0x00\n        /* \"#utility.yul\":13290:13292   */\n      0x20\n        /* \"#utility.yul\":13279:13288   */\n      dup3\n        /* \"#utility.yul\":13275:13293   */\n      add\n        /* \"#utility.yul\":13267:13293   */\n      swap1\n      pop\n        /* \"#utility.yul\":13339:13348   */\n      dup2\n        /* \"#utility.yul\":13333:13337   */\n      dup2\n        /* \"#utility.yul\":13329:13349   */\n      sub\n        /* \"#utility.yul\":13325:13326   */\n      0x00\n        /* \"#utility.yul\":13314:13323   */\n      dup4\n        /* \"#utility.yul\":13310:13327   */\n      add\n        /* \"#utility.yul\":13303:13350   */\n      mstore\n        /* \"#utility.yul\":13367:13498   */\n      tag_495\n        /* \"#utility.yul\":13493:13497   */\n      dup2\n        /* \"#utility.yul\":13367:13498   */\n      tag_338\n      jump\t// in\n    tag_495:\n        /* \"#utility.yul\":13359:13498   */\n      swap1\n      pop\n        /* \"#utility.yul\":13086:13505   */\n      swap2\n      swap1\n      pop\n      jump\t// out\n        /* \"#utility.yul\":13511:13681   */\n    tag_339:\n        /* \"#utility.yul\":13651:13673   */\n      0x546f6b656e20616c7265616479206275726e6564000000000000000000000000\n        /* \"#utility.yul\":13647:13648   */\n      0x00\n        /* \"#utility.yul\":13639:13645   */\n      dup3\n        /* \"#utility.yul\":13635:13649   */\n      add\n        /* \"#utility.yul\":13628:13674   */\n      mstore\n        /* \"#utility.yul\":13511:13681   */\n      pop\n      jump\t// out\n        /* \"#utility.yul\":13687:14053   */\n    tag_340:\n        /* \"#utility.yul\":13829:13832   */\n      0x00\n        /* \"#utility.yul\":13850:13917   */\n      tag_498\n        /* \"#utility.yul\":13914:13916   */\n      0x14\n        /* \"#utility.yul\":13909:13912   */\n      dup4\n        /* \"#utility.yul\":13850:13917   */\n      tag_297\n      jump\t// in\n    tag_498:\n        /* \"#utility.yul\":13843:13917   */\n      swap2\n      pop\n        /* \"#utility.yul\":13926:14019   */\n      tag_499\n        /* \"#utility.yul\":14015:14018   */\n      dup3\n        /* \"#utility.yul\":13926:14019   */\n      tag_339\n      jump\t// in\n    tag_499:\n        /* \"#utility.yul\":14044:14046   */\n      0x20\n        /* \"#utility.yul\":14039:14042   */\n      dup3\n        /* \"#utility.yul\":14035:14047   */\n      add\n        /* \"#utility.yul\":14028:14047   */\n      swap1\n      pop\n        /* \"#utility.yul\":13687:14053   */\n      swap2\n      swap1\n      pop\n      jump\t// out\n        /* \"#utility.yul\":14059:14478   */\n    tag_161:\n        /* \"#utility.yul\":14225:14229   */\n      0x00\n        /* \"#utility.yul\":14263:14265   */\n      0x20\n        /* \"#utility.yul\":14252:14261   */\n      dup3\n        /* \"#utility.yul\":14248:14266   */\n      add\n        /* \"#utility.yul\":14240:14266   */\n      swap1\n      pop\n        /* \"#utility.yul\":14312:14321   */\n      dup2\n        /* \"#utility.yul\":14306:14310   */\n      dup2\n        /* \"#utility.yul\":14302:14322   */\n      sub\n        /* \"#utility.yul\":14298:14299   */\n      0x00\n        /* \"#utility.yul\":14287:14296   */\n      dup4\n        /* \"#utility.yul\":14283:14300   */\n      add\n        /* \"#utility.yul\":14276:14323   */\n      mstore\n        /* \"#utility.yul\":14340:14471   */\n      tag_501\n        /* \"#utility.yul\":14466:14470   */\n      dup2\n        /* \"#utility.yul\":14340:14471   */\n      tag_340\n      jump\t// in\n    tag_501:\n        /* \"#utility.yul\":14332:14471   */\n      swap1\n      pop\n        /* \"#utility.yul\":14059:14478   */\n      swap2\n      swap1\n      pop\n      jump\t// out\n        /* \"#utility.yul\":14484:14655   */\n    tag_341:\n        /* \"#utility.yul\":14624:14647   */\n      0x546f6b656e20616c726561647920757064617465640000000000000000000000\n        /* \"#utility.yul\":14620:14621   */\n      0x00\n        /* \"#utility.yul\":14612:14618   */\n      dup3\n        /* \"#utility.yul\":14608:14622   */\n      add\n        /* \"#utility.yul\":14601:14648   */\n      mstore\n        /* \"#utility.yul\":14484:14655   */\n      pop\n      jump\t// out\n        /* \"#utility.yul\":14661:15027   */\n    tag_342:\n        /* \"#utility.yul\":14803:14806   */\n      0x00\n        /* \"#utility.yul\":14824:14891   */\n      tag_504\n        /* \"#utility.yul\":14888:14890   */\n      0x15\n        /* \"#utility.yul\":14883:14886   */\n      dup4\n        /* \"#utility.yul\":14824:14891   */\n      tag_297\n      jump\t// in\n    tag_504:\n        /* \"#utility.yul\":14817:14891   */\n      swap2\n      pop\n        /* \"#utility.yul\":14900:14993   */\n      tag_505\n        /* \"#utility.yul\":14989:14992   */\n      dup3\n        /* \"#utility.yul\":14900:14993   */\n      tag_341\n      jump\t// in\n    tag_505:\n        /* \"#utility.yul\":15018:15020   */\n      0x20\n        /* \"#utility.yul\":15013:15016   */\n      dup3\n        /* \"#utility.yul\":15009:15021   */\n      add\n        /* \"#utility.yul\":15002:15021   */\n      swap1\n      pop\n        /* \"#utility.yul\":14661:15027   */\n      swap2\n      swap1\n      pop\n      jump\t// out\n        /* \"#utility.yul\":15033:15452   */\n    tag_164:\n        /* \"#utility.yul\":15199:15203   */\n      0x00\n        /* \"#utility.yul\":15237:15239   */\n      0x20\n        /* \"#utility.yul\":15226:15235   */\n      dup3\n        /* \"#utility.yul\":15222:15240   */\n      add\n        /* \"#utility.yul\":15214:15240   */\n      swap1\n      pop\n        /* \"#utility.yul\":15286:15295   */\n      dup2\n        /* \"#utility.yul\":15280:15284   */\n      dup2\n        /* \"#utility.yul\":15276:15296   */\n      sub\n        /* \"#utility.yul\":15272:15273   */\n      0x00\n        /* \"#utility.yul\":15261:15270   */\n      dup4\n        /* \"#utility.yul\":15257:15274   */\n      add\n        /* \"#utility.yul\":15250:15297   */\n      mstore\n        /* \"#utility.yul\":15314:15445   */\n      tag_507\n        /* \"#utility.yul\":15440:15444   */\n      dup2\n        /* \"#utility.yul\":15314:15445   */\n      tag_342\n      jump\t// in\n    tag_507:\n        /* \"#utility.yul\":15306:15445   */\n      swap1\n      pop\n        /* \"#utility.yul\":15033:15452   */\n      swap2\n      swap1\n      pop\n      jump\t// out\n        /* \"#utility.yul\":15458:15638   */\n    tag_170:\n        /* \"#utility.yul\":15506:15583   */\n      0x4e487b7100000000000000000000000000000000000000000000000000000000\n        /* \"#utility.yul\":15503:15504   */\n      0x00\n        /* \"#utility.yul\":15496:15584   */\n      mstore\n        /* \"#utility.yul\":15603:15607   */\n      0x32\n        /* \"#utility.yul\":15600:15601   */\n      0x04\n        /* \"#utility.yul\":15593:15608   */\n      mstore\n        /* \"#utility.yul\":15627:15631   */\n      0x24\n        /* \"#utility.yul\":15624:15625   */\n      0x00\n        /* \"#utility.yul\":15617:15632   */\n      revert\n        /* \"#utility.yul\":15644:15865   */\n    tag_343:\n        /* \"#utility.yul\":15784:15818   */\n      0x7570646174655f69642063616e6e6f7420626520616d6f6e6720746f6b656e49\n        /* \"#utility.yul\":15780:15781   */\n      0x00\n        /* \"#utility.yul\":15772:15778   */\n      dup3\n        /* \"#utility.yul\":15768:15782   */\n      add\n        /* \"#utility.yul\":15761:15819   */\n      mstore\n        /* \"#utility.yul\":15853:15857   */\n      0x6473000000000000000000000000000000000000000000000000000000000000\n        /* \"#utility.yul\":15848:15850   */\n      0x20\n        /* \"#utility.yul\":15840:15846   */\n      dup3\n        /* \"#utility.yul\":15836:15851   */\n      add\n        /* \"#utility.yul\":15829:15858   */\n      mstore\n        /* \"#utility.yul\":15644:15865   */\n      pop\n      jump\t// out\n        /* \"#utility.yul\":15871:16237   */\n    tag_344:\n        /* \"#utility.yul\":16013:16016   */\n      0x00\n        /* \"#utility.yul\":16034:16101   */\n      tag_511\n        /* \"#utility.yul\":16098:16100   */\n      0x22\n        /* \"#utility.yul\":16093:16096   */\n      dup4\n        /* \"#utility.yul\":16034:16101   */\n      tag_297\n      jump\t// in\n    tag_511:\n        /* \"#utility.yul\":16027:16101   */\n      swap2\n      pop\n        /* \"#utility.yul\":16110:16203   */\n      tag_512\n        /* \"#utility.yul\":16199:16202   */\n      dup3\n        /* \"#utility.yul\":16110:16203   */\n      tag_343\n      jump\t// in\n    tag_512:\n        /* \"#utility.yul\":16228:16230   */\n      0x40\n        /* \"#utility.yul\":16223:16226   */\n      dup3\n        /* \"#utility.yul\":16219:16231   */\n      add\n        /* \"#utility.yul\":16212:16231   */\n      swap1\n      pop\n        /* \"#utility.yul\":15871:16237   */\n      swap2\n      swap1\n      pop\n      jump\t// out\n        /* \"#utility.yul\":16243:16662   */\n    tag_174:\n        /* \"#utility.yul\":16409:16413   */\n      0x00\n        /* \"#utility.yul\":16447:16449   */\n      0x20\n        /* \"#utility.yul\":16436:16445   */\n      dup3\n        /* \"#utility.yul\":16432:16450   */\n      add\n        /* \"#utility.yul\":16424:16450   */\n      swap1\n      pop\n        /* \"#utility.yul\":16496:16505   */\n      dup2\n        /* \"#utility.yul\":16490:16494   */\n      dup2\n        /* \"#utility.yul\":16486:16506   */\n      sub\n        /* \"#utility.yul\":16482:16483   */\n      0x00\n        /* \"#utility.yul\":16471:16480   */\n      dup4\n        /* \"#utility.yul\":16467:16484   */\n      add\n        /* \"#utility.yul\":16460:16507   */\n      mstore\n        /* \"#utility.yul\":16524:16655   */\n      tag_514\n        /* \"#utility.yul\":16650:16654   */\n      dup2\n        /* \"#utility.yul\":16524:16655   */\n      tag_344\n      jump\t// in\n    tag_514:\n        /* \"#utility.yul\":16516:16655   */\n      swap1\n      pop\n        /* \"#utility.yul\":16243:16662   */\n      swap2\n      swap1\n      pop\n      jump\t// out\n        /* \"#utility.yul\":16668:16851   */\n    tag_345:\n        /* \"#utility.yul\":16766:16777   */\n      0x00\n        /* \"#utility.yul\":16800:16806   */\n      dup3\n        /* \"#utility.yul\":16795:16798   */\n      dup3\n        /* \"#utility.yul\":16788:16807   */\n      mstore\n        /* \"#utility.yul\":16840:16844   */\n      0x20\n        /* \"#utility.yul\":16835:16838   */\n      dup3\n        /* \"#utility.yul\":16831:16845   */\n      add\n        /* \"#utility.yul\":16816:16845   */\n      swap1\n      pop\n        /* \"#utility.yul\":16668:16851   */\n      swap3\n      swap2\n      pop\n      pop\n      jump\t// out\n        /* \"#utility.yul\":16857:16958   */\n    tag_346:\n        /* \"#utility.yul\":16925:16929   */\n      0x00\n        /* \"#utility.yul\":16948:16951   */\n      dup2\n        /* \"#utility.yul\":16940:16951   */\n      swap1\n      pop\n        /* \"#utility.yul\":16857:16958   */\n      swap2\n      swap1\n      pop\n      jump\t// out\n        /* \"#utility.yul\":16964:17069   */\n    tag_347:\n        /* \"#utility.yul\":17039:17062   */\n      tag_518\n        /* \"#utility.yul\":17056:17061   */\n      dup2\n        /* \"#utility.yul\":17039:17062   */\n      tag_306\n      jump\t// in\n    tag_518:\n        /* \"#utility.yul\":17034:17037   */\n      dup3\n        /* \"#utility.yul\":17027:17063   */\n      mstore\n        /* \"#utility.yul\":16964:17069   */\n      pop\n      pop\n      jump\t// out\n        /* \"#utility.yul\":17075:17250   */\n    tag_348:\n        /* \"#utility.yul\":17142:17152   */\n      0x00\n        /* \"#utility.yul\":17163:17207   */\n      tag_520\n        /* \"#utility.yul\":17203:17206   */\n      dup4\n        /* \"#utility.yul\":17195:17201   */\n      dup4\n        /* \"#utility.yul\":17163:17207   */\n      tag_347\n      jump\t// in\n    tag_520:\n        /* \"#utility.yul\":17239:17243   */\n      0x20\n        /* \"#utility.yul\":17234:17237   */\n      dup4\n        /* \"#utility.yul\":17230:17244   */\n      add\n        /* \"#utility.yul\":17216:17244   */\n      swap1\n      pop\n        /* \"#utility.yul\":17075:17250   */\n      swap3\n      swap2\n      pop\n      pop\n      jump\t// out\n        /* \"#utility.yul\":17256:17376   */\n    tag_349:\n        /* \"#utility.yul\":17307:17312   */\n      0x00\n        /* \"#utility.yul\":17332:17370   */\n      tag_522\n        /* \"#utility.yul\":17366:17368   */\n      0x20\n        /* \"#utility.yul\":17361:17364   */\n      dup5\n        /* \"#utility.yul\":17357:17369   */\n      add\n        /* \"#utility.yul\":17352:17355   */\n      dup5\n        /* \"#utility.yul\":17332:17370   */\n      tag_308\n      jump\t// in\n    tag_522:\n        /* \"#utility.yul\":17323:17370   */\n      swap1\n      pop\n        /* \"#utility.yul\":17256:17376   */\n      swap3\n      swap2\n      pop\n      pop\n      jump\t// out\n        /* \"#utility.yul\":17382:17496   */\n    tag_350:\n        /* \"#utility.yul\":17453:17457   */\n      0x00\n        /* \"#utility.yul\":17485:17489   */\n      0x20\n        /* \"#utility.yul\":17480:17483   */\n      dup3\n        /* \"#utility.yul\":17476:17490   */\n      add\n        /* \"#utility.yul\":17468:17490   */\n      swap1\n      pop\n        /* \"#utility.yul\":17382:17496   */\n      swap2\n      swap1\n      pop\n      jump\t// out\n        /* \"#utility.yul\":17530:18221   */\n    tag_351:\n        /* \"#utility.yul\":17657:17660   */\n      0x00\n        /* \"#utility.yul\":17680:17765   */\n      tag_525\n        /* \"#utility.yul\":17758:17764   */\n      dup4\n        /* \"#utility.yul\":17753:17756   */\n      dup6\n        /* \"#utility.yul\":17680:17765   */\n      tag_345\n      jump\t// in\n    tag_525:\n        /* \"#utility.yul\":17673:17765   */\n      swap4\n      pop\n        /* \"#utility.yul\":17789:17846   */\n      tag_526\n        /* \"#utility.yul\":17840:17845   */\n      dup3\n        /* \"#utility.yul\":17789:17846   */\n      tag_346\n      jump\t// in\n    tag_526:\n        /* \"#utility.yul\":17869:17876   */\n      dup1\n        /* \"#utility.yul\":17900:17901   */\n      0x00\n        /* \"#utility.yul\":17885:18196   */\n    tag_527:\n        /* \"#utility.yul\":17910:17916   */\n      dup6\n        /* \"#utility.yul\":17907:17908   */\n      dup2\n        /* \"#utility.yul\":17904:17917   */\n      lt\n        /* \"#utility.yul\":17885:18196   */\n      iszero\n      tag_529\n      jumpi\n        /* \"#utility.yul\":17980:18021   */\n      tag_530\n        /* \"#utility.yul\":18014:18020   */\n      dup3\n        /* \"#utility.yul\":18005:18012   */\n      dup5\n        /* \"#utility.yul\":17980:18021   */\n      tag_349\n      jump\t// in\n    tag_530:\n        /* \"#utility.yul\":18041:18102   */\n      tag_531\n        /* \"#utility.yul\":18098:18101   */\n      dup9\n        /* \"#utility.yul\":18083:18096   */\n      dup3\n        /* \"#utility.yul\":18041:18102   */\n      tag_348\n      jump\t// in\n    tag_531:\n        /* \"#utility.yul\":18034:18102   */\n      swap8\n      pop\n        /* \"#utility.yul\":18125:18186   */\n      tag_532\n        /* \"#utility.yul\":18179:18185   */\n      dup4\n        /* \"#utility.yul\":18125:18186   */\n      tag_350\n      jump\t// in\n    tag_532:\n        /* \"#utility.yul\":18115:18186   */\n      swap3\n      pop\n        /* \"#utility.yul\":17945:18196   */\n      pop\n        /* \"#utility.yul\":17932:17933   */\n      0x01\n        /* \"#utility.yul\":17929:17930   */\n      dup2\n        /* \"#utility.yul\":17925:17934   */\n      add\n        /* \"#utility.yul\":17920:17934   */\n      swap1\n      pop\n        /* \"#utility.yul\":17885:18196   */\n      jump(tag_527)\n    tag_529:\n        /* \"#utility.yul\":17889:17903   */\n      pop\n        /* \"#utility.yul\":18212:18215   */\n      dup6\n        /* \"#utility.yul\":18205:18215   */\n      swap3\n      pop\n        /* \"#utility.yul\":17662:18221   */\n      pop\n      pop\n        /* \"#utility.yul\":17530:18221   */\n      swap4\n      swap3\n      pop\n      pop\n      pop\n      jump\t// out\n        /* \"#utility.yul\":18227:18726   */\n    tag_194:\n        /* \"#utility.yul\":18406:18410   */\n      0x00\n        /* \"#utility.yul\":18444:18446   */\n      0x40\n        /* \"#utility.yul\":18433:18442   */\n      dup3\n        /* \"#utility.yul\":18429:18447   */\n      add\n        /* \"#utility.yul\":18421:18447   */\n      swap1\n      pop\n        /* \"#utility.yul\":18493:18502   */\n      dup2\n        /* \"#utility.yul\":18487:18491   */\n      dup2\n        /* \"#utility.yul\":18483:18503   */\n      sub\n        /* \"#utility.yul\":18479:18480   */\n      0x00\n        /* \"#utility.yul\":18468:18477   */\n      dup4\n        /* \"#utility.yul\":18464:18481   */\n      add\n        /* \"#utility.yul\":18457:18504   */\n      mstore\n        /* \"#utility.yul\":18521:18637   */\n      tag_534\n        /* \"#utility.yul\":18632:18636   */\n      dup2\n        /* \"#utility.yul\":18623:18629   */\n      dup6\n        /* \"#utility.yul\":18615:18621   */\n      dup8\n        /* \"#utility.yul\":18521:18637   */\n      tag_351\n      jump\t// in\n    tag_534:\n        /* \"#utility.yul\":18513:18637   */\n      swap1\n      pop\n        /* \"#utility.yul\":18647:18719   */\n      tag_535\n        /* \"#utility.yul\":18715:18717   */\n      0x20\n        /* \"#utility.yul\":18704:18713   */\n      dup4\n        /* \"#utility.yul\":18700:18718   */\n      add\n        /* \"#utility.yul\":18691:18697   */\n      dup5\n        /* \"#utility.yul\":18647:18719   */\n      tag_319\n      jump\t// in\n    tag_535:\n        /* \"#utility.yul\":18227:18726   */\n      swap5\n      swap4\n      pop\n      pop\n      pop\n      pop\n      jump\t// out\n        /* \"#utility.yul\":18732:18912   */\n    tag_352:\n        /* \"#utility.yul\":18780:18857   */\n      0x4e487b7100000000000000000000000000000000000000000000000000000000\n        /* \"#utility.yul\":18777:18778   */\n      0x00\n        /* \"#utility.yul\":18770:18858   */\n      mstore\n        /* \"#utility.yul\":18877:18881   */\n      0x11\n        /* \"#utility.yul\":18874:18875   */\n      0x04\n        /* \"#utility.yul\":18867:18882   */\n      mstore\n        /* \"#utility.yul\":18901:18905   */\n      0x24\n        /* \"#utility.yul\":18898:18899   */\n      0x00\n        /* \"#utility.yul\":18891:18906   */\n      revert\n        /* \"#utility.yul\":18918:19112   */\n    tag_196:\n        /* \"#utility.yul\":18958:18962   */\n      0x00\n        /* \"#utility.yul\":18978:18998   */\n      tag_538\n        /* \"#utility.yul\":18996:18997   */\n      dup3\n        /* \"#utility.yul\":18978:18998   */\n      tag_316\n      jump\t// in\n    tag_538:\n        /* \"#utility.yul\":18973:18998   */\n      swap2\n      pop\n        /* \"#utility.yul\":19012:19032   */\n      tag_539\n        /* \"#utility.yul\":19030:19031   */\n      dup4\n        /* \"#utility.yul\":19012:19032   */\n      tag_316\n      jump\t// in\n    tag_539:\n        /* \"#utility.yul\":19007:19032   */\n      swap3\n      pop\n        /* \"#utility.yul\":19056:19057   */\n      dup3\n        /* \"#utility.yul\":19053:19054   */\n      dup3\n        /* \"#utility.yul\":19049:19058   */\n      sub\n        /* \"#utility.yul\":19041:19058   */\n      swap1\n      pop\n        /* \"#utility.yul\":19080:19081   */\n      dup2\n        /* \"#utility.yul\":19074:19078   */\n      dup2\n        /* \"#utility.yul\":19071:19082   */\n      gt\n        /* \"#utility.yul\":19068:19105   */\n      iszero\n      tag_540\n      jumpi\n        /* \"#utility.yul\":19085:19103   */\n      tag_541\n      tag_352\n      jump\t// in\n    tag_541:\n        /* \"#utility.yul\":19068:19105   */\n    tag_540:\n        /* \"#utility.yul\":18918:19112   */\n      swap3\n      swap2\n      pop\n      pop\n      jump\t// out\n        /* \"#utility.yul\":19118:19265   */\n    tag_353:\n        /* \"#utility.yul\":19219:19230   */\n      0x00\n        /* \"#utility.yul\":19256:19259   */\n      dup2\n        /* \"#utility.yul\":19241:19259   */\n      swap1\n      pop\n        /* \"#utility.yul\":19118:19265   */\n      swap3\n      swap2\n      pop\n      pop\n      jump\t// out\n        /* \"#utility.yul\":19271:19385   */\n    tag_354:\n      pop\n      jump\t// out\n        /* \"#utility.yul\":19391:19789   */\n    tag_355:\n        /* \"#utility.yul\":19550:19553   */\n      0x00\n        /* \"#utility.yul\":19571:19654   */\n      tag_545\n        /* \"#utility.yul\":19652:19653   */\n      0x00\n        /* \"#utility.yul\":19647:19650   */\n      dup4\n        /* \"#utility.yul\":19571:19654   */\n      tag_353\n      jump\t// in\n    tag_545:\n        /* \"#utility.yul\":19564:19654   */\n      swap2\n      pop\n        /* \"#utility.yul\":19663:19756   */\n      tag_546\n        /* \"#utility.yul\":19752:19755   */\n      dup3\n        /* \"#utility.yul\":19663:19756   */\n      tag_354\n      jump\t// in\n    tag_546:\n        /* \"#utility.yul\":19781:19782   */\n      0x00\n        /* \"#utility.yul\":19776:19779   */\n      dup3\n        /* \"#utility.yul\":19772:19783   */\n      add\n        /* \"#utility.yul\":19765:19783   */\n      swap1\n      pop\n        /* \"#utility.yul\":19391:19789   */\n      swap2\n      swap1\n      pop\n      jump\t// out\n        /* \"#utility.yul\":19795:20174   */\n    tag_199:\n        /* \"#utility.yul\":19979:19982   */\n      0x00\n        /* \"#utility.yul\":20001:20148   */\n      tag_548\n        /* \"#utility.yul\":20144:20147   */\n      dup3\n        /* \"#utility.yul\":20001:20148   */\n      tag_355\n      jump\t// in\n    tag_548:\n        /* \"#utility.yul\":19994:20148   */\n      swap2\n      pop\n        /* \"#utility.yul\":20165:20168   */\n      dup2\n        /* \"#utility.yul\":20158:20168   */\n      swap1\n      pop\n        /* \"#utility.yul\":19795:20174   */\n      swap2\n      swap1\n      pop\n      jump\t// out\n        /* \"#utility.yul\":20180:20343   */\n    tag_356:\n        /* \"#utility.yul\":20320:20335   */\n      0x526566756e64206661696c656400000000000000000000000000000000000000\n        /* \"#utility.yul\":20316:20317   */\n      0x00\n        /* \"#utility.yul\":20308:20314   */\n      dup3\n        /* \"#utility.yul\":20304:20318   */\n      add\n        /* \"#utility.yul\":20297:20336   */\n      mstore\n        /* \"#utility.yul\":20180:20343   */\n      pop\n      jump\t// out\n        /* \"#utility.yul\":20349:20715   */\n    tag_357:\n        /* \"#utility.yul\":20491:20494   */\n      0x00\n        /* \"#utility.yul\":20512:20579   */\n      tag_551\n        /* \"#utility.yul\":20576:20578   */\n      0x0d\n        /* \"#utility.yul\":20571:20574   */\n      dup4\n        /* \"#utility.yul\":20512:20579   */\n      tag_297\n      jump\t// in\n    tag_551:\n        /* \"#utility.yul\":20505:20579   */\n      swap2\n      pop\n        /* \"#utility.yul\":20588:20681   */\n      tag_552\n        /* \"#utility.yul\":20677:20680   */\n      dup3\n        /* \"#utility.yul\":20588:20681   */\n      tag_356\n      jump\t// in\n    tag_552:\n        /* \"#utility.yul\":20706:20708   */\n      0x20\n        /* \"#utility.yul\":20701:20704   */\n      dup3\n        /* \"#utility.yul\":20697:20709   */\n      add\n        /* \"#utility.yul\":20690:20709   */\n      swap1\n      pop\n        /* \"#utility.yul\":20349:20715   */\n      swap2\n      swap1\n      pop\n      jump\t// out\n        /* \"#utility.yul\":20721:21140   */\n    tag_205:\n        /* \"#utility.yul\":20887:20891   */\n      0x00\n        /* \"#utility.yul\":20925:20927   */\n      0x20\n        /* \"#utility.yul\":20914:20923   */\n      dup3\n        /* \"#utility.yul\":20910:20928   */\n      add\n        /* \"#utility.yul\":20902:20928   */\n      swap1\n      pop\n        /* \"#utility.yul\":20974:20983   */\n      dup2\n        /* \"#utility.yul\":20968:20972   */\n      dup2\n        /* \"#utility.yul\":20964:20984   */\n      sub\n        /* \"#utility.yul\":20960:20961   */\n      0x00\n        /* \"#utility.yul\":20949:20958   */\n      dup4\n        /* \"#utility.yul\":20945:20962   */\n      add\n        /* \"#utility.yul\":20938:20985   */\n      mstore\n        /* \"#utility.yul\":21002:21133   */\n      tag_554\n        /* \"#utility.yul\":21128:21132   */\n      dup2\n        /* \"#utility.yul\":21002:21133   */\n      tag_357\n      jump\t// in\n    tag_554:\n        /* \"#utility.yul\":20994:21133   */\n      swap1\n      pop\n        /* \"#utility.yul\":20721:21140   */\n      swap2\n      swap1\n      pop\n      jump\t// out\n        /* \"#utility.yul\":21146:21478   */\n    tag_212:\n        /* \"#utility.yul\":21267:21271   */\n      0x00\n        /* \"#utility.yul\":21305:21307   */\n      0x40\n        /* \"#utility.yul\":21294:21303   */\n      dup3\n        /* \"#utility.yul\":21290:21308   */\n      add\n        /* \"#utility.yul\":21282:21308   */\n      swap1\n      pop\n        /* \"#utility.yul\":21318:21389   */\n      tag_556\n        /* \"#utility.yul\":21386:21387   */\n      0x00\n        /* \"#utility.yul\":21375:21384   */\n      dup4\n        /* \"#utility.yul\":21371:21388   */\n      add\n        /* \"#utility.yul\":21362:21368   */\n      dup6\n        /* \"#utility.yul\":21318:21389   */\n      tag_319\n      jump\t// in\n    tag_556:\n        /* \"#utility.yul\":21399:21471   */\n      tag_557\n        /* \"#utility.yul\":21467:21469   */\n      0x20\n        /* \"#utility.yul\":21456:21465   */\n      dup4\n        /* \"#utility.yul\":21452:21470   */\n      add\n        /* \"#utility.yul\":21443:21449   */\n      dup5\n        /* \"#utility.yul\":21399:21471   */\n      tag_319\n      jump\t// in\n    tag_557:\n        /* \"#utility.yul\":21146:21478   */\n      swap4\n      swap3\n      pop\n      pop\n      pop\n      jump\t// out\n        /* \"#utility.yul\":21484:21665   */\n    tag_358:\n        /* \"#utility.yul\":21624:21657   */\n      0x5265656e7472616e637947756172643a207265656e7472616e742063616c6c00\n        /* \"#utility.yul\":21620:21621   */\n      0x00\n        /* \"#utility.yul\":21612:21618   */\n      dup3\n        /* \"#utility.yul\":21608:21622   */\n      add\n        /* \"#utility.yul\":21601:21658   */\n      mstore\n        /* \"#utility.yul\":21484:21665   */\n      pop\n      jump\t// out\n        /* \"#utility.yul\":21671:22037   */\n    tag_359:\n        /* \"#utility.yul\":21813:21816   */\n      0x00\n        /* \"#utility.yul\":21834:21901   */\n      tag_560\n        /* \"#utility.yul\":21898:21900   */\n      0x1f\n        /* \"#utility.yul\":21893:21896   */\n      dup4\n        /* \"#utility.yul\":21834:21901   */\n      tag_297\n      jump\t// in\n    tag_560:\n        /* \"#utility.yul\":21827:21901   */\n      swap2\n      pop\n        /* \"#utility.yul\":21910:22003   */\n      tag_561\n        /* \"#utility.yul\":21999:22002   */\n      dup3\n        /* \"#utility.yul\":21910:22003   */\n      tag_358\n      jump\t// in\n    tag_561:\n        /* \"#utility.yul\":22028:22030   */\n      0x20\n        /* \"#utility.yul\":22023:22026   */\n      dup3\n        /* \"#utility.yul\":22019:22031   */\n      add\n        /* \"#utility.yul\":22012:22031   */\n      swap1\n      pop\n        /* \"#utility.yul\":21671:22037   */\n      swap2\n      swap1\n      pop\n      jump\t// out\n        /* \"#utility.yul\":22043:22462   */\n    tag_259:\n        /* \"#utility.yul\":22209:22213   */\n      0x00\n        /* \"#utility.yul\":22247:22249   */\n      0x20\n        /* \"#utility.yul\":22236:22245   */\n      dup3\n        /* \"#utility.yul\":22232:22250   */\n      add\n        /* \"#utility.yul\":22224:22250   */\n      swap1\n      pop\n        /* \"#utility.yul\":22296:22305   */\n      dup2\n        /* \"#utility.yul\":22290:22294   */\n      dup2\n        /* \"#utility.yul\":22286:22306   */\n      sub\n        /* \"#utility.yul\":22282:22283   */\n      0x00\n        /* \"#utility.yul\":22271:22280   */\n      dup4\n        /* \"#utility.yul\":22267:22284   */\n      add\n        /* \"#utility.yul\":22260:22307   */\n      mstore\n        /* \"#utility.yul\":22324:22455   */\n      tag_563\n        /* \"#utility.yul\":22450:22454   */\n      dup2\n        /* \"#utility.yul\":22324:22455   */\n      tag_359\n      jump\t// in\n    tag_563:\n        /* \"#utility.yul\":22316:22455   */\n      swap1\n      pop\n        /* \"#utility.yul\":22043:22462   */\n      swap2\n      swap1\n      pop\n      jump\t// out\n        /* \"#utility.yul\":22468:22634   */\n    tag_360:\n        /* \"#utility.yul\":22608:22626   */\n      0x5061757361626c653a2070617573656400000000000000000000000000000000\n        /* \"#utility.yul\":22604:22605   */\n      0x00\n        /* \"#utility.yul\":22596:22602   */\n      dup3\n        /* \"#utility.yul\":22592:22606   */\n      add\n        /* \"#utility.yul\":22585:22627   */\n      mstore\n        /* \"#utility.yul\":22468:22634   */\n      pop\n      jump\t// out\n        /* \"#utility.yul\":22640:23006   */\n    tag_361:\n        /* \"#utility.yul\":22782:22785   */\n      0x00\n        /* \"#utility.yul\":22803:22870   */\n      tag_566\n        /* \"#utility.yul\":22867:22869   */\n      0x10\n        /* \"#utility.yul\":22862:22865   */\n      dup4\n        /* \"#utility.yul\":22803:22870   */\n      tag_297\n      jump\t// in\n    tag_566:\n        /* \"#utility.yul\":22796:22870   */\n      swap2\n      pop\n        /* \"#utility.yul\":22879:22972   */\n      tag_567\n        /* \"#utility.yul\":22968:22971   */\n      dup3\n        /* \"#utility.yul\":22879:22972   */\n      tag_360\n      jump\t// in\n    tag_567:\n        /* \"#utility.yul\":22997:22999   */\n      0x20\n        /* \"#utility.yul\":22992:22995   */\n      dup3\n        /* \"#utility.yul\":22988:23000   */\n      add\n        /* \"#utility.yul\":22981:23000   */\n      swap1\n      pop\n        /* \"#utility.yul\":22640:23006   */\n      swap2\n      swap1\n      pop\n      jump\t// out\n        /* \"#utility.yul\":23012:23431   */\n    tag_281:\n        /* \"#utility.yul\":23178:23182   */\n      0x00\n        /* \"#utility.yul\":23216:23218   */\n      0x20\n        /* \"#utility.yul\":23205:23214   */\n      dup3\n        /* \"#utility.yul\":23201:23219   */\n      add\n        /* \"#utility.yul\":23193:23219   */\n      swap1\n      pop\n        /* \"#utility.yul\":23265:23274   */\n      dup2\n        /* \"#utility.yul\":23259:23263   */\n      dup2\n        /* \"#utility.yul\":23255:23275   */\n      sub\n        /* \"#utility.yul\":23251:23252   */\n      0x00\n        /* \"#utility.yul\":23240:23249   */\n      dup4\n        /* \"#utility.yul\":23236:23253   */\n      add\n        /* \"#utility.yul\":23229:23276   */\n      mstore\n        /* \"#utility.yul\":23293:23424   */\n      tag_569\n        /* \"#utility.yul\":23419:23423   */\n      dup2\n        /* \"#utility.yul\":23293:23424   */\n      tag_361\n      jump\t// in\n    tag_569:\n        /* \"#utility.yul\":23285:23424   */\n      swap1\n      pop\n        /* \"#utility.yul\":23012:23431   */\n      swap2\n      swap1\n      pop\n      jump\t// out\n        /* \"#utility.yul\":23437:23607   */\n    tag_362:\n        /* \"#utility.yul\":23577:23599   */\n      0x5061757361626c653a206e6f7420706175736564000000000000000000000000\n        /* \"#utility.yul\":23573:23574   */\n      0x00\n        /* \"#utility.yul\":23565:23571   */\n      dup3\n        /* \"#utility.yul\":23561:23575   */\n      add\n        /* \"#utility.yul\":23554:23600   */\n      mstore\n        /* \"#utility.yul\":23437:23607   */\n      pop\n      jump\t// out\n        /* \"#utility.yul\":23613:23979   */\n    tag_363:\n        /* \"#utility.yul\":23755:23758   */\n      0x00\n        /* \"#utility.yul\":23776:23843   */\n      tag_572\n        /* \"#utility.yul\":23840:23842   */\n      0x14\n        /* \"#utility.yul\":23835:23838   */\n      dup4\n        /* \"#utility.yul\":23776:23843   */\n      tag_297\n      jump\t// in\n    tag_572:\n        /* \"#utility.yul\":23769:23843   */\n      swap2\n      pop\n        /* \"#utility.yul\":23852:23945   */\n      tag_573\n        /* \"#utility.yul\":23941:23944   */\n      dup3\n        /* \"#utility.yul\":23852:23945   */\n      tag_362\n      jump\t// in\n    tag_573:\n        /* \"#utility.yul\":23970:23972   */\n      0x20\n        /* \"#utility.yul\":23965:23968   */\n      dup3\n        /* \"#utility.yul\":23961:23973   */\n      add\n        /* \"#utility.yul\":23954:23973   */\n      swap1\n      pop\n        /* \"#utility.yul\":23613:23979   */\n      swap2\n      swap1\n      pop\n      jump\t// out\n        /* \"#utility.yul\":23985:24404   */\n    tag_296:\n        /* \"#utility.yul\":24151:24155   */\n      0x00\n        /* \"#utility.yul\":24189:24191   */\n      0x20\n        /* \"#utility.yul\":24178:24187   */\n      dup3\n        /* \"#utility.yul\":24174:24192   */\n      add\n        /* \"#utility.yul\":24166:24192   */\n      swap1\n      pop\n        /* \"#utility.yul\":24238:24247   */\n      dup2\n        /* \"#utility.yul\":24232:24236   */\n      dup2\n        /* \"#utility.yul\":24228:24248   */\n      sub\n        /* \"#utility.yul\":24224:24225   */\n      0x00\n        /* \"#utility.yul\":24213:24222   */\n      dup4\n        /* \"#utility.yul\":24209:24226   */\n      add\n        /* \"#utility.yul\":24202:24249   */\n      mstore\n        /* \"#utility.yul\":24266:24397   */\n      tag_575\n        /* \"#utility.yul\":24392:24396   */\n      dup2\n        /* \"#utility.yul\":24266:24397   */\n      tag_363\n      jump\t// in\n    tag_575:\n        /* \"#utility.yul\":24258:24397   */\n      swap1\n      pop\n        /* \"#utility.yul\":23985:24404   */\n      swap2\n      swap1\n      pop\n      jump\t// out\n\n    auxdata: 0xa2646970667358221220493732de3bdddab477982b61793c4ffff35df2c499314c9f5712dafd23b6326964736f6c634300081a0033\n}\n",
				"bytecode": {
					"linkReferences": {},
					"object": "60a060405264174876e800600355600a60045f6101000a81548161ffff021916908361ffff160217905550348015610035575f80fd5b5060405161228a38038061228a833981810160405281019061005791906102b6565b335f73ffffffffffffffffffffffffffffffffffffffff168173ffffffffffffffffffffffffffffffffffffffff16036100c8575f6040517f1e4fbdf70000000000000000000000000000000000000000000000000000000081526004016100bf91906102f0565b60405180910390fd5b6100d78161019760201b60201c565b50600180819055505f60025f6101000a81548160ff0219169083151502179055505f73ffffffffffffffffffffffffffffffffffffffff168173ffffffffffffffffffffffffffffffffffffffff160361015d576040517f3f6cc76800000000000000000000000000000000000000000000000000000000815260040160405180910390fd5b8073ffffffffffffffffffffffffffffffffffffffff1660808173ffffffffffffffffffffffffffffffffffffffff168152505050610309565b5f805f9054906101000a900473ffffffffffffffffffffffffffffffffffffffff169050815f806101000a81548173ffffffffffffffffffffffffffffffffffffffff021916908373ffffffffffffffffffffffffffffffffffffffff1602179055508173ffffffffffffffffffffffffffffffffffffffff168173ffffffffffffffffffffffffffffffffffffffff167f8be0079c531659141344cd1fd0a4f28419497f9722a3daafe3b4186f6b6457e060405160405180910390a35050565b5f80fd5b5f73ffffffffffffffffffffffffffffffffffffffff82169050919050565b5f6102858261025c565b9050919050565b6102958161027b565b811461029f575f80fd5b50565b5f815190506102b08161028c565b92915050565b5f602082840312156102cb576102ca610258565b5b5f6102d8848285016102a2565b91505092915050565b6102ea8161027b565b82525050565b5f6020820190506103035f8301846102e1565b92915050565b608051611f626103285f395f81816106d70152610f750152611f625ff3fe60806040526004361061010c575f3560e01c80636f9fb98a11610094578063aa4b10d111610063578063aa4b10d114610322578063c3d93ecd1461034c578063d4e0ed2e14610388578063d56d229d146103b0578063f2fde38b146103da5761014c565b80636f9fb98a146102a2578063715018a6146102cc5780638456cb59146102e25780638da5cb5b146102f85761014c565b806341989bef116100db57806341989bef146101e0578063486a7e6b146101fc5780634bf2c7c914610226578063576aee511461024e5780635c975abb146102785761014c565b80631deedfb5146101505780631df8473d1461017857806324600fc3146101b45780633f4ba83a146101ca5761014c565b3661014c576040517f08c379a00000000000000000000000000000000000000000000000000000000081526004016101439061147c565b60405180910390fd5b5f80fd5b34801561015b575f80fd5b50610176600480360381019061017191906114d9565b610402565b005b348015610183575f80fd5b5061019e6004803603810190610199919061153d565b61046f565b6040516101ab9190611582565b60405180910390f35b3480156101bf575f80fd5b506101c86104e2565b005b3480156101d5575f80fd5b506101de6105bf565b005b6101fa60048036038101906101f591906115fc565b6105d1565b005b348015610207575f80fd5b50610210610cf5565b60405161021d9190611668565b60405180910390f35b348015610231575f80fd5b5061024c600480360381019061024791906116b4565b610d08565b005b348015610259575f80fd5b50610262610d9c565b60405161026f91906116ee565b60405180910390f35b348015610283575f80fd5b5061028c610dab565b6040516102999190611582565b60405180910390f35b3480156102ad575f80fd5b506102b6610dc0565b6040516102c391906116ee565b60405180910390f35b3480156102d7575f80fd5b506102e0610dc7565b005b3480156102ed575f80fd5b506102f6610dda565b005b348015610303575f80fd5b5061030c610dec565b6040516103199190611746565b60405180910390f35b34801561032d575f80fd5b50610336610e13565b60405161034391906116ee565b60405180910390f35b348015610357575f80fd5b50610372600480360381019061036d919061153d565b610e1c565b60405161037f9190611582565b60405180910390f35b348015610393575f80fd5b506103ae60048036038101906103a991906116b4565b610e8f565b005b3480156103bb575f80fd5b506103c4610f73565b6040516103d19190611746565b60405180910390f35b3480156103e5575f80fd5b5061040060048036038101906103fb9190611789565b610f97565b005b61040a61101b565b5f8161ffff1611610450576040517f08c379a0000000000000000000000000000000000000000000000000000000008152600401610447906117fe565b60405180910390fd5b8060045f6101000a81548161ffff021916908361ffff16021790555050565b5f8163ffffffff165f81036104b0576040517f3f6cc76800000000000000000000000000000000000000000000000000000000815260040160405180910390fd5b60065f8463ffffffff1663ffffffff1681526020019081526020015f205f9054906101000a900460ff16915050919050565b6104ea61101b565b6104f26110a2565b5f4790505f810361052f576040517f67e3990d00000000000000000000000000000000000000000000000000000000815260040160405180910390fd5b61055f8161053b610dec565b73ffffffffffffffffffffffffffffffffffffffff166110f190919063ffffffff16565b610567610dec565b73ffffffffffffffffffffffffffffffffffffffff167feaff4b37086828766ad3268786972c0cd24259d4c87a80f9d3963a3c3d999b0d826040516105ac91906116ee565b60405180910390a2506105bd6111b7565b565b6105c761101b565b6105cf6111c0565b565b6105d96110a2565b6105e1611221565b5f8383905090505f8163ffffffff1603610630576040517f08c379a000000000000000000000000000000000000000000000000000000000815260040161062790611866565b60405180910390fd5b60045f9054906101000a900461ffff1661ffff168163ffffffff161461068b576040517f08c379a0000000000000000000000000000000000000000000000000000000008152600401610682906118ce565b60405180910390fd5b5f6003549050803410156106d4576040517f08c379a00000000000000000000000000000000000000000000000000000000081526004016106cb90611936565b60405180910390fd5b5f7f000000000000000000000000000000000000000000000000000000000000000090503373ffffffffffffffffffffffffffffffffffffffff168173ffffffffffffffffffffffffffffffffffffffff16636352211e866040518263ffffffff1660e01b8152600401610748919061198d565b602060405180830381865afa158015610763573d5f803e3d5ffd5b505050506040513d601f19601f8201168201806040525081019061078791906119ba565b73ffffffffffffffffffffffffffffffffffffffff16146107dd576040517f08c379a00000000000000000000000000000000000000000000000000000000081526004016107d490611a2f565b60405180910390fd5b60055f8563ffffffff1663ffffffff1681526020019081526020015f205f9054906101000a900460ff1615610847576040517f08c379a000000000000000000000000000000000000000000000000000000000815260040161083e90611a97565b60405180910390fd5b60065f8563ffffffff1663ffffffff1681526020019081526020015f205f9054906101000a900460ff16156108b1576040517f08c379a00000000000000000000000000000000000000000000000000000000081526004016108a890611aff565b60405180910390fd5b5f5b8363ffffffff168163ffffffff161015610aa3575f87878363ffffffff168181106108e1576108e0611b1d565b5b90506020020160208101906108f6919061153d565b90508563ffffffff168163ffffffff1603610946576040517f08c379a000000000000000000000000000000000000000000000000000000000815260040161093d90611bba565b60405180910390fd5b60055f8263ffffffff1663ffffffff1681526020019081526020015f205f9054906101000a900460ff16156109b0576040517f08c379a00000000000000000000000000000000000000000000000000000000081526004016109a790611a97565b60405180910390fd5b3373ffffffffffffffffffffffffffffffffffffffff168373ffffffffffffffffffffffffffffffffffffffff16636352211e836040518263ffffffff1660e01b8152600401610a00919061198d565b602060405180830381865afa158015610a1b573d5f803e3d5ffd5b505050506040513d601f19601f82011682018060405250810190610a3f91906119ba565b73ffffffffffffffffffffffffffffffffffffffff1614610a95576040517f08c379a0000000000000000000000000000000000000000000000000000000008152600401610a8c90611a2f565b60405180910390fd5b5080806001019150506108b3565b50600160065f8663ffffffff1663ffffffff1681526020019081526020015f205f6101000a81548160ff0219169083151502179055505f5b8363ffffffff168163ffffffff161015610bc9575f87878363ffffffff16818110610b0957610b08611b1d565b5b9050602002016020810190610b1e919061153d565b9050600160055f8363ffffffff1663ffffffff1681526020019081526020015f205f6101000a81548160ff0219169083151502179055508273ffffffffffffffffffffffffffffffffffffffff166342966c68826040518263ffffffff1660e01b8152600401610b8e919061198d565b5f604051808303815f87803b158015610ba5575f80fd5b505af1158015610bb7573d5f803e3d5ffd5b50505050508080600101915050610adb565b508363ffffffff163373ffffffffffffffffffffffffffffffffffffffff167f26ccc16f7fcb4f9c2582bcba8e2aa8bfc16139ad280d11913ccfb99777825ee0888886604051610c1b93929190611c94565b60405180910390a35f8234610c309190611cf1565b90505f811115610ce4575f3373ffffffffffffffffffffffffffffffffffffffff1682604051610c5f90611d51565b5f6040518083038185875af1925050503d805f8114610c99576040519150601f19603f3d011682016040523d82523d5f602084013e610c9e565b606091505b5050905080610ce2576040517f08c379a0000000000000000000000000000000000000000000000000000000008152600401610cd990611daf565b60405180910390fd5b505b50505050610cf06111b7565b505050565b60045f9054906101000a900461ffff1681565b610d1061101b565b67016345785d8a0000811115610d52576040517faf9c21dc00000000000000000000000000000000000000000000000000000000815260040160405180910390fd5b5f6003549050816003819055507f78f1461296bad7bd716a7673aa3e659cc091c348a7ed4cfef7ce452c3052f2fb8183604051610d90929190611dcd565b60405180910390a15050565b5f67016345785d8a0000905090565b5f60025f9054906101000a900460ff16905090565b5f47905090565b610dcf61101b565b610dd85f61126b565b565b610de261101b565b610dea61132c565b565b5f805f9054906101000a900473ffffffffffffffffffffffffffffffffffffffff16905090565b5f600354905090565b5f8163ffffffff165f8103610e5d576040517f3f6cc76800000000000000000000000000000000000000000000000000000000815260040160405180910390fd5b60055f8463ffffffff1663ffffffff1681526020019081526020015f205f9054906101000a900460ff16915050919050565b610e9761101b565b610e9f6110a2565b5f811480610eac57504781115b15610ee3576040517f67e3990d00000000000000000000000000000000000000000000000000000000815260040160405180910390fd5b610f1381610eef610dec565b73ffffffffffffffffffffffffffffffffffffffff166110f190919063ffffffff16565b610f1b610dec565b73ffffffffffffffffffffffffffffffffffffffff167feaff4b37086828766ad3268786972c0cd24259d4c87a80f9d3963a3c3d999b0d82604051610f6091906116ee565b60405180910390a2610f706111b7565b50565b7f000000000000000000000000000000000000000000000000000000000000000081565b610f9f61101b565b5f73ffffffffffffffffffffffffffffffffffffffff168173ffffffffffffffffffffffffffffffffffffffff160361100f575f6040517f1e4fbdf70000000000000000000000000000000000000000000000000000000081526004016110069190611746565b60405180910390fd5b6110188161126b565b50565b61102361138e565b73ffffffffffffffffffffffffffffffffffffffff16611041610dec565b73ffffffffffffffffffffffffffffffffffffffff16146110a05761106461138e565b6040517f118cdaa70000000000000000000000000000000000000000000000000000000081526004016110979190611746565b60405180910390fd5b565b6002600154036110e7576040517f08c379a00000000000000000000000000000000000000000000000000000000081526004016110de90611e3e565b60405180910390fd5b6002600181905550565b804710156111385747816040517fcf47918100000000000000000000000000000000000000000000000000000000815260040161112f929190611dcd565b60405180910390fd5b5f808373ffffffffffffffffffffffffffffffffffffffff168360405161115e90611d51565b5f6040518083038185875af1925050503d805f8114611198576040519150601f19603f3d011682016040523d82523d5f602084013e61119d565b606091505b5091509150816111b1576111b081611395565b5b50505050565b60018081905550565b6111c86113d9565b5f60025f6101000a81548160ff0219169083151502179055507f5db9ee0a495bf2e6ff9c91a7834c1ba4fdd244a5e8aa4e537bd38aeae4b073aa61120a61138e565b6040516112179190611746565b60405180910390a1565b611229610dab565b15611269576040517f08c379a000000000000000000000000000000000000000000000000000000000815260040161126090611ea6565b60405180910390fd5b565b5f805f9054906101000a900473ffffffffffffffffffffffffffffffffffffffff169050815f806101000a81548173ffffffffffffffffffffffffffffffffffffffff021916908373ffffffffffffffffffffffffffffffffffffffff1602179055508173ffffffffffffffffffffffffffffffffffffffff168173ffffffffffffffffffffffffffffffffffffffff167f8be0079c531659141344cd1fd0a4f28419497f9722a3daafe3b4186f6b6457e060405160405180910390a35050565b611334611221565b600160025f6101000a81548160ff0219169083151502179055507f62e78cea01bee320cd4e420270b5ea74000d11b0c9f74754ebdbfc544b05a25861137761138e565b6040516113849190611746565b60405180910390a1565b5f33905090565b5f815111156113a75780518082602001fd5b6040517fd6bda27500000000000000000000000000000000000000000000000000000000815260040160405180910390fd5b6113e1610dab565b611420576040517f08c379a000000000000000000000000000000000000000000000000000000000815260040161141790611f0e565b60405180910390fd5b565b5f82825260208201905092915050565b7f44697265637420455448207472616e7366657273206e6f7420616c6c6f7765645f82015250565b5f611466602083611422565b915061147182611432565b602082019050919050565b5f6020820190508181035f8301526114938161145a565b9050919050565b5f80fd5b5f80fd5b5f61ffff82169050919050565b6114b8816114a2565b81146114c2575f80fd5b50565b5f813590506114d3816114af565b92915050565b5f602082840312156114ee576114ed61149a565b5b5f6114fb848285016114c5565b91505092915050565b5f63ffffffff82169050919050565b61151c81611504565b8114611526575f80fd5b50565b5f8135905061153781611513565b92915050565b5f602082840312156115525761155161149a565b5b5f61155f84828501611529565b91505092915050565b5f8115159050919050565b61157c81611568565b82525050565b5f6020820190506115955f830184611573565b92915050565b5f80fd5b5f80fd5b5f80fd5b5f8083601f8401126115bc576115bb61159b565b5b8235905067ffffffffffffffff8111156115d9576115d861159f565b5b6020830191508360208202830111156115f5576115f46115a3565b5b9250929050565b5f805f604084860312156116135761161261149a565b5b5f84013567ffffffffffffffff8111156116305761162f61149e565b5b61163c868287016115a7565b9350935050602061164f86828701611529565b9150509250925092565b611662816114a2565b82525050565b5f60208201905061167b5f830184611659565b92915050565b5f819050919050565b61169381611681565b811461169d575f80fd5b50565b5f813590506116ae8161168a565b92915050565b5f602082840312156116c9576116c861149a565b5b5f6116d6848285016116a0565b91505092915050565b6116e881611681565b82525050565b5f6020820190506117015f8301846116df565b92915050565b5f73ffffffffffffffffffffffffffffffffffffffff82169050919050565b5f61173082611707565b9050919050565b61174081611726565b82525050565b5f6020820190506117595f830184611737565b92915050565b61176881611726565b8114611772575f80fd5b50565b5f813590506117838161175f565b92915050565b5f6020828403121561179e5761179d61149a565b5b5f6117ab84828501611775565b91505092915050565b7f4d696e696d756d206d757374206265203e2030000000000000000000000000005f82015250565b5f6117e8601383611422565b91506117f3826117b4565b602082019050919050565b5f6020820190508181035f830152611815816117dc565b9050919050565b7f4e6f20746f6b656e732070726f766964656400000000000000000000000000005f82015250565b5f611850601283611422565b915061185b8261181c565b602082019050919050565b5f6020820190508181035f83015261187d81611844565b9050919050565b7f4275726e2074686520726571756972656420746f6b656e20616d6f756e7400005f82015250565b5f6118b8601e83611422565b91506118c382611884565b602082019050919050565b5f6020820190508181035f8301526118e5816118ac565b9050919050565b7f496e73756666696369656e74207061796d656e740000000000000000000000005f82015250565b5f611920601483611422565b915061192b826118ec565b602082019050919050565b5f6020820190508181035f83015261194d81611914565b9050919050565b5f819050919050565b5f61197761197261196d84611504565b611954565b611681565b9050919050565b6119878161195d565b82525050565b5f6020820190506119a05f83018461197e565b92915050565b5f815190506119b48161175f565b92915050565b5f602082840312156119cf576119ce61149a565b5b5f6119dc848285016119a6565b91505092915050565b7f4e6f7420746f6b656e206f776e657200000000000000000000000000000000005f82015250565b5f611a19600f83611422565b9150611a24826119e5565b602082019050919050565b5f6020820190508181035f830152611a4681611a0d565b9050919050565b7f546f6b656e20616c7265616479206275726e65640000000000000000000000005f82015250565b5f611a81601483611422565b9150611a8c82611a4d565b602082019050919050565b5f6020820190508181035f830152611aae81611a75565b9050919050565b7f546f6b656e20616c7265616479207570646174656400000000000000000000005f82015250565b5f611ae9601583611422565b9150611af482611ab5565b602082019050919050565b5f6020820190508181035f830152611b1681611add565b9050919050565b7f4e487b71000000000000000000000000000000000000000000000000000000005f52603260045260245ffd5b7f7570646174655f69642063616e6e6f7420626520616d6f6e6720746f6b656e495f8201527f6473000000000000000000000000000000000000000000000000000000000000602082015250565b5f611ba4602283611422565b9150611baf82611b4a565b604082019050919050565b5f6020820190508181035f830152611bd181611b98565b9050919050565b5f82825260208201905092915050565b5f819050919050565b611bfa81611504565b82525050565b5f611c0b8383611bf1565b60208301905092915050565b5f611c256020840184611529565b905092915050565b5f602082019050919050565b5f611c448385611bd8565b9350611c4f82611be8565b805f5b85811015611c8757611c648284611c17565b611c6e8882611c00565b9750611c7983611c2d565b925050600181019050611c52565b5085925050509392505050565b5f6040820190508181035f830152611cad818587611c39565b9050611cbc60208301846116df565b949350505050565b7f4e487b71000000000000000000000000000000000000000000000000000000005f52601160045260245ffd5b5f611cfb82611681565b9150611d0683611681565b9250828203905081811115611d1e57611d1d611cc4565b5b92915050565b5f81905092915050565b50565b5f611d3c5f83611d24565b9150611d4782611d2e565b5f82019050919050565b5f611d5b82611d31565b9150819050919050565b7f526566756e64206661696c6564000000000000000000000000000000000000005f82015250565b5f611d99600d83611422565b9150611da482611d65565b602082019050919050565b5f6020820190508181035f830152611dc681611d8d565b9050919050565b5f604082019050611de05f8301856116df565b611ded60208301846116df565b9392505050565b7f5265656e7472616e637947756172643a207265656e7472616e742063616c6c005f82015250565b5f611e28601f83611422565b9150611e3382611df4565b602082019050919050565b5f6020820190508181035f830152611e5581611e1c565b9050919050565b7f5061757361626c653a20706175736564000000000000000000000000000000005f82015250565b5f611e90601083611422565b9150611e9b82611e5c565b602082019050919050565b5f6020820190508181035f830152611ebd81611e84565b9050919050565b7f5061757361626c653a206e6f74207061757365640000000000000000000000005f82015250565b5f611ef8601483611422565b9150611f0382611ec4565b602082019050919050565b5f6020820190508181035f830152611f2581611eec565b905091905056fea2646970667358221220493732de3bdddab477982b61793c4ffff35df2c499314c9f5712dafd23b6326964736f6c634300081a0033",
					"opcodes": "PUSH1 0xA0 PUSH1 0x40 MSTORE PUSH5 0x174876E800 PUSH1 0x3 SSTORE PUSH1 0xA PUSH1 0x4 PUSH0 PUSH2 0x100 EXP DUP2 SLOAD DUP2 PUSH2 0xFFFF MUL NOT AND SWAP1 DUP4 PUSH2 0xFFFF AND MUL OR SWAP1 SSTORE POP CALLVALUE DUP1 ISZERO PUSH2 0x35 JUMPI PUSH0 DUP1 REVERT JUMPDEST POP PUSH1 0x40 MLOAD PUSH2 0x228A CODESIZE SUB DUP1 PUSH2 0x228A DUP4 CODECOPY DUP2 DUP2 ADD PUSH1 0x40 MSTORE DUP2 ADD SWAP1 PUSH2 0x57 SWAP2 SWAP1 PUSH2 0x2B6 JUMP JUMPDEST CALLER PUSH0 PUSH20 0xFFFFFFFFFFFFFFFFFFFFFFFFFFFFFFFFFFFFFFFF AND DUP2 PUSH20 0xFFFFFFFFFFFFFFFFFFFFFFFFFFFFFFFFFFFFFFFF AND SUB PUSH2 0xC8 JUMPI PUSH0 PUSH1 0x40 MLOAD PUSH32 0x1E4FBDF700000000000000000000000000000000000000000000000000000000 DUP2 MSTORE PUSH1 0x4 ADD PUSH2 0xBF SWAP2 SWAP1 PUSH2 0x2F0 JUMP JUMPDEST PUSH1 0x40 MLOAD DUP1 SWAP2 SUB SWAP1 REVERT JUMPDEST PUSH2 0xD7 DUP2 PUSH2 0x197 PUSH1 0x20 SHL PUSH1 0x20 SHR JUMP JUMPDEST POP PUSH1 0x1 DUP1 DUP2 SWAP1 SSTORE POP PUSH0 PUSH1 0x2 PUSH0 PUSH2 0x100 EXP DUP2 SLOAD DUP2 PUSH1 0xFF MUL NOT AND SWAP1 DUP4 ISZERO ISZERO MUL OR SWAP1 SSTORE POP PUSH0 PUSH20 0xFFFFFFFFFFFFFFFFFFFFFFFFFFFFFFFFFFFFFFFF AND DUP2 PUSH20 0xFFFFFFFFFFFFFFFFFFFFFFFFFFFFFFFFFFFFFFFF AND SUB PUSH2 0x15D JUMPI PUSH1 0x40 MLOAD PUSH32 0x3F6CC76800000000000000000000000000000000000000000000000000000000 DUP2 MSTORE PUSH1 0x4 ADD PUSH1 0x40 MLOAD DUP1 SWAP2 SUB SWAP1 REVERT JUMPDEST DUP1 PUSH20 0xFFFFFFFFFFFFFFFFFFFFFFFFFFFFFFFFFFFFFFFF AND PUSH1 0x80 DUP2 PUSH20 0xFFFFFFFFFFFFFFFFFFFFFFFFFFFFFFFFFFFFFFFF AND DUP2 MSTORE POP POP POP PUSH2 0x309 JUMP JUMPDEST PUSH0 DUP1 PUSH0 SWAP1 SLOAD SWAP1 PUSH2 0x100 EXP SWAP1 DIV PUSH20 0xFFFFFFFFFFFFFFFFFFFFFFFFFFFFFFFFFFFFFFFF AND SWAP1 POP DUP2 PUSH0 DUP1 PUSH2 0x100 EXP DUP2 SLOAD DUP2 PUSH20 0xFFFFFFFFFFFFFFFFFFFFFFFFFFFFFFFFFFFFFFFF MUL NOT AND SWAP1 DUP4 PUSH20 0xFFFFFFFFFFFFFFFFFFFFFFFFFFFFFFFFFFFFFFFF AND MUL OR SWAP1 SSTORE POP DUP2 PUSH20 0xFFFFFFFFFFFFFFFFFFFFFFFFFFFFFFFFFFFFFFFF AND DUP2 PUSH20 0xFFFFFFFFFFFFFFFFFFFFFFFFFFFFFFFFFFFFFFFF AND PUSH32 0x8BE0079C531659141344CD1FD0A4F28419497F9722A3DAAFE3B4186F6B6457E0 PUSH1 0x40 MLOAD PUSH1 0x40 MLOAD DUP1 SWAP2 SUB SWAP1 LOG3 POP POP JUMP JUMPDEST PUSH0 DUP1 REVERT JUMPDEST PUSH0 PUSH20 0xFFFFFFFFFFFFFFFFFFFFFFFFFFFFFFFFFFFFFFFF DUP3 AND SWAP1 POP SWAP2 SWAP1 POP JUMP JUMPDEST PUSH0 PUSH2 0x285 DUP3 PUSH2 0x25C JUMP JUMPDEST SWAP1 POP SWAP2 SWAP1 POP JUMP JUMPDEST PUSH2 0x295 DUP2 PUSH2 0x27B JUMP JUMPDEST DUP2 EQ PUSH2 0x29F JUMPI PUSH0 DUP1 REVERT JUMPDEST POP JUMP JUMPDEST PUSH0 DUP2 MLOAD SWAP1 POP PUSH2 0x2B0 DUP2 PUSH2 0x28C JUMP JUMPDEST SWAP3 SWAP2 POP POP JUMP JUMPDEST PUSH0 PUSH1 0x20 DUP3 DUP5 SUB SLT ISZERO PUSH2 0x2CB JUMPI PUSH2 0x2CA PUSH2 0x258 JUMP JUMPDEST JUMPDEST PUSH0 PUSH2 0x2D8 DUP5 DUP3 DUP6 ADD PUSH2 0x2A2 JUMP JUMPDEST SWAP2 POP POP SWAP3 SWAP2 POP POP JUMP JUMPDEST PUSH2 0x2EA DUP2 PUSH2 0x27B JUMP JUMPDEST DUP3 MSTORE POP POP JUMP JUMPDEST PUSH0 PUSH1 0x20 DUP3 ADD SWAP1 POP PUSH2 0x303 PUSH0 DUP4 ADD DUP5 PUSH2 0x2E1 JUMP JUMPDEST SWAP3 SWAP2 POP POP JUMP JUMPDEST PUSH1 0x80 MLOAD PUSH2 0x1F62 PUSH2 0x328 PUSH0 CODECOPY PUSH0 DUP2 DUP2 PUSH2 0x6D7 ADD MSTORE PUSH2 0xF75 ADD MSTORE PUSH2 0x1F62 PUSH0 RETURN INVALID PUSH1 0x80 PUSH1 0x40 MSTORE PUSH1 0x4 CALLDATASIZE LT PUSH2 0x10C JUMPI PUSH0 CALLDATALOAD PUSH1 0xE0 SHR DUP1 PUSH4 0x6F9FB98A GT PUSH2 0x94 JUMPI DUP1 PUSH4 0xAA4B10D1 GT PUSH2 0x63 JUMPI DUP1 PUSH4 0xAA4B10D1 EQ PUSH2 0x322 JUMPI DUP1 PUSH4 0xC3D93ECD EQ PUSH2 0x34C JUMPI DUP1 PUSH4 0xD4E0ED2E EQ PUSH2 0x388 JUMPI DUP1 PUSH4 0xD56D229D EQ PUSH2 0x3B0 JUMPI DUP1 PUSH4 0xF2FDE38B EQ PUSH2 0x3DA JUMPI PUSH2 0x14C JUMP JUMPDEST DUP1 PUSH4 0x6F9FB98A EQ PUSH2 0x2A2 JUMPI DUP1 PUSH4 0x715018A6 EQ PUSH2 0x2CC JUMPI DUP1 PUSH4 0x8456CB59 EQ PUSH2 0x2E2 JUMPI DUP1 PUSH4 0x8DA5CB5B EQ PUSH2 0x2F8 JUMPI PUSH2 0x14C JUMP JUMPDEST DUP1 PUSH4 0x41989BEF GT PUSH2 0xDB JUMPI DUP1 PUSH4 0x41989BEF EQ PUSH2 0x1E0 JUMPI DUP1 PUSH4 0x486A7E6B EQ PUSH2 0x1FC JUMPI DUP1 PUSH4 0x4BF2C7C9 EQ PUSH2 0x226 JUMPI DUP1 PUSH4 0x576AEE51 EQ PUSH2 0x24E JUMPI DUP1 PUSH4 0x5C975ABB EQ PUSH2 0x278 JUMPI PUSH2 0x14C JUMP JUMPDEST DUP1 PUSH4 0x1DEEDFB5 EQ PUSH2 0x150 JUMPI DUP1 PUSH4 0x1DF8473D EQ PUSH2 0x178 JUMPI DUP1 PUSH4 0x24600FC3 EQ PUSH2 0x1B4 JUMPI DUP1 PUSH4 0x3F4BA83A EQ PUSH2 0x1CA JUMPI PUSH2 0x14C JUMP JUMPDEST CALLDATASIZE PUSH2 0x14C JUMPI PUSH1 0x40 MLOAD PUSH32 0x8C379A000000000000000000000000000000000000000000000000000000000 DUP2 MSTORE PUSH1 0x4 ADD PUSH2 0x143 SWAP1 PUSH2 0x147C JUMP JUMPDEST PUSH1 0x40 MLOAD DUP1 SWAP2 SUB SWAP1 REVERT JUMPDEST PUSH0 DUP1 REVERT JUMPDEST CALLVALUE DUP1 ISZERO PUSH2 0x15B JUMPI PUSH0 DUP1 REVERT JUMPDEST POP PUSH2 0x176 PUSH1 0x4 DUP1 CALLDATASIZE SUB DUP2 ADD SWAP1 PUSH2 0x171 SWAP2 SWAP1 PUSH2 0x14D9 JUMP JUMPDEST PUSH2 0x402 JUMP JUMPDEST STOP JUMPDEST CALLVALUE DUP1 ISZERO PUSH2 0x183 JUMPI PUSH0 DUP1 REVERT JUMPDEST POP PUSH2 0x19E PUSH1 0x4 DUP1 CALLDATASIZE SUB DUP2 ADD SWAP1 PUSH2 0x199 SWAP2 SWAP1 PUSH2 0x153D JUMP JUMPDEST PUSH2 0x46F JUMP JUMPDEST PUSH1 0x40 MLOAD PUSH2 0x1AB SWAP2 SWAP1 PUSH2 0x1582 JUMP JUMPDEST PUSH1 0x40 MLOAD DUP1 SWAP2 SUB SWAP1 RETURN JUMPDEST CALLVALUE DUP1 ISZERO PUSH2 0x1BF JUMPI PUSH0 DUP1 REVERT JUMPDEST POP PUSH2 0x1C8 PUSH2 0x4E2 JUMP JUMPDEST STOP JUMPDEST CALLVALUE DUP1 ISZERO PUSH2 0x1D5 JUMPI PUSH0 DUP1 REVERT JUMPDEST POP PUSH2 0x1DE PUSH2 0x5BF JUMP JUMPDEST STOP JUMPDEST PUSH2 0x1FA PUSH1 0x4 DUP1 CALLDATASIZE SUB DUP2 ADD SWAP1 PUSH2 0x1F5 SWAP2 SWAP1 PUSH2 0x15FC JUMP JUMPDEST PUSH2 0x5D1 JUMP JUMPDEST STOP JUMPDEST CALLVALUE DUP1 ISZERO PUSH2 0x207 JUMPI PUSH0 DUP1 REVERT JUMPDEST POP PUSH2 0x210 PUSH2 0xCF5 JUMP JUMPDEST PUSH1 0x40 MLOAD PUSH2 0x21D SWAP2 SWAP1 PUSH2 0x1668 JUMP JUMPDEST PUSH1 0x40 MLOAD DUP1 SWAP2 SUB SWAP1 RETURN JUMPDEST CALLVALUE DUP1 ISZERO PUSH2 0x231 JUMPI PUSH0 DUP1 REVERT JUMPDEST POP PUSH2 0x24C PUSH1 0x4 DUP1 CALLDATASIZE SUB DUP2 ADD SWAP1 PUSH2 0x247 SWAP2 SWAP1 PUSH2 0x16B4 JUMP JUMPDEST PUSH2 0xD08 JUMP JUMPDEST STOP JUMPDEST CALLVALUE DUP1 ISZERO PUSH2 0x259 JUMPI PUSH0 DUP1 REVERT JUMPDEST POP PUSH2 0x262 PUSH2 0xD9C JUMP JUMPDEST PUSH1 0x40 MLOAD PUSH2 0x26F SWAP2 SWAP1 PUSH2 0x16EE JUMP JUMPDEST PUSH1 0x40 MLOAD DUP1 SWAP2 SUB SWAP1 RETURN JUMPDEST CALLVALUE DUP1 ISZERO PUSH2 0x283 JUMPI PUSH0 DUP1 REVERT JUMPDEST POP PUSH2 0x28C PUSH2 0xDAB JUMP JUMPDEST PUSH1 0x40 MLOAD PUSH2 0x299 SWAP2 SWAP1 PUSH2 0x1582 JUMP JUMPDEST PUSH1 0x40 MLOAD DUP1 SWAP2 SUB SWAP1 RETURN JUMPDEST CALLVALUE DUP1 ISZERO PUSH2 0x2AD JUMPI PUSH0 DUP1 REVERT JUMPDEST POP PUSH2 0x2B6 PUSH2 0xDC0 JUMP JUMPDEST PUSH1 0x40 MLOAD PUSH2 0x2C3 SWAP2 SWAP1 PUSH2 0x16EE JUMP JUMPDEST PUSH1 0x40 MLOAD DUP1 SWAP2 SUB SWAP1 RETURN JUMPDEST CALLVALUE DUP1 ISZERO PUSH2 0x2D7 JUMPI PUSH0 DUP1 REVERT JUMPDEST POP PUSH2 0x2E0 PUSH2 0xDC7 JUMP JUMPDEST STOP JUMPDEST CALLVALUE DUP1 ISZERO PUSH2 0x2ED JUMPI PUSH0 DUP1 REVERT JUMPDEST POP PUSH2 0x2F6 PUSH2 0xDDA JUMP JUMPDEST STOP JUMPDEST CALLVALUE DUP1 ISZERO PUSH2 0x303 JUMPI PUSH0 DUP1 REVERT JUMPDEST POP PUSH2 0x30C PUSH2 0xDEC JUMP JUMPDEST PUSH1 0x40 MLOAD PUSH2 0x319 SWAP2 SWAP1 PUSH2 0x1746 JUMP JUMPDEST PUSH1 0x40 MLOAD DUP1 SWAP2 SUB SWAP1 RETURN JUMPDEST CALLVALUE DUP1 ISZERO PUSH2 0x32D JUMPI PUSH0 DUP1 REVERT JUMPDEST POP PUSH2 0x336 PUSH2 0xE13 JUMP JUMPDEST PUSH1 0x40 MLOAD PUSH2 0x343 SWAP2 SWAP1 PUSH2 0x16EE JUMP JUMPDEST PUSH1 0x40 MLOAD DUP1 SWAP2 SUB SWAP1 RETURN JUMPDEST CALLVALUE DUP1 ISZERO PUSH2 0x357 JUMPI PUSH0 DUP1 REVERT JUMPDEST POP PUSH2 0x372 PUSH1 0x4 DUP1 CALLDATASIZE SUB DUP2 ADD SWAP1 PUSH2 0x36D SWAP2 SWAP1 PUSH2 0x153D JUMP JUMPDEST PUSH2 0xE1C JUMP JUMPDEST PUSH1 0x40 MLOAD PUSH2 0x37F SWAP2 SWAP1 PUSH2 0x1582 JUMP JUMPDEST PUSH1 0x40 MLOAD DUP1 SWAP2 SUB SWAP1 RETURN JUMPDEST CALLVALUE DUP1 ISZERO PUSH2 0x393 JUMPI PUSH0 DUP1 REVERT JUMPDEST POP PUSH2 0x3AE PUSH1 0x4 DUP1 CALLDATASIZE SUB DUP2 ADD SWAP1 PUSH2 0x3A9 SWAP2 SWAP1 PUSH2 0x16B4 JUMP JUMPDEST PUSH2 0xE8F JUMP JUMPDEST STOP JUMPDEST CALLVALUE DUP1 ISZERO PUSH2 0x3BB JUMPI PUSH0 DUP1 REVERT JUMPDEST POP PUSH2 0x3C4 PUSH2 0xF73 JUMP JUMPDEST PUSH1 0x40 MLOAD PUSH2 0x3D1 SWAP2 SWAP1 PUSH2 0x1746 JUMP JUMPDEST PUSH1 0x40 MLOAD DUP1 SWAP2 SUB SWAP1 RETURN JUMPDEST CALLVALUE DUP1 ISZERO PUSH2 0x3E5 JUMPI PUSH0 DUP1 REVERT JUMPDEST POP PUSH2 0x400 PUSH1 0x4 DUP1 CALLDATASIZE SUB DUP2 ADD SWAP1 PUSH2 0x3FB SWAP2 SWAP1 PUSH2 0x1789 JUMP JUMPDEST PUSH2 0xF97 JUMP JUMPDEST STOP JUMPDEST PUSH2 0x40A PUSH2 0x101B JUMP JUMPDEST PUSH0 DUP2 PUSH2 0xFFFF AND GT PUSH2 0x450 JUMPI PUSH1 0x40 MLOAD PUSH32 0x8C379A000000000000000000000000000000000000000000000000000000000 DUP2 MSTORE PUSH1 0x4 ADD PUSH2 0x447 SWAP1 PUSH2 0x17FE JUMP JUMPDEST PUSH1 0x40 MLOAD DUP1 SWAP2 SUB SWAP1 REVERT JUMPDEST DUP1 PUSH1 0x4 PUSH0 PUSH2 0x100 EXP DUP2 SLOAD DUP2 PUSH2 0xFFFF MUL NOT AND SWAP1 DUP4 PUSH2 0xFFFF AND MUL OR SWAP1 SSTORE POP POP JUMP JUMPDEST PUSH0 DUP2 PUSH4 0xFFFFFFFF AND PUSH0 DUP2 SUB PUSH2 0x4B0 JUMPI PUSH1 0x40 MLOAD PUSH32 0x3F6CC76800000000000000000000000000000000000000000000000000000000 DUP2 MSTORE PUSH1 0x4 ADD PUSH1 0x40 MLOAD DUP1 SWAP2 SUB SWAP1 REVERT JUMPDEST PUSH1 0x6 PUSH0 DUP5 PUSH4 0xFFFFFFFF AND PUSH4 0xFFFFFFFF AND DUP2 MSTORE PUSH1 0x20 ADD SWAP1 DUP2 MSTORE PUSH1 0x20 ADD PUSH0 KECCAK256 PUSH0 SWAP1 SLOAD SWAP1 PUSH2 0x100 EXP SWAP1 DIV PUSH1 0xFF AND SWAP2 POP POP SWAP2 SWAP1 POP JUMP JUMPDEST PUSH2 0x4EA PUSH2 0x101B JUMP JUMPDEST PUSH2 0x4F2 PUSH2 0x10A2 JUMP JUMPDEST PUSH0 SELFBALANCE SWAP1 POP PUSH0 DUP2 SUB PUSH2 0x52F JUMPI PUSH1 0x40 MLOAD PUSH32 0x67E3990D00000000000000000000000000000000000000000000000000000000 DUP2 MSTORE PUSH1 0x4 ADD PUSH1 0x40 MLOAD DUP1 SWAP2 SUB SWAP1 REVERT JUMPDEST PUSH2 0x55F DUP2 PUSH2 0x53B PUSH2 0xDEC JUMP JUMPDEST PUSH20 0xFFFFFFFFFFFFFFFFFFFFFFFFFFFFFFFFFFFFFFFF AND PUSH2 0x10F1 SWAP1 SWAP2 SWAP1 PUSH4 0xFFFFFFFF AND JUMP JUMPDEST PUSH2 0x567 PUSH2 0xDEC JUMP JUMPDEST PUSH20 0xFFFFFFFFFFFFFFFFFFFFFFFFFFFFFFFFFFFFFFFF AND PUSH32 0xEAFF4B37086828766AD3268786972C0CD24259D4C87A80F9D3963A3C3D999B0D DUP3 PUSH1 0x40 MLOAD PUSH2 0x5AC SWAP2 SWAP1 PUSH2 0x16EE JUMP JUMPDEST PUSH1 0x40 MLOAD DUP1 SWAP2 SUB SWAP1 LOG2 POP PUSH2 0x5BD PUSH2 0x11B7 JUMP JUMPDEST JUMP JUMPDEST PUSH2 0x5C7 PUSH2 0x101B JUMP JUMPDEST PUSH2 0x5CF PUSH2 0x11C0 JUMP JUMPDEST JUMP JUMPDEST PUSH2 0x5D9 PUSH2 0x10A2 JUMP JUMPDEST PUSH2 0x5E1 PUSH2 0x1221 JUMP JUMPDEST PUSH0 DUP4 DUP4 SWAP1 POP SWAP1 POP PUSH0 DUP2 PUSH4 0xFFFFFFFF AND SUB PUSH2 0x630 JUMPI PUSH1 0x40 MLOAD PUSH32 0x8C379A000000000000000000000000000000000000000000000000000000000 DUP2 MSTORE PUSH1 0x4 ADD PUSH2 0x627 SWAP1 PUSH2 0x1866 JUMP JUMPDEST PUSH1 0x40 MLOAD DUP1 SWAP2 SUB SWAP1 REVERT JUMPDEST PUSH1 0x4 PUSH0 SWAP1 SLOAD SWAP1 PUSH2 0x100 EXP SWAP1 DIV PUSH2 0xFFFF AND PUSH2 0xFFFF AND DUP2 PUSH4 0xFFFFFFFF AND EQ PUSH2 0x68B JUMPI PUSH1 0x40 MLOAD PUSH32 0x8C379A000000000000000000000000000000000000000000000000000000000 DUP2 MSTORE PUSH1 0x4 ADD PUSH2 0x682 SWAP1 PUSH2 0x18CE JUMP JUMPDEST PUSH1 0x40 MLOAD DUP1 SWAP2 SUB SWAP1 REVERT JUMPDEST PUSH0 PUSH1 0x3 SLOAD SWAP1 POP DUP1 CALLVALUE LT ISZERO PUSH2 0x6D4 JUMPI PUSH1 0x40 MLOAD PUSH32 0x8C379A000000000000000000000000000000000000000000000000000000000 DUP2 MSTORE PUSH1 0x4 ADD PUSH2 0x6CB SWAP1 PUSH2 0x1936 JUMP JUMPDEST PUSH1 0x40 MLOAD DUP1 SWAP2 SUB SWAP1 REVERT JUMPDEST PUSH0 PUSH32 0x0 SWAP1 POP CALLER PUSH20 0xFFFFFFFFFFFFFFFFFFFFFFFFFFFFFFFFFFFFFFFF AND DUP2 PUSH20 0xFFFFFFFFFFFFFFFFFFFFFFFFFFFFFFFFFFFFFFFF AND PUSH4 0x6352211E DUP7 PUSH1 0x40 MLOAD DUP3 PUSH4 0xFFFFFFFF AND PUSH1 0xE0 SHL DUP2 MSTORE PUSH1 0x4 ADD PUSH2 0x748 SWAP2 SWAP1 PUSH2 0x198D JUMP JUMPDEST PUSH1 0x20 PUSH1 0x40 MLOAD DUP1 DUP4 SUB DUP2 DUP7 GAS STATICCALL ISZERO DUP1 ISZERO PUSH2 0x763 JUMPI RETURNDATASIZE PUSH0 DUP1 RETURNDATACOPY RETURNDATASIZE PUSH0 REVERT JUMPDEST POP POP POP POP PUSH1 0x40 MLOAD RETURNDATASIZE PUSH1 0x1F NOT PUSH1 0x1F DUP3 ADD AND DUP3 ADD DUP1 PUSH1 0x40 MSTORE POP DUP2 ADD SWAP1 PUSH2 0x787 SWAP2 SWAP1 PUSH2 0x19BA JUMP JUMPDEST PUSH20 0xFFFFFFFFFFFFFFFFFFFFFFFFFFFFFFFFFFFFFFFF AND EQ PUSH2 0x7DD JUMPI PUSH1 0x40 MLOAD PUSH32 0x8C379A000000000000000000000000000000000000000000000000000000000 DUP2 MSTORE PUSH1 0x4 ADD PUSH2 0x7D4 SWAP1 PUSH2 0x1A2F JUMP JUMPDEST PUSH1 0x40 MLOAD DUP1 SWAP2 SUB SWAP1 REVERT JUMPDEST PUSH1 0x5 PUSH0 DUP6 PUSH4 0xFFFFFFFF AND PUSH4 0xFFFFFFFF AND DUP2 MSTORE PUSH1 0x20 ADD SWAP1 DUP2 MSTORE PUSH1 0x20 ADD PUSH0 KECCAK256 PUSH0 SWAP1 SLOAD SWAP1 PUSH2 0x100 EXP SWAP1 DIV PUSH1 0xFF AND ISZERO PUSH2 0x847 JUMPI PUSH1 0x40 MLOAD PUSH32 0x8C379A000000000000000000000000000000000000000000000000000000000 DUP2 MSTORE PUSH1 0x4 ADD PUSH2 0x83E SWAP1 PUSH2 0x1A97 JUMP JUMPDEST PUSH1 0x40 MLOAD DUP1 SWAP2 SUB SWAP1 REVERT JUMPDEST PUSH1 0x6 PUSH0 DUP6 PUSH4 0xFFFFFFFF AND PUSH4 0xFFFFFFFF AND DUP2 MSTORE PUSH1 0x20 ADD SWAP1 DUP2 MSTORE PUSH1 0x20 ADD PUSH0 KECCAK256 PUSH0 SWAP1 SLOAD SWAP1 PUSH2 0x100 EXP SWAP1 DIV PUSH1 0xFF AND ISZERO PUSH2 0x8B1 JUMPI PUSH1 0x40 MLOAD PUSH32 0x8C379A000000000000000000000000000000000000000000000000000000000 DUP2 MSTORE PUSH1 0x4 ADD PUSH2 0x8A8 SWAP1 PUSH2 0x1AFF JUMP JUMPDEST PUSH1 0x40 MLOAD DUP1 SWAP2 SUB SWAP1 REVERT JUMPDEST PUSH0 JUMPDEST DUP4 PUSH4 0xFFFFFFFF AND DUP2 PUSH4 0xFFFFFFFF AND LT ISZERO PUSH2 0xAA3 JUMPI PUSH0 DUP8 DUP8 DUP4 PUSH4 0xFFFFFFFF AND DUP2 DUP2 LT PUSH2 0x8E1 JUMPI PUSH2 0x8E0 PUSH2 0x1B1D JUMP JUMPDEST JUMPDEST SWAP1 POP PUSH1 0x20 MUL ADD PUSH1 0x20 DUP2 ADD SWAP1 PUSH2 0x8F6 SWAP2 SWAP1 PUSH2 0x153D JUMP JUMPDEST SWAP1 POP DUP6 PUSH4 0xFFFFFFFF AND DUP2 PUSH4 0xFFFFFFFF AND SUB PUSH2 0x946 JUMPI PUSH1 0x40 MLOAD PUSH32 0x8C379A000000000000000000000000000000000000000000000000000000000 DUP2 MSTORE PUSH1 0x4 ADD PUSH2 0x93D SWAP1 PUSH2 0x1BBA JUMP JUMPDEST PUSH1 0x40 MLOAD DUP1 SWAP2 SUB SWAP1 REVERT JUMPDEST PUSH1 0x5 PUSH0 DUP3 PUSH4 0xFFFFFFFF AND PUSH4 0xFFFFFFFF AND DUP2 MSTORE PUSH1 0x20 ADD SWAP1 DUP2 MSTORE PUSH1 0x20 ADD PUSH0 KECCAK256 PUSH0 SWAP1 SLOAD SWAP1 PUSH2 0x100 EXP SWAP1 DIV PUSH1 0xFF AND ISZERO PUSH2 0x9B0 JUMPI PUSH1 0x40 MLOAD PUSH32 0x8C379A000000000000000000000000000000000000000000000000000000000 DUP2 MSTORE PUSH1 0x4 ADD PUSH2 0x9A7 SWAP1 PUSH2 0x1A97 JUMP JUMPDEST PUSH1 0x40 MLOAD DUP1 SWAP2 SUB SWAP1 REVERT JUMPDEST CALLER PUSH20 0xFFFFFFFFFFFFFFFFFFFFFFFFFFFFFFFFFFFFFFFF AND DUP4 PUSH20 0xFFFFFFFFFFFFFFFFFFFFFFFFFFFFFFFFFFFFFFFF AND PUSH4 0x6352211E DUP4 PUSH1 0x40 MLOAD DUP3 PUSH4 0xFFFFFFFF AND PUSH1 0xE0 SHL DUP2 MSTORE PUSH1 0x4 ADD PUSH2 0xA00 SWAP2 SWAP1 PUSH2 0x198D JUMP JUMPDEST PUSH1 0x20 PUSH1 0x40 MLOAD DUP1 DUP4 SUB DUP2 DUP7 GAS STATICCALL ISZERO DUP1 ISZERO PUSH2 0xA1B JUMPI RETURNDATASIZE PUSH0 DUP1 RETURNDATACOPY RETURNDATASIZE PUSH0 REVERT JUMPDEST POP POP POP POP PUSH1 0x40 MLOAD RETURNDATASIZE PUSH1 0x1F NOT PUSH1 0x1F DUP3 ADD AND DUP3 ADD DUP1 PUSH1 0x40 MSTORE POP DUP2 ADD SWAP1 PUSH2 0xA3F SWAP2 SWAP1 PUSH2 0x19BA JUMP JUMPDEST PUSH20 0xFFFFFFFFFFFFFFFFFFFFFFFFFFFFFFFFFFFFFFFF AND EQ PUSH2 0xA95 JUMPI PUSH1 0x40 MLOAD PUSH32 0x8C379A000000000000000000000000000000000000000000000000000000000 DUP2 MSTORE PUSH1 0x4 ADD PUSH2 0xA8C SWAP1 PUSH2 0x1A2F JUMP JUMPDEST PUSH1 0x40 MLOAD DUP1 SWAP2 SUB SWAP1 REVERT JUMPDEST POP DUP1 DUP1 PUSH1 0x1 ADD SWAP2 POP POP PUSH2 0x8B3 JUMP JUMPDEST POP PUSH1 0x1 PUSH1 0x6 PUSH0 DUP7 PUSH4 0xFFFFFFFF AND PUSH4 0xFFFFFFFF AND DUP2 MSTORE PUSH1 0x20 ADD SWAP1 DUP2 MSTORE PUSH1 0x20 ADD PUSH0 KECCAK256 PUSH0 PUSH2 0x100 EXP DUP2 SLOAD DUP2 PUSH1 0xFF MUL NOT AND SWAP1 DUP4 ISZERO ISZERO MUL OR SWAP1 SSTORE POP PUSH0 JUMPDEST DUP4 PUSH4 0xFFFFFFFF AND DUP2 PUSH4 0xFFFFFFFF AND LT ISZERO PUSH2 0xBC9 JUMPI PUSH0 DUP8 DUP8 DUP4 PUSH4 0xFFFFFFFF AND DUP2 DUP2 LT PUSH2 0xB09 JUMPI PUSH2 0xB08 PUSH2 0x1B1D JUMP JUMPDEST JUMPDEST SWAP1 POP PUSH1 0x20 MUL ADD PUSH1 0x20 DUP2 ADD SWAP1 PUSH2 0xB1E SWAP2 SWAP1 PUSH2 0x153D JUMP JUMPDEST SWAP1 POP PUSH1 0x1 PUSH1 0x5 PUSH0 DUP4 PUSH4 0xFFFFFFFF AND PUSH4 0xFFFFFFFF AND DUP2 MSTORE PUSH1 0x20 ADD SWAP1 DUP2 MSTORE PUSH1 0x20 ADD PUSH0 KECCAK256 PUSH0 PUSH2 0x100 EXP DUP2 SLOAD DUP2 PUSH1 0xFF MUL NOT AND SWAP1 DUP4 ISZERO ISZERO MUL OR SWAP1 SSTORE POP DUP3 PUSH20 0xFFFFFFFFFFFFFFFFFFFFFFFFFFFFFFFFFFFFFFFF AND PUSH4 0x42966C68 DUP3 PUSH1 0x40 MLOAD DUP3 PUSH4 0xFFFFFFFF AND PUSH1 0xE0 SHL DUP2 MSTORE PUSH1 0x4 ADD PUSH2 0xB8E SWAP2 SWAP1 PUSH2 0x198D JUMP JUMPDEST PUSH0 PUSH1 0x40 MLOAD DUP1 DUP4 SUB DUP2 PUSH0 DUP8 DUP1 EXTCODESIZE ISZERO DUP1 ISZERO PUSH2 0xBA5 JUMPI PUSH0 DUP1 REVERT JUMPDEST POP GAS CALL ISZERO DUP1 ISZERO PUSH2 0xBB7 JUMPI RETURNDATASIZE PUSH0 DUP1 RETURNDATACOPY RETURNDATASIZE PUSH0 REVERT JUMPDEST POP POP POP POP POP DUP1 DUP1 PUSH1 0x1 ADD SWAP2 POP POP PUSH2 0xADB JUMP JUMPDEST POP DUP4 PUSH4 0xFFFFFFFF AND CALLER PUSH20 0xFFFFFFFFFFFFFFFFFFFFFFFFFFFFFFFFFFFFFFFF AND PUSH32 0x26CCC16F7FCB4F9C2582BCBA8E2AA8BFC16139AD280D11913CCFB99777825EE0 DUP9 DUP9 DUP7 PUSH1 0x40 MLOAD PUSH2 0xC1B SWAP4 SWAP3 SWAP2 SWAP1 PUSH2 0x1C94 JUMP JUMPDEST PUSH1 0x40 MLOAD DUP1 SWAP2 SUB SWAP1 LOG3 PUSH0 DUP3 CALLVALUE PUSH2 0xC30 SWAP2 SWAP1 PUSH2 0x1CF1 JUMP JUMPDEST SWAP1 POP PUSH0 DUP2 GT ISZERO PUSH2 0xCE4 JUMPI PUSH0 CALLER PUSH20 0xFFFFFFFFFFFFFFFFFFFFFFFFFFFFFFFFFFFFFFFF AND DUP3 PUSH1 0x40 MLOAD PUSH2 0xC5F SWAP1 PUSH2 0x1D51 JUMP JUMPDEST PUSH0 PUSH1 0x40 MLOAD DUP1 DUP4 SUB DUP2 DUP6 DUP8 GAS CALL SWAP3 POP POP POP RETURNDATASIZE DUP1 PUSH0 DUP2 EQ PUSH2 0xC99 JUMPI PUSH1 0x40 MLOAD SWAP2 POP PUSH1 0x1F NOT PUSH1 0x3F RETURNDATASIZE ADD AND DUP3 ADD PUSH1 0x40 MSTORE RETURNDATASIZE DUP3 MSTORE RETURNDATASIZE PUSH0 PUSH1 0x20 DUP5 ADD RETURNDATACOPY PUSH2 0xC9E JUMP JUMPDEST PUSH1 0x60 SWAP2 POP JUMPDEST POP POP SWAP1 POP DUP1 PUSH2 0xCE2 JUMPI PUSH1 0x40 MLOAD PUSH32 0x8C379A000000000000000000000000000000000000000000000000000000000 DUP2 MSTORE PUSH1 0x4 ADD PUSH2 0xCD9 SWAP1 PUSH2 0x1DAF JUMP JUMPDEST PUSH1 0x40 MLOAD DUP1 SWAP2 SUB SWAP1 REVERT JUMPDEST POP JUMPDEST POP POP POP POP PUSH2 0xCF0 PUSH2 0x11B7 JUMP JUMPDEST POP POP POP JUMP JUMPDEST PUSH1 0x4 PUSH0 SWAP1 SLOAD SWAP1 PUSH2 0x100 EXP SWAP1 DIV PUSH2 0xFFFF AND DUP2 JUMP JUMPDEST PUSH2 0xD10 PUSH2 0x101B JUMP JUMPDEST PUSH8 0x16345785D8A0000 DUP2 GT ISZERO PUSH2 0xD52 JUMPI PUSH1 0x40 MLOAD PUSH32 0xAF9C21DC00000000000000000000000000000000000000000000000000000000 DUP2 MSTORE PUSH1 0x4 ADD PUSH1 0x40 MLOAD DUP1 SWAP2 SUB SWAP1 REVERT JUMPDEST PUSH0 PUSH1 0x3 SLOAD SWAP1 POP DUP2 PUSH1 0x3 DUP2 SWAP1 SSTORE POP PUSH32 0x78F1461296BAD7BD716A7673AA3E659CC091C348A7ED4CFEF7CE452C3052F2FB DUP2 DUP4 PUSH1 0x40 MLOAD PUSH2 0xD90 SWAP3 SWAP2 SWAP1 PUSH2 0x1DCD JUMP JUMPDEST PUSH1 0x40 MLOAD DUP1 SWAP2 SUB SWAP1 LOG1 POP POP JUMP JUMPDEST PUSH0 PUSH8 0x16345785D8A0000 SWAP1 POP SWAP1 JUMP JUMPDEST PUSH0 PUSH1 0x2 PUSH0 SWAP1 SLOAD SWAP1 PUSH2 0x100 EXP SWAP1 DIV PUSH1 0xFF AND SWAP1 POP SWAP1 JUMP JUMPDEST PUSH0 SELFBALANCE SWAP1 POP SWAP1 JUMP JUMPDEST PUSH2 0xDCF PUSH2 0x101B JUMP JUMPDEST PUSH2 0xDD8 PUSH0 PUSH2 0x126B JUMP JUMPDEST JUMP JUMPDEST PUSH2 0xDE2 PUSH2 0x101B JUMP JUMPDEST PUSH2 0xDEA PUSH2 0x132C JUMP JUMPDEST JUMP JUMPDEST PUSH0 DUP1 PUSH0 SWAP1 SLOAD SWAP1 PUSH2 0x100 EXP SWAP1 DIV PUSH20 0xFFFFFFFFFFFFFFFFFFFFFFFFFFFFFFFFFFFFFFFF AND SWAP1 POP SWAP1 JUMP JUMPDEST PUSH0 PUSH1 0x3 SLOAD SWAP1 POP SWAP1 JUMP JUMPDEST PUSH0 DUP2 PUSH4 0xFFFFFFFF AND PUSH0 DUP2 SUB PUSH2 0xE5D JUMPI PUSH1 0x40 MLOAD PUSH32 0x3F6CC76800000000000000000000000000000000000000000000000000000000 DUP2 MSTORE PUSH1 0x4 ADD PUSH1 0x40 MLOAD DUP1 SWAP2 SUB SWAP1 REVERT JUMPDEST PUSH1 0x5 PUSH0 DUP5 PUSH4 0xFFFFFFFF AND PUSH4 0xFFFFFFFF AND DUP2 MSTORE PUSH1 0x20 ADD SWAP1 DUP2 MSTORE PUSH1 0x20 ADD PUSH0 KECCAK256 PUSH0 SWAP1 SLOAD SWAP1 PUSH2 0x100 EXP SWAP1 DIV PUSH1 0xFF AND SWAP2 POP POP SWAP2 SWAP1 POP JUMP JUMPDEST PUSH2 0xE97 PUSH2 0x101B JUMP JUMPDEST PUSH2 0xE9F PUSH2 0x10A2 JUMP JUMPDEST PUSH0 DUP2 EQ DUP1 PUSH2 0xEAC JUMPI POP SELFBALANCE DUP2 GT JUMPDEST ISZERO PUSH2 0xEE3 JUMPI PUSH1 0x40 MLOAD PUSH32 0x67E3990D00000000000000000000000000000000000000000000000000000000 DUP2 MSTORE PUSH1 0x4 ADD PUSH1 0x40 MLOAD DUP1 SWAP2 SUB SWAP1 REVERT JUMPDEST PUSH2 0xF13 DUP2 PUSH2 0xEEF PUSH2 0xDEC JUMP JUMPDEST PUSH20 0xFFFFFFFFFFFFFFFFFFFFFFFFFFFFFFFFFFFFFFFF AND PUSH2 0x10F1 SWAP1 SWAP2 SWAP1 PUSH4 0xFFFFFFFF AND JUMP JUMPDEST PUSH2 0xF1B PUSH2 0xDEC JUMP JUMPDEST PUSH20 0xFFFFFFFFFFFFFFFFFFFFFFFFFFFFFFFFFFFFFFFF AND PUSH32 0xEAFF4B37086828766AD3268786972C0CD24259D4C87A80F9D3963A3C3D999B0D DUP3 PUSH1 0x40 MLOAD PUSH2 0xF60 SWAP2 SWAP1 PUSH2 0x16EE JUMP JUMPDEST PUSH1 0x40 MLOAD DUP1 SWAP2 SUB SWAP1 LOG2 PUSH2 0xF70 PUSH2 0x11B7 JUMP JUMPDEST POP JUMP JUMPDEST PUSH32 0x0 DUP2 JUMP JUMPDEST PUSH2 0xF9F PUSH2 0x101B JUMP JUMPDEST PUSH0 PUSH20 0xFFFFFFFFFFFFFFFFFFFFFFFFFFFFFFFFFFFFFFFF AND DUP2 PUSH20 0xFFFFFFFFFFFFFFFFFFFFFFFFFFFFFFFFFFFFFFFF AND SUB PUSH2 0x100F JUMPI PUSH0 PUSH1 0x40 MLOAD PUSH32 0x1E4FBDF700000000000000000000000000000000000000000000000000000000 DUP2 MSTORE PUSH1 0x4 ADD PUSH2 0x1006 SWAP2 SWAP1 PUSH2 0x1746 JUMP JUMPDEST PUSH1 0x40 MLOAD DUP1 SWAP2 SUB SWAP1 REVERT JUMPDEST PUSH2 0x1018 DUP2 PUSH2 0x126B JUMP JUMPDEST POP JUMP JUMPDEST PUSH2 0x1023 PUSH2 0x138E JUMP JUMPDEST PUSH20 0xFFFFFFFFFFFFFFFFFFFFFFFFFFFFFFFFFFFFFFFF AND PUSH2 0x1041 PUSH2 0xDEC JUMP JUMPDEST PUSH20 0xFFFFFFFFFFFFFFFFFFFFFFFFFFFFFFFFFFFFFFFF AND EQ PUSH2 0x10A0 JUMPI PUSH2 0x1064 PUSH2 0x138E JUMP JUMPDEST PUSH1 0x40 MLOAD PUSH32 0x118CDAA700000000000000000000000000000000000000000000000000000000 DUP2 MSTORE PUSH1 0x4 ADD PUSH2 0x1097 SWAP2 SWAP1 PUSH2 0x1746 JUMP JUMPDEST PUSH1 0x40 MLOAD DUP1 SWAP2 SUB SWAP1 REVERT JUMPDEST JUMP JUMPDEST PUSH1 0x2 PUSH1 0x1 SLOAD SUB PUSH2 0x10E7 JUMPI PUSH1 0x40 MLOAD PUSH32 0x8C379A000000000000000000000000000000000000000000000000000000000 DUP2 MSTORE PUSH1 0x4 ADD PUSH2 0x10DE SWAP1 PUSH2 0x1E3E JUMP JUMPDEST PUSH1 0x40 MLOAD DUP1 SWAP2 SUB SWAP1 REVERT JUMPDEST PUSH1 0x2 PUSH1 0x1 DUP2 SWAP1 SSTORE POP JUMP JUMPDEST DUP1 SELFBALANCE LT ISZERO PUSH2 0x1138 JUMPI SELFBALANCE DUP2 PUSH1 0x40 MLOAD PUSH32 0xCF47918100000000000000000000000000000000000000000000000000000000 DUP2 MSTORE PUSH1 0x4 ADD PUSH2 0x112F SWAP3 SWAP2 SWAP1 PUSH2 0x1DCD JUMP JUMPDEST PUSH1 0x40 MLOAD DUP1 SWAP2 SUB SWAP1 REVERT JUMPDEST PUSH0 DUP1 DUP4 PUSH20 0xFFFFFFFFFFFFFFFFFFFFFFFFFFFFFFFFFFFFFFFF AND DUP4 PUSH1 0x40 MLOAD PUSH2 0x115E SWAP1 PUSH2 0x1D51 JUMP JUMPDEST PUSH0 PUSH1 0x40 MLOAD DUP1 DUP4 SUB DUP2 DUP6 DUP8 GAS CALL SWAP3 POP POP POP RETURNDATASIZE DUP1 PUSH0 DUP2 EQ PUSH2 0x1198 JUMPI PUSH1 0x40 MLOAD SWAP2 POP PUSH1 0x1F NOT PUSH1 0x3F RETURNDATASIZE ADD AND DUP3 ADD PUSH1 0x40 MSTORE RETURNDATASIZE DUP3 MSTORE RETURNDATASIZE PUSH0 PUSH1 0x20 DUP5 ADD RETURNDATACOPY PUSH2 0x119D JUMP JUMPDEST PUSH1 0x60 SWAP2 POP JUMPDEST POP SWAP2 POP SWAP2 POP DUP2 PUSH2 0x11B1 JUMPI PUSH2 0x11B0 DUP2 PUSH2 0x1395 JUMP JUMPDEST JUMPDEST POP POP POP POP JUMP JUMPDEST PUSH1 0x1 DUP1 DUP2 SWAP1 SSTORE POP JUMP JUMPDEST PUSH2 0x11C8 PUSH2 0x13D9 JUMP JUMPDEST PUSH0 PUSH1 0x2 PUSH0 PUSH2 0x100 EXP DUP2 SLOAD DUP2 PUSH1 0xFF MUL NOT AND SWAP1 DUP4 ISZERO ISZERO MUL OR SWAP1 SSTORE POP PUSH32 0x5DB9EE0A495BF2E6FF9C91A7834C1BA4FDD244A5E8AA4E537BD38AEAE4B073AA PUSH2 0x120A PUSH2 0x138E JUMP JUMPDEST PUSH1 0x40 MLOAD PUSH2 0x1217 SWAP2 SWAP1 PUSH2 0x1746 JUMP JUMPDEST PUSH1 0x40 MLOAD DUP1 SWAP2 SUB SWAP1 LOG1 JUMP JUMPDEST PUSH2 0x1229 PUSH2 0xDAB JUMP JUMPDEST ISZERO PUSH2 0x1269 JUMPI PUSH1 0x40 MLOAD PUSH32 0x8C379A000000000000000000000000000000000000000000000000000000000 DUP2 MSTORE PUSH1 0x4 ADD PUSH2 0x1260 SWAP1 PUSH2 0x1EA6 JUMP JUMPDEST PUSH1 0x40 MLOAD DUP1 SWAP2 SUB SWAP1 REVERT JUMPDEST JUMP JUMPDEST PUSH0 DUP1 PUSH0 SWAP1 SLOAD SWAP1 PUSH2 0x100 EXP SWAP1 DIV PUSH20 0xFFFFFFFFFFFFFFFFFFFFFFFFFFFFFFFFFFFFFFFF AND SWAP1 POP DUP2 PUSH0 DUP1 PUSH2 0x100 EXP DUP2 SLOAD DUP2 PUSH20 0xFFFFFFFFFFFFFFFFFFFFFFFFFFFFFFFFFFFFFFFF MUL NOT AND SWAP1 DUP4 PUSH20 0xFFFFFFFFFFFFFFFFFFFFFFFFFFFFFFFFFFFFFFFF AND MUL OR SWAP1 SSTORE POP DUP2 PUSH20 0xFFFFFFFFFFFFFFFFFFFFFFFFFFFFFFFFFFFFFFFF AND DUP2 PUSH20 0xFFFFFFFFFFFFFFFFFFFFFFFFFFFFFFFFFFFFFFFF AND PUSH32 0x8BE0079C531659141344CD1FD0A4F28419497F9722A3DAAFE3B4186F6B6457E0 PUSH1 0x40 MLOAD PUSH1 0x40 MLOAD DUP1 SWAP2 SUB SWAP1 LOG3 POP POP JUMP JUMPDEST PUSH2 0x1334 PUSH2 0x1221 JUMP JUMPDEST PUSH1 0x1 PUSH1 0x2 PUSH0 PUSH2 0x100 EXP DUP2 SLOAD DUP2 PUSH1 0xFF MUL NOT AND SWAP1 DUP4 ISZERO ISZERO MUL OR SWAP1 SSTORE POP PUSH32 0x62E78CEA01BEE320CD4E420270B5EA74000D11B0C9F74754EBDBFC544B05A258 PUSH2 0x1377 PUSH2 0x138E JUMP JUMPDEST PUSH1 0x40 MLOAD PUSH2 0x1384 SWAP2 SWAP1 PUSH2 0x1746 JUMP JUMPDEST PUSH1 0x40 MLOAD DUP1 SWAP2 SUB SWAP1 LOG1 JUMP JUMPDEST PUSH0 CALLER SWAP1 POP SWAP1 JUMP JUMPDEST PUSH0 DUP2 MLOAD GT ISZERO PUSH2 0x13A7 JUMPI DUP1 MLOAD DUP1 DUP3 PUSH1 0x20 ADD REVERT JUMPDEST PUSH1 0x40 MLOAD PUSH32 0xD6BDA27500000000000000000000000000000000000000000000000000000000 DUP2 MSTORE PUSH1 0x4 ADD PUSH1 0x40 MLOAD DUP1 SWAP2 SUB SWAP1 REVERT JUMPDEST PUSH2 0x13E1 PUSH2 0xDAB JUMP JUMPDEST PUSH2 0x1420 JUMPI PUSH1 0x40 MLOAD PUSH32 0x8C379A000000000000000000000000000000000000000000000000000000000 DUP2 MSTORE PUSH1 0x4 ADD PUSH2 0x1417 SWAP1 PUSH2 0x1F0E JUMP JUMPDEST PUSH1 0x40 MLOAD DUP1 SWAP2 SUB SWAP1 REVERT JUMPDEST JUMP JUMPDEST PUSH0 DUP3 DUP3 MSTORE PUSH1 0x20 DUP3 ADD SWAP1 POP SWAP3 SWAP2 POP POP JUMP JUMPDEST PUSH32 0x44697265637420455448207472616E7366657273206E6F7420616C6C6F776564 PUSH0 DUP3 ADD MSTORE POP JUMP JUMPDEST PUSH0 PUSH2 0x1466 PUSH1 0x20 DUP4 PUSH2 0x1422 JUMP JUMPDEST SWAP2 POP PUSH2 0x1471 DUP3 PUSH2 0x1432 JUMP JUMPDEST PUSH1 0x20 DUP3 ADD SWAP1 POP SWAP2 SWAP1 POP JUMP JUMPDEST PUSH0 PUSH1 0x20 DUP3 ADD SWAP1 POP DUP2 DUP2 SUB PUSH0 DUP4 ADD MSTORE PUSH2 0x1493 DUP2 PUSH2 0x145A JUMP JUMPDEST SWAP1 POP SWAP2 SWAP1 POP JUMP JUMPDEST PUSH0 DUP1 REVERT JUMPDEST PUSH0 DUP1 REVERT JUMPDEST PUSH0 PUSH2 0xFFFF DUP3 AND SWAP1 POP SWAP2 SWAP1 POP JUMP JUMPDEST PUSH2 0x14B8 DUP2 PUSH2 0x14A2 JUMP JUMPDEST DUP2 EQ PUSH2 0x14C2 JUMPI PUSH0 DUP1 REVERT JUMPDEST POP JUMP JUMPDEST PUSH0 DUP2 CALLDATALOAD SWAP1 POP PUSH2 0x14D3 DUP2 PUSH2 0x14AF JUMP JUMPDEST SWAP3 SWAP2 POP POP JUMP JUMPDEST PUSH0 PUSH1 0x20 DUP3 DUP5 SUB SLT ISZERO PUSH2 0x14EE JUMPI PUSH2 0x14ED PUSH2 0x149A JUMP JUMPDEST JUMPDEST PUSH0 PUSH2 0x14FB DUP5 DUP3 DUP6 ADD PUSH2 0x14C5 JUMP JUMPDEST SWAP2 POP POP SWAP3 SWAP2 POP POP JUMP JUMPDEST PUSH0 PUSH4 0xFFFFFFFF DUP3 AND SWAP1 POP SWAP2 SWAP1 POP JUMP JUMPDEST PUSH2 0x151C DUP2 PUSH2 0x1504 JUMP JUMPDEST DUP2 EQ PUSH2 0x1526 JUMPI PUSH0 DUP1 REVERT JUMPDEST POP JUMP JUMPDEST PUSH0 DUP2 CALLDATALOAD SWAP1 POP PUSH2 0x1537 DUP2 PUSH2 0x1513 JUMP JUMPDEST SWAP3 SWAP2 POP POP JUMP JUMPDEST PUSH0 PUSH1 0x20 DUP3 DUP5 SUB SLT ISZERO PUSH2 0x1552 JUMPI PUSH2 0x1551 PUSH2 0x149A JUMP JUMPDEST JUMPDEST PUSH0 PUSH2 0x155F DUP5 DUP3 DUP6 ADD PUSH2 0x1529 JUMP JUMPDEST SWAP2 POP POP SWAP3 SWAP2 POP POP JUMP JUMPDEST PUSH0 DUP2 ISZERO ISZERO SWAP1 POP SWAP2 SWAP1 POP JUMP JUMPDEST PUSH2 0x157C DUP2 PUSH2 0x1568 JUMP JUMPDEST DUP3 MSTORE POP POP JUMP JUMPDEST PUSH0 PUSH1 0x20 DUP3 ADD SWAP1 POP PUSH2 0x1595 PUSH0 DUP4 ADD DUP5 PUSH2 0x1573 JUMP JUMPDEST SWAP3 SWAP2 POP POP JUMP JUMPDEST PUSH0 DUP1 REVERT JUMPDEST PUSH0 DUP1 REVERT JUMPDEST PUSH0 DUP1 REVERT JUMPDEST PUSH0 DUP1 DUP4 PUSH1 0x1F DUP5 ADD SLT PUSH2 0x15BC JUMPI PUSH2 0x15BB PUSH2 0x159B JUMP JUMPDEST JUMPDEST DUP3 CALLDATALOAD SWAP1 POP PUSH8 0xFFFFFFFFFFFFFFFF DUP2 GT ISZERO PUSH2 0x15D9 JUMPI PUSH2 0x15D8 PUSH2 0x159F JUMP JUMPDEST JUMPDEST PUSH1 0x20 DUP4 ADD SWAP2 POP DUP4 PUSH1 0x20 DUP3 MUL DUP4 ADD GT ISZERO PUSH2 0x15F5 JUMPI PUSH2 0x15F4 PUSH2 0x15A3 JUMP JUMPDEST JUMPDEST SWAP3 POP SWAP3 SWAP1 POP JUMP JUMPDEST PUSH0 DUP1 PUSH0 PUSH1 0x40 DUP5 DUP7 SUB SLT ISZERO PUSH2 0x1613 JUMPI PUSH2 0x1612 PUSH2 0x149A JUMP JUMPDEST JUMPDEST PUSH0 DUP5 ADD CALLDATALOAD PUSH8 0xFFFFFFFFFFFFFFFF DUP2 GT ISZERO PUSH2 0x1630 JUMPI PUSH2 0x162F PUSH2 0x149E JUMP JUMPDEST JUMPDEST PUSH2 0x163C DUP7 DUP3 DUP8 ADD PUSH2 0x15A7 JUMP JUMPDEST SWAP4 POP SWAP4 POP POP PUSH1 0x20 PUSH2 0x164F DUP7 DUP3 DUP8 ADD PUSH2 0x1529 JUMP JUMPDEST SWAP2 POP POP SWAP3 POP SWAP3 POP SWAP3 JUMP JUMPDEST PUSH2 0x1662 DUP2 PUSH2 0x14A2 JUMP JUMPDEST DUP3 MSTORE POP POP JUMP JUMPDEST PUSH0 PUSH1 0x20 DUP3 ADD SWAP1 POP PUSH2 0x167B PUSH0 DUP4 ADD DUP5 PUSH2 0x1659 JUMP JUMPDEST SWAP3 SWAP2 POP POP JUMP JUMPDEST PUSH0 DUP2 SWAP1 POP SWAP2 SWAP1 POP JUMP JUMPDEST PUSH2 0x1693 DUP2 PUSH2 0x1681 JUMP JUMPDEST DUP2 EQ PUSH2 0x169D JUMPI PUSH0 DUP1 REVERT JUMPDEST POP JUMP JUMPDEST PUSH0 DUP2 CALLDATALOAD SWAP1 POP PUSH2 0x16AE DUP2 PUSH2 0x168A JUMP JUMPDEST SWAP3 SWAP2 POP POP JUMP JUMPDEST PUSH0 PUSH1 0x20 DUP3 DUP5 SUB SLT ISZERO PUSH2 0x16C9 JUMPI PUSH2 0x16C8 PUSH2 0x149A JUMP JUMPDEST JUMPDEST PUSH0 PUSH2 0x16D6 DUP5 DUP3 DUP6 ADD PUSH2 0x16A0 JUMP JUMPDEST SWAP2 POP POP SWAP3 SWAP2 POP POP JUMP JUMPDEST PUSH2 0x16E8 DUP2 PUSH2 0x1681 JUMP JUMPDEST DUP3 MSTORE POP POP JUMP JUMPDEST PUSH0 PUSH1 0x20 DUP3 ADD SWAP1 POP PUSH2 0x1701 PUSH0 DUP4 ADD DUP5 PUSH2 0x16DF JUMP JUMPDEST SWAP3 SWAP2 POP POP JUMP JUMPDEST PUSH0 PUSH20 0xFFFFFFFFFFFFFFFFFFFFFFFFFFFFFFFFFFFFFFFF DUP3 AND SWAP1 POP SWAP2 SWAP1 POP JUMP JUMPDEST PUSH0 PUSH2 0x1730 DUP3 PUSH2 0x1707 JUMP JUMPDEST SWAP1 POP SWAP2 SWAP1 POP JUMP JUMPDEST PUSH2 0x1740 DUP2 PUSH2 0x1726 JUMP JUMPDEST DUP3 MSTORE POP POP JUMP JUMPDEST PUSH0 PUSH1 0x20 DUP3 ADD SWAP1 POP PUSH2 0x1759 PUSH0 DUP4 ADD DUP5 PUSH2 0x1737 JUMP JUMPDEST SWAP3 SWAP2 POP POP JUMP JUMPDEST PUSH2 0x1768 DUP2 PUSH2 0x1726 JUMP JUMPDEST DUP2 EQ PUSH2 0x1772 JUMPI PUSH0 DUP1 REVERT JUMPDEST POP JUMP JUMPDEST PUSH0 DUP2 CALLDATALOAD SWAP1 POP PUSH2 0x1783 DUP2 PUSH2 0x175F JUMP JUMPDEST SWAP3 SWAP2 POP POP JUMP JUMPDEST PUSH0 PUSH1 0x20 DUP3 DUP5 SUB SLT ISZERO PUSH2 0x179E JUMPI PUSH2 0x179D PUSH2 0x149A JUMP JUMPDEST JUMPDEST PUSH0 PUSH2 0x17AB DUP5 DUP3 DUP6 ADD PUSH2 0x1775 JUMP JUMPDEST SWAP2 POP POP SWAP3 SWAP2 POP POP JUMP JUMPDEST PUSH32 0x4D696E696D756D206D757374206265203E203000000000000000000000000000 PUSH0 DUP3 ADD MSTORE POP JUMP JUMPDEST PUSH0 PUSH2 0x17E8 PUSH1 0x13 DUP4 PUSH2 0x1422 JUMP JUMPDEST SWAP2 POP PUSH2 0x17F3 DUP3 PUSH2 0x17B4 JUMP JUMPDEST PUSH1 0x20 DUP3 ADD SWAP1 POP SWAP2 SWAP1 POP JUMP JUMPDEST PUSH0 PUSH1 0x20 DUP3 ADD SWAP1 POP DUP2 DUP2 SUB PUSH0 DUP4 ADD MSTORE PUSH2 0x1815 DUP2 PUSH2 0x17DC JUMP JUMPDEST SWAP1 POP SWAP2 SWAP1 POP JUMP JUMPDEST PUSH32 0x4E6F20746F6B656E732070726F76696465640000000000000000000000000000 PUSH0 DUP3 ADD MSTORE POP JUMP JUMPDEST PUSH0 PUSH2 0x1850 PUSH1 0x12 DUP4 PUSH2 0x1422 JUMP JUMPDEST SWAP2 POP PUSH2 0x185B DUP3 PUSH2 0x181C JUMP JUMPDEST PUSH1 0x20 DUP3 ADD SWAP1 POP SWAP2 SWAP1 POP JUMP JUMPDEST PUSH0 PUSH1 0x20 DUP3 ADD SWAP1 POP DUP2 DUP2 SUB PUSH0 DUP4 ADD MSTORE PUSH2 0x187D DUP2 PUSH2 0x1844 JUMP JUMPDEST SWAP1 POP SWAP2 SWAP1 POP JUMP JUMPDEST PUSH32 0x4275726E2074686520726571756972656420746F6B656E20616D6F756E740000 PUSH0 DUP3 ADD MSTORE POP JUMP JUMPDEST PUSH0 PUSH2 0x18B8 PUSH1 0x1E DUP4 PUSH2 0x1422 JUMP JUMPDEST SWAP2 POP PUSH2 0x18C3 DUP3 PUSH2 0x1884 JUMP JUMPDEST PUSH1 0x20 DUP3 ADD SWAP1 POP SWAP2 SWAP1 POP JUMP JUMPDEST PUSH0 PUSH1 0x20 DUP3 ADD SWAP1 POP DUP2 DUP2 SUB PUSH0 DUP4 ADD MSTORE PUSH2 0x18E5 DUP2 PUSH2 0x18AC JUMP JUMPDEST SWAP1 POP SWAP2 SWAP1 POP JUMP JUMPDEST PUSH32 0x496E73756666696369656E74207061796D656E74000000000000000000000000 PUSH0 DUP3 ADD MSTORE POP JUMP JUMPDEST PUSH0 PUSH2 0x1920 PUSH1 0x14 DUP4 PUSH2 0x1422 JUMP JUMPDEST SWAP2 POP PUSH2 0x192B DUP3 PUSH2 0x18EC JUMP JUMPDEST PUSH1 0x20 DUP3 ADD SWAP1 POP SWAP2 SWAP1 POP JUMP JUMPDEST PUSH0 PUSH1 0x20 DUP3 ADD SWAP1 POP DUP2 DUP2 SUB PUSH0 DUP4 ADD MSTORE PUSH2 0x194D DUP2 PUSH2 0x1914 JUMP JUMPDEST SWAP1 POP SWAP2 SWAP1 POP JUMP JUMPDEST PUSH0 DUP2 SWAP1 POP SWAP2 SWAP1 POP JUMP JUMPDEST PUSH0 PUSH2 0x1977 PUSH2 0x1972 PUSH2 0x196D DUP5 PUSH2 0x1504 JUMP JUMPDEST PUSH2 0x1954 JUMP JUMPDEST PUSH2 0x1681 JUMP JUMPDEST SWAP1 POP SWAP2 SWAP1 POP JUMP JUMPDEST PUSH2 0x1987 DUP2 PUSH2 0x195D JUMP JUMPDEST DUP3 MSTORE POP POP JUMP JUMPDEST PUSH0 PUSH1 0x20 DUP3 ADD SWAP1 POP PUSH2 0x19A0 PUSH0 DUP4 ADD DUP5 PUSH2 0x197E JUMP JUMPDEST SWAP3 SWAP2 POP POP JUMP JUMPDEST PUSH0 DUP2 MLOAD SWAP1 POP PUSH2 0x19B4 DUP2 PUSH2 0x175F JUMP JUMPDEST SWAP3 SWAP2 POP POP JUMP JUMPDEST PUSH0 PUSH1 0x20 DUP3 DUP5 SUB SLT ISZERO PUSH2 0x19CF JUMPI PUSH2 0x19CE PUSH2 0x149A JUMP JUMPDEST JUMPDEST PUSH0 PUSH2 0x19DC DUP5 DUP3 DUP6 ADD PUSH2 0x19A6 JUMP JUMPDEST SWAP2 POP POP SWAP3 SWAP2 POP POP JUMP JUMPDEST PUSH32 0x4E6F7420746F6B656E206F776E65720000000000000000000000000000000000 PUSH0 DUP3 ADD MSTORE POP JUMP JUMPDEST PUSH0 PUSH2 0x1A19 PUSH1 0xF DUP4 PUSH2 0x1422 JUMP JUMPDEST SWAP2 POP PUSH2 0x1A24 DUP3 PUSH2 0x19E5 JUMP JUMPDEST PUSH1 0x20 DUP3 ADD SWAP1 POP SWAP2 SWAP1 POP JUMP JUMPDEST PUSH0 PUSH1 0x20 DUP3 ADD SWAP1 POP DUP2 DUP2 SUB PUSH0 DUP4 ADD MSTORE PUSH2 0x1A46 DUP2 PUSH2 0x1A0D JUMP JUMPDEST SWAP1 POP SWAP2 SWAP1 POP JUMP JUMPDEST PUSH32 0x546F6B656E20616C7265616479206275726E6564000000000000000000000000 PUSH0 DUP3 ADD MSTORE POP JUMP JUMPDEST PUSH0 PUSH2 0x1A81 PUSH1 0x14 DUP4 PUSH2 0x1422 JUMP JUMPDEST SWAP2 POP PUSH2 0x1A8C DUP3 PUSH2 0x1A4D JUMP JUMPDEST PUSH1 0x20 DUP3 ADD SWAP1 POP SWAP2 SWAP1 POP JUMP JUMPDEST PUSH0 PUSH1 0x20 DUP3 ADD SWAP1 POP DUP2 DUP2 SUB PUSH0 DUP4 ADD MSTORE PUSH2 0x1AAE DUP2 PUSH2 0x1A75 JUMP JUMPDEST SWAP1 POP SWAP2 SWAP1 POP JUMP JUMPDEST PUSH32 0x546F6B656E20616C726561647920757064617465640000000000000000000000 PUSH0 DUP3 ADD MSTORE POP JUMP JUMPDEST PUSH0 PUSH2 0x1AE9 PUSH1 0x15 DUP4 PUSH2 0x1422 JUMP JUMPDEST SWAP2 POP PUSH2 0x1AF4 DUP3 PUSH2 0x1AB5 JUMP JUMPDEST PUSH1 0x20 DUP3 ADD SWAP1 POP SWAP2 SWAP1 POP JUMP JUMPDEST PUSH0 PUSH1 0x20 DUP3 ADD SWAP1 POP DUP2 DUP2 SUB PUSH0 DUP4 ADD MSTORE PUSH2 0x1B16 DUP2 PUSH2 0x1ADD JUMP JUMPDEST SWAP1 POP SWAP2 SWAP1 POP JUMP JUMPDEST PUSH32 0x4E487B7100000000000000000000000000000000000000000000000000000000 PUSH0 MSTORE PUSH1 0x32 PUSH1 0x4 MSTORE PUSH1 0x24 PUSH0 REVERT JUMPDEST PUSH32 0x7570646174655F69642063616E6E6F7420626520616D6F6E6720746F6B656E49 PUSH0 DUP3 ADD MSTORE PUSH32 0x6473000000000000000000000000000000000000000000000000000000000000 PUSH1 0x20 DUP3 ADD MSTORE POP JUMP JUMPDEST PUSH0 PUSH2 0x1BA4 PUSH1 0x22 DUP4 PUSH2 0x1422 JUMP JUMPDEST SWAP2 POP PUSH2 0x1BAF DUP3 PUSH2 0x1B4A JUMP JUMPDEST PUSH1 0x40 DUP3 ADD SWAP1 POP SWAP2 SWAP1 POP JUMP JUMPDEST PUSH0 PUSH1 0x20 DUP3 ADD SWAP1 POP DUP2 DUP2 SUB PUSH0 DUP4 ADD MSTORE PUSH2 0x1BD1 DUP2 PUSH2 0x1B98 JUMP JUMPDEST SWAP1 POP SWAP2 SWAP1 POP JUMP JUMPDEST PUSH0 DUP3 DUP3 MSTORE PUSH1 0x20 DUP3 ADD SWAP1 POP SWAP3 SWAP2 POP POP JUMP JUMPDEST PUSH0 DUP2 SWAP1 POP SWAP2 SWAP1 POP JUMP JUMPDEST PUSH2 0x1BFA DUP2 PUSH2 0x1504 JUMP JUMPDEST DUP3 MSTORE POP POP JUMP JUMPDEST PUSH0 PUSH2 0x1C0B DUP4 DUP4 PUSH2 0x1BF1 JUMP JUMPDEST PUSH1 0x20 DUP4 ADD SWAP1 POP SWAP3 SWAP2 POP POP JUMP JUMPDEST PUSH0 PUSH2 0x1C25 PUSH1 0x20 DUP5 ADD DUP5 PUSH2 0x1529 JUMP JUMPDEST SWAP1 POP SWAP3 SWAP2 POP POP JUMP JUMPDEST PUSH0 PUSH1 0x20 DUP3 ADD SWAP1 POP SWAP2 SWAP1 POP JUMP JUMPDEST PUSH0 PUSH2 0x1C44 DUP4 DUP6 PUSH2 0x1BD8 JUMP JUMPDEST SWAP4 POP PUSH2 0x1C4F DUP3 PUSH2 0x1BE8 JUMP JUMPDEST DUP1 PUSH0 JUMPDEST DUP6 DUP2 LT ISZERO PUSH2 0x1C87 JUMPI PUSH2 0x1C64 DUP3 DUP5 PUSH2 0x1C17 JUMP JUMPDEST PUSH2 0x1C6E DUP9 DUP3 PUSH2 0x1C00 JUMP JUMPDEST SWAP8 POP PUSH2 0x1C79 DUP4 PUSH2 0x1C2D JUMP JUMPDEST SWAP3 POP POP PUSH1 0x1 DUP2 ADD SWAP1 POP PUSH2 0x1C52 JUMP JUMPDEST POP DUP6 SWAP3 POP POP POP SWAP4 SWAP3 POP POP POP JUMP JUMPDEST PUSH0 PUSH1 0x40 DUP3 ADD SWAP1 POP DUP2 DUP2 SUB PUSH0 DUP4 ADD MSTORE PUSH2 0x1CAD DUP2 DUP6 DUP8 PUSH2 0x1C39 JUMP JUMPDEST SWAP1 POP PUSH2 0x1CBC PUSH1 0x20 DUP4 ADD DUP5 PUSH2 0x16DF JUMP JUMPDEST SWAP5 SWAP4 POP POP POP POP JUMP JUMPDEST PUSH32 0x4E487B7100000000000000000000000000000000000000000000000000000000 PUSH0 MSTORE PUSH1 0x11 PUSH1 0x4 MSTORE PUSH1 0x24 PUSH0 REVERT JUMPDEST PUSH0 PUSH2 0x1CFB DUP3 PUSH2 0x1681 JUMP JUMPDEST SWAP2 POP PUSH2 0x1D06 DUP4 PUSH2 0x1681 JUMP JUMPDEST SWAP3 POP DUP3 DUP3 SUB SWAP1 POP DUP2 DUP2 GT ISZERO PUSH2 0x1D1E JUMPI PUSH2 0x1D1D PUSH2 0x1CC4 JUMP JUMPDEST JUMPDEST SWAP3 SWAP2 POP POP JUMP JUMPDEST PUSH0 DUP2 SWAP1 POP SWAP3 SWAP2 POP POP JUMP JUMPDEST POP JUMP JUMPDEST PUSH0 PUSH2 0x1D3C PUSH0 DUP4 PUSH2 0x1D24 JUMP JUMPDEST SWAP2 POP PUSH2 0x1D47 DUP3 PUSH2 0x1D2E JUMP JUMPDEST PUSH0 DUP3 ADD SWAP1 POP SWAP2 SWAP1 POP JUMP JUMPDEST PUSH0 PUSH2 0x1D5B DUP3 PUSH2 0x1D31 JUMP JUMPDEST SWAP2 POP DUP2 SWAP1 POP SWAP2 SWAP1 POP JUMP JUMPDEST PUSH32 0x526566756E64206661696C656400000000000000000000000000000000000000 PUSH0 DUP3 ADD MSTORE POP JUMP JUMPDEST PUSH0 PUSH2 0x1D99 PUSH1 0xD DUP4 PUSH2 0x1422 JUMP JUMPDEST SWAP2 POP PUSH2 0x1DA4 DUP3 PUSH2 0x1D65 JUMP JUMPDEST PUSH1 0x20 DUP3 ADD SWAP1 POP SWAP2 SWAP1 POP JUMP JUMPDEST PUSH0 PUSH1 0x20 DUP3 ADD SWAP1 POP DUP2 DUP2 SUB PUSH0 DUP4 ADD MSTORE PUSH2 0x1DC6 DUP2 PUSH2 0x1D8D JUMP JUMPDEST SWAP1 POP SWAP2 SWAP1 POP JUMP JUMPDEST PUSH0 PUSH1 0x40 DUP3 ADD SWAP1 POP PUSH2 0x1DE0 PUSH0 DUP4 ADD DUP6 PUSH2 0x16DF JUMP JUMPDEST PUSH2 0x1DED PUSH1 0x20 DUP4 ADD DUP5 PUSH2 0x16DF JUMP JUMPDEST SWAP4 SWAP3 POP POP POP JUMP JUMPDEST PUSH32 0x5265656E7472616E637947756172643A207265656E7472616E742063616C6C00 PUSH0 DUP3 ADD MSTORE POP JUMP JUMPDEST PUSH0 PUSH2 0x1E28 PUSH1 0x1F DUP4 PUSH2 0x1422 JUMP JUMPDEST SWAP2 POP PUSH2 0x1E33 DUP3 PUSH2 0x1DF4 JUMP JUMPDEST PUSH1 0x20 DUP3 ADD SWAP1 POP SWAP2 SWAP1 POP JUMP JUMPDEST PUSH0 PUSH1 0x20 DUP3 ADD SWAP1 POP DUP2 DUP2 SUB PUSH0 DUP4 ADD MSTORE PUSH2 0x1E55 DUP2 PUSH2 0x1E1C JUMP JUMPDEST SWAP1 POP SWAP2 SWAP1 POP JUMP JUMPDEST PUSH32 0x5061757361626C653A2070617573656400000000000000000000000000000000 PUSH0 DUP3 ADD MSTORE POP JUMP JUMPDEST PUSH0 PUSH2 0x1E90 PUSH1 0x10 DUP4 PUSH2 0x1422 JUMP JUMPDEST SWAP2 POP PUSH2 0x1E9B DUP3 PUSH2 0x1E5C JUMP JUMPDEST PUSH1 0x20 DUP3 ADD SWAP1 POP SWAP2 SWAP1 POP JUMP JUMPDEST PUSH0 PUSH1 0x20 DUP3 ADD SWAP1 POP DUP2 DUP2 SUB PUSH0 DUP4 ADD MSTORE PUSH2 0x1EBD DUP2 PUSH2 0x1E84 JUMP JUMPDEST SWAP1 POP SWAP2 SWAP1 POP JUMP JUMPDEST PUSH32 0x5061757361626C653A206E6F7420706175736564000000000000000000000000 PUSH0 DUP3 ADD MSTORE POP JUMP JUMPDEST PUSH0 PUSH2 0x1EF8 PUSH1 0x14 DUP4 PUSH2 0x1422 JUMP JUMPDEST SWAP2 POP PUSH2 0x1F03 DUP3 PUSH2 0x1EC4 JUMP JUMPDEST PUSH1 0x20 DUP3 ADD SWAP1 POP SWAP2 SWAP1 POP JUMP JUMPDEST PUSH0 PUSH1 0x20 DUP3 ADD SWAP1 POP DUP2 DUP2 SUB PUSH0 DUP4 ADD MSTORE PUSH2 0x1F25 DUP2 PUSH2 0x1EEC JUMP JUMPDEST SWAP1 POP SWAP2 SWAP1 POP JUMP INVALID LOG2 PUSH5 0x6970667358 0x22 SLT KECCAK256 BLOBHASH CALLDATACOPY ORIGIN 0xDE EXTCODESIZE 0xDD 0xDA 0xB4 PUSH24 0x982B61793C4FFFF35DF2C499314C9F5712DAFD23B6326964 PUSH20 0x6F6C634300081A00330000000000000000000000 "
				},
				"gasEstimates": {
					"creation": {
						"codeDepositCost": "1606800",
						"executionCost": "infinite",
						"totalCost": "infinite"
					},
					"external": {
						"burnAmount()": "2511",
						"createPremium(uint32[],uint32)": "infinite",
						"getBurnFee()": "2454",
						"getContractBalance()": "357",
						"getMaxBurnFee()": "421",
						"isTokenBurned(uint32)": "2905",
						"isUpdatedToken(uint32)": "2907",
						"nftContract()": "infinite",
						"owner()": "2604",
						"pause()": "infinite",
						"paused()": "2584",
						"renounceOwnership()": "infinite",
						"setBurnAmount(uint16)": "infinite",
						"setBurnFee(uint256)": "infinite",
						"transferOwnership(address)": "infinite",
						"unpause()": "infinite",
						"withdrawFunds()": "infinite",
						"withdrawPartialFunds(uint256)": "infinite"
					}
				},
				"methodIdentifiers": {
					"burnAmount()": "486a7e6b",
					"createPremium(uint32[],uint32)": "41989bef",
					"getBurnFee()": "aa4b10d1",
					"getContractBalance()": "6f9fb98a",
					"getMaxBurnFee()": "576aee51",
					"isTokenBurned(uint32)": "c3d93ecd",
					"isUpdatedToken(uint32)": "1df8473d",
					"nftContract()": "d56d229d",
					"owner()": "8da5cb5b",
					"pause()": "8456cb59",
					"paused()": "5c975abb",
					"renounceOwnership()": "715018a6",
					"setBurnAmount(uint16)": "1deedfb5",
					"setBurnFee(uint256)": "4bf2c7c9",
					"transferOwnership(address)": "f2fde38b",
					"unpause()": "3f4ba83a",
					"withdrawFunds()": "24600fc3",
					"withdrawPartialFunds(uint256)": "d4e0ed2e"
				}
			},
			"storageLayout": {
				"storage": [
					{
						"astId": 8,
						"contract": "BurnManger.sol:BurnManager",
						"label": "_owner",
						"offset": 0,
						"slot": "0",
						"type": "t_address"
					},
					{
						"astId": 266,
						"contract": "BurnManger.sol:BurnManager",
						"label": "_status",
						"offset": 0,
						"slot": "1",
						"type": "t_uint256"
					},
					{
						"astId": 165,
						"contract": "BurnManger.sol:BurnManager",
						"label": "_paused",
						"offset": 0,
						"slot": "2",
						"type": "t_bool"
					},
					{
						"astId": 666,
						"contract": "BurnManger.sol:BurnManager",
						"label": "burnFee",
						"offset": 0,
						"slot": "3",
						"type": "t_uint256"
					},
					{
						"astId": 669,
						"contract": "BurnManger.sol:BurnManager",
						"label": "burnAmount",
						"offset": 0,
						"slot": "4",
						"type": "t_uint16"
					},
					{
						"astId": 673,
						"contract": "BurnManger.sol:BurnManager",
						"label": "isBurned",
						"offset": 0,
						"slot": "5",
						"type": "t_mapping(t_uint32,t_bool)"
					},
					{
						"astId": 677,
						"contract": "BurnManger.sol:BurnManager",
						"label": "isUpdated",
						"offset": 0,
						"slot": "6",
						"type": "t_mapping(t_uint32,t_bool)"
					}
				],
				"types": {
					"t_address": {
						"encoding": "inplace",
						"label": "address",
						"numberOfBytes": "20"
					},
					"t_bool": {
						"encoding": "inplace",
						"label": "bool",
						"numberOfBytes": "1"
					},
					"t_mapping(t_uint32,t_bool)": {
						"encoding": "mapping",
						"key": "t_uint32",
						"label": "mapping(uint32 => bool)",
						"numberOfBytes": "32",
						"value": "t_bool"
					},
					"t_uint16": {
						"encoding": "inplace",
						"label": "uint16",
						"numberOfBytes": "2"
					},
					"t_uint256": {
						"encoding": "inplace",
						"label": "uint256",
						"numberOfBytes": "32"
					},
					"t_uint32": {
						"encoding": "inplace",
						"label": "uint32",
						"numberOfBytes": "4"
					}
				}
			},
			"userdoc": {
				"kind": "user",
				"methods": {},
				"version": 1
			}
		}
	}
}