{
	"BurnManger.sol": {
		"BurnManager": {
			"abi": [
				{
					"inputs": [
						{
							"internalType": "address",
							"name": "_nftContract",
							"type": "address"
						}
					],
					"stateMutability": "nonpayable",
					"type": "constructor"
				},
				{
					"inputs": [],
					"name": "FailedCall",
					"type": "error"
				},
				{
					"inputs": [],
					"name": "FeeExceedsMaximum",
					"type": "error"
				},
				{
					"inputs": [],
					"name": "FeeUnchanged",
					"type": "error"
				},
				{
					"inputs": [
						{
							"internalType": "uint256",
							"name": "balance",
							"type": "uint256"
						},
						{
							"internalType": "uint256",
							"name": "needed",
							"type": "uint256"
						}
					],
					"name": "InsufficientBalance",
					"type": "error"
				},
				{
					"inputs": [],
					"name": "InsufficientPayment",
					"type": "error"
				},
				{
					"inputs": [],
					"name": "InvalidTokenId",
					"type": "error"
				},
				{
					"inputs": [],
					"name": "NoFundsToWithdraw",
					"type": "error"
				},
				{
					"inputs": [],
					"name": "NotTokenOwner",
					"type": "error"
				},
				{
					"inputs": [
						{
							"internalType": "address",
							"name": "owner",
							"type": "address"
						}
					],
					"name": "OwnableInvalidOwner",
					"type": "error"
				},
				{
					"inputs": [
						{
							"internalType": "address",
							"name": "account",
							"type": "address"
						}
					],
					"name": "OwnableUnauthorizedAccount",
					"type": "error"
				},
				{
					"inputs": [],
					"name": "TokenAlreadyBurned",
					"type": "error"
				},
				{
					"inputs": [],
					"name": "WithdrawalFailed",
					"type": "error"
				},
				{
					"anonymous": false,
					"inputs": [
						{
							"indexed": false,
							"internalType": "uint256",
							"name": "oldFee",
							"type": "uint256"
						},
						{
							"indexed": false,
							"internalType": "uint256",
							"name": "newFee",
							"type": "uint256"
						}
					],
					"name": "BurnFeeUpdated",
					"type": "event"
				},
				{
					"anonymous": false,
					"inputs": [
						{
							"indexed": true,
							"internalType": "address",
							"name": "owner",
							"type": "address"
						},
						{
							"indexed": false,
							"internalType": "uint256",
							"name": "amount",
							"type": "uint256"
						}
					],
					"name": "FundsWithdrawn",
					"type": "event"
				},
				{
					"anonymous": false,
					"inputs": [
						{
							"indexed": true,
							"internalType": "address",
							"name": "previousOwner",
							"type": "address"
						},
						{
							"indexed": true,
							"internalType": "address",
							"name": "newOwner",
							"type": "address"
						}
					],
					"name": "OwnershipTransferred",
					"type": "event"
				},
				{
					"anonymous": false,
					"inputs": [
						{
							"indexed": false,
							"internalType": "address",
							"name": "account",
							"type": "address"
						}
					],
					"name": "Paused",
					"type": "event"
				},
				{
					"anonymous": false,
					"inputs": [
						{
							"indexed": true,
							"internalType": "address",
							"name": "burner",
							"type": "address"
						},
						{
							"indexed": false,
							"internalType": "uint32[]",
							"name": "tokenIds",
							"type": "uint32[]"
						},
						{
							"indexed": false,
							"internalType": "uint256",
							"name": "totalFee",
							"type": "uint256"
						},
						{
							"indexed": true,
							"internalType": "uint32",
							"name": "updateId",
							"type": "uint32"
						}
					],
					"name": "TokensBurned",
					"type": "event"
				},
				{
					"anonymous": false,
					"inputs": [
						{
							"indexed": false,
							"internalType": "address",
							"name": "account",
							"type": "address"
						}
					],
					"name": "Unpaused",
					"type": "event"
				},
				{
					"inputs": [],
					"name": "burnAmount",
					"outputs": [
						{
							"internalType": "uint16",
							"name": "",
							"type": "uint16"
						}
					],
					"stateMutability": "view",
					"type": "function"
				},
				{
					"inputs": [
						{
							"internalType": "uint32[]",
							"name": "tokenIds",
							"type": "uint32[]"
						},
						{
							"internalType": "uint32",
							"name": "updateId",
							"type": "uint32"
						}
					],
					"name": "createPremium",
					"outputs": [],
					"stateMutability": "payable",
					"type": "function"
				},
				{
					"inputs": [],
					"name": "getBurnFee",
					"outputs": [
						{
							"internalType": "uint256",
							"name": "",
							"type": "uint256"
						}
					],
					"stateMutability": "view",
					"type": "function"
				},
				{
					"inputs": [],
					"name": "getContractBalance",
					"outputs": [
						{
							"internalType": "uint256",
							"name": "",
							"type": "uint256"
						}
					],
					"stateMutability": "view",
					"type": "function"
				},
				{
					"inputs": [],
					"name": "getMaxBurnFee",
					"outputs": [
						{
							"internalType": "uint256",
							"name": "",
							"type": "uint256"
						}
					],
					"stateMutability": "pure",
					"type": "function"
				},
				{
					"inputs": [
						{
							"internalType": "uint32",
							"name": "tokenId",
							"type": "uint32"
						}
					],
					"name": "isTokenBurned",
					"outputs": [
						{
							"internalType": "bool",
							"name": "",
							"type": "bool"
						}
					],
					"stateMutability": "view",
					"type": "function"
				},
				{
					"inputs": [
						{
							"internalType": "uint32",
							"name": "tokenId",
							"type": "uint32"
						}
					],
					"name": "isUpdatedToken",
					"outputs": [
						{
							"internalType": "bool",
							"name": "",
							"type": "bool"
						}
					],
					"stateMutability": "view",
					"type": "function"
				},
				{
					"inputs": [],
					"name": "nftContract",
					"outputs": [
						{
							"internalType": "address",
							"name": "",
							"type": "address"
						}
					],
					"stateMutability": "view",
					"type": "function"
				},
				{
					"inputs": [],
					"name": "owner",
					"outputs": [
						{
							"internalType": "address",
							"name": "",
							"type": "address"
						}
					],
					"stateMutability": "view",
					"type": "function"
				},
				{
					"inputs": [],
					"name": "pause",
					"outputs": [],
					"stateMutability": "nonpayable",
					"type": "function"
				},
				{
					"inputs": [],
					"name": "paused",
					"outputs": [
						{
							"internalType": "bool",
							"name": "",
							"type": "bool"
						}
					],
					"stateMutability": "view",
					"type": "function"
				},
				{
					"inputs": [],
					"name": "renounceOwnership",
					"outputs": [],
					"stateMutability": "nonpayable",
					"type": "function"
				},
				{
					"inputs": [
						{
							"internalType": "uint16",
							"name": "amount",
							"type": "uint16"
						}
					],
					"name": "setBurnAmount",
					"outputs": [],
					"stateMutability": "nonpayable",
					"type": "function"
				},
				{
					"inputs": [
						{
							"internalType": "uint256",
							"name": "_newFee",
							"type": "uint256"
						}
					],
					"name": "setBurnFee",
					"outputs": [],
					"stateMutability": "nonpayable",
					"type": "function"
				},
				{
					"inputs": [
						{
							"internalType": "address",
							"name": "newOwner",
							"type": "address"
						}
					],
					"name": "transferOwnership",
					"outputs": [],
					"stateMutability": "nonpayable",
					"type": "function"
				},
				{
					"inputs": [],
					"name": "unpause",
					"outputs": [],
					"stateMutability": "nonpayable",
					"type": "function"
				},
				{
					"inputs": [],
					"name": "withdrawFunds",
					"outputs": [],
					"stateMutability": "nonpayable",
					"type": "function"
				},
				{
					"inputs": [
						{
							"internalType": "uint256",
							"name": "_amount",
							"type": "uint256"
						}
					],
					"name": "withdrawPartialFunds",
					"outputs": [],
					"stateMutability": "nonpayable",
					"type": "function"
				},
				{
					"stateMutability": "payable",
					"type": "receive"
				}
			],
			"devdoc": {
				"details": "Contract for managing NFT burns with payment system Uses OpenZeppelin standards for security and access control",
				"errors": {
					"FailedCall()": [
						{
							"details": "A call to an address target failed. The target may have reverted."
						}
					],
					"InsufficientBalance(uint256,uint256)": [
						{
							"details": "The ETH balance of the account is not enough to perform the operation."
						}
					],
					"OwnableInvalidOwner(address)": [
						{
							"details": "The owner is not a valid owner account. (eg. `address(0)`)"
						}
					],
					"OwnableUnauthorizedAccount(address)": [
						{
							"details": "The caller account is not authorized to perform an operation."
						}
					]
				},
				"events": {
					"Paused(address)": {
						"details": "Emitted when the pause is triggered by `account`."
					},
					"Unpaused(address)": {
						"details": "Emitted when the pause is lifted by `account`."
					}
				},
				"kind": "dev",
				"methods": {
					"owner()": {
						"details": "Returns the address of the current owner."
					},
					"paused()": {
						"details": "Returns true if the contract is paused, and false otherwise."
					},
					"renounceOwnership()": {
						"details": "Leaves the contract without owner. It will not be possible to call `onlyOwner` functions. Can only be called by the current owner. NOTE: Renouncing ownership will leave the contract without an owner, thereby disabling any functionality that is only available to the owner."
					},
					"transferOwnership(address)": {
						"details": "Transfers ownership of the contract to a new account (`newOwner`). Can only be called by the current owner."
					}
				},
				"title": "BurnManager",
				"version": 1
			},
			"evm": {
				"assembly": "    /* \"BurnManger.sol\":631:5632  contract BurnManager is Ownable, ReentrancyGuard, Pausable {... */\n  mstore(0x40, 0xa0)\n    /* \"BurnManger.sol\":808:816  0.1 gwei */\n  0x05f5e100\n    /* \"BurnManger.sol\":782:816  uint256 private burnFee = 0.1 gwei */\n  0x03\n  sstore\n    /* \"BurnManger.sol\":823:852  uint16 public burnAmount = 10 */\n  0x04\n  dup1\n  sload\n  not(0xffff)\n  and\n    /* \"BurnManger.sol\":850:852  10 */\n  0x0a\n    /* \"BurnManger.sol\":823:852  uint16 public burnAmount = 10 */\n  or\n  swap1\n  sstore\n    /* \"BurnManger.sol\":1627:1792  constructor(address _nftContract) Ownable(msg.sender) {... */\n  callvalue\n  dup1\n  iszero\n  tag_1\n  jumpi\n  revert(0x00, 0x00)\ntag_1:\n  pop\n  mload(0x40)\n  sub(codesize, bytecodeSize)\n  dup1\n  bytecodeSize\n  dup4\n  codecopy\n  dup2\n  add\n  0x40\n  dup2\n  swap1\n  mstore\n  tag_2\n  swap2\n  tag_3\n  jump\t// in\ntag_2:\n    /* \"BurnManger.sol\":1669:1679  msg.sender */\n  caller\n  dup1\n    /* \"@openzeppelin/contracts/access/Ownable.sol\":1269:1364  if (initialOwner == address(0)) {... */\n  tag_9\n  jumpi\n    /* \"@openzeppelin/contracts/access/Ownable.sol\":1322:1353  OwnableInvalidOwner(address(0)) */\n  mload(0x40)\n  shl(0xe0, 0x1e4fbdf7)\n  dup2\n  mstore\n    /* \"@openzeppelin/contracts/access/Ownable.sol\":1350:1351  0 */\n  0x00\n    /* \"@openzeppelin/contracts/access/Ownable.sol\":1322:1353  OwnableInvalidOwner(address(0)) */\n  0x04\n  dup3\n  add\n    /* \"#utility.yul\":455:506   */\n  mstore\n    /* \"#utility.yul\":428:446   */\n  0x24\n  add\n    /* \"@openzeppelin/contracts/access/Ownable.sol\":1322:1353  OwnableInvalidOwner(address(0)) */\n  mload(0x40)\n  dup1\n  swap2\n  sub\n  swap1\n  revert\n    /* \"@openzeppelin/contracts/access/Ownable.sol\":1269:1364  if (initialOwner == address(0)) {... */\ntag_9:\n    /* \"@openzeppelin/contracts/access/Ownable.sol\":1373:1405  _transferOwnership(initialOwner) */\n  tag_12\n    /* \"@openzeppelin/contracts/access/Ownable.sol\":1392:1404  initialOwner */\n  dup2\n    /* \"@openzeppelin/contracts/access/Ownable.sol\":1373:1391  _transferOwnership */\n  tag_13\n    /* \"@openzeppelin/contracts/access/Ownable.sol\":1373:1405  _transferOwnership(initialOwner) */\n  jump\t// in\ntag_12:\n  pop\n    /* \"@openzeppelin/contracts/security/ReentrancyGuard.sol\":1716:1717  1 */\n  0x01\n    /* \"@openzeppelin/contracts/security/ReentrancyGuard.sol\":1821:1843  _status = _NOT_ENTERED */\n  dup1\n  sstore\n    /* \"@openzeppelin/contracts/security/Pausable.sol\":996:1003  _paused */\n  0x02\n    /* \"@openzeppelin/contracts/security/Pausable.sol\":996:1011  _paused = false */\n  dup1\n  sload\n  not(0xff)\n  and\n  swap1\n  sstore\n  sub(shl(0xa0, 0x01), 0x01)\n    /* \"BurnManger.sol\":1696:1722  _nftContract == address(0) */\n  dup2\n  and\n    /* \"BurnManger.sol\":1692:1747  if (_nftContract == address(0)) revert InvalidTokenId() */\n  tag_17\n  jumpi\n    /* \"BurnManger.sol\":1731:1747  InvalidTokenId() */\n  mload(0x40)\n  shl(0xe3, 0x07ed98ed)\n  dup2\n  mstore\n  0x04\n  add\n  mload(0x40)\n  dup1\n  swap2\n  sub\n  swap1\n  revert\n    /* \"BurnManger.sol\":1692:1747  if (_nftContract == address(0)) revert InvalidTokenId() */\ntag_17:\n  sub(shl(0xa0, 0x01), 0x01)\n    /* \"BurnManger.sol\":1758:1784  nftContract = _nftContract */\n  and\n  0x80\n  mstore\n    /* \"BurnManger.sol\":631:5632  contract BurnManager is Ownable, ReentrancyGuard, Pausable {... */\n  jump(tag_20)\n    /* \"@openzeppelin/contracts/access/Ownable.sol\":2912:3099  function _transferOwnership(address newOwner) internal virtual {... */\ntag_13:\n    /* \"@openzeppelin/contracts/access/Ownable.sol\":2985:3001  address oldOwner */\n  0x00\n    /* \"@openzeppelin/contracts/access/Ownable.sol\":3004:3010  _owner */\n  dup1\n  sload\n  sub(shl(0xa0, 0x01), 0x01)\n    /* \"@openzeppelin/contracts/access/Ownable.sol\":3020:3037  _owner = newOwner */\n  dup4\n  dup2\n  and\n  not(sub(shl(0xa0, 0x01), 0x01))\n  dup4\n  and\n  dup2\n  or\n  dup5\n  sstore\n    /* \"@openzeppelin/contracts/access/Ownable.sol\":3052:3092  OwnershipTransferred(oldOwner, newOwner) */\n  mload(0x40)\n    /* \"@openzeppelin/contracts/access/Ownable.sol\":3004:3010  _owner */\n  swap2\n  swap1\n  swap3\n  and\n  swap3\n  dup4\n  swap2\n    /* \"@openzeppelin/contracts/access/Ownable.sol\":3052:3092  OwnershipTransferred(oldOwner, newOwner) */\n  0x8be0079c531659141344cd1fd0a4f28419497f9722a3daafe3b4186f6b6457e0\n  swap2\n    /* \"@openzeppelin/contracts/access/Ownable.sol\":2985:3001  address oldOwner */\n  swap1\n    /* \"@openzeppelin/contracts/access/Ownable.sol\":3052:3092  OwnershipTransferred(oldOwner, newOwner) */\n  log3\n    /* \"@openzeppelin/contracts/access/Ownable.sol\":2975:3099  {... */\n  pop\n    /* \"@openzeppelin/contracts/access/Ownable.sol\":2912:3099  function _transferOwnership(address newOwner) internal virtual {... */\n  pop\n  jump\t// out\n    /* \"#utility.yul\":14:304   */\ntag_3:\n    /* \"#utility.yul\":84:90   */\n  0x00\n    /* \"#utility.yul\":137:139   */\n  0x20\n    /* \"#utility.yul\":125:134   */\n  dup3\n    /* \"#utility.yul\":116:123   */\n  dup5\n    /* \"#utility.yul\":112:135   */\n  sub\n    /* \"#utility.yul\":108:140   */\n  slt\n    /* \"#utility.yul\":105:157   */\n  iszero\n  tag_22\n  jumpi\n    /* \"#utility.yul\":153:154   */\n  0x00\n    /* \"#utility.yul\":150:151   */\n  0x00\n    /* \"#utility.yul\":143:155   */\n  revert\n    /* \"#utility.yul\":105:157   */\ntag_22:\n    /* \"#utility.yul\":179:195   */\n  dup2\n  mload\n  sub(shl(0xa0, 0x01), 0x01)\n    /* \"#utility.yul\":224:255   */\n  dup2\n  and\n    /* \"#utility.yul\":214:256   */\n  dup2\n  eq\n    /* \"#utility.yul\":204:274   */\n  tag_23\n  jumpi\n    /* \"#utility.yul\":270:271   */\n  0x00\n    /* \"#utility.yul\":267:268   */\n  0x00\n    /* \"#utility.yul\":260:272   */\n  revert\n    /* \"#utility.yul\":204:274   */\ntag_23:\n    /* \"#utility.yul\":293:298   */\n  swap4\n    /* \"#utility.yul\":14:304   */\n  swap3\n  pop\n  pop\n  pop\n  jump\t// out\n    /* \"#utility.yul\":309:512   */\ntag_20:\n    /* \"BurnManger.sol\":631:5632  contract BurnManager is Ownable, ReentrancyGuard, Pausable {... */\n  mload(0x80)\n  codecopy(0x00, dataOffset(sub_0), dataSize(sub_0))\n  0x00\n  assignImmutable(\"0x3ed49036aa79101305a3bfa1070275a6dbad22810edfdc0e3caad458e4a9b16b\")\n  return(0x00, dataSize(sub_0))\nstop\n\nsub_0: assembly {\n        /* \"BurnManger.sol\":631:5632  contract BurnManager is Ownable, ReentrancyGuard, Pausable {... */\n      mstore(0x40, 0x80)\n      jumpi(tag_1, lt(calldatasize, 0x04))\n      shr(0xe0, calldataload(0x00))\n      dup1\n      0x6f9fb98a\n      gt\n      tag_21\n      jumpi\n      dup1\n      0xaa4b10d1\n      gt\n      tag_22\n      jumpi\n      dup1\n      0xaa4b10d1\n      eq\n      tag_16\n      jumpi\n      dup1\n      0xc3d93ecd\n      eq\n      tag_17\n      jumpi\n      dup1\n      0xd4e0ed2e\n      eq\n      tag_18\n      jumpi\n      dup1\n      0xd56d229d\n      eq\n      tag_19\n      jumpi\n      dup1\n      0xf2fde38b\n      eq\n      tag_20\n      jumpi\n      revert(0x00, 0x00)\n    tag_22:\n      dup1\n      0x6f9fb98a\n      eq\n      tag_12\n      jumpi\n      dup1\n      0x715018a6\n      eq\n      tag_13\n      jumpi\n      dup1\n      0x8456cb59\n      eq\n      tag_14\n      jumpi\n      dup1\n      0x8da5cb5b\n      eq\n      tag_15\n      jumpi\n      revert(0x00, 0x00)\n    tag_21:\n      dup1\n      0x41989bef\n      gt\n      tag_23\n      jumpi\n      dup1\n      0x41989bef\n      eq\n      tag_7\n      jumpi\n      dup1\n      0x486a7e6b\n      eq\n      tag_8\n      jumpi\n      dup1\n      0x4bf2c7c9\n      eq\n      tag_9\n      jumpi\n      dup1\n      0x576aee51\n      eq\n      tag_10\n      jumpi\n      dup1\n      0x5c975abb\n      eq\n      tag_11\n      jumpi\n      revert(0x00, 0x00)\n    tag_23:\n      dup1\n      0x1deedfb5\n      eq\n      tag_3\n      jumpi\n      dup1\n      0x1df8473d\n      eq\n      tag_4\n      jumpi\n      dup1\n      0x24600fc3\n      eq\n      tag_5\n      jumpi\n      dup1\n      0x3f4ba83a\n      eq\n      tag_6\n      jumpi\n      revert(0x00, 0x00)\n    tag_1:\n      jumpi(tag_2, calldatasize)\n        /* \"BurnManger.sol\":5579:5621  revert(\"Direct ETH transfers not allowed\") */\n      mload(0x40)\n      shl(0xe5, 0x461bcd)\n      dup2\n      mstore\n        /* \"#utility.yul\":216:218   */\n      0x20\n        /* \"BurnManger.sol\":5579:5621  revert(\"Direct ETH transfers not allowed\") */\n      0x04\n      dup3\n      add\n        /* \"#utility.yul\":198:219   */\n      dup2\n      swap1\n      mstore\n        /* \"#utility.yul\":235:253   */\n      0x24\n      dup3\n      add\n        /* \"#utility.yul\":228:258   */\n      mstore\n        /* \"#utility.yul\":294:328   */\n      0x44697265637420455448207472616e7366657273206e6f7420616c6c6f776564\n        /* \"#utility.yul\":274:292   */\n      0x44\n      dup3\n      add\n        /* \"#utility.yul\":267:329   */\n      mstore\n        /* \"#utility.yul\":346:364   */\n      0x64\n      add\n        /* \"BurnManger.sol\":5579:5621  revert(\"Direct ETH transfers not allowed\") */\n    tag_26:\n      mload(0x40)\n      dup1\n      swap2\n      sub\n      swap1\n      revert\n        /* \"BurnManger.sol\":631:5632  contract BurnManager is Ownable, ReentrancyGuard, Pausable {... */\n    tag_2:\n      revert(0x00, 0x00)\n        /* \"BurnManger.sol\":3762:3910  function setBurnAmount(uint16 amount) external onlyOwner {... */\n    tag_3:\n      callvalue\n      dup1\n      iszero\n      tag_28\n      jumpi\n      revert(0x00, 0x00)\n    tag_28:\n      pop\n      tag_29\n      tag_30\n      calldatasize\n      0x04\n      tag_31\n      jump\t// in\n    tag_30:\n      tag_32\n      jump\t// in\n    tag_29:\n      stop\n        /* \"BurnManger.sol\":4105:4286  function isUpdatedToken(uint32 tokenId) ... */\n    tag_4:\n      callvalue\n      dup1\n      iszero\n      tag_33\n      jumpi\n      revert(0x00, 0x00)\n    tag_33:\n      pop\n      tag_34\n      tag_35\n      calldatasize\n      0x04\n      tag_36\n      jump\t// in\n    tag_35:\n      tag_37\n      jump\t// in\n    tag_34:\n      mload(0x40)\n        /* \"#utility.yul\":1174:1188   */\n      swap1\n      iszero\n        /* \"#utility.yul\":1167:1189   */\n      iszero\n        /* \"#utility.yul\":1149:1190   */\n      dup2\n      mstore\n        /* \"#utility.yul\":1137:1139   */\n      0x20\n        /* \"#utility.yul\":1122:1140   */\n      add\n        /* \"BurnManger.sol\":4105:4286  function isUpdatedToken(uint32 tokenId) ... */\n    tag_38:\n      mload(0x40)\n      dup1\n      swap2\n      sub\n      swap1\n      return\n        /* \"BurnManger.sol\":4815:4915  function withdrawFunds() external onlyOwner {... */\n    tag_5:\n      callvalue\n      dup1\n      iszero\n      tag_40\n      jumpi\n      revert(0x00, 0x00)\n    tag_40:\n      pop\n      tag_29\n      tag_42\n      jump\t// in\n        /* \"BurnManger.sol\":5110:5177  function unpause() external onlyOwner {... */\n    tag_6:\n      callvalue\n      dup1\n      iszero\n      tag_43\n      jumpi\n      revert(0x00, 0x00)\n    tag_43:\n      pop\n      tag_29\n      tag_45\n      jump\t// in\n        /* \"BurnManger.sol\":1800:2075  function createPremium(uint32[] calldata tokenIds, uint32 updateId)... */\n    tag_7:\n      tag_29\n      tag_47\n      calldatasize\n      0x04\n      tag_48\n      jump\t// in\n    tag_47:\n      tag_49\n      jump\t// in\n        /* \"BurnManger.sol\":823:852  uint16 public burnAmount = 10 */\n    tag_8:\n      callvalue\n      dup1\n      iszero\n      tag_50\n      jumpi\n      revert(0x00, 0x00)\n    tag_50:\n      pop\n      sload(0x04)\n      tag_51\n      swap1\n      0xffff\n      and\n      dup2\n      jump\n    tag_51:\n      mload(0x40)\n        /* \"#utility.yul\":2067:2073   */\n      0xffff\n        /* \"#utility.yul\":2055:2074   */\n      swap1\n      swap2\n      and\n        /* \"#utility.yul\":2037:2075   */\n      dup2\n      mstore\n        /* \"#utility.yul\":2025:2027   */\n      0x20\n        /* \"#utility.yul\":2010:2028   */\n      add\n        /* \"BurnManger.sol\":823:852  uint16 public burnAmount = 10 */\n      tag_38\n        /* \"#utility.yul\":1893:2081   */\n      jump\n        /* \"BurnManger.sol\":4294:4543  function setBurnFee(uint256 _newFee) external onlyOwner {... */\n    tag_9:\n      callvalue\n      dup1\n      iszero\n      tag_55\n      jumpi\n      revert(0x00, 0x00)\n    tag_55:\n      pop\n      tag_29\n      tag_57\n      calldatasize\n      0x04\n      tag_58\n      jump\t// in\n    tag_57:\n      tag_59\n      jump\t// in\n        /* \"BurnManger.sol\":5401:5496  function getMaxBurnFee() external pure returns (uint256) {... */\n    tag_10:\n      callvalue\n      dup1\n      iszero\n      tag_60\n      jumpi\n      revert(0x00, 0x00)\n    tag_60:\n      pop\n        /* \"BurnManger.sol\":1006:1013  1 ether */\n      0x0de0b6b3a7640000\n        /* \"BurnManger.sol\":5401:5496  function getMaxBurnFee() external pure returns (uint256) {... */\n    tag_61:\n      mload(0x40)\n        /* \"#utility.yul\":2417:2442   */\n      swap1\n      dup2\n      mstore\n        /* \"#utility.yul\":2405:2407   */\n      0x20\n        /* \"#utility.yul\":2390:2408   */\n      add\n        /* \"BurnManger.sol\":5401:5496  function getMaxBurnFee() external pure returns (uint256) {... */\n      tag_38\n        /* \"#utility.yul\":2271:2448   */\n      jump\n        /* \"@openzeppelin/contracts/security/Pausable.sol\":1615:1699  function paused() public view virtual returns (bool) {... */\n    tag_11:\n      callvalue\n      dup1\n      iszero\n      tag_65\n      jumpi\n      revert(0x00, 0x00)\n    tag_65:\n      pop\n        /* \"@openzeppelin/contracts/security/Pausable.sol\":1685:1692  _paused */\n      and(0xff, sload(0x02))\n        /* \"@openzeppelin/contracts/security/Pausable.sol\":1615:1699  function paused() public view virtual returns (bool) {... */\n      jump(tag_34)\n        /* \"BurnManger.sol\":5185:5294  function getContractBalance() external view returns (uint256) {... */\n    tag_12:\n      callvalue\n      dup1\n      iszero\n      tag_69\n      jumpi\n      revert(0x00, 0x00)\n    tag_69:\n      pop\n        /* \"BurnManger.sol\":5265:5286  address(this).balance */\n      selfbalance\n        /* \"BurnManger.sol\":5185:5294  function getContractBalance() external view returns (uint256) {... */\n      jump(tag_61)\n        /* \"@openzeppelin/contracts/access/Ownable.sol\":2293:2394  function renounceOwnership() public virtual onlyOwner {... */\n    tag_13:\n      callvalue\n      dup1\n      iszero\n      tag_73\n      jumpi\n      revert(0x00, 0x00)\n    tag_73:\n      pop\n      tag_29\n      tag_75\n      jump\t// in\n        /* \"BurnManger.sol\":5039:5102  function pause() external onlyOwner {... */\n    tag_14:\n      callvalue\n      dup1\n      iszero\n      tag_76\n      jumpi\n      revert(0x00, 0x00)\n    tag_76:\n      pop\n      tag_29\n      tag_78\n      jump\t// in\n        /* \"@openzeppelin/contracts/access/Ownable.sol\":1638:1723  function owner() public view virtual returns (address) {... */\n    tag_15:\n      callvalue\n      dup1\n      iszero\n      tag_79\n      jumpi\n      revert(0x00, 0x00)\n    tag_79:\n      pop\n        /* \"@openzeppelin/contracts/access/Ownable.sol\":1684:1691  address */\n      0x00\n        /* \"@openzeppelin/contracts/access/Ownable.sol\":1710:1716  _owner */\n      sload\n      sub(shl(0xa0, 0x01), 0x01)\n      and\n        /* \"@openzeppelin/contracts/access/Ownable.sol\":1638:1723  function owner() public view virtual returns (address) {... */\n    tag_80:\n      mload(0x40)\n      sub(shl(0xa0, 0x01), 0x01)\n        /* \"#utility.yul\":2617:2649   */\n      swap1\n      swap2\n      and\n        /* \"#utility.yul\":2599:2650   */\n      dup2\n      mstore\n        /* \"#utility.yul\":2587:2589   */\n      0x20\n        /* \"#utility.yul\":2572:2590   */\n      add\n        /* \"@openzeppelin/contracts/access/Ownable.sol\":1638:1723  function owner() public view virtual returns (address) {... */\n      tag_38\n        /* \"#utility.yul\":2453:2656   */\n      jump\n        /* \"BurnManger.sol\":5302:5389  function getBurnFee() external view returns (uint256) {... */\n    tag_16:\n      callvalue\n      dup1\n      iszero\n      tag_84\n      jumpi\n      revert(0x00, 0x00)\n    tag_84:\n      pop\n        /* \"BurnManger.sol\":5374:5381  burnFee */\n      sload(0x03)\n        /* \"BurnManger.sol\":5302:5389  function getBurnFee() external view returns (uint256) {... */\n      jump(tag_61)\n        /* \"BurnManger.sol\":3918:4097  function isTokenBurned(uint32 tokenId) ... */\n    tag_17:\n      callvalue\n      dup1\n      iszero\n      tag_88\n      jumpi\n      revert(0x00, 0x00)\n    tag_88:\n      pop\n      tag_34\n      tag_90\n      calldatasize\n      0x04\n      tag_36\n      jump\t// in\n    tag_90:\n      tag_91\n      jump\t// in\n        /* \"BurnManger.sol\":4923:5031  function withdrawPartialFunds(uint256 _amount) external onlyOwner {... */\n    tag_18:\n      callvalue\n      dup1\n      iszero\n      tag_93\n      jumpi\n      revert(0x00, 0x00)\n    tag_93:\n      pop\n      tag_29\n      tag_95\n      calldatasize\n      0x04\n      tag_58\n      jump\t// in\n    tag_95:\n      tag_96\n      jump\t// in\n        /* \"BurnManger.sol\":739:775  address public immutable nftContract */\n    tag_19:\n      callvalue\n      dup1\n      iszero\n      tag_97\n      jumpi\n      revert(0x00, 0x00)\n    tag_97:\n      pop\n      tag_80\n      immutable(\"0x3ed49036aa79101305a3bfa1070275a6dbad22810edfdc0e3caad458e4a9b16b\")\n      dup2\n      jump\n        /* \"@openzeppelin/contracts/access/Ownable.sol\":2543:2758  function transferOwnership(address newOwner) public virtual onlyOwner {... */\n    tag_20:\n      callvalue\n      dup1\n      iszero\n      tag_101\n      jumpi\n      revert(0x00, 0x00)\n    tag_101:\n      pop\n      tag_29\n      tag_103\n      calldatasize\n      0x04\n      tag_104\n      jump\t// in\n    tag_103:\n      tag_105\n      jump\t// in\n        /* \"BurnManger.sol\":3762:3910  function setBurnAmount(uint16 amount) external onlyOwner {... */\n    tag_32:\n        /* \"@openzeppelin/contracts/access/Ownable.sol\":1531:1544  _checkOwner() */\n      tag_107\n        /* \"@openzeppelin/contracts/access/Ownable.sol\":1531:1542  _checkOwner */\n      tag_108\n        /* \"@openzeppelin/contracts/access/Ownable.sol\":1531:1544  _checkOwner() */\n      jump\t// in\n    tag_107:\n        /* \"BurnManger.sol\":3847:3848  0 */\n      0x00\n        /* \"BurnManger.sol\":3838:3844  amount */\n      dup2\n        /* \"BurnManger.sol\":3838:3848  amount > 0 */\n      0xffff\n      and\n      gt\n        /* \"BurnManger.sol\":3830:3872  require(amount > 0, \"Minimum must be > 0\") */\n      tag_110\n      jumpi\n      mload(0x40)\n      shl(0xe5, 0x461bcd)\n      dup2\n      mstore\n        /* \"#utility.yul\":3251:3253   */\n      0x20\n        /* \"BurnManger.sol\":3830:3872  require(amount > 0, \"Minimum must be > 0\") */\n      0x04\n      dup3\n      add\n        /* \"#utility.yul\":3233:3254   */\n      mstore\n        /* \"#utility.yul\":3290:3292   */\n      0x13\n        /* \"#utility.yul\":3270:3288   */\n      0x24\n      dup3\n      add\n        /* \"#utility.yul\":3263:3293   */\n      mstore\n      shl(0x6c, 0x04d696e696d756d206d757374206265203e203)\n        /* \"#utility.yul\":3309:3327   */\n      0x44\n      dup3\n      add\n        /* \"#utility.yul\":3302:3351   */\n      mstore\n        /* \"#utility.yul\":3368:3386   */\n      0x64\n      add\n        /* \"BurnManger.sol\":3830:3872  require(amount > 0, \"Minimum must be > 0\") */\n      tag_26\n        /* \"#utility.yul\":3049:3392   */\n      jump\n        /* \"BurnManger.sol\":3830:3872  require(amount > 0, \"Minimum must be > 0\") */\n    tag_110:\n        /* \"BurnManger.sol\":3883:3893  burnAmount */\n      0x04\n        /* \"BurnManger.sol\":3883:3902  burnAmount = amount */\n      dup1\n      sload\n      not(0xffff)\n      and\n      0xffff\n      swap3\n      swap1\n      swap3\n      and\n      swap2\n      swap1\n      swap2\n      or\n      swap1\n      sstore\n        /* \"BurnManger.sol\":3762:3910  function setBurnAmount(uint16 amount) external onlyOwner {... */\n      jump\t// out\n        /* \"BurnManger.sol\":4105:4286  function isUpdatedToken(uint32 tokenId) ... */\n    tag_37:\n        /* \"BurnManger.sol\":4230:4234  bool */\n      0x00\n        /* \"BurnManger.sol\":4202:4209  tokenId */\n      dup2\n        /* \"BurnManger.sol\":1508:1619  modifier validTokenId(uint256 tokenId) {... */\n      0xffffffff\n      and\n        /* \"BurnManger.sol\":1562:1569  tokenId */\n      dup1\n        /* \"BurnManger.sol\":1573:1574  0 */\n      0x00\n        /* \"BurnManger.sol\":1562:1574  tokenId == 0 */\n      sub\n        /* \"BurnManger.sol\":1558:1599  if (tokenId == 0) revert InvalidTokenId() */\n      tag_114\n      jumpi\n        /* \"BurnManger.sol\":1583:1599  InvalidTokenId() */\n      mload(0x40)\n      shl(0xe3, 0x07ed98ed)\n      dup2\n      mstore\n      0x04\n      add\n      mload(0x40)\n      dup1\n      swap2\n      sub\n      swap1\n      revert\n        /* \"BurnManger.sol\":1558:1599  if (tokenId == 0) revert InvalidTokenId() */\n    tag_114:\n      pop\n      pop\n        /* \"BurnManger.sol\":4260:4278  isUpdated[tokenId] */\n      0xffffffff\n      and\n      0x00\n      swap1\n      dup2\n      mstore\n        /* \"BurnManger.sol\":4260:4269  isUpdated */\n      0x06\n        /* \"BurnManger.sol\":4260:4278  isUpdated[tokenId] */\n      0x20\n      mstore\n      0x40\n      swap1\n      keccak256\n      sload\n      0xff\n      and\n      swap1\n        /* \"BurnManger.sol\":4105:4286  function isUpdatedToken(uint32 tokenId) ... */\n      jump\t// out\n        /* \"BurnManger.sol\":4815:4915  function withdrawFunds() external onlyOwner {... */\n    tag_42:\n        /* \"@openzeppelin/contracts/access/Ownable.sol\":1531:1544  _checkOwner() */\n      tag_117\n        /* \"@openzeppelin/contracts/access/Ownable.sol\":1531:1542  _checkOwner */\n      tag_108\n        /* \"@openzeppelin/contracts/access/Ownable.sol\":1531:1544  _checkOwner() */\n      jump\t// in\n    tag_117:\n        /* \"BurnManger.sol\":4870:4907  _withdrawFunds(address(this).balance) */\n      tag_119\n        /* \"BurnManger.sol\":4885:4906  address(this).balance */\n      selfbalance\n        /* \"BurnManger.sol\":4870:4884  _withdrawFunds */\n      tag_120\n        /* \"BurnManger.sol\":4870:4907  _withdrawFunds(address(this).balance) */\n      jump\t// in\n    tag_119:\n        /* \"BurnManger.sol\":4815:4915  function withdrawFunds() external onlyOwner {... */\n      jump\t// out\n        /* \"BurnManger.sol\":5110:5177  function unpause() external onlyOwner {... */\n    tag_45:\n        /* \"@openzeppelin/contracts/access/Ownable.sol\":1531:1544  _checkOwner() */\n      tag_122\n        /* \"@openzeppelin/contracts/access/Ownable.sol\":1531:1542  _checkOwner */\n      tag_108\n        /* \"@openzeppelin/contracts/access/Ownable.sol\":1531:1544  _checkOwner() */\n      jump\t// in\n    tag_122:\n        /* \"BurnManger.sol\":5159:5169  _unpause() */\n      tag_119\n        /* \"BurnManger.sol\":5159:5167  _unpause */\n      tag_125\n        /* \"BurnManger.sol\":5159:5169  _unpause() */\n      jump\t// in\n        /* \"BurnManger.sol\":1800:2075  function createPremium(uint32[] calldata tokenIds, uint32 updateId)... */\n    tag_49:\n        /* \"@openzeppelin/contracts/security/ReentrancyGuard.sol\":2261:2282  _nonReentrantBefore() */\n      tag_127\n        /* \"@openzeppelin/contracts/security/ReentrancyGuard.sol\":2261:2280  _nonReentrantBefore */\n      tag_128\n        /* \"@openzeppelin/contracts/security/ReentrancyGuard.sol\":2261:2282  _nonReentrantBefore() */\n      jump\t// in\n    tag_127:\n        /* \"@openzeppelin/contracts/security/Pausable.sol\":1239:1258  _requireNotPaused() */\n      tag_130\n        /* \"@openzeppelin/contracts/security/Pausable.sol\":1239:1256  _requireNotPaused */\n      tag_131\n        /* \"@openzeppelin/contracts/security/Pausable.sol\":1239:1258  _requireNotPaused() */\n      jump\t// in\n    tag_130:\n        /* \"BurnManger.sol\":1964:1998  _validateInput(tokenIds, updateId) */\n      tag_133\n        /* \"BurnManger.sol\":1979:1987  tokenIds */\n      dup4\n      dup4\n        /* \"BurnManger.sol\":1989:1997  updateId */\n      dup4\n        /* \"BurnManger.sol\":1964:1978  _validateInput */\n      tag_134\n        /* \"BurnManger.sol\":1964:1998  _validateInput(tokenIds, updateId) */\n      jump\t// in\n    tag_133:\n        /* \"BurnManger.sol\":2009:2041  _processBurn(tokenIds, updateId) */\n      tag_135\n        /* \"BurnManger.sol\":2022:2030  tokenIds */\n      dup4\n      dup4\n        /* \"BurnManger.sol\":2032:2040  updateId */\n      dup4\n        /* \"BurnManger.sol\":2009:2021  _processBurn */\n      tag_136\n        /* \"BurnManger.sol\":2009:2041  _processBurn(tokenIds, updateId) */\n      jump\t// in\n    tag_135:\n        /* \"BurnManger.sol\":2052:2067  _refundExcess() */\n      tag_137\n        /* \"BurnManger.sol\":2052:2065  _refundExcess */\n      tag_138\n        /* \"BurnManger.sol\":2052:2067  _refundExcess() */\n      jump\t// in\n    tag_137:\n        /* \"@openzeppelin/contracts/security/ReentrancyGuard.sol\":2303:2323  _nonReentrantAfter() */\n      tag_139\n        /* \"@openzeppelin/contracts/security/ReentrancyGuard.sol\":1716:1717  1 */\n      0x01\n        /* \"@openzeppelin/contracts/security/ReentrancyGuard.sol\":2809:2831  _status = _NOT_ENTERED */\n      dup1\n      sstore\n        /* \"@openzeppelin/contracts/security/ReentrancyGuard.sol\":2629:2838  function _nonReentrantAfter() private {... */\n      jump\n        /* \"@openzeppelin/contracts/security/ReentrancyGuard.sol\":2303:2323  _nonReentrantAfter() */\n    tag_139:\n        /* \"BurnManger.sol\":1800:2075  function createPremium(uint32[] calldata tokenIds, uint32 updateId)... */\n      pop\n      pop\n      pop\n      jump\t// out\n        /* \"BurnManger.sol\":4294:4543  function setBurnFee(uint256 _newFee) external onlyOwner {... */\n    tag_59:\n        /* \"@openzeppelin/contracts/access/Ownable.sol\":1531:1544  _checkOwner() */\n      tag_142\n        /* \"@openzeppelin/contracts/access/Ownable.sol\":1531:1542  _checkOwner */\n      tag_108\n        /* \"@openzeppelin/contracts/access/Ownable.sol\":1531:1544  _checkOwner() */\n      jump\t// in\n    tag_142:\n        /* \"BurnManger.sol\":1006:1013  1 ether */\n      0x0de0b6b3a7640000\n        /* \"BurnManger.sol\":4365:4372  _newFee */\n      dup2\n        /* \"BurnManger.sol\":4365:4387  _newFee > MAX_BURN_FEE */\n      gt\n        /* \"BurnManger.sol\":4361:4415  if (_newFee > MAX_BURN_FEE) revert FeeExceedsMaximum() */\n      iszero\n      tag_144\n      jumpi\n        /* \"BurnManger.sol\":4396:4415  FeeExceedsMaximum() */\n      mload(0x40)\n      shl(0xe2, 0x2be70877)\n      dup2\n      mstore\n      0x04\n      add\n      mload(0x40)\n      dup1\n      swap2\n      sub\n      swap1\n      revert\n        /* \"BurnManger.sol\":4361:4415  if (_newFee > MAX_BURN_FEE) revert FeeExceedsMaximum() */\n    tag_144:\n        /* \"BurnManger.sol\":4453:4460  burnFee */\n      0x03\n      dup1\n      sload\n        /* \"BurnManger.sol\":4471:4488  burnFee = _newFee */\n      swap1\n      dup3\n      swap1\n      sstore\n        /* \"BurnManger.sol\":4504:4535  BurnFeeUpdated(oldFee, _newFee) */\n      0x40\n      dup1\n      mload\n        /* \"#utility.yul\":3571:3596   */\n      dup3\n      dup2\n      mstore\n        /* \"#utility.yul\":3627:3629   */\n      0x20\n        /* \"#utility.yul\":3612:3630   */\n      dup2\n      add\n        /* \"#utility.yul\":3605:3639   */\n      dup5\n      swap1\n      mstore\n        /* \"BurnManger.sol\":4504:4535  BurnFeeUpdated(oldFee, _newFee) */\n      0x78f1461296bad7bd716a7673aa3e659cc091c348a7ed4cfef7ce452c3052f2fb\n      swap2\n        /* \"#utility.yul\":3544:3562   */\n      add\n        /* \"BurnManger.sol\":4504:4535  BurnFeeUpdated(oldFee, _newFee) */\n      mload(0x40)\n      dup1\n      swap2\n      sub\n      swap1\n      log1\n        /* \"BurnManger.sol\":4350:4543  {... */\n      pop\n        /* \"BurnManger.sol\":4294:4543  function setBurnFee(uint256 _newFee) external onlyOwner {... */\n      pop\n      jump\t// out\n        /* \"@openzeppelin/contracts/access/Ownable.sol\":2293:2394  function renounceOwnership() public virtual onlyOwner {... */\n    tag_75:\n        /* \"@openzeppelin/contracts/access/Ownable.sol\":1531:1544  _checkOwner() */\n      tag_151\n        /* \"@openzeppelin/contracts/access/Ownable.sol\":1531:1542  _checkOwner */\n      tag_108\n        /* \"@openzeppelin/contracts/access/Ownable.sol\":1531:1544  _checkOwner() */\n      jump\t// in\n    tag_151:\n        /* \"@openzeppelin/contracts/access/Ownable.sol\":2357:2387  _transferOwnership(address(0)) */\n      tag_119\n        /* \"@openzeppelin/contracts/access/Ownable.sol\":2384:2385  0 */\n      0x00\n        /* \"@openzeppelin/contracts/access/Ownable.sol\":2357:2375  _transferOwnership */\n      tag_154\n        /* \"@openzeppelin/contracts/access/Ownable.sol\":2357:2387  _transferOwnership(address(0)) */\n      jump\t// in\n        /* \"BurnManger.sol\":5039:5102  function pause() external onlyOwner {... */\n    tag_78:\n        /* \"@openzeppelin/contracts/access/Ownable.sol\":1531:1544  _checkOwner() */\n      tag_156\n        /* \"@openzeppelin/contracts/access/Ownable.sol\":1531:1542  _checkOwner */\n      tag_108\n        /* \"@openzeppelin/contracts/access/Ownable.sol\":1531:1544  _checkOwner() */\n      jump\t// in\n    tag_156:\n        /* \"BurnManger.sol\":5086:5094  _pause() */\n      tag_119\n        /* \"BurnManger.sol\":5086:5092  _pause */\n      tag_159\n        /* \"BurnManger.sol\":5086:5094  _pause() */\n      jump\t// in\n        /* \"BurnManger.sol\":3918:4097  function isTokenBurned(uint32 tokenId) ... */\n    tag_91:\n        /* \"BurnManger.sol\":4042:4046  bool */\n      0x00\n        /* \"BurnManger.sol\":4014:4021  tokenId */\n      dup2\n        /* \"BurnManger.sol\":1508:1619  modifier validTokenId(uint256 tokenId) {... */\n      0xffffffff\n      and\n        /* \"BurnManger.sol\":1562:1569  tokenId */\n      dup1\n        /* \"BurnManger.sol\":1573:1574  0 */\n      0x00\n        /* \"BurnManger.sol\":1562:1574  tokenId == 0 */\n      sub\n        /* \"BurnManger.sol\":1558:1599  if (tokenId == 0) revert InvalidTokenId() */\n      tag_163\n      jumpi\n        /* \"BurnManger.sol\":1583:1599  InvalidTokenId() */\n      mload(0x40)\n      shl(0xe3, 0x07ed98ed)\n      dup2\n      mstore\n      0x04\n      add\n      mload(0x40)\n      dup1\n      swap2\n      sub\n      swap1\n      revert\n        /* \"BurnManger.sol\":1558:1599  if (tokenId == 0) revert InvalidTokenId() */\n    tag_163:\n      pop\n      pop\n        /* \"BurnManger.sol\":4072:4089  isBurned[tokenId] */\n      0xffffffff\n      and\n      0x00\n      swap1\n      dup2\n      mstore\n        /* \"BurnManger.sol\":4072:4080  isBurned */\n      0x05\n        /* \"BurnManger.sol\":4072:4089  isBurned[tokenId] */\n      0x20\n      mstore\n      0x40\n      swap1\n      keccak256\n      sload\n      0xff\n      and\n      swap1\n        /* \"BurnManger.sol\":3918:4097  function isTokenBurned(uint32 tokenId) ... */\n      jump\t// out\n        /* \"BurnManger.sol\":4923:5031  function withdrawPartialFunds(uint256 _amount) external onlyOwner {... */\n    tag_96:\n        /* \"@openzeppelin/contracts/access/Ownable.sol\":1531:1544  _checkOwner() */\n      tag_166\n        /* \"@openzeppelin/contracts/access/Ownable.sol\":1531:1542  _checkOwner */\n      tag_108\n        /* \"@openzeppelin/contracts/access/Ownable.sol\":1531:1544  _checkOwner() */\n      jump\t// in\n    tag_166:\n        /* \"BurnManger.sol\":5000:5023  _withdrawFunds(_amount) */\n      tag_168\n        /* \"BurnManger.sol\":5015:5022  _amount */\n      dup2\n        /* \"BurnManger.sol\":5000:5014  _withdrawFunds */\n      tag_120\n        /* \"BurnManger.sol\":5000:5023  _withdrawFunds(_amount) */\n      jump\t// in\n    tag_168:\n        /* \"BurnManger.sol\":4923:5031  function withdrawPartialFunds(uint256 _amount) external onlyOwner {... */\n      pop\n      jump\t// out\n        /* \"@openzeppelin/contracts/access/Ownable.sol\":2543:2758  function transferOwnership(address newOwner) public virtual onlyOwner {... */\n    tag_105:\n        /* \"@openzeppelin/contracts/access/Ownable.sol\":1531:1544  _checkOwner() */\n      tag_170\n        /* \"@openzeppelin/contracts/access/Ownable.sol\":1531:1542  _checkOwner */\n      tag_108\n        /* \"@openzeppelin/contracts/access/Ownable.sol\":1531:1544  _checkOwner() */\n      jump\t// in\n    tag_170:\n      sub(shl(0xa0, 0x01), 0x01)\n        /* \"@openzeppelin/contracts/access/Ownable.sol\":2627:2649  newOwner == address(0) */\n      dup2\n      and\n        /* \"@openzeppelin/contracts/access/Ownable.sol\":2623:2714  if (newOwner == address(0)) {... */\n      tag_172\n      jumpi\n        /* \"@openzeppelin/contracts/access/Ownable.sol\":2672:2703  OwnableInvalidOwner(address(0)) */\n      mload(0x40)\n      shl(0xe0, 0x1e4fbdf7)\n      dup2\n      mstore\n        /* \"@openzeppelin/contracts/access/Ownable.sol\":2700:2701  0 */\n      0x00\n        /* \"@openzeppelin/contracts/access/Ownable.sol\":2672:2703  OwnableInvalidOwner(address(0)) */\n      0x04\n      dup3\n      add\n        /* \"#utility.yul\":2599:2650   */\n      mstore\n        /* \"#utility.yul\":2572:2590   */\n      0x24\n      add\n        /* \"@openzeppelin/contracts/access/Ownable.sol\":2672:2703  OwnableInvalidOwner(address(0)) */\n      tag_26\n        /* \"#utility.yul\":2453:2656   */\n      jump\n        /* \"@openzeppelin/contracts/access/Ownable.sol\":2623:2714  if (newOwner == address(0)) {... */\n    tag_172:\n        /* \"@openzeppelin/contracts/access/Ownable.sol\":2723:2751  _transferOwnership(newOwner) */\n      tag_168\n        /* \"@openzeppelin/contracts/access/Ownable.sol\":2742:2750  newOwner */\n      dup2\n        /* \"@openzeppelin/contracts/access/Ownable.sol\":2723:2741  _transferOwnership */\n      tag_154\n        /* \"@openzeppelin/contracts/access/Ownable.sol\":2723:2751  _transferOwnership(newOwner) */\n      jump\t// in\n        /* \"@openzeppelin/contracts/access/Ownable.sol\":1796:1958  function _checkOwner() internal view virtual {... */\n    tag_108:\n        /* \"@openzeppelin/contracts/access/Ownable.sol\":1684:1691  address */\n      0x00\n        /* \"@openzeppelin/contracts/access/Ownable.sol\":1710:1716  _owner */\n      sload\n      sub(shl(0xa0, 0x01), 0x01)\n      and\n        /* \"@openzeppelin/contracts/utils/Context.sol\":735:745  msg.sender */\n      caller\n        /* \"@openzeppelin/contracts/access/Ownable.sol\":1855:1878  owner() != _msgSender() */\n      eq\n        /* \"@openzeppelin/contracts/access/Ownable.sol\":1851:1952  if (owner() != _msgSender()) {... */\n      tag_119\n      jumpi\n        /* \"@openzeppelin/contracts/access/Ownable.sol\":1901:1941  OwnableUnauthorizedAccount(_msgSender()) */\n      mload(0x40)\n      shl(0xe0, 0x118cdaa7)\n      dup2\n      mstore\n        /* \"@openzeppelin/contracts/utils/Context.sol\":735:745  msg.sender */\n      caller\n        /* \"@openzeppelin/contracts/access/Ownable.sol\":1901:1941  OwnableUnauthorizedAccount(_msgSender()) */\n      0x04\n      dup3\n      add\n        /* \"#utility.yul\":2599:2650   */\n      mstore\n        /* \"#utility.yul\":2572:2590   */\n      0x24\n      add\n        /* \"@openzeppelin/contracts/access/Ownable.sol\":1901:1941  OwnableUnauthorizedAccount(_msgSender()) */\n      tag_26\n        /* \"#utility.yul\":2453:2656   */\n      jump\n        /* \"BurnManger.sol\":4551:4807  function _withdrawFunds(uint256 _amount) private nonReentrant {... */\n    tag_120:\n        /* \"@openzeppelin/contracts/security/ReentrancyGuard.sol\":2261:2282  _nonReentrantBefore() */\n      tag_183\n        /* \"@openzeppelin/contracts/security/ReentrancyGuard.sol\":2261:2280  _nonReentrantBefore */\n      tag_128\n        /* \"@openzeppelin/contracts/security/ReentrancyGuard.sol\":2261:2282  _nonReentrantBefore() */\n      jump\t// in\n    tag_183:\n        /* \"BurnManger.sol\":4628:4640  _amount == 0 */\n      dup1\n      iszero\n      dup1\n        /* \"BurnManger.sol\":4628:4675  _amount == 0 || _amount > address(this).balance */\n      tag_185\n      jumpi\n      pop\n        /* \"BurnManger.sol\":4654:4675  address(this).balance */\n      selfbalance\n        /* \"BurnManger.sol\":4644:4651  _amount */\n      dup2\n        /* \"BurnManger.sol\":4644:4675  _amount > address(this).balance */\n      gt\n        /* \"BurnManger.sol\":4628:4675  _amount == 0 || _amount > address(this).balance */\n    tag_185:\n        /* \"BurnManger.sol\":4624:4703  if (_amount == 0 || _amount > address(this).balance) revert NoFundsToWithdraw() */\n      iszero\n      tag_186\n      jumpi\n        /* \"BurnManger.sol\":4684:4703  NoFundsToWithdraw() */\n      mload(0x40)\n      shl(0xe0, 0x67e3990d)\n      dup2\n      mstore\n      0x04\n      add\n      mload(0x40)\n      dup1\n      swap2\n      sub\n      swap1\n      revert\n        /* \"BurnManger.sol\":4624:4703  if (_amount == 0 || _amount > address(this).balance) revert NoFundsToWithdraw() */\n    tag_186:\n        /* \"BurnManger.sol\":4716:4751  payable(owner()).sendValue(_amount) */\n      tag_187\n        /* \"BurnManger.sol\":4743:4750  _amount */\n      dup2\n        /* \"BurnManger.sol\":4724:4731  owner() */\n      tag_188\n        /* \"@openzeppelin/contracts/access/Ownable.sol\":1684:1691  address */\n      0x00\n        /* \"@openzeppelin/contracts/access/Ownable.sol\":1710:1716  _owner */\n      sload\n      sub(shl(0xa0, 0x01), 0x01)\n      and\n      swap1\n        /* \"@openzeppelin/contracts/access/Ownable.sol\":1638:1723  function owner() public view virtual returns (address) {... */\n      jump\n        /* \"BurnManger.sol\":4724:4731  owner() */\n    tag_188:\n      sub(shl(0xa0, 0x01), 0x01)\n        /* \"BurnManger.sol\":4716:4742  payable(owner()).sendValue */\n      and\n      swap1\n      tag_189\n        /* \"BurnManger.sol\":4716:4751  payable(owner()).sendValue(_amount) */\n      jump\t// in\n    tag_187:\n        /* \"@openzeppelin/contracts/access/Ownable.sol\":1684:1691  address */\n      0x00\n        /* \"@openzeppelin/contracts/access/Ownable.sol\":1710:1716  _owner */\n      sload\n      sub(shl(0xa0, 0x01), 0x01)\n      and\n      sub(shl(0xa0, 0x01), 0x01)\n        /* \"BurnManger.sol\":4767:4799  FundsWithdrawn(owner(), _amount) */\n      and\n      0xeaff4b37086828766ad3268786972c0cd24259d4c87a80f9d3963a3c3d999b0d\n        /* \"BurnManger.sol\":4791:4798  _amount */\n      dup3\n        /* \"BurnManger.sol\":4767:4799  FundsWithdrawn(owner(), _amount) */\n      mload(0x40)\n      tag_191\n      swap2\n        /* \"#utility.yul\":2417:2442   */\n      dup2\n      mstore\n        /* \"#utility.yul\":2405:2407   */\n      0x20\n        /* \"#utility.yul\":2390:2408   */\n      add\n      swap1\n        /* \"#utility.yul\":2271:2448   */\n      jump\n        /* \"BurnManger.sol\":4767:4799  FundsWithdrawn(owner(), _amount) */\n    tag_191:\n      mload(0x40)\n      dup1\n      swap2\n      sub\n      swap1\n      log2\n        /* \"@openzeppelin/contracts/security/ReentrancyGuard.sol\":2303:2323  _nonReentrantAfter() */\n      tag_168\n        /* \"@openzeppelin/contracts/security/ReentrancyGuard.sol\":1716:1717  1 */\n      0x01\n        /* \"@openzeppelin/contracts/security/ReentrancyGuard.sol\":2809:2831  _status = _NOT_ENTERED */\n      dup1\n      sstore\n        /* \"@openzeppelin/contracts/security/ReentrancyGuard.sol\":2629:2838  function _nonReentrantAfter() private {... */\n      jump\n        /* \"@openzeppelin/contracts/security/Pausable.sol\":2433:2550  function _unpause() internal virtual whenPaused {... */\n    tag_125:\n        /* \"@openzeppelin/contracts/security/Pausable.sol\":1486:1502  _requirePaused() */\n      tag_194\n        /* \"@openzeppelin/contracts/security/Pausable.sol\":1486:1500  _requirePaused */\n      tag_195\n        /* \"@openzeppelin/contracts/security/Pausable.sol\":1486:1502  _requirePaused() */\n      jump\t// in\n    tag_194:\n        /* \"@openzeppelin/contracts/security/Pausable.sol\":2491:2498  _paused */\n      0x02\n        /* \"@openzeppelin/contracts/security/Pausable.sol\":2491:2506  _paused = false */\n      dup1\n      sload\n      not(0xff)\n      and\n      swap1\n      sstore\n        /* \"@openzeppelin/contracts/security/Pausable.sol\":2521:2543  Unpaused(_msgSender()) */\n      0x5db9ee0a495bf2e6ff9c91a7834c1ba4fdd244a5e8aa4e537bd38aeae4b073aa\n        /* \"@openzeppelin/contracts/utils/Context.sol\":735:745  msg.sender */\n      caller\n        /* \"@openzeppelin/contracts/security/Pausable.sol\":2530:2542  _msgSender() */\n    tag_197:\n        /* \"@openzeppelin/contracts/security/Pausable.sol\":2521:2543  Unpaused(_msgSender()) */\n      mload(0x40)\n      sub(shl(0xa0, 0x01), 0x01)\n        /* \"#utility.yul\":2617:2649   */\n      swap1\n      swap2\n      and\n        /* \"#utility.yul\":2599:2650   */\n      dup2\n      mstore\n        /* \"#utility.yul\":2587:2589   */\n      0x20\n        /* \"#utility.yul\":2572:2590   */\n      add\n        /* \"@openzeppelin/contracts/security/Pausable.sol\":2521:2543  Unpaused(_msgSender()) */\n      mload(0x40)\n      dup1\n      swap2\n      sub\n      swap1\n      log1\n        /* \"@openzeppelin/contracts/security/Pausable.sol\":2433:2550  function _unpause() internal virtual whenPaused {... */\n      jump\t// out\n        /* \"@openzeppelin/contracts/security/ReentrancyGuard.sol\":2336:2623  function _nonReentrantBefore() private {... */\n    tag_128:\n        /* \"@openzeppelin/contracts/security/ReentrancyGuard.sol\":1759:1760  2 */\n      0x02\n        /* \"@openzeppelin/contracts/security/ReentrancyGuard.sol\":2468:2475  _status */\n      sload(0x01)\n        /* \"@openzeppelin/contracts/security/ReentrancyGuard.sol\":2468:2487  _status != _ENTERED */\n      sub\n        /* \"@openzeppelin/contracts/security/ReentrancyGuard.sol\":2460:2523  require(_status != _ENTERED, \"ReentrancyGuard: reentrant call\") */\n      tag_200\n      jumpi\n      mload(0x40)\n      shl(0xe5, 0x461bcd)\n      dup2\n      mstore\n        /* \"#utility.yul\":3852:3854   */\n      0x20\n        /* \"@openzeppelin/contracts/security/ReentrancyGuard.sol\":2460:2523  require(_status != _ENTERED, \"ReentrancyGuard: reentrant call\") */\n      0x04\n      dup3\n      add\n        /* \"#utility.yul\":3834:3855   */\n      mstore\n        /* \"#utility.yul\":3891:3893   */\n      0x1f\n        /* \"#utility.yul\":3871:3889   */\n      0x24\n      dup3\n      add\n        /* \"#utility.yul\":3864:3894   */\n      mstore\n        /* \"#utility.yul\":3930:3963   */\n      0x5265656e7472616e637947756172643a207265656e7472616e742063616c6c00\n        /* \"#utility.yul\":3910:3928   */\n      0x44\n      dup3\n      add\n        /* \"#utility.yul\":3903:3964   */\n      mstore\n        /* \"#utility.yul\":3981:3999   */\n      0x64\n      add\n        /* \"@openzeppelin/contracts/security/ReentrancyGuard.sol\":2460:2523  require(_status != _ENTERED, \"ReentrancyGuard: reentrant call\") */\n      tag_26\n        /* \"#utility.yul\":3650:4005   */\n      jump\n        /* \"@openzeppelin/contracts/security/ReentrancyGuard.sol\":2460:2523  require(_status != _ENTERED, \"ReentrancyGuard: reentrant call\") */\n    tag_200:\n        /* \"@openzeppelin/contracts/security/ReentrancyGuard.sol\":1759:1760  2 */\n      0x02\n        /* \"@openzeppelin/contracts/security/ReentrancyGuard.sol\":2598:2605  _status */\n      0x01\n        /* \"@openzeppelin/contracts/security/ReentrancyGuard.sol\":2598:2616  _status = _ENTERED */\n      sstore\n        /* \"@openzeppelin/contracts/security/ReentrancyGuard.sol\":2336:2623  function _nonReentrantBefore() private {... */\n      jump\t// out\n        /* \"@openzeppelin/contracts/security/Pausable.sol\":1767:1873  function _requireNotPaused() internal view virtual {... */\n    tag_131:\n        /* \"@openzeppelin/contracts/security/Pausable.sol\":1685:1692  _paused */\n      and(0xff, sload(0x02))\n        /* \"@openzeppelin/contracts/security/Pausable.sol\":1836:1845  !paused() */\n      iszero\n        /* \"@openzeppelin/contracts/security/Pausable.sol\":1828:1866  require(!paused(), \"Pausable: paused\") */\n      tag_119\n      jumpi\n      mload(0x40)\n      shl(0xe5, 0x461bcd)\n      dup2\n      mstore\n        /* \"#utility.yul\":4212:4214   */\n      0x20\n        /* \"@openzeppelin/contracts/security/Pausable.sol\":1828:1866  require(!paused(), \"Pausable: paused\") */\n      0x04\n      dup3\n      add\n        /* \"#utility.yul\":4194:4215   */\n      mstore\n        /* \"#utility.yul\":4251:4253   */\n      0x10\n        /* \"#utility.yul\":4231:4249   */\n      0x24\n      dup3\n      add\n        /* \"#utility.yul\":4224:4254   */\n      mstore\n      shl(0x82, 0x14185d5cd8589b194e881c185d5cd959)\n        /* \"#utility.yul\":4270:4288   */\n      0x44\n      dup3\n      add\n        /* \"#utility.yul\":4263:4309   */\n      mstore\n        /* \"#utility.yul\":4326:4344   */\n      0x64\n      add\n        /* \"@openzeppelin/contracts/security/Pausable.sol\":1828:1866  require(!paused(), \"Pausable: paused\") */\n      tag_26\n        /* \"#utility.yul\":4010:4350   */\n      jump\n        /* \"BurnManger.sol\":2083:3048  function _validateInput(uint32[] calldata tokenIds, uint32 updateId) private view {... */\n    tag_134:\n        /* \"BurnManger.sol\":2203:2211  tokenIds */\n      dup2\n        /* \"BurnManger.sol\":2234:2249  tokenCount == 0 */\n      0xffffffff\n      dup2\n      and\n        /* \"BurnManger.sol\":2176:2193  uint32 tokenCount */\n      0x00\n        /* \"BurnManger.sol\":2234:2249  tokenCount == 0 */\n      sub\n        /* \"BurnManger.sol\":2230:2279  if (tokenCount == 0) revert(\"No tokens provided\") */\n      tag_209\n      jumpi\n        /* \"BurnManger.sol\":2251:2279  revert(\"No tokens provided\") */\n      mload(0x40)\n      shl(0xe5, 0x461bcd)\n      dup2\n      mstore\n        /* \"#utility.yul\":4557:4559   */\n      0x20\n        /* \"BurnManger.sol\":2251:2279  revert(\"No tokens provided\") */\n      0x04\n      dup3\n      add\n        /* \"#utility.yul\":4539:4560   */\n      mstore\n        /* \"#utility.yul\":4596:4598   */\n      0x12\n        /* \"#utility.yul\":4576:4594   */\n      0x24\n      dup3\n      add\n        /* \"#utility.yul\":4569:4599   */\n      mstore\n      shl(0x72, 0x139bc81d1bdad95b9cc81c1c9bdd9a591959)\n        /* \"#utility.yul\":4615:4633   */\n      0x44\n      dup3\n      add\n        /* \"#utility.yul\":4608:4656   */\n      mstore\n        /* \"#utility.yul\":4673:4691   */\n      0x64\n      add\n        /* \"BurnManger.sol\":2251:2279  revert(\"No tokens provided\") */\n      tag_26\n        /* \"#utility.yul\":4355:4697   */\n      jump\n        /* \"BurnManger.sol\":2230:2279  if (tokenCount == 0) revert(\"No tokens provided\") */\n    tag_209:\n        /* \"BurnManger.sol\":2308:2318  burnAmount */\n      and(0xffff, sload(0x04))\n        /* \"BurnManger.sol\":2294:2318  tokenCount != burnAmount */\n      0xffffffff\n      dup3\n      and\n      eq\n        /* \"BurnManger.sol\":2290:2360  if (tokenCount != burnAmount) revert(\"Burn the required token amount\") */\n      tag_212\n      jumpi\n        /* \"BurnManger.sol\":2320:2360  revert(\"Burn the required token amount\") */\n      mload(0x40)\n      shl(0xe5, 0x461bcd)\n      dup2\n      mstore\n        /* \"#utility.yul\":4904:4906   */\n      0x20\n        /* \"BurnManger.sol\":2320:2360  revert(\"Burn the required token amount\") */\n      0x04\n      dup3\n      add\n        /* \"#utility.yul\":4886:4907   */\n      mstore\n        /* \"#utility.yul\":4943:4945   */\n      0x1e\n        /* \"#utility.yul\":4923:4941   */\n      0x24\n      dup3\n      add\n        /* \"#utility.yul\":4916:4946   */\n      mstore\n        /* \"#utility.yul\":4982:5014   */\n      0x4275726e2074686520726571756972656420746f6b656e20616d6f756e740000\n        /* \"#utility.yul\":4962:4980   */\n      0x44\n      dup3\n      add\n        /* \"#utility.yul\":4955:5015   */\n      mstore\n        /* \"#utility.yul\":5032:5050   */\n      0x64\n      add\n        /* \"BurnManger.sol\":2320:2360  revert(\"Burn the required token amount\") */\n      tag_26\n        /* \"#utility.yul\":4702:5056   */\n      jump\n        /* \"BurnManger.sol\":2290:2360  if (tokenCount != burnAmount) revert(\"Burn the required token amount\") */\n    tag_212:\n        /* \"BurnManger.sol\":2389:2396  burnFee */\n      sload(0x03)\n        /* \"BurnManger.sol\":2377:2386  msg.value */\n      callvalue\n        /* \"BurnManger.sol\":2377:2396  msg.value < burnFee */\n      lt\n        /* \"BurnManger.sol\":2373:2428  if (msg.value < burnFee) revert(\"Insufficient payment\") */\n      iszero\n      tag_215\n      jumpi\n        /* \"BurnManger.sol\":2398:2428  revert(\"Insufficient payment\") */\n      mload(0x40)\n      shl(0xe5, 0x461bcd)\n      dup2\n      mstore\n        /* \"#utility.yul\":5263:5265   */\n      0x20\n        /* \"BurnManger.sol\":2398:2428  revert(\"Insufficient payment\") */\n      0x04\n      dup3\n      add\n        /* \"#utility.yul\":5245:5266   */\n      mstore\n        /* \"#utility.yul\":5302:5304   */\n      0x14\n        /* \"#utility.yul\":5282:5300   */\n      0x24\n      dup3\n      add\n        /* \"#utility.yul\":5275:5305   */\n      mstore\n      shl(0x62, 0x125b9cdd59999a58da595b9d081c185e5b595b9d)\n        /* \"#utility.yul\":5321:5339   */\n      0x44\n      dup3\n      add\n        /* \"#utility.yul\":5314:5364   */\n      mstore\n        /* \"#utility.yul\":5381:5399   */\n      0x64\n      add\n        /* \"BurnManger.sol\":2398:2428  revert(\"Insufficient payment\") */\n      tag_26\n        /* \"#utility.yul\":5061:5405   */\n      jump\n        /* \"BurnManger.sol\":2373:2428  if (msg.value < burnFee) revert(\"Insufficient payment\") */\n    tag_215:\n        /* \"BurnManger.sol\":2508:2529  nft.ownerOf(updateId) */\n      mload(0x40)\n      shl(0xe1, 0x31a9108f)\n      dup2\n      mstore\n        /* \"#utility.yul\":5585:5595   */\n      0xffffffff\n        /* \"#utility.yul\":5573:5596   */\n      dup4\n      and\n        /* \"BurnManger.sol\":2508:2529  nft.ownerOf(updateId) */\n      0x04\n      dup3\n      add\n        /* \"#utility.yul\":5555:5597   */\n      mstore\n        /* \"BurnManger.sol\":2479:2490  nftContract */\n      immutable(\"0x3ed49036aa79101305a3bfa1070275a6dbad22810edfdc0e3caad458e4a9b16b\")\n      swap1\n        /* \"BurnManger.sol\":2533:2543  msg.sender */\n      caller\n      swap1\n      sub(shl(0xa0, 0x01), 0x01)\n        /* \"BurnManger.sol\":2508:2519  nft.ownerOf */\n      dup4\n      and\n      swap1\n      0x6352211e\n      swap1\n        /* \"#utility.yul\":5528:5546   */\n      0x24\n      add\n        /* \"BurnManger.sol\":2508:2529  nft.ownerOf(updateId) */\n      0x20\n      mload(0x40)\n      dup1\n      dup4\n      sub\n      dup2\n      dup7\n      gas\n      staticcall\n      iszero\n      dup1\n      iszero\n      tag_221\n      jumpi\n      returndatacopy(0x00, 0x00, returndatasize)\n      revert(0x00, returndatasize)\n    tag_221:\n      pop\n      pop\n      pop\n      pop\n      mload(0x40)\n      returndatasize\n      not(0x1f)\n      0x1f\n      dup3\n      add\n      and\n      dup3\n      add\n      dup1\n      0x40\n      mstore\n      pop\n      dup2\n      add\n      swap1\n      tag_222\n      swap2\n      swap1\n      tag_223\n      jump\t// in\n    tag_222:\n      sub(shl(0xa0, 0x01), 0x01)\n        /* \"BurnManger.sol\":2508:2543  nft.ownerOf(updateId) != msg.sender */\n      and\n      eq\n        /* \"BurnManger.sol\":2504:2570  if (nft.ownerOf(updateId) != msg.sender) revert(\"Not token owner\") */\n      tag_224\n      jumpi\n        /* \"BurnManger.sol\":2545:2570  revert(\"Not token owner\") */\n      mload(0x40)\n      shl(0xe5, 0x461bcd)\n      dup2\n      mstore\n        /* \"#utility.yul\":6066:6068   */\n      0x20\n        /* \"BurnManger.sol\":2545:2570  revert(\"Not token owner\") */\n      0x04\n      dup3\n      add\n        /* \"#utility.yul\":6048:6069   */\n      mstore\n        /* \"#utility.yul\":6105:6107   */\n      0x0f\n        /* \"#utility.yul\":6085:6103   */\n      0x24\n      dup3\n      add\n        /* \"#utility.yul\":6078:6108   */\n      mstore\n      shl(0x89, 0x2737ba103a37b5b2b71037bbb732b9)\n        /* \"#utility.yul\":6124:6142   */\n      0x44\n      dup3\n      add\n        /* \"#utility.yul\":6117:6162   */\n      mstore\n        /* \"#utility.yul\":6179:6197   */\n      0x64\n      add\n        /* \"BurnManger.sol\":2545:2570  revert(\"Not token owner\") */\n      tag_26\n        /* \"#utility.yul\":5864:6203   */\n      jump\n        /* \"BurnManger.sol\":2504:2570  if (nft.ownerOf(updateId) != msg.sender) revert(\"Not token owner\") */\n    tag_224:\n        /* \"BurnManger.sol\":2585:2603  isBurned[updateId] */\n      0xffffffff\n      dup4\n      and\n      0x00\n      swap1\n      dup2\n      mstore\n        /* \"BurnManger.sol\":2585:2593  isBurned */\n      0x05\n        /* \"BurnManger.sol\":2585:2603  isBurned[updateId] */\n      0x20\n      mstore\n      0x40\n      swap1\n      keccak256\n      sload\n      0xff\n      and\n        /* \"BurnManger.sol\":2581:2635  if (isBurned[updateId]) revert(\"Token already burned\") */\n      iszero\n      tag_227\n      jumpi\n        /* \"BurnManger.sol\":2605:2635  revert(\"Token already burned\") */\n      mload(0x40)\n      shl(0xe5, 0x461bcd)\n      dup2\n      mstore\n        /* \"#utility.yul\":6410:6412   */\n      0x20\n        /* \"BurnManger.sol\":2605:2635  revert(\"Token already burned\") */\n      0x04\n      dup3\n      add\n        /* \"#utility.yul\":6392:6413   */\n      mstore\n        /* \"#utility.yul\":6449:6451   */\n      0x14\n        /* \"#utility.yul\":6429:6447   */\n      0x24\n      dup3\n      add\n        /* \"#utility.yul\":6422:6452   */\n      mstore\n      shl(0x62, 0x151bdad95b88185b1c9958591e48189d5c9b9959)\n        /* \"#utility.yul\":6468:6486   */\n      0x44\n      dup3\n      add\n        /* \"#utility.yul\":6461:6511   */\n      mstore\n        /* \"#utility.yul\":6528:6546   */\n      0x64\n      add\n        /* \"BurnManger.sol\":2605:2635  revert(\"Token already burned\") */\n      tag_26\n        /* \"#utility.yul\":6208:6552   */\n      jump\n        /* \"BurnManger.sol\":2581:2635  if (isBurned[updateId]) revert(\"Token already burned\") */\n    tag_227:\n        /* \"BurnManger.sol\":2650:2669  isUpdated[updateId] */\n      0xffffffff\n      dup4\n      and\n      0x00\n      swap1\n      dup2\n      mstore\n        /* \"BurnManger.sol\":2650:2659  isUpdated */\n      0x06\n        /* \"BurnManger.sol\":2650:2669  isUpdated[updateId] */\n      0x20\n      mstore\n      0x40\n      swap1\n      keccak256\n      sload\n      0xff\n      and\n        /* \"BurnManger.sol\":2646:2702  if (isUpdated[updateId]) revert(\"Token already updated\") */\n      iszero\n      tag_230\n      jumpi\n        /* \"BurnManger.sol\":2671:2702  revert(\"Token already updated\") */\n      mload(0x40)\n      shl(0xe5, 0x461bcd)\n      dup2\n      mstore\n        /* \"#utility.yul\":6759:6761   */\n      0x20\n        /* \"BurnManger.sol\":2671:2702  revert(\"Token already updated\") */\n      0x04\n      dup3\n      add\n        /* \"#utility.yul\":6741:6762   */\n      mstore\n        /* \"#utility.yul\":6798:6800   */\n      0x15\n        /* \"#utility.yul\":6778:6796   */\n      0x24\n      dup3\n      add\n        /* \"#utility.yul\":6771:6801   */\n      mstore\n      shl(0x5a, 0x151bdad95b88185b1c9958591e481d5c19185d1959)\n        /* \"#utility.yul\":6817:6835   */\n      0x44\n      dup3\n      add\n        /* \"#utility.yul\":6810:6861   */\n      mstore\n        /* \"#utility.yul\":6878:6896   */\n      0x64\n      add\n        /* \"BurnManger.sol\":2671:2702  revert(\"Token already updated\") */\n      tag_26\n        /* \"#utility.yul\":6557:6902   */\n      jump\n        /* \"BurnManger.sol\":2646:2702  if (isUpdated[updateId]) revert(\"Token already updated\") */\n    tag_230:\n        /* \"BurnManger.sol\":2720:2728  uint32 i */\n      0x00\n        /* \"BurnManger.sol\":2715:3041  for (uint32 i = 0; i < tokenCount; i++) {... */\n    tag_233:\n        /* \"BurnManger.sol\":2738:2748  tokenCount */\n      dup3\n        /* \"BurnManger.sol\":2734:2748  i < tokenCount */\n      0xffffffff\n      and\n        /* \"BurnManger.sol\":2734:2735  i */\n      dup2\n        /* \"BurnManger.sol\":2734:2748  i < tokenCount */\n      0xffffffff\n      and\n      lt\n        /* \"BurnManger.sol\":2715:3041  for (uint32 i = 0; i < tokenCount; i++) {... */\n      iszero\n      tag_234\n      jumpi\n        /* \"BurnManger.sol\":2770:2784  uint32 tokenId */\n      0x00\n        /* \"BurnManger.sol\":2787:2795  tokenIds */\n      dup7\n      dup7\n        /* \"BurnManger.sol\":2796:2797  i */\n      dup4\n        /* \"BurnManger.sol\":2787:2798  tokenIds[i] */\n      0xffffffff\n      and\n      dup2\n      dup2\n      lt\n      tag_237\n      jumpi\n      tag_237\n      tag_238\n      jump\t// in\n    tag_237:\n      swap1\n      pop\n      0x20\n      mul\n      add\n      0x20\n      dup2\n      add\n      swap1\n      tag_239\n      swap2\n      swap1\n      tag_36\n      jump\t// in\n    tag_239:\n        /* \"BurnManger.sol\":2770:2798  uint32 tokenId = tokenIds[i] */\n      swap1\n      pop\n        /* \"BurnManger.sol\":2828:2836  updateId */\n      dup5\n        /* \"BurnManger.sol\":2817:2836  tokenId == updateId */\n      0xffffffff\n      and\n        /* \"BurnManger.sol\":2817:2824  tokenId */\n      dup2\n        /* \"BurnManger.sol\":2817:2836  tokenId == updateId */\n      0xffffffff\n      and\n      sub\n        /* \"BurnManger.sol\":2813:2881  if (tokenId == updateId) revert(\"updateId cannot be among tokenIds\") */\n      tag_240\n      jumpi\n        /* \"BurnManger.sol\":2838:2881  revert(\"updateId cannot be among tokenIds\") */\n      mload(0x40)\n      shl(0xe5, 0x461bcd)\n      dup2\n      mstore\n        /* \"#utility.yul\":7241:7243   */\n      0x20\n        /* \"BurnManger.sol\":2838:2881  revert(\"updateId cannot be among tokenIds\") */\n      0x04\n      dup3\n      add\n        /* \"#utility.yul\":7223:7244   */\n      mstore\n        /* \"#utility.yul\":7280:7282   */\n      0x21\n        /* \"#utility.yul\":7260:7278   */\n      0x24\n      dup3\n      add\n        /* \"#utility.yul\":7253:7283   */\n      mstore\n        /* \"#utility.yul\":7319:7353   */\n      0x75706461746549642063616e6e6f7420626520616d6f6e6720746f6b656e4964\n        /* \"#utility.yul\":7299:7317   */\n      0x44\n      dup3\n      add\n        /* \"#utility.yul\":7292:7354   */\n      mstore\n      shl(0xf8, 0x73)\n        /* \"#utility.yul\":7370:7388   */\n      0x64\n      dup3\n      add\n        /* \"#utility.yul\":7363:7394   */\n      mstore\n        /* \"#utility.yul\":7411:7430   */\n      0x84\n      add\n        /* \"BurnManger.sol\":2838:2881  revert(\"updateId cannot be among tokenIds\") */\n      tag_26\n        /* \"#utility.yul\":7039:7436   */\n      jump\n        /* \"BurnManger.sol\":2813:2881  if (tokenId == updateId) revert(\"updateId cannot be among tokenIds\") */\n    tag_240:\n        /* \"BurnManger.sol\":2900:2917  isBurned[tokenId] */\n      0xffffffff\n      dup2\n      and\n      0x00\n      swap1\n      dup2\n      mstore\n        /* \"BurnManger.sol\":2900:2908  isBurned */\n      0x05\n        /* \"BurnManger.sol\":2900:2917  isBurned[tokenId] */\n      0x20\n      mstore\n      0x40\n      swap1\n      keccak256\n      sload\n      0xff\n      and\n        /* \"BurnManger.sol\":2896:2949  if (isBurned[tokenId]) revert(\"Token already burned\") */\n      iszero\n      tag_243\n      jumpi\n        /* \"BurnManger.sol\":2919:2949  revert(\"Token already burned\") */\n      mload(0x40)\n      shl(0xe5, 0x461bcd)\n      dup2\n      mstore\n        /* \"#utility.yul\":6410:6412   */\n      0x20\n        /* \"BurnManger.sol\":2919:2949  revert(\"Token already burned\") */\n      0x04\n      dup3\n      add\n        /* \"#utility.yul\":6392:6413   */\n      mstore\n        /* \"#utility.yul\":6449:6451   */\n      0x14\n        /* \"#utility.yul\":6429:6447   */\n      0x24\n      dup3\n      add\n        /* \"#utility.yul\":6422:6452   */\n      mstore\n      shl(0x62, 0x151bdad95b88185b1c9958591e48189d5c9b9959)\n        /* \"#utility.yul\":6468:6486   */\n      0x44\n      dup3\n      add\n        /* \"#utility.yul\":6461:6511   */\n      mstore\n        /* \"#utility.yul\":6528:6546   */\n      0x64\n      add\n        /* \"BurnManger.sol\":2919:2949  revert(\"Token already burned\") */\n      tag_26\n        /* \"#utility.yul\":6208:6552   */\n      jump\n        /* \"BurnManger.sol\":2896:2949  if (isBurned[tokenId]) revert(\"Token already burned\") */\n    tag_243:\n        /* \"BurnManger.sol\":2968:2988  nft.ownerOf(tokenId) */\n      mload(0x40)\n      shl(0xe1, 0x31a9108f)\n      dup2\n      mstore\n        /* \"#utility.yul\":5585:5595   */\n      0xffffffff\n        /* \"#utility.yul\":5573:5596   */\n      dup3\n      and\n        /* \"BurnManger.sol\":2968:2988  nft.ownerOf(tokenId) */\n      0x04\n      dup3\n      add\n        /* \"#utility.yul\":5555:5597   */\n      mstore\n        /* \"BurnManger.sol\":2992:3002  msg.sender */\n      caller\n      swap1\n      sub(shl(0xa0, 0x01), 0x01)\n        /* \"BurnManger.sol\":2968:2979  nft.ownerOf */\n      dup6\n      and\n      swap1\n      0x6352211e\n      swap1\n        /* \"#utility.yul\":5528:5546   */\n      0x24\n      add\n        /* \"BurnManger.sol\":2968:2988  nft.ownerOf(tokenId) */\n      0x20\n      mload(0x40)\n      dup1\n      dup4\n      sub\n      dup2\n      dup7\n      gas\n      staticcall\n      iszero\n      dup1\n      iszero\n      tag_247\n      jumpi\n      returndatacopy(0x00, 0x00, returndatasize)\n      revert(0x00, returndatasize)\n    tag_247:\n      pop\n      pop\n      pop\n      pop\n      mload(0x40)\n      returndatasize\n      not(0x1f)\n      0x1f\n      dup3\n      add\n      and\n      dup3\n      add\n      dup1\n      0x40\n      mstore\n      pop\n      dup2\n      add\n      swap1\n      tag_248\n      swap2\n      swap1\n      tag_223\n      jump\t// in\n    tag_248:\n      sub(shl(0xa0, 0x01), 0x01)\n        /* \"BurnManger.sol\":2968:3002  nft.ownerOf(tokenId) != msg.sender */\n      and\n      eq\n        /* \"BurnManger.sol\":2964:3029  if (nft.ownerOf(tokenId) != msg.sender) revert(\"Not token owner\") */\n      tag_249\n      jumpi\n        /* \"BurnManger.sol\":3004:3029  revert(\"Not token owner\") */\n      mload(0x40)\n      shl(0xe5, 0x461bcd)\n      dup2\n      mstore\n        /* \"#utility.yul\":6066:6068   */\n      0x20\n        /* \"BurnManger.sol\":3004:3029  revert(\"Not token owner\") */\n      0x04\n      dup3\n      add\n        /* \"#utility.yul\":6048:6069   */\n      mstore\n        /* \"#utility.yul\":6105:6107   */\n      0x0f\n        /* \"#utility.yul\":6085:6103   */\n      0x24\n      dup3\n      add\n        /* \"#utility.yul\":6078:6108   */\n      mstore\n      shl(0x89, 0x2737ba103a37b5b2b71037bbb732b9)\n        /* \"#utility.yul\":6124:6142   */\n      0x44\n      dup3\n      add\n        /* \"#utility.yul\":6117:6162   */\n      mstore\n        /* \"#utility.yul\":6179:6197   */\n      0x64\n      add\n        /* \"BurnManger.sol\":3004:3029  revert(\"Not token owner\") */\n      tag_26\n        /* \"#utility.yul\":5864:6203   */\n      jump\n        /* \"BurnManger.sol\":2964:3029  if (nft.ownerOf(tokenId) != msg.sender) revert(\"Not token owner\") */\n    tag_249:\n      pop\n        /* \"BurnManger.sol\":2750:2753  i++ */\n      0x01\n      add\n        /* \"BurnManger.sol\":2715:3041  for (uint32 i = 0; i < tokenCount; i++) {... */\n      jump(tag_233)\n    tag_234:\n      pop\n        /* \"BurnManger.sol\":2165:3048  {... */\n      pop\n      pop\n        /* \"BurnManger.sol\":2083:3048  function _validateInput(uint32[] calldata tokenIds, uint32 updateId) private view {... */\n      pop\n      pop\n      pop\n      jump\t// out\n        /* \"BurnManger.sol\":3056:3491  function _processBurn(uint32[] calldata tokenIds, uint32 updateId) private {... */\n    tag_136:\n        /* \"BurnManger.sol\":3205:3224  isUpdated[updateId] */\n      0xffffffff\n      dup2\n      and\n        /* \"BurnManger.sol\":3142:3161  IERC721Burnable nft */\n      0x00\n        /* \"BurnManger.sol\":3205:3224  isUpdated[updateId] */\n      swap1\n      dup2\n      mstore\n        /* \"BurnManger.sol\":3205:3214  isUpdated */\n      0x06\n        /* \"BurnManger.sol\":3205:3224  isUpdated[updateId] */\n      0x20\n      mstore\n      0x40\n      dup2\n      keccak256\n        /* \"BurnManger.sol\":3205:3231  isUpdated[updateId] = true */\n      dup1\n      sload\n      not(0xff)\n      and\n        /* \"BurnManger.sol\":3227:3231  true */\n      0x01\n        /* \"BurnManger.sol\":3205:3231  isUpdated[updateId] = true */\n      or\n      swap1\n      sstore\n        /* \"BurnManger.sol\":3180:3191  nftContract */\n      immutable(\"0x3ed49036aa79101305a3bfa1070275a6dbad22810edfdc0e3caad458e4a9b16b\")\n      swap1\n        /* \"BurnManger.sol\":3242:3413  for (uint32 i = 0; i < tokenIds.length; i++) {... */\n    tag_252:\n        /* \"BurnManger.sol\":3261:3280  i < tokenIds.length */\n      0xffffffff\n      dup2\n      and\n      dup5\n      gt\n        /* \"BurnManger.sol\":3242:3413  for (uint32 i = 0; i < tokenIds.length; i++) {... */\n      iszero\n      tag_253\n      jumpi\n        /* \"BurnManger.sol\":3302:3316  uint32 tokenId */\n      0x00\n        /* \"BurnManger.sol\":3319:3327  tokenIds */\n      dup6\n      dup6\n        /* \"BurnManger.sol\":3328:3329  i */\n      dup4\n        /* \"BurnManger.sol\":3319:3330  tokenIds[i] */\n      0xffffffff\n      and\n      dup2\n      dup2\n      lt\n      tag_256\n      jumpi\n      tag_256\n      tag_238\n      jump\t// in\n    tag_256:\n      swap1\n      pop\n      0x20\n      mul\n      add\n      0x20\n      dup2\n      add\n      swap1\n      tag_257\n      swap2\n      swap1\n      tag_36\n      jump\t// in\n    tag_257:\n        /* \"BurnManger.sol\":3345:3362  isBurned[tokenId] */\n      0xffffffff\n      dup2\n      and\n      0x00\n      dup2\n      dup2\n      mstore\n        /* \"BurnManger.sol\":3345:3353  isBurned */\n      0x05\n        /* \"BurnManger.sol\":3345:3362  isBurned[tokenId] */\n      0x20\n      mstore\n      0x40\n      swap1\n      dup2\n      swap1\n      keccak256\n        /* \"BurnManger.sol\":3345:3369  isBurned[tokenId] = true */\n      dup1\n      sload\n      not(0xff)\n      and\n        /* \"BurnManger.sol\":3365:3369  true */\n      0x01\n        /* \"BurnManger.sol\":3345:3369  isBurned[tokenId] = true */\n      or\n      swap1\n      sstore\n        /* \"BurnManger.sol\":3384:3401  nft.burn(tokenId) */\n      mload\n      shl(0xe3, 0x0852cd8d)\n      dup2\n      mstore\n      0x04\n      dup2\n      add\n        /* \"#utility.yul\":5555:5597   */\n      swap2\n      swap1\n      swap2\n      mstore\n        /* \"BurnManger.sol\":3345:3362  isBurned[tokenId] */\n      swap1\n      swap2\n      pop\n      sub(shl(0xa0, 0x01), 0x01)\n        /* \"BurnManger.sol\":3384:3392  nft.burn */\n      dup5\n      and\n      swap1\n      0x42966c68\n      swap1\n        /* \"#utility.yul\":5528:5546   */\n      0x24\n      add\n        /* \"BurnManger.sol\":3384:3401  nft.burn(tokenId) */\n      0x00\n      mload(0x40)\n      dup1\n      dup4\n      sub\n      dup2\n      0x00\n      dup8\n      dup1\n      extcodesize\n      iszero\n      dup1\n      iszero\n      tag_259\n      jumpi\n      revert(0x00, 0x00)\n    tag_259:\n      pop\n      gas\n      call\n      iszero\n      dup1\n      iszero\n      tag_261\n      jumpi\n      returndatacopy(0x00, 0x00, returndatasize)\n      revert(0x00, returndatasize)\n    tag_261:\n      pop\n      pop\n      pop\n      pop\n        /* \"BurnManger.sol\":3287:3413  {... */\n      pop\n        /* \"BurnManger.sol\":3282:3285  i++ */\n      dup1\n      dup1\n      tag_262\n      swap1\n      tag_263\n      jump\t// in\n    tag_262:\n      swap2\n      pop\n      pop\n        /* \"BurnManger.sol\":3242:3413  for (uint32 i = 0; i < tokenIds.length; i++) {... */\n      jump(tag_252)\n    tag_253:\n      pop\n        /* \"BurnManger.sol\":3474:3482  updateId */\n      dup2\n        /* \"BurnManger.sol\":3430:3483  TokensBurned(msg.sender, tokenIds, burnFee, updateId) */\n      0xffffffff\n      and\n        /* \"BurnManger.sol\":3443:3453  msg.sender */\n      caller\n      sub(shl(0xa0, 0x01), 0x01)\n        /* \"BurnManger.sol\":3430:3483  TokensBurned(msg.sender, tokenIds, burnFee, updateId) */\n      and\n      0x26ccc16f7fcb4f9c2582bcba8e2aa8bfc16139ad280d11913ccfb99777825ee0\n        /* \"BurnManger.sol\":3455:3463  tokenIds */\n      dup7\n      dup7\n        /* \"BurnManger.sol\":3465:3472  burnFee */\n      sload(0x03)\n        /* \"BurnManger.sol\":3430:3483  TokensBurned(msg.sender, tokenIds, burnFee, updateId) */\n      mload(0x40)\n      tag_264\n      swap4\n      swap3\n      swap2\n      swap1\n      tag_265\n      jump\t// in\n    tag_264:\n      mload(0x40)\n      dup1\n      swap2\n      sub\n      swap1\n      log3\n        /* \"BurnManger.sol\":3131:3491  {... */\n      pop\n        /* \"BurnManger.sol\":3056:3491  function _processBurn(uint32[] calldata tokenIds, uint32 updateId) private {... */\n      pop\n      pop\n      pop\n      jump\t// out\n        /* \"BurnManger.sol\":3499:3754  function _refundExcess() private {... */\n    tag_138:\n        /* \"BurnManger.sol\":3543:3557  uint256 excess */\n      0x00\n        /* \"BurnManger.sol\":3572:3579  burnFee */\n      sload(0x03)\n        /* \"BurnManger.sol\":3560:3569  msg.value */\n      callvalue\n        /* \"BurnManger.sol\":3560:3579  msg.value - burnFee */\n      tag_267\n      swap2\n      swap1\n      tag_268\n      jump\t// in\n    tag_267:\n        /* \"BurnManger.sol\":3543:3579  uint256 excess = msg.value - burnFee */\n      swap1\n      pop\n        /* \"BurnManger.sol\":3594:3604  excess > 0 */\n      dup1\n      iszero\n        /* \"BurnManger.sol\":3590:3747  if (excess > 0) {... */\n      tag_168\n      jumpi\n        /* \"BurnManger.sol\":3640:3683  payable(msg.sender).call{value: excess}(\"\") */\n      mload(0x40)\n        /* \"BurnManger.sol\":3622:3634  bool success */\n      0x00\n      swap1\n        /* \"BurnManger.sol\":3648:3658  msg.sender */\n      caller\n      swap1\n        /* \"BurnManger.sol\":3672:3678  excess */\n      dup4\n      swap1\n        /* \"BurnManger.sol\":3622:3634  bool success */\n      dup4\n        /* \"BurnManger.sol\":3640:3683  payable(msg.sender).call{value: excess}(\"\") */\n      dup2\n        /* \"BurnManger.sol\":3622:3634  bool success */\n      dup2\n        /* \"BurnManger.sol\":3640:3683  payable(msg.sender).call{value: excess}(\"\") */\n      dup2\n        /* \"BurnManger.sol\":3672:3678  excess */\n      dup6\n        /* \"BurnManger.sol\":3648:3658  msg.sender */\n      dup8\n        /* \"BurnManger.sol\":3640:3683  payable(msg.sender).call{value: excess}(\"\") */\n      gas\n      call\n      swap3\n      pop\n      pop\n      pop\n      returndatasize\n      dup1\n      0x00\n      dup2\n      eq\n      tag_274\n      jumpi\n      mload(0x40)\n      swap2\n      pop\n      and(add(returndatasize, 0x3f), not(0x1f))\n      dup3\n      add\n      0x40\n      mstore\n      returndatasize\n      dup3\n      mstore\n      returndatasize\n      0x00\n      0x20\n      dup5\n      add\n      returndatacopy\n      jump(tag_273)\n    tag_274:\n      0x60\n      swap2\n      pop\n    tag_273:\n      pop\n        /* \"BurnManger.sol\":3621:3683  (bool success, ) = payable(msg.sender).call{value: excess}(\"\") */\n      pop\n      swap1\n      pop\n        /* \"BurnManger.sol\":3703:3710  success */\n      dup1\n        /* \"BurnManger.sol\":3698:3735  if (!success) revert(\"Refund failed\") */\n      tag_275\n      jumpi\n        /* \"BurnManger.sol\":3712:3735  revert(\"Refund failed\") */\n      mload(0x40)\n      shl(0xe5, 0x461bcd)\n      dup2\n      mstore\n        /* \"#utility.yul\":8996:8998   */\n      0x20\n        /* \"BurnManger.sol\":3712:3735  revert(\"Refund failed\") */\n      0x04\n      dup3\n      add\n        /* \"#utility.yul\":8978:8999   */\n      mstore\n        /* \"#utility.yul\":9035:9037   */\n      0x0d\n        /* \"#utility.yul\":9015:9033   */\n      0x24\n      dup3\n      add\n        /* \"#utility.yul\":9008:9038   */\n      mstore\n      shl(0x9a, 0x1499599d5b990819985a5b1959)\n        /* \"#utility.yul\":9054:9072   */\n      0x44\n      dup3\n      add\n        /* \"#utility.yul\":9047:9090   */\n      mstore\n        /* \"#utility.yul\":9107:9125   */\n      0x64\n      add\n        /* \"BurnManger.sol\":3712:3735  revert(\"Refund failed\") */\n      tag_26\n        /* \"#utility.yul\":8794:9131   */\n      jump\n        /* \"BurnManger.sol\":3698:3735  if (!success) revert(\"Refund failed\") */\n    tag_275:\n        /* \"BurnManger.sol\":3606:3747  {... */\n      pop\n        /* \"BurnManger.sol\":3532:3754  {... */\n      pop\n        /* \"BurnManger.sol\":3499:3754  function _refundExcess() private {... */\n      jump\t// out\n        /* \"@openzeppelin/contracts/access/Ownable.sol\":2912:3099  function _transferOwnership(address newOwner) internal virtual {... */\n    tag_154:\n        /* \"@openzeppelin/contracts/access/Ownable.sol\":2985:3001  address oldOwner */\n      0x00\n        /* \"@openzeppelin/contracts/access/Ownable.sol\":3004:3010  _owner */\n      dup1\n      sload\n      sub(shl(0xa0, 0x01), 0x01)\n        /* \"@openzeppelin/contracts/access/Ownable.sol\":3020:3037  _owner = newOwner */\n      dup4\n      dup2\n      and\n      not(sub(shl(0xa0, 0x01), 0x01))\n      dup4\n      and\n      dup2\n      or\n      dup5\n      sstore\n        /* \"@openzeppelin/contracts/access/Ownable.sol\":3052:3092  OwnershipTransferred(oldOwner, newOwner) */\n      mload(0x40)\n        /* \"@openzeppelin/contracts/access/Ownable.sol\":3004:3010  _owner */\n      swap2\n      swap1\n      swap3\n      and\n      swap3\n      dup4\n      swap2\n        /* \"@openzeppelin/contracts/access/Ownable.sol\":3052:3092  OwnershipTransferred(oldOwner, newOwner) */\n      0x8be0079c531659141344cd1fd0a4f28419497f9722a3daafe3b4186f6b6457e0\n      swap2\n        /* \"@openzeppelin/contracts/access/Ownable.sol\":2985:3001  address oldOwner */\n      swap1\n        /* \"@openzeppelin/contracts/access/Ownable.sol\":3052:3092  OwnershipTransferred(oldOwner, newOwner) */\n      log3\n        /* \"@openzeppelin/contracts/access/Ownable.sol\":2975:3099  {... */\n      pop\n        /* \"@openzeppelin/contracts/access/Ownable.sol\":2912:3099  function _transferOwnership(address newOwner) internal virtual {... */\n      pop\n      jump\t// out\n        /* \"@openzeppelin/contracts/security/Pausable.sol\":2186:2301  function _pause() internal virtual whenNotPaused {... */\n    tag_159:\n        /* \"@openzeppelin/contracts/security/Pausable.sol\":1239:1258  _requireNotPaused() */\n      tag_281\n        /* \"@openzeppelin/contracts/security/Pausable.sol\":1239:1256  _requireNotPaused */\n      tag_131\n        /* \"@openzeppelin/contracts/security/Pausable.sol\":1239:1258  _requireNotPaused() */\n      jump\t// in\n    tag_281:\n        /* \"@openzeppelin/contracts/security/Pausable.sol\":2245:2252  _paused */\n      0x02\n        /* \"@openzeppelin/contracts/security/Pausable.sol\":2245:2259  _paused = true */\n      dup1\n      sload\n      not(0xff)\n      and\n        /* \"@openzeppelin/contracts/security/Pausable.sol\":2255:2259  true */\n      0x01\n        /* \"@openzeppelin/contracts/security/Pausable.sol\":2245:2259  _paused = true */\n      or\n      swap1\n      sstore\n        /* \"@openzeppelin/contracts/security/Pausable.sol\":2274:2294  Paused(_msgSender()) */\n      0x62e78cea01bee320cd4e420270b5ea74000d11b0c9f74754ebdbfc544b05a258\n        /* \"@openzeppelin/contracts/security/Pausable.sol\":2281:2293  _msgSender() */\n      tag_197\n        /* \"@openzeppelin/contracts/utils/Context.sol\":735:745  msg.sender */\n      caller\n      swap1\n        /* \"@openzeppelin/contracts/utils/Context.sol\":656:752  function _msgSender() internal view virtual returns (address) {... */\n      jump\n        /* \"@openzeppelin/contracts/utils/Address.sol\":1290:1655  function sendValue(address payable recipient, uint256 amount) internal {... */\n    tag_189:\n        /* \"@openzeppelin/contracts/utils/Address.sol\":1399:1405  amount */\n      dup1\n        /* \"@openzeppelin/contracts/utils/Address.sol\":1375:1396  address(this).balance */\n      selfbalance\n        /* \"@openzeppelin/contracts/utils/Address.sol\":1375:1405  address(this).balance < amount */\n      lt\n        /* \"@openzeppelin/contracts/utils/Address.sol\":1371:1496  if (address(this).balance < amount) {... */\n      iszero\n      tag_287\n      jumpi\n        /* \"@openzeppelin/contracts/utils/Address.sol\":1428:1485  Errors.InsufficientBalance(address(this).balance, amount) */\n      mload(0x40)\n      shl(0xe0, 0xcf479181)\n      dup2\n      mstore\n        /* \"@openzeppelin/contracts/utils/Address.sol\":1455:1476  address(this).balance */\n      selfbalance\n        /* \"@openzeppelin/contracts/utils/Address.sol\":1428:1485  Errors.InsufficientBalance(address(this).balance, amount) */\n      0x04\n      dup3\n      add\n        /* \"#utility.yul\":3571:3596   */\n      mstore\n        /* \"#utility.yul\":3612:3630   */\n      0x24\n      dup2\n      add\n        /* \"#utility.yul\":3605:3639   */\n      dup3\n      swap1\n      mstore\n        /* \"#utility.yul\":3544:3562   */\n      0x44\n      add\n        /* \"@openzeppelin/contracts/utils/Address.sol\":1428:1485  Errors.InsufficientBalance(address(this).balance, amount) */\n      tag_26\n        /* \"#utility.yul\":3397:3645   */\n      jump\n        /* \"@openzeppelin/contracts/utils/Address.sol\":1371:1496  if (address(this).balance < amount) {... */\n    tag_287:\n        /* \"@openzeppelin/contracts/utils/Address.sol\":1507:1519  bool success */\n      0x00\n        /* \"@openzeppelin/contracts/utils/Address.sol\":1521:1544  bytes memory returndata */\n      0x00\n        /* \"@openzeppelin/contracts/utils/Address.sol\":1548:1557  recipient */\n      dup4\n      sub(shl(0xa0, 0x01), 0x01)\n        /* \"@openzeppelin/contracts/utils/Address.sol\":1548:1562  recipient.call */\n      and\n        /* \"@openzeppelin/contracts/utils/Address.sol\":1570:1576  amount */\n      dup4\n        /* \"@openzeppelin/contracts/utils/Address.sol\":1548:1581  recipient.call{value: amount}(\"\") */\n      mload(0x40)\n      0x00\n      mload(0x40)\n      dup1\n      dup4\n      sub\n      dup2\n      dup6\n      dup8\n      gas\n      call\n      swap3\n      pop\n      pop\n      pop\n      returndatasize\n      dup1\n      0x00\n      dup2\n      eq\n      tag_292\n      jumpi\n      mload(0x40)\n      swap2\n      pop\n      and(add(returndatasize, 0x3f), not(0x1f))\n      dup3\n      add\n      0x40\n      mstore\n      returndatasize\n      dup3\n      mstore\n      returndatasize\n      0x00\n      0x20\n      dup5\n      add\n      returndatacopy\n      jump(tag_291)\n    tag_292:\n      0x60\n      swap2\n      pop\n    tag_291:\n      pop\n        /* \"@openzeppelin/contracts/utils/Address.sol\":1506:1581  (bool success, bytes memory returndata) = recipient.call{value: amount}(\"\") */\n      swap2\n      pop\n      swap2\n      pop\n        /* \"@openzeppelin/contracts/utils/Address.sol\":1596:1603  success */\n      dup2\n        /* \"@openzeppelin/contracts/utils/Address.sol\":1591:1649  if (!success) {... */\n      tag_294\n      jumpi\n        /* \"@openzeppelin/contracts/utils/Address.sol\":1619:1638  _revert(returndata) */\n      tag_294\n        /* \"@openzeppelin/contracts/utils/Address.sol\":1627:1637  returndata */\n      dup2\n        /* \"@openzeppelin/contracts/utils/Address.sol\":1619:1626  _revert */\n      tag_295\n        /* \"@openzeppelin/contracts/utils/Address.sol\":1619:1638  _revert(returndata) */\n      jump\t// in\n    tag_294:\n        /* \"@openzeppelin/contracts/utils/Address.sol\":1361:1655  {... */\n      pop\n      pop\n        /* \"@openzeppelin/contracts/utils/Address.sol\":1290:1655  function sendValue(address payable recipient, uint256 amount) internal {... */\n      pop\n      pop\n      jump\t// out\n        /* \"@openzeppelin/contracts/security/Pausable.sol\":1945:2051  function _requirePaused() internal view virtual {... */\n    tag_195:\n        /* \"@openzeppelin/contracts/security/Pausable.sol\":1685:1692  _paused */\n      and(0xff, sload(0x02))\n        /* \"@openzeppelin/contracts/security/Pausable.sol\":2003:2044  require(paused(), \"Pausable: not paused\") */\n      tag_119\n      jumpi\n      mload(0x40)\n      shl(0xe5, 0x461bcd)\n      dup2\n      mstore\n        /* \"#utility.yul\":9338:9340   */\n      0x20\n        /* \"@openzeppelin/contracts/security/Pausable.sol\":2003:2044  require(paused(), \"Pausable: not paused\") */\n      0x04\n      dup3\n      add\n        /* \"#utility.yul\":9320:9341   */\n      mstore\n        /* \"#utility.yul\":9377:9379   */\n      0x14\n        /* \"#utility.yul\":9357:9375   */\n      0x24\n      dup3\n      add\n        /* \"#utility.yul\":9350:9380   */\n      mstore\n      shl(0x62, 0x14185d5cd8589b194e881b9bdd081c185d5cd959)\n        /* \"#utility.yul\":9396:9414   */\n      0x44\n      dup3\n      add\n        /* \"#utility.yul\":9389:9439   */\n      mstore\n        /* \"#utility.yul\":9456:9474   */\n      0x64\n      add\n        /* \"@openzeppelin/contracts/security/Pausable.sol\":2003:2044  require(paused(), \"Pausable: not paused\") */\n      tag_26\n        /* \"#utility.yul\":9136:9480   */\n      jump\n        /* \"@openzeppelin/contracts/utils/Address.sol\":5559:5993  function _revert(bytes memory returndata) private pure {... */\n    tag_295:\n        /* \"@openzeppelin/contracts/utils/Address.sol\":5690:5707  returndata.length */\n      dup1\n      mload\n        /* \"@openzeppelin/contracts/utils/Address.sol\":5690:5711  returndata.length > 0 */\n      iszero\n        /* \"@openzeppelin/contracts/utils/Address.sol\":5686:5987  if (returndata.length > 0) {... */\n      tag_302\n      jumpi\n        /* \"@openzeppelin/contracts/utils/Address.sol\":5894:5904  returndata */\n      dup1\n        /* \"@openzeppelin/contracts/utils/Address.sol\":5888:5905  mload(returndata) */\n      mload\n        /* \"@openzeppelin/contracts/utils/Address.sol\":5881:5885  0x20 */\n      0x20\n        /* \"@openzeppelin/contracts/utils/Address.sol\":5869:5879  returndata */\n      dup3\n        /* \"@openzeppelin/contracts/utils/Address.sol\":5865:5886  add(returndata, 0x20) */\n      add\n        /* \"@openzeppelin/contracts/utils/Address.sol\":5858:5906  revert(add(returndata, 0x20), mload(returndata)) */\n      revert\n        /* \"@openzeppelin/contracts/utils/Address.sol\":5686:5987  if (returndata.length > 0) {... */\n    tag_302:\n        /* \"@openzeppelin/contracts/utils/Address.sol\":5957:5976  Errors.FailedCall() */\n      mload(0x40)\n      shl(0xe0, 0xd6bda275)\n      dup2\n      mstore\n      0x04\n      add\n      mload(0x40)\n      dup1\n      swap2\n      sub\n      swap1\n      revert\n        /* \"#utility.yul\":375:647   */\n    tag_31:\n        /* \"#utility.yul\":433:439   */\n      0x00\n        /* \"#utility.yul\":486:488   */\n      0x20\n        /* \"#utility.yul\":474:483   */\n      dup3\n        /* \"#utility.yul\":465:472   */\n      dup5\n        /* \"#utility.yul\":461:484   */\n      sub\n        /* \"#utility.yul\":457:489   */\n      slt\n        /* \"#utility.yul\":454:506   */\n      iszero\n      tag_310\n      jumpi\n        /* \"#utility.yul\":502:503   */\n      0x00\n        /* \"#utility.yul\":499:500   */\n      0x00\n        /* \"#utility.yul\":492:504   */\n      revert\n        /* \"#utility.yul\":454:506   */\n    tag_310:\n        /* \"#utility.yul\":541:550   */\n      dup2\n        /* \"#utility.yul\":528:551   */\n      calldataload\n        /* \"#utility.yul\":591:597   */\n      0xffff\n        /* \"#utility.yul\":584:589   */\n      dup2\n        /* \"#utility.yul\":580:598   */\n      and\n        /* \"#utility.yul\":573:578   */\n      dup2\n        /* \"#utility.yul\":570:599   */\n      eq\n        /* \"#utility.yul\":560:617   */\n      tag_311\n      jumpi\n        /* \"#utility.yul\":613:614   */\n      0x00\n        /* \"#utility.yul\":610:611   */\n      0x00\n        /* \"#utility.yul\":603:615   */\n      revert\n        /* \"#utility.yul\":560:617   */\n    tag_311:\n        /* \"#utility.yul\":636:641   */\n      swap4\n        /* \"#utility.yul\":375:647   */\n      swap3\n      pop\n      pop\n      pop\n      jump\t// out\n        /* \"#utility.yul\":652:815   */\n    tag_304:\n        /* \"#utility.yul\":719:739   */\n      dup1\n      calldataload\n        /* \"#utility.yul\":779:789   */\n      0xffffffff\n        /* \"#utility.yul\":768:790   */\n      dup2\n      and\n        /* \"#utility.yul\":758:791   */\n      dup2\n      eq\n        /* \"#utility.yul\":748:809   */\n      tag_313\n      jumpi\n        /* \"#utility.yul\":805:806   */\n      0x00\n        /* \"#utility.yul\":802:803   */\n      0x00\n        /* \"#utility.yul\":795:807   */\n      revert\n        /* \"#utility.yul\":748:809   */\n    tag_313:\n        /* \"#utility.yul\":652:815   */\n      swap2\n      swap1\n      pop\n      jump\t// out\n        /* \"#utility.yul\":820:1004   */\n    tag_36:\n        /* \"#utility.yul\":878:884   */\n      0x00\n        /* \"#utility.yul\":931:933   */\n      0x20\n        /* \"#utility.yul\":919:928   */\n      dup3\n        /* \"#utility.yul\":910:917   */\n      dup5\n        /* \"#utility.yul\":906:929   */\n      sub\n        /* \"#utility.yul\":902:934   */\n      slt\n        /* \"#utility.yul\":899:951   */\n      iszero\n      tag_315\n      jumpi\n        /* \"#utility.yul\":947:948   */\n      0x00\n        /* \"#utility.yul\":944:945   */\n      0x00\n        /* \"#utility.yul\":937:949   */\n      revert\n        /* \"#utility.yul\":899:951   */\n    tag_315:\n        /* \"#utility.yul\":970:998   */\n      tag_311\n        /* \"#utility.yul\":988:997   */\n      dup3\n        /* \"#utility.yul\":970:998   */\n      tag_304\n      jump\t// in\n        /* \"#utility.yul\":1201:1888   */\n    tag_48:\n        /* \"#utility.yul\":1294:1300   */\n      0x00\n        /* \"#utility.yul\":1302:1308   */\n      0x00\n        /* \"#utility.yul\":1310:1316   */\n      0x00\n        /* \"#utility.yul\":1363:1365   */\n      0x40\n        /* \"#utility.yul\":1351:1360   */\n      dup5\n        /* \"#utility.yul\":1342:1349   */\n      dup7\n        /* \"#utility.yul\":1338:1361   */\n      sub\n        /* \"#utility.yul\":1334:1366   */\n      slt\n        /* \"#utility.yul\":1331:1383   */\n      iszero\n      tag_319\n      jumpi\n        /* \"#utility.yul\":1379:1380   */\n      0x00\n        /* \"#utility.yul\":1376:1377   */\n      0x00\n        /* \"#utility.yul\":1369:1381   */\n      revert\n        /* \"#utility.yul\":1331:1383   */\n    tag_319:\n        /* \"#utility.yul\":1419:1428   */\n      dup4\n        /* \"#utility.yul\":1406:1429   */\n      calldataload\n        /* \"#utility.yul\":1452:1470   */\n      0xffffffffffffffff\n        /* \"#utility.yul\":1444:1450   */\n      dup2\n        /* \"#utility.yul\":1441:1471   */\n      gt\n        /* \"#utility.yul\":1438:1488   */\n      iszero\n      tag_320\n      jumpi\n        /* \"#utility.yul\":1484:1485   */\n      0x00\n        /* \"#utility.yul\":1481:1482   */\n      0x00\n        /* \"#utility.yul\":1474:1486   */\n      revert\n        /* \"#utility.yul\":1438:1488   */\n    tag_320:\n        /* \"#utility.yul\":1507:1529   */\n      dup5\n      add\n        /* \"#utility.yul\":1560:1564   */\n      0x1f\n        /* \"#utility.yul\":1552:1565   */\n      dup2\n      add\n        /* \"#utility.yul\":1548:1575   */\n      dup7\n      sgt\n        /* \"#utility.yul\":1538:1593   */\n      tag_321\n      jumpi\n        /* \"#utility.yul\":1589:1590   */\n      0x00\n        /* \"#utility.yul\":1586:1587   */\n      0x00\n        /* \"#utility.yul\":1579:1591   */\n      revert\n        /* \"#utility.yul\":1538:1593   */\n    tag_321:\n        /* \"#utility.yul\":1629:1631   */\n      dup1\n        /* \"#utility.yul\":1616:1632   */\n      calldataload\n        /* \"#utility.yul\":1655:1673   */\n      0xffffffffffffffff\n        /* \"#utility.yul\":1647:1653   */\n      dup2\n        /* \"#utility.yul\":1644:1674   */\n      gt\n        /* \"#utility.yul\":1641:1691   */\n      iszero\n      tag_322\n      jumpi\n        /* \"#utility.yul\":1687:1688   */\n      0x00\n        /* \"#utility.yul\":1684:1685   */\n      0x00\n        /* \"#utility.yul\":1677:1689   */\n      revert\n        /* \"#utility.yul\":1641:1691   */\n    tag_322:\n        /* \"#utility.yul\":1742:1749   */\n      dup7\n        /* \"#utility.yul\":1735:1739   */\n      0x20\n        /* \"#utility.yul\":1725:1731   */\n      dup3\n        /* \"#utility.yul\":1722:1723   */\n      0x05\n        /* \"#utility.yul\":1718:1732   */\n      shl\n        /* \"#utility.yul\":1714:1716   */\n      dup5\n        /* \"#utility.yul\":1710:1733   */\n      add\n        /* \"#utility.yul\":1706:1740   */\n      add\n        /* \"#utility.yul\":1703:1750   */\n      gt\n        /* \"#utility.yul\":1700:1767   */\n      iszero\n      tag_323\n      jumpi\n        /* \"#utility.yul\":1763:1764   */\n      0x00\n        /* \"#utility.yul\":1760:1761   */\n      0x00\n        /* \"#utility.yul\":1753:1765   */\n      revert\n        /* \"#utility.yul\":1700:1767   */\n    tag_323:\n        /* \"#utility.yul\":1794:1798   */\n      0x20\n        /* \"#utility.yul\":1786:1799   */\n      swap2\n      dup3\n      add\n      swap5\n      pop\n        /* \"#utility.yul\":1818:1824   */\n      swap3\n      pop\n        /* \"#utility.yul\":1843:1882   */\n      tag_324\n      swap1\n        /* \"#utility.yul\":1861:1881   */\n      dup6\n      add\n        /* \"#utility.yul\":1843:1882   */\n      tag_304\n      jump\t// in\n    tag_324:\n        /* \"#utility.yul\":1833:1882   */\n      swap1\n      pop\n        /* \"#utility.yul\":1201:1888   */\n      swap3\n      pop\n      swap3\n      pop\n      swap3\n      jump\t// out\n        /* \"#utility.yul\":2086:2266   */\n    tag_58:\n        /* \"#utility.yul\":2145:2151   */\n      0x00\n        /* \"#utility.yul\":2198:2200   */\n      0x20\n        /* \"#utility.yul\":2186:2195   */\n      dup3\n        /* \"#utility.yul\":2177:2184   */\n      dup5\n        /* \"#utility.yul\":2173:2196   */\n      sub\n        /* \"#utility.yul\":2169:2201   */\n      slt\n        /* \"#utility.yul\":2166:2218   */\n      iszero\n      tag_327\n      jumpi\n        /* \"#utility.yul\":2214:2215   */\n      0x00\n        /* \"#utility.yul\":2211:2212   */\n      0x00\n        /* \"#utility.yul\":2204:2216   */\n      revert\n        /* \"#utility.yul\":2166:2218   */\n    tag_327:\n      pop\n        /* \"#utility.yul\":2237:2260   */\n      calldataload\n      swap2\n        /* \"#utility.yul\":2086:2266   */\n      swap1\n      pop\n      jump\t// out\n        /* \"#utility.yul\":2661:2792   */\n    tag_305:\n      sub(shl(0xa0, 0x01), 0x01)\n        /* \"#utility.yul\":2736:2767   */\n      dup2\n      and\n        /* \"#utility.yul\":2726:2768   */\n      dup2\n      eq\n        /* \"#utility.yul\":2716:2786   */\n      tag_168\n      jumpi\n        /* \"#utility.yul\":2782:2783   */\n      0x00\n        /* \"#utility.yul\":2779:2780   */\n      0x00\n        /* \"#utility.yul\":2772:2784   */\n      revert\n        /* \"#utility.yul\":2797:3044   */\n    tag_104:\n        /* \"#utility.yul\":2856:2862   */\n      0x00\n        /* \"#utility.yul\":2909:2911   */\n      0x20\n        /* \"#utility.yul\":2897:2906   */\n      dup3\n        /* \"#utility.yul\":2888:2895   */\n      dup5\n        /* \"#utility.yul\":2884:2907   */\n      sub\n        /* \"#utility.yul\":2880:2912   */\n      slt\n        /* \"#utility.yul\":2877:2929   */\n      iszero\n      tag_333\n      jumpi\n        /* \"#utility.yul\":2925:2926   */\n      0x00\n        /* \"#utility.yul\":2922:2923   */\n      0x00\n        /* \"#utility.yul\":2915:2927   */\n      revert\n        /* \"#utility.yul\":2877:2929   */\n    tag_333:\n        /* \"#utility.yul\":2964:2973   */\n      dup2\n        /* \"#utility.yul\":2951:2974   */\n      calldataload\n        /* \"#utility.yul\":2983:3014   */\n      tag_311\n        /* \"#utility.yul\":3008:3013   */\n      dup2\n        /* \"#utility.yul\":2983:3014   */\n      tag_305\n      jump\t// in\n        /* \"#utility.yul\":5608:5859   */\n    tag_223:\n        /* \"#utility.yul\":5678:5684   */\n      0x00\n        /* \"#utility.yul\":5731:5733   */\n      0x20\n        /* \"#utility.yul\":5719:5728   */\n      dup3\n        /* \"#utility.yul\":5710:5717   */\n      dup5\n        /* \"#utility.yul\":5706:5729   */\n      sub\n        /* \"#utility.yul\":5702:5734   */\n      slt\n        /* \"#utility.yul\":5699:5751   */\n      iszero\n      tag_344\n      jumpi\n        /* \"#utility.yul\":5747:5748   */\n      0x00\n        /* \"#utility.yul\":5744:5745   */\n      0x00\n        /* \"#utility.yul\":5737:5749   */\n      revert\n        /* \"#utility.yul\":5699:5751   */\n    tag_344:\n        /* \"#utility.yul\":5779:5788   */\n      dup2\n        /* \"#utility.yul\":5773:5789   */\n      mload\n        /* \"#utility.yul\":5798:5829   */\n      tag_311\n        /* \"#utility.yul\":5823:5828   */\n      dup2\n        /* \"#utility.yul\":5798:5829   */\n      tag_305\n      jump\t// in\n        /* \"#utility.yul\":6907:7034   */\n    tag_238:\n        /* \"#utility.yul\":6968:6978   */\n      0x4e487b71\n        /* \"#utility.yul\":6963:6966   */\n      0xe0\n        /* \"#utility.yul\":6959:6979   */\n      shl\n        /* \"#utility.yul\":6956:6957   */\n      0x00\n        /* \"#utility.yul\":6949:6980   */\n      mstore\n        /* \"#utility.yul\":6999:7003   */\n      0x32\n        /* \"#utility.yul\":6996:6997   */\n      0x04\n        /* \"#utility.yul\":6989:7004   */\n      mstore\n        /* \"#utility.yul\":7023:7027   */\n      0x24\n        /* \"#utility.yul\":7020:7021   */\n      0x00\n        /* \"#utility.yul\":7013:7028   */\n      revert\n        /* \"#utility.yul\":7441:7568   */\n    tag_306:\n        /* \"#utility.yul\":7502:7512   */\n      0x4e487b71\n        /* \"#utility.yul\":7497:7500   */\n      0xe0\n        /* \"#utility.yul\":7493:7513   */\n      shl\n        /* \"#utility.yul\":7490:7491   */\n      0x00\n        /* \"#utility.yul\":7483:7514   */\n      mstore\n        /* \"#utility.yul\":7533:7537   */\n      0x11\n        /* \"#utility.yul\":7530:7531   */\n      0x04\n        /* \"#utility.yul\":7523:7538   */\n      mstore\n        /* \"#utility.yul\":7557:7561   */\n      0x24\n        /* \"#utility.yul\":7554:7555   */\n      0x00\n        /* \"#utility.yul\":7547:7562   */\n      revert\n        /* \"#utility.yul\":7573:7761   */\n    tag_263:\n        /* \"#utility.yul\":7611:7614   */\n      0x00\n        /* \"#utility.yul\":7655:7665   */\n      0xffffffff\n        /* \"#utility.yul\":7648:7653   */\n      dup3\n        /* \"#utility.yul\":7644:7666   */\n      and\n        /* \"#utility.yul\":7690:7700   */\n      0xffffffff\n        /* \"#utility.yul\":7681:7688   */\n      dup2\n        /* \"#utility.yul\":7678:7701   */\n      sub\n        /* \"#utility.yul\":7675:7724   */\n      tag_354\n      jumpi\n        /* \"#utility.yul\":7704:7722   */\n      tag_354\n      tag_306\n      jump\t// in\n    tag_354:\n        /* \"#utility.yul\":7753:7754   */\n      0x01\n        /* \"#utility.yul\":7740:7755   */\n      add\n      swap3\n        /* \"#utility.yul\":7573:7761   */\n      swap2\n      pop\n      pop\n      jump\t// out\n        /* \"#utility.yul\":7766:8446   */\n    tag_265:\n        /* \"#utility.yul\":7992:7994   */\n      0x40\n        /* \"#utility.yul\":8004:8025   */\n      dup1\n      dup3\n      mstore\n        /* \"#utility.yul\":7977:7995   */\n      dup2\n      add\n        /* \"#utility.yul\":8060:8082   */\n      dup4\n      swap1\n      mstore\n        /* \"#utility.yul\":7944:7948   */\n      0x00\n        /* \"#utility.yul\":8139:8145   */\n      dup5\n        /* \"#utility.yul\":8113:8115   */\n      0x60\n        /* \"#utility.yul\":8098:8116   */\n      dup4\n      add\n        /* \"#utility.yul\":7944:7948   */\n      dup3\n        /* \"#utility.yul\":8173:8375   */\n    tag_356:\n        /* \"#utility.yul\":8187:8193   */\n      dup7\n        /* \"#utility.yul\":8184:8185   */\n      dup2\n        /* \"#utility.yul\":8181:8194   */\n      lt\n        /* \"#utility.yul\":8173:8375   */\n      iszero\n      tag_358\n      jumpi\n        /* \"#utility.yul\":8279:8289   */\n      0xffffffff\n        /* \"#utility.yul\":8252:8277   */\n      tag_359\n        /* \"#utility.yul\":8270:8276   */\n      dup5\n        /* \"#utility.yul\":8252:8277   */\n      tag_304\n      jump\t// in\n    tag_359:\n        /* \"#utility.yul\":8248:8290   */\n      and\n        /* \"#utility.yul\":8236:8291   */\n      dup3\n      mstore\n        /* \"#utility.yul\":8320:8324   */\n      0x20\n        /* \"#utility.yul\":8348:8365   */\n      swap3\n      dup4\n      add\n      swap3\n        /* \"#utility.yul\":8311:8325   */\n      swap1\n      swap2\n      add\n      swap1\n        /* \"#utility.yul\":8209:8210   */\n      0x01\n        /* \"#utility.yul\":8202:8211   */\n      add\n        /* \"#utility.yul\":8173:8375   */\n      jump(tag_356)\n    tag_358:\n      pop\n        /* \"#utility.yul\":8426:8430   */\n      0x20\n        /* \"#utility.yul\":8411:8431   */\n      swap4\n      swap1\n      swap4\n      add\n        /* \"#utility.yul\":8404:8440   */\n      swap4\n      swap1\n      swap4\n      mstore\n      pop\n        /* \"#utility.yul\":8392:8395   */\n      swap4\n        /* \"#utility.yul\":7766:8446   */\n      swap3\n      pop\n      pop\n      pop\n      jump\t// out\n        /* \"#utility.yul\":8451:8579   */\n    tag_268:\n        /* \"#utility.yul\":8518:8527   */\n      dup2\n      dup2\n      sub\n        /* \"#utility.yul\":8539:8550   */\n      dup2\n      dup2\n      gt\n        /* \"#utility.yul\":8536:8573   */\n      iszero\n      tag_362\n      jumpi\n        /* \"#utility.yul\":8553:8571   */\n      tag_362\n      tag_306\n      jump\t// in\n    tag_362:\n        /* \"#utility.yul\":8451:8579   */\n      swap3\n      swap2\n      pop\n      pop\n      jump\t// out\n\n    auxdata: 0xa2646970667358221220affdd975c57c432a97826f176d931698d65c25556e1a1a6ba659a23a4d42758564736f6c634300081c0033\n}\n",
				"bytecode": {
					"linkReferences": {},
					"object": "60a06040526305f5e1006003556004805461ffff1916600a179055348015610025575f5ffd5b506040516112dc3803806112dc83398101604081905261004491610108565b338061006957604051631e4fbdf760e01b81525f600482015260240160405180910390fd5b610072816100b9565b50600180556002805460ff191690556001600160a01b0381166100a8576040516307ed98ed60e31b815260040160405180910390fd5b6001600160a01b0316608052610135565b5f80546001600160a01b038381166001600160a01b0319831681178455604051919092169283917f8be0079c531659141344cd1fd0a4f28419497f9722a3daafe3b4186f6b6457e09190a35050565b5f60208284031215610118575f5ffd5b81516001600160a01b038116811461012e575f5ffd5b9392505050565b60805161118161015b5f395f81816103420152818161088b0152610bf001526111815ff3fe608060405260043610610108575f3560e01c80636f9fb98a11610092578063aa4b10d111610062578063aa4b10d1146102df578063c3d93ecd146102f3578063d4e0ed2e14610312578063d56d229d14610331578063f2fde38b14610364575f5ffd5b80636f9fb98a14610275578063715018a6146102875780638456cb591461029b5780638da5cb5b146102af575f5ffd5b806341989bef116100d857806341989bef146101db578063486a7e6b146101ee5780634bf2c7c91461021b578063576aee511461023a5780635c975abb1461025e575f5ffd5b80631deedfb51461015e5780631df8473d1461017f57806324600fc3146101b35780633f4ba83a146101c7575f5ffd5b3661015a5760405162461bcd60e51b815260206004820181905260248201527f44697265637420455448207472616e7366657273206e6f7420616c6c6f77656460448201526064015b60405180910390fd5b5f5ffd5b348015610169575f5ffd5b5061017d610178366004610f5d565b610383565b005b34801561018a575f5ffd5b5061019e610199366004610f9d565b6103ec565b60405190151581526020015b60405180910390f35b3480156101be575f5ffd5b5061017d610430565b3480156101d2575f5ffd5b5061017d610443565b61017d6101e9366004610fb6565b610453565b3480156101f9575f5ffd5b506004546102089061ffff1681565b60405161ffff90911681526020016101aa565b348015610226575f5ffd5b5061017d610235366004611035565b61048f565b348015610245575f5ffd5b50670de0b6b3a76400005b6040519081526020016101aa565b348015610269575f5ffd5b5060025460ff1661019e565b348015610280575f5ffd5b5047610250565b348015610292575f5ffd5b5061017d610505565b3480156102a6575f5ffd5b5061017d610516565b3480156102ba575f5ffd5b505f546001600160a01b03165b6040516001600160a01b0390911681526020016101aa565b3480156102ea575f5ffd5b50600354610250565b3480156102fe575f5ffd5b5061019e61030d366004610f9d565b610526565b34801561031d575f5ffd5b5061017d61032c366004611035565b61056a565b34801561033c575f5ffd5b506102c77f000000000000000000000000000000000000000000000000000000000000000081565b34801561036f575f5ffd5b5061017d61037e366004611060565b61057e565b61038b6105b8565b5f8161ffff16116103d45760405162461bcd60e51b815260206004820152601360248201527204d696e696d756d206d757374206265203e203606c1b6044820152606401610151565b6004805461ffff191661ffff92909216919091179055565b5f8163ffffffff16805f03610414576040516307ed98ed60e31b815260040160405180910390fd5b505063ffffffff165f9081526006602052604090205460ff1690565b6104386105b8565b610441476105e4565b565b61044b6105b8565b610441610690565b61045b6106e2565b61046361073b565b61046e838383610781565b610479838383610bcf565b610481610d2e565b61048a60018055565b505050565b6104976105b8565b670de0b6b3a76400008111156104c057604051632be7087760e21b815260040160405180910390fd5b600380549082905560408051828152602081018490527f78f1461296bad7bd716a7673aa3e659cc091c348a7ed4cfef7ce452c3052f2fb910160405180910390a15050565b61050d6105b8565b6104415f610dce565b61051e6105b8565b610441610e1d565b5f8163ffffffff16805f0361054e576040516307ed98ed60e31b815260040160405180910390fd5b505063ffffffff165f9081526005602052604090205460ff1690565b6105726105b8565b61057b816105e4565b50565b6105866105b8565b6001600160a01b0381166105af57604051631e4fbdf760e01b81525f6004820152602401610151565b61057b81610dce565b5f546001600160a01b031633146104415760405163118cdaa760e01b8152336004820152602401610151565b6105ec6106e2565b8015806105f857504781115b15610616576040516367e3990d60e01b815260040160405180910390fd5b61063a8161062b5f546001600160a01b031690565b6001600160a01b031690610e5a565b5f546001600160a01b03166001600160a01b03167feaff4b37086828766ad3268786972c0cd24259d4c87a80f9d3963a3c3d999b0d8260405161067f91815260200190565b60405180910390a261057b60018055565b610698610eec565b6002805460ff191690557f5db9ee0a495bf2e6ff9c91a7834c1ba4fdd244a5e8aa4e537bd38aeae4b073aa335b6040516001600160a01b03909116815260200160405180910390a1565b6002600154036107345760405162461bcd60e51b815260206004820152601f60248201527f5265656e7472616e637947756172643a207265656e7472616e742063616c6c006044820152606401610151565b6002600155565b60025460ff16156104415760405162461bcd60e51b815260206004820152601060248201526f14185d5cd8589b194e881c185d5cd95960821b6044820152606401610151565b8163ffffffff81165f036107cc5760405162461bcd60e51b8152602060048201526012602482015271139bc81d1bdad95b9cc81c1c9bdd9a59195960721b6044820152606401610151565b60045461ffff1663ffffffff8216146108275760405162461bcd60e51b815260206004820152601e60248201527f4275726e2074686520726571756972656420746f6b656e20616d6f756e7400006044820152606401610151565b6003543410156108705760405162461bcd60e51b8152602060048201526014602482015273125b9cdd59999a58da595b9d081c185e5b595b9d60621b6044820152606401610151565b6040516331a9108f60e11b815263ffffffff831660048201527f00000000000000000000000000000000000000000000000000000000000000009033906001600160a01b03831690636352211e90602401602060405180830381865afa1580156108dc573d5f5f3e3d5ffd5b505050506040513d601f19601f82011682018060405250810190610900919061107b565b6001600160a01b0316146109485760405162461bcd60e51b815260206004820152600f60248201526e2737ba103a37b5b2b71037bbb732b960891b6044820152606401610151565b63ffffffff83165f9081526005602052604090205460ff16156109a45760405162461bcd60e51b8152602060048201526014602482015273151bdad95b88185b1c9958591e48189d5c9b995960621b6044820152606401610151565b63ffffffff83165f9081526006602052604090205460ff1615610a015760405162461bcd60e51b8152602060048201526015602482015274151bdad95b88185b1c9958591e481d5c19185d1959605a1b6044820152606401610151565b5f5b8263ffffffff168163ffffffff161015610bc7575f86868363ffffffff16818110610a3057610a30611096565b9050602002016020810190610a459190610f9d565b90508463ffffffff168163ffffffff1603610aac5760405162461bcd60e51b815260206004820152602160248201527f75706461746549642063616e6e6f7420626520616d6f6e6720746f6b656e49646044820152607360f81b6064820152608401610151565b63ffffffff81165f9081526005602052604090205460ff1615610b085760405162461bcd60e51b8152602060048201526014602482015273151bdad95b88185b1c9958591e48189d5c9b995960621b6044820152606401610151565b6040516331a9108f60e11b815263ffffffff8216600482015233906001600160a01b03851690636352211e90602401602060405180830381865afa158015610b52573d5f5f3e3d5ffd5b505050506040513d601f19601f82011682018060405250810190610b76919061107b565b6001600160a01b031614610bbe5760405162461bcd60e51b815260206004820152600f60248201526e2737ba103a37b5b2b71037bbb732b960891b6044820152606401610151565b50600101610a03565b505050505050565b63ffffffff81165f908152600660205260408120805460ff191660011790557f0000000000000000000000000000000000000000000000000000000000000000905b63ffffffff8116841115610cd9575f85858363ffffffff16818110610c3857610c38611096565b9050602002016020810190610c4d9190610f9d565b63ffffffff81165f8181526005602052604090819020805460ff1916600117905551630852cd8d60e31b815260048101919091529091506001600160a01b038416906342966c68906024015f604051808303815f87803b158015610caf575f5ffd5b505af1158015610cc1573d5f5f3e3d5ffd5b50505050508080610cd1906110be565b915050610c11565b508163ffffffff16336001600160a01b03167f26ccc16f7fcb4f9c2582bcba8e2aa8bfc16139ad280d11913ccfb99777825ee08686600354604051610d20939291906110e2565b60405180910390a350505050565b5f60035434610d3d9190611132565b9050801561057b576040515f90339083908381818185875af1925050503d805f8114610d84576040519150601f19603f3d011682016040523d82523d5f602084013e610d89565b606091505b5050905080610dca5760405162461bcd60e51b815260206004820152600d60248201526c1499599d5b990819985a5b1959609a1b6044820152606401610151565b5050565b5f80546001600160a01b038381166001600160a01b0319831681178455604051919092169283917f8be0079c531659141344cd1fd0a4f28419497f9722a3daafe3b4186f6b6457e09190a35050565b610e2561073b565b6002805460ff191660011790557f62e78cea01bee320cd4e420270b5ea74000d11b0c9f74754ebdbfc544b05a2586106c53390565b80471015610e845760405163cf47918160e01b815247600482015260248101829052604401610151565b5f5f836001600160a01b0316836040515f6040518083038185875af1925050503d805f8114610ece576040519150601f19603f3d011682016040523d82523d5f602084013e610ed3565b606091505b509150915081610ee657610ee681610f35565b50505050565b60025460ff166104415760405162461bcd60e51b815260206004820152601460248201527314185d5cd8589b194e881b9bdd081c185d5cd95960621b6044820152606401610151565b805115610f4457805160208201fd5b60405163d6bda27560e01b815260040160405180910390fd5b5f60208284031215610f6d575f5ffd5b813561ffff81168114610f7e575f5ffd5b9392505050565b803563ffffffff81168114610f98575f5ffd5b919050565b5f60208284031215610fad575f5ffd5b610f7e82610f85565b5f5f5f60408486031215610fc8575f5ffd5b833567ffffffffffffffff811115610fde575f5ffd5b8401601f81018613610fee575f5ffd5b803567ffffffffffffffff811115611004575f5ffd5b8660208260051b8401011115611018575f5ffd5b60209182019450925061102c908501610f85565b90509250925092565b5f60208284031215611045575f5ffd5b5035919050565b6001600160a01b038116811461057b575f5ffd5b5f60208284031215611070575f5ffd5b8135610f7e8161104c565b5f6020828403121561108b575f5ffd5b8151610f7e8161104c565b634e487b7160e01b5f52603260045260245ffd5b634e487b7160e01b5f52601160045260245ffd5b5f63ffffffff821663ffffffff81036110d9576110d96110aa565b60010192915050565b604080825281018390525f8460608301825b8681101561111f5763ffffffff61110a84610f85565b168252602092830192909101906001016110f4565b5060209390930193909352509392505050565b81810381811115611145576111456110aa565b9291505056fea2646970667358221220affdd975c57c432a97826f176d931698d65c25556e1a1a6ba659a23a4d42758564736f6c634300081c0033",
					"opcodes": "PUSH1 0xA0 PUSH1 0x40 MSTORE PUSH4 0x5F5E100 PUSH1 0x3 SSTORE PUSH1 0x4 DUP1 SLOAD PUSH2 0xFFFF NOT AND PUSH1 0xA OR SWAP1 SSTORE CALLVALUE DUP1 ISZERO PUSH2 0x25 JUMPI PUSH0 PUSH0 REVERT JUMPDEST POP PUSH1 0x40 MLOAD PUSH2 0x12DC CODESIZE SUB DUP1 PUSH2 0x12DC DUP4 CODECOPY DUP2 ADD PUSH1 0x40 DUP2 SWAP1 MSTORE PUSH2 0x44 SWAP2 PUSH2 0x108 JUMP JUMPDEST CALLER DUP1 PUSH2 0x69 JUMPI PUSH1 0x40 MLOAD PUSH4 0x1E4FBDF7 PUSH1 0xE0 SHL DUP2 MSTORE PUSH0 PUSH1 0x4 DUP3 ADD MSTORE PUSH1 0x24 ADD PUSH1 0x40 MLOAD DUP1 SWAP2 SUB SWAP1 REVERT JUMPDEST PUSH2 0x72 DUP2 PUSH2 0xB9 JUMP JUMPDEST POP PUSH1 0x1 DUP1 SSTORE PUSH1 0x2 DUP1 SLOAD PUSH1 0xFF NOT AND SWAP1 SSTORE PUSH1 0x1 PUSH1 0x1 PUSH1 0xA0 SHL SUB DUP2 AND PUSH2 0xA8 JUMPI PUSH1 0x40 MLOAD PUSH4 0x7ED98ED PUSH1 0xE3 SHL DUP2 MSTORE PUSH1 0x4 ADD PUSH1 0x40 MLOAD DUP1 SWAP2 SUB SWAP1 REVERT JUMPDEST PUSH1 0x1 PUSH1 0x1 PUSH1 0xA0 SHL SUB AND PUSH1 0x80 MSTORE PUSH2 0x135 JUMP JUMPDEST PUSH0 DUP1 SLOAD PUSH1 0x1 PUSH1 0x1 PUSH1 0xA0 SHL SUB DUP4 DUP2 AND PUSH1 0x1 PUSH1 0x1 PUSH1 0xA0 SHL SUB NOT DUP4 AND DUP2 OR DUP5 SSTORE PUSH1 0x40 MLOAD SWAP2 SWAP1 SWAP3 AND SWAP3 DUP4 SWAP2 PUSH32 0x8BE0079C531659141344CD1FD0A4F28419497F9722A3DAAFE3B4186F6B6457E0 SWAP2 SWAP1 LOG3 POP POP JUMP JUMPDEST PUSH0 PUSH1 0x20 DUP3 DUP5 SUB SLT ISZERO PUSH2 0x118 JUMPI PUSH0 PUSH0 REVERT JUMPDEST DUP2 MLOAD PUSH1 0x1 PUSH1 0x1 PUSH1 0xA0 SHL SUB DUP2 AND DUP2 EQ PUSH2 0x12E JUMPI PUSH0 PUSH0 REVERT JUMPDEST SWAP4 SWAP3 POP POP POP JUMP JUMPDEST PUSH1 0x80 MLOAD PUSH2 0x1181 PUSH2 0x15B PUSH0 CODECOPY PUSH0 DUP2 DUP2 PUSH2 0x342 ADD MSTORE DUP2 DUP2 PUSH2 0x88B ADD MSTORE PUSH2 0xBF0 ADD MSTORE PUSH2 0x1181 PUSH0 RETURN INVALID PUSH1 0x80 PUSH1 0x40 MSTORE PUSH1 0x4 CALLDATASIZE LT PUSH2 0x108 JUMPI PUSH0 CALLDATALOAD PUSH1 0xE0 SHR DUP1 PUSH4 0x6F9FB98A GT PUSH2 0x92 JUMPI DUP1 PUSH4 0xAA4B10D1 GT PUSH2 0x62 JUMPI DUP1 PUSH4 0xAA4B10D1 EQ PUSH2 0x2DF JUMPI DUP1 PUSH4 0xC3D93ECD EQ PUSH2 0x2F3 JUMPI DUP1 PUSH4 0xD4E0ED2E EQ PUSH2 0x312 JUMPI DUP1 PUSH4 0xD56D229D EQ PUSH2 0x331 JUMPI DUP1 PUSH4 0xF2FDE38B EQ PUSH2 0x364 JUMPI PUSH0 PUSH0 REVERT JUMPDEST DUP1 PUSH4 0x6F9FB98A EQ PUSH2 0x275 JUMPI DUP1 PUSH4 0x715018A6 EQ PUSH2 0x287 JUMPI DUP1 PUSH4 0x8456CB59 EQ PUSH2 0x29B JUMPI DUP1 PUSH4 0x8DA5CB5B EQ PUSH2 0x2AF JUMPI PUSH0 PUSH0 REVERT JUMPDEST DUP1 PUSH4 0x41989BEF GT PUSH2 0xD8 JUMPI DUP1 PUSH4 0x41989BEF EQ PUSH2 0x1DB JUMPI DUP1 PUSH4 0x486A7E6B EQ PUSH2 0x1EE JUMPI DUP1 PUSH4 0x4BF2C7C9 EQ PUSH2 0x21B JUMPI DUP1 PUSH4 0x576AEE51 EQ PUSH2 0x23A JUMPI DUP1 PUSH4 0x5C975ABB EQ PUSH2 0x25E JUMPI PUSH0 PUSH0 REVERT JUMPDEST DUP1 PUSH4 0x1DEEDFB5 EQ PUSH2 0x15E JUMPI DUP1 PUSH4 0x1DF8473D EQ PUSH2 0x17F JUMPI DUP1 PUSH4 0x24600FC3 EQ PUSH2 0x1B3 JUMPI DUP1 PUSH4 0x3F4BA83A EQ PUSH2 0x1C7 JUMPI PUSH0 PUSH0 REVERT JUMPDEST CALLDATASIZE PUSH2 0x15A JUMPI PUSH1 0x40 MLOAD PUSH3 0x461BCD PUSH1 0xE5 SHL DUP2 MSTORE PUSH1 0x20 PUSH1 0x4 DUP3 ADD DUP2 SWAP1 MSTORE PUSH1 0x24 DUP3 ADD MSTORE PUSH32 0x44697265637420455448207472616E7366657273206E6F7420616C6C6F776564 PUSH1 0x44 DUP3 ADD MSTORE PUSH1 0x64 ADD JUMPDEST PUSH1 0x40 MLOAD DUP1 SWAP2 SUB SWAP1 REVERT JUMPDEST PUSH0 PUSH0 REVERT JUMPDEST CALLVALUE DUP1 ISZERO PUSH2 0x169 JUMPI PUSH0 PUSH0 REVERT JUMPDEST POP PUSH2 0x17D PUSH2 0x178 CALLDATASIZE PUSH1 0x4 PUSH2 0xF5D JUMP JUMPDEST PUSH2 0x383 JUMP JUMPDEST STOP JUMPDEST CALLVALUE DUP1 ISZERO PUSH2 0x18A JUMPI PUSH0 PUSH0 REVERT JUMPDEST POP PUSH2 0x19E PUSH2 0x199 CALLDATASIZE PUSH1 0x4 PUSH2 0xF9D JUMP JUMPDEST PUSH2 0x3EC JUMP JUMPDEST PUSH1 0x40 MLOAD SWAP1 ISZERO ISZERO DUP2 MSTORE PUSH1 0x20 ADD JUMPDEST PUSH1 0x40 MLOAD DUP1 SWAP2 SUB SWAP1 RETURN JUMPDEST CALLVALUE DUP1 ISZERO PUSH2 0x1BE JUMPI PUSH0 PUSH0 REVERT JUMPDEST POP PUSH2 0x17D PUSH2 0x430 JUMP JUMPDEST CALLVALUE DUP1 ISZERO PUSH2 0x1D2 JUMPI PUSH0 PUSH0 REVERT JUMPDEST POP PUSH2 0x17D PUSH2 0x443 JUMP JUMPDEST PUSH2 0x17D PUSH2 0x1E9 CALLDATASIZE PUSH1 0x4 PUSH2 0xFB6 JUMP JUMPDEST PUSH2 0x453 JUMP JUMPDEST CALLVALUE DUP1 ISZERO PUSH2 0x1F9 JUMPI PUSH0 PUSH0 REVERT JUMPDEST POP PUSH1 0x4 SLOAD PUSH2 0x208 SWAP1 PUSH2 0xFFFF AND DUP2 JUMP JUMPDEST PUSH1 0x40 MLOAD PUSH2 0xFFFF SWAP1 SWAP2 AND DUP2 MSTORE PUSH1 0x20 ADD PUSH2 0x1AA JUMP JUMPDEST CALLVALUE DUP1 ISZERO PUSH2 0x226 JUMPI PUSH0 PUSH0 REVERT JUMPDEST POP PUSH2 0x17D PUSH2 0x235 CALLDATASIZE PUSH1 0x4 PUSH2 0x1035 JUMP JUMPDEST PUSH2 0x48F JUMP JUMPDEST CALLVALUE DUP1 ISZERO PUSH2 0x245 JUMPI PUSH0 PUSH0 REVERT JUMPDEST POP PUSH8 0xDE0B6B3A7640000 JUMPDEST PUSH1 0x40 MLOAD SWAP1 DUP2 MSTORE PUSH1 0x20 ADD PUSH2 0x1AA JUMP JUMPDEST CALLVALUE DUP1 ISZERO PUSH2 0x269 JUMPI PUSH0 PUSH0 REVERT JUMPDEST POP PUSH1 0x2 SLOAD PUSH1 0xFF AND PUSH2 0x19E JUMP JUMPDEST CALLVALUE DUP1 ISZERO PUSH2 0x280 JUMPI PUSH0 PUSH0 REVERT JUMPDEST POP SELFBALANCE PUSH2 0x250 JUMP JUMPDEST CALLVALUE DUP1 ISZERO PUSH2 0x292 JUMPI PUSH0 PUSH0 REVERT JUMPDEST POP PUSH2 0x17D PUSH2 0x505 JUMP JUMPDEST CALLVALUE DUP1 ISZERO PUSH2 0x2A6 JUMPI PUSH0 PUSH0 REVERT JUMPDEST POP PUSH2 0x17D PUSH2 0x516 JUMP JUMPDEST CALLVALUE DUP1 ISZERO PUSH2 0x2BA JUMPI PUSH0 PUSH0 REVERT JUMPDEST POP PUSH0 SLOAD PUSH1 0x1 PUSH1 0x1 PUSH1 0xA0 SHL SUB AND JUMPDEST PUSH1 0x40 MLOAD PUSH1 0x1 PUSH1 0x1 PUSH1 0xA0 SHL SUB SWAP1 SWAP2 AND DUP2 MSTORE PUSH1 0x20 ADD PUSH2 0x1AA JUMP JUMPDEST CALLVALUE DUP1 ISZERO PUSH2 0x2EA JUMPI PUSH0 PUSH0 REVERT JUMPDEST POP PUSH1 0x3 SLOAD PUSH2 0x250 JUMP JUMPDEST CALLVALUE DUP1 ISZERO PUSH2 0x2FE JUMPI PUSH0 PUSH0 REVERT JUMPDEST POP PUSH2 0x19E PUSH2 0x30D CALLDATASIZE PUSH1 0x4 PUSH2 0xF9D JUMP JUMPDEST PUSH2 0x526 JUMP JUMPDEST CALLVALUE DUP1 ISZERO PUSH2 0x31D JUMPI PUSH0 PUSH0 REVERT JUMPDEST POP PUSH2 0x17D PUSH2 0x32C CALLDATASIZE PUSH1 0x4 PUSH2 0x1035 JUMP JUMPDEST PUSH2 0x56A JUMP JUMPDEST CALLVALUE DUP1 ISZERO PUSH2 0x33C JUMPI PUSH0 PUSH0 REVERT JUMPDEST POP PUSH2 0x2C7 PUSH32 0x0 DUP2 JUMP JUMPDEST CALLVALUE DUP1 ISZERO PUSH2 0x36F JUMPI PUSH0 PUSH0 REVERT JUMPDEST POP PUSH2 0x17D PUSH2 0x37E CALLDATASIZE PUSH1 0x4 PUSH2 0x1060 JUMP JUMPDEST PUSH2 0x57E JUMP JUMPDEST PUSH2 0x38B PUSH2 0x5B8 JUMP JUMPDEST PUSH0 DUP2 PUSH2 0xFFFF AND GT PUSH2 0x3D4 JUMPI PUSH1 0x40 MLOAD PUSH3 0x461BCD PUSH1 0xE5 SHL DUP2 MSTORE PUSH1 0x20 PUSH1 0x4 DUP3 ADD MSTORE PUSH1 0x13 PUSH1 0x24 DUP3 ADD MSTORE PUSH19 0x4D696E696D756D206D757374206265203E203 PUSH1 0x6C SHL PUSH1 0x44 DUP3 ADD MSTORE PUSH1 0x64 ADD PUSH2 0x151 JUMP JUMPDEST PUSH1 0x4 DUP1 SLOAD PUSH2 0xFFFF NOT AND PUSH2 0xFFFF SWAP3 SWAP1 SWAP3 AND SWAP2 SWAP1 SWAP2 OR SWAP1 SSTORE JUMP JUMPDEST PUSH0 DUP2 PUSH4 0xFFFFFFFF AND DUP1 PUSH0 SUB PUSH2 0x414 JUMPI PUSH1 0x40 MLOAD PUSH4 0x7ED98ED PUSH1 0xE3 SHL DUP2 MSTORE PUSH1 0x4 ADD PUSH1 0x40 MLOAD DUP1 SWAP2 SUB SWAP1 REVERT JUMPDEST POP POP PUSH4 0xFFFFFFFF AND PUSH0 SWAP1 DUP2 MSTORE PUSH1 0x6 PUSH1 0x20 MSTORE PUSH1 0x40 SWAP1 KECCAK256 SLOAD PUSH1 0xFF AND SWAP1 JUMP JUMPDEST PUSH2 0x438 PUSH2 0x5B8 JUMP JUMPDEST PUSH2 0x441 SELFBALANCE PUSH2 0x5E4 JUMP JUMPDEST JUMP JUMPDEST PUSH2 0x44B PUSH2 0x5B8 JUMP JUMPDEST PUSH2 0x441 PUSH2 0x690 JUMP JUMPDEST PUSH2 0x45B PUSH2 0x6E2 JUMP JUMPDEST PUSH2 0x463 PUSH2 0x73B JUMP JUMPDEST PUSH2 0x46E DUP4 DUP4 DUP4 PUSH2 0x781 JUMP JUMPDEST PUSH2 0x479 DUP4 DUP4 DUP4 PUSH2 0xBCF JUMP JUMPDEST PUSH2 0x481 PUSH2 0xD2E JUMP JUMPDEST PUSH2 0x48A PUSH1 0x1 DUP1 SSTORE JUMP JUMPDEST POP POP POP JUMP JUMPDEST PUSH2 0x497 PUSH2 0x5B8 JUMP JUMPDEST PUSH8 0xDE0B6B3A7640000 DUP2 GT ISZERO PUSH2 0x4C0 JUMPI PUSH1 0x40 MLOAD PUSH4 0x2BE70877 PUSH1 0xE2 SHL DUP2 MSTORE PUSH1 0x4 ADD PUSH1 0x40 MLOAD DUP1 SWAP2 SUB SWAP1 REVERT JUMPDEST PUSH1 0x3 DUP1 SLOAD SWAP1 DUP3 SWAP1 SSTORE PUSH1 0x40 DUP1 MLOAD DUP3 DUP2 MSTORE PUSH1 0x20 DUP2 ADD DUP5 SWAP1 MSTORE PUSH32 0x78F1461296BAD7BD716A7673AA3E659CC091C348A7ED4CFEF7CE452C3052F2FB SWAP2 ADD PUSH1 0x40 MLOAD DUP1 SWAP2 SUB SWAP1 LOG1 POP POP JUMP JUMPDEST PUSH2 0x50D PUSH2 0x5B8 JUMP JUMPDEST PUSH2 0x441 PUSH0 PUSH2 0xDCE JUMP JUMPDEST PUSH2 0x51E PUSH2 0x5B8 JUMP JUMPDEST PUSH2 0x441 PUSH2 0xE1D JUMP JUMPDEST PUSH0 DUP2 PUSH4 0xFFFFFFFF AND DUP1 PUSH0 SUB PUSH2 0x54E JUMPI PUSH1 0x40 MLOAD PUSH4 0x7ED98ED PUSH1 0xE3 SHL DUP2 MSTORE PUSH1 0x4 ADD PUSH1 0x40 MLOAD DUP1 SWAP2 SUB SWAP1 REVERT JUMPDEST POP POP PUSH4 0xFFFFFFFF AND PUSH0 SWAP1 DUP2 MSTORE PUSH1 0x5 PUSH1 0x20 MSTORE PUSH1 0x40 SWAP1 KECCAK256 SLOAD PUSH1 0xFF AND SWAP1 JUMP JUMPDEST PUSH2 0x572 PUSH2 0x5B8 JUMP JUMPDEST PUSH2 0x57B DUP2 PUSH2 0x5E4 JUMP JUMPDEST POP JUMP JUMPDEST PUSH2 0x586 PUSH2 0x5B8 JUMP JUMPDEST PUSH1 0x1 PUSH1 0x1 PUSH1 0xA0 SHL SUB DUP2 AND PUSH2 0x5AF JUMPI PUSH1 0x40 MLOAD PUSH4 0x1E4FBDF7 PUSH1 0xE0 SHL DUP2 MSTORE PUSH0 PUSH1 0x4 DUP3 ADD MSTORE PUSH1 0x24 ADD PUSH2 0x151 JUMP JUMPDEST PUSH2 0x57B DUP2 PUSH2 0xDCE JUMP JUMPDEST PUSH0 SLOAD PUSH1 0x1 PUSH1 0x1 PUSH1 0xA0 SHL SUB AND CALLER EQ PUSH2 0x441 JUMPI PUSH1 0x40 MLOAD PUSH4 0x118CDAA7 PUSH1 0xE0 SHL DUP2 MSTORE CALLER PUSH1 0x4 DUP3 ADD MSTORE PUSH1 0x24 ADD PUSH2 0x151 JUMP JUMPDEST PUSH2 0x5EC PUSH2 0x6E2 JUMP JUMPDEST DUP1 ISZERO DUP1 PUSH2 0x5F8 JUMPI POP SELFBALANCE DUP2 GT JUMPDEST ISZERO PUSH2 0x616 JUMPI PUSH1 0x40 MLOAD PUSH4 0x67E3990D PUSH1 0xE0 SHL DUP2 MSTORE PUSH1 0x4 ADD PUSH1 0x40 MLOAD DUP1 SWAP2 SUB SWAP1 REVERT JUMPDEST PUSH2 0x63A DUP2 PUSH2 0x62B PUSH0 SLOAD PUSH1 0x1 PUSH1 0x1 PUSH1 0xA0 SHL SUB AND SWAP1 JUMP JUMPDEST PUSH1 0x1 PUSH1 0x1 PUSH1 0xA0 SHL SUB AND SWAP1 PUSH2 0xE5A JUMP JUMPDEST PUSH0 SLOAD PUSH1 0x1 PUSH1 0x1 PUSH1 0xA0 SHL SUB AND PUSH1 0x1 PUSH1 0x1 PUSH1 0xA0 SHL SUB AND PUSH32 0xEAFF4B37086828766AD3268786972C0CD24259D4C87A80F9D3963A3C3D999B0D DUP3 PUSH1 0x40 MLOAD PUSH2 0x67F SWAP2 DUP2 MSTORE PUSH1 0x20 ADD SWAP1 JUMP JUMPDEST PUSH1 0x40 MLOAD DUP1 SWAP2 SUB SWAP1 LOG2 PUSH2 0x57B PUSH1 0x1 DUP1 SSTORE JUMP JUMPDEST PUSH2 0x698 PUSH2 0xEEC JUMP JUMPDEST PUSH1 0x2 DUP1 SLOAD PUSH1 0xFF NOT AND SWAP1 SSTORE PUSH32 0x5DB9EE0A495BF2E6FF9C91A7834C1BA4FDD244A5E8AA4E537BD38AEAE4B073AA CALLER JUMPDEST PUSH1 0x40 MLOAD PUSH1 0x1 PUSH1 0x1 PUSH1 0xA0 SHL SUB SWAP1 SWAP2 AND DUP2 MSTORE PUSH1 0x20 ADD PUSH1 0x40 MLOAD DUP1 SWAP2 SUB SWAP1 LOG1 JUMP JUMPDEST PUSH1 0x2 PUSH1 0x1 SLOAD SUB PUSH2 0x734 JUMPI PUSH1 0x40 MLOAD PUSH3 0x461BCD PUSH1 0xE5 SHL DUP2 MSTORE PUSH1 0x20 PUSH1 0x4 DUP3 ADD MSTORE PUSH1 0x1F PUSH1 0x24 DUP3 ADD MSTORE PUSH32 0x5265656E7472616E637947756172643A207265656E7472616E742063616C6C00 PUSH1 0x44 DUP3 ADD MSTORE PUSH1 0x64 ADD PUSH2 0x151 JUMP JUMPDEST PUSH1 0x2 PUSH1 0x1 SSTORE JUMP JUMPDEST PUSH1 0x2 SLOAD PUSH1 0xFF AND ISZERO PUSH2 0x441 JUMPI PUSH1 0x40 MLOAD PUSH3 0x461BCD PUSH1 0xE5 SHL DUP2 MSTORE PUSH1 0x20 PUSH1 0x4 DUP3 ADD MSTORE PUSH1 0x10 PUSH1 0x24 DUP3 ADD MSTORE PUSH16 0x14185D5CD8589B194E881C185D5CD959 PUSH1 0x82 SHL PUSH1 0x44 DUP3 ADD MSTORE PUSH1 0x64 ADD PUSH2 0x151 JUMP JUMPDEST DUP2 PUSH4 0xFFFFFFFF DUP2 AND PUSH0 SUB PUSH2 0x7CC JUMPI PUSH1 0x40 MLOAD PUSH3 0x461BCD PUSH1 0xE5 SHL DUP2 MSTORE PUSH1 0x20 PUSH1 0x4 DUP3 ADD MSTORE PUSH1 0x12 PUSH1 0x24 DUP3 ADD MSTORE PUSH18 0x139BC81D1BDAD95B9CC81C1C9BDD9A591959 PUSH1 0x72 SHL PUSH1 0x44 DUP3 ADD MSTORE PUSH1 0x64 ADD PUSH2 0x151 JUMP JUMPDEST PUSH1 0x4 SLOAD PUSH2 0xFFFF AND PUSH4 0xFFFFFFFF DUP3 AND EQ PUSH2 0x827 JUMPI PUSH1 0x40 MLOAD PUSH3 0x461BCD PUSH1 0xE5 SHL DUP2 MSTORE PUSH1 0x20 PUSH1 0x4 DUP3 ADD MSTORE PUSH1 0x1E PUSH1 0x24 DUP3 ADD MSTORE PUSH32 0x4275726E2074686520726571756972656420746F6B656E20616D6F756E740000 PUSH1 0x44 DUP3 ADD MSTORE PUSH1 0x64 ADD PUSH2 0x151 JUMP JUMPDEST PUSH1 0x3 SLOAD CALLVALUE LT ISZERO PUSH2 0x870 JUMPI PUSH1 0x40 MLOAD PUSH3 0x461BCD PUSH1 0xE5 SHL DUP2 MSTORE PUSH1 0x20 PUSH1 0x4 DUP3 ADD MSTORE PUSH1 0x14 PUSH1 0x24 DUP3 ADD MSTORE PUSH20 0x125B9CDD59999A58DA595B9D081C185E5B595B9D PUSH1 0x62 SHL PUSH1 0x44 DUP3 ADD MSTORE PUSH1 0x64 ADD PUSH2 0x151 JUMP JUMPDEST PUSH1 0x40 MLOAD PUSH4 0x31A9108F PUSH1 0xE1 SHL DUP2 MSTORE PUSH4 0xFFFFFFFF DUP4 AND PUSH1 0x4 DUP3 ADD MSTORE PUSH32 0x0 SWAP1 CALLER SWAP1 PUSH1 0x1 PUSH1 0x1 PUSH1 0xA0 SHL SUB DUP4 AND SWAP1 PUSH4 0x6352211E SWAP1 PUSH1 0x24 ADD PUSH1 0x20 PUSH1 0x40 MLOAD DUP1 DUP4 SUB DUP2 DUP7 GAS STATICCALL ISZERO DUP1 ISZERO PUSH2 0x8DC JUMPI RETURNDATASIZE PUSH0 PUSH0 RETURNDATACOPY RETURNDATASIZE PUSH0 REVERT JUMPDEST POP POP POP POP PUSH1 0x40 MLOAD RETURNDATASIZE PUSH1 0x1F NOT PUSH1 0x1F DUP3 ADD AND DUP3 ADD DUP1 PUSH1 0x40 MSTORE POP DUP2 ADD SWAP1 PUSH2 0x900 SWAP2 SWAP1 PUSH2 0x107B JUMP JUMPDEST PUSH1 0x1 PUSH1 0x1 PUSH1 0xA0 SHL SUB AND EQ PUSH2 0x948 JUMPI PUSH1 0x40 MLOAD PUSH3 0x461BCD PUSH1 0xE5 SHL DUP2 MSTORE PUSH1 0x20 PUSH1 0x4 DUP3 ADD MSTORE PUSH1 0xF PUSH1 0x24 DUP3 ADD MSTORE PUSH15 0x2737BA103A37B5B2B71037BBB732B9 PUSH1 0x89 SHL PUSH1 0x44 DUP3 ADD MSTORE PUSH1 0x64 ADD PUSH2 0x151 JUMP JUMPDEST PUSH4 0xFFFFFFFF DUP4 AND PUSH0 SWAP1 DUP2 MSTORE PUSH1 0x5 PUSH1 0x20 MSTORE PUSH1 0x40 SWAP1 KECCAK256 SLOAD PUSH1 0xFF AND ISZERO PUSH2 0x9A4 JUMPI PUSH1 0x40 MLOAD PUSH3 0x461BCD PUSH1 0xE5 SHL DUP2 MSTORE PUSH1 0x20 PUSH1 0x4 DUP3 ADD MSTORE PUSH1 0x14 PUSH1 0x24 DUP3 ADD MSTORE PUSH20 0x151BDAD95B88185B1C9958591E48189D5C9B9959 PUSH1 0x62 SHL PUSH1 0x44 DUP3 ADD MSTORE PUSH1 0x64 ADD PUSH2 0x151 JUMP JUMPDEST PUSH4 0xFFFFFFFF DUP4 AND PUSH0 SWAP1 DUP2 MSTORE PUSH1 0x6 PUSH1 0x20 MSTORE PUSH1 0x40 SWAP1 KECCAK256 SLOAD PUSH1 0xFF AND ISZERO PUSH2 0xA01 JUMPI PUSH1 0x40 MLOAD PUSH3 0x461BCD PUSH1 0xE5 SHL DUP2 MSTORE PUSH1 0x20 PUSH1 0x4 DUP3 ADD MSTORE PUSH1 0x15 PUSH1 0x24 DUP3 ADD MSTORE PUSH21 0x151BDAD95B88185B1C9958591E481D5C19185D1959 PUSH1 0x5A SHL PUSH1 0x44 DUP3 ADD MSTORE PUSH1 0x64 ADD PUSH2 0x151 JUMP JUMPDEST PUSH0 JUMPDEST DUP3 PUSH4 0xFFFFFFFF AND DUP2 PUSH4 0xFFFFFFFF AND LT ISZERO PUSH2 0xBC7 JUMPI PUSH0 DUP7 DUP7 DUP4 PUSH4 0xFFFFFFFF AND DUP2 DUP2 LT PUSH2 0xA30 JUMPI PUSH2 0xA30 PUSH2 0x1096 JUMP JUMPDEST SWAP1 POP PUSH1 0x20 MUL ADD PUSH1 0x20 DUP2 ADD SWAP1 PUSH2 0xA45 SWAP2 SWAP1 PUSH2 0xF9D JUMP JUMPDEST SWAP1 POP DUP5 PUSH4 0xFFFFFFFF AND DUP2 PUSH4 0xFFFFFFFF AND SUB PUSH2 0xAAC JUMPI PUSH1 0x40 MLOAD PUSH3 0x461BCD PUSH1 0xE5 SHL DUP2 MSTORE PUSH1 0x20 PUSH1 0x4 DUP3 ADD MSTORE PUSH1 0x21 PUSH1 0x24 DUP3 ADD MSTORE PUSH32 0x75706461746549642063616E6E6F7420626520616D6F6E6720746F6B656E4964 PUSH1 0x44 DUP3 ADD MSTORE PUSH1 0x73 PUSH1 0xF8 SHL PUSH1 0x64 DUP3 ADD MSTORE PUSH1 0x84 ADD PUSH2 0x151 JUMP JUMPDEST PUSH4 0xFFFFFFFF DUP2 AND PUSH0 SWAP1 DUP2 MSTORE PUSH1 0x5 PUSH1 0x20 MSTORE PUSH1 0x40 SWAP1 KECCAK256 SLOAD PUSH1 0xFF AND ISZERO PUSH2 0xB08 JUMPI PUSH1 0x40 MLOAD PUSH3 0x461BCD PUSH1 0xE5 SHL DUP2 MSTORE PUSH1 0x20 PUSH1 0x4 DUP3 ADD MSTORE PUSH1 0x14 PUSH1 0x24 DUP3 ADD MSTORE PUSH20 0x151BDAD95B88185B1C9958591E48189D5C9B9959 PUSH1 0x62 SHL PUSH1 0x44 DUP3 ADD MSTORE PUSH1 0x64 ADD PUSH2 0x151 JUMP JUMPDEST PUSH1 0x40 MLOAD PUSH4 0x31A9108F PUSH1 0xE1 SHL DUP2 MSTORE PUSH4 0xFFFFFFFF DUP3 AND PUSH1 0x4 DUP3 ADD MSTORE CALLER SWAP1 PUSH1 0x1 PUSH1 0x1 PUSH1 0xA0 SHL SUB DUP6 AND SWAP1 PUSH4 0x6352211E SWAP1 PUSH1 0x24 ADD PUSH1 0x20 PUSH1 0x40 MLOAD DUP1 DUP4 SUB DUP2 DUP7 GAS STATICCALL ISZERO DUP1 ISZERO PUSH2 0xB52 JUMPI RETURNDATASIZE PUSH0 PUSH0 RETURNDATACOPY RETURNDATASIZE PUSH0 REVERT JUMPDEST POP POP POP POP PUSH1 0x40 MLOAD RETURNDATASIZE PUSH1 0x1F NOT PUSH1 0x1F DUP3 ADD AND DUP3 ADD DUP1 PUSH1 0x40 MSTORE POP DUP2 ADD SWAP1 PUSH2 0xB76 SWAP2 SWAP1 PUSH2 0x107B JUMP JUMPDEST PUSH1 0x1 PUSH1 0x1 PUSH1 0xA0 SHL SUB AND EQ PUSH2 0xBBE JUMPI PUSH1 0x40 MLOAD PUSH3 0x461BCD PUSH1 0xE5 SHL DUP2 MSTORE PUSH1 0x20 PUSH1 0x4 DUP3 ADD MSTORE PUSH1 0xF PUSH1 0x24 DUP3 ADD MSTORE PUSH15 0x2737BA103A37B5B2B71037BBB732B9 PUSH1 0x89 SHL PUSH1 0x44 DUP3 ADD MSTORE PUSH1 0x64 ADD PUSH2 0x151 JUMP JUMPDEST POP PUSH1 0x1 ADD PUSH2 0xA03 JUMP JUMPDEST POP POP POP POP POP POP JUMP JUMPDEST PUSH4 0xFFFFFFFF DUP2 AND PUSH0 SWAP1 DUP2 MSTORE PUSH1 0x6 PUSH1 0x20 MSTORE PUSH1 0x40 DUP2 KECCAK256 DUP1 SLOAD PUSH1 0xFF NOT AND PUSH1 0x1 OR SWAP1 SSTORE PUSH32 0x0 SWAP1 JUMPDEST PUSH4 0xFFFFFFFF DUP2 AND DUP5 GT ISZERO PUSH2 0xCD9 JUMPI PUSH0 DUP6 DUP6 DUP4 PUSH4 0xFFFFFFFF AND DUP2 DUP2 LT PUSH2 0xC38 JUMPI PUSH2 0xC38 PUSH2 0x1096 JUMP JUMPDEST SWAP1 POP PUSH1 0x20 MUL ADD PUSH1 0x20 DUP2 ADD SWAP1 PUSH2 0xC4D SWAP2 SWAP1 PUSH2 0xF9D JUMP JUMPDEST PUSH4 0xFFFFFFFF DUP2 AND PUSH0 DUP2 DUP2 MSTORE PUSH1 0x5 PUSH1 0x20 MSTORE PUSH1 0x40 SWAP1 DUP2 SWAP1 KECCAK256 DUP1 SLOAD PUSH1 0xFF NOT AND PUSH1 0x1 OR SWAP1 SSTORE MLOAD PUSH4 0x852CD8D PUSH1 0xE3 SHL DUP2 MSTORE PUSH1 0x4 DUP2 ADD SWAP2 SWAP1 SWAP2 MSTORE SWAP1 SWAP2 POP PUSH1 0x1 PUSH1 0x1 PUSH1 0xA0 SHL SUB DUP5 AND SWAP1 PUSH4 0x42966C68 SWAP1 PUSH1 0x24 ADD PUSH0 PUSH1 0x40 MLOAD DUP1 DUP4 SUB DUP2 PUSH0 DUP8 DUP1 EXTCODESIZE ISZERO DUP1 ISZERO PUSH2 0xCAF JUMPI PUSH0 PUSH0 REVERT JUMPDEST POP GAS CALL ISZERO DUP1 ISZERO PUSH2 0xCC1 JUMPI RETURNDATASIZE PUSH0 PUSH0 RETURNDATACOPY RETURNDATASIZE PUSH0 REVERT JUMPDEST POP POP POP POP POP DUP1 DUP1 PUSH2 0xCD1 SWAP1 PUSH2 0x10BE JUMP JUMPDEST SWAP2 POP POP PUSH2 0xC11 JUMP JUMPDEST POP DUP2 PUSH4 0xFFFFFFFF AND CALLER PUSH1 0x1 PUSH1 0x1 PUSH1 0xA0 SHL SUB AND PUSH32 0x26CCC16F7FCB4F9C2582BCBA8E2AA8BFC16139AD280D11913CCFB99777825EE0 DUP7 DUP7 PUSH1 0x3 SLOAD PUSH1 0x40 MLOAD PUSH2 0xD20 SWAP4 SWAP3 SWAP2 SWAP1 PUSH2 0x10E2 JUMP JUMPDEST PUSH1 0x40 MLOAD DUP1 SWAP2 SUB SWAP1 LOG3 POP POP POP POP JUMP JUMPDEST PUSH0 PUSH1 0x3 SLOAD CALLVALUE PUSH2 0xD3D SWAP2 SWAP1 PUSH2 0x1132 JUMP JUMPDEST SWAP1 POP DUP1 ISZERO PUSH2 0x57B JUMPI PUSH1 0x40 MLOAD PUSH0 SWAP1 CALLER SWAP1 DUP4 SWAP1 DUP4 DUP2 DUP2 DUP2 DUP6 DUP8 GAS CALL SWAP3 POP POP POP RETURNDATASIZE DUP1 PUSH0 DUP2 EQ PUSH2 0xD84 JUMPI PUSH1 0x40 MLOAD SWAP2 POP PUSH1 0x1F NOT PUSH1 0x3F RETURNDATASIZE ADD AND DUP3 ADD PUSH1 0x40 MSTORE RETURNDATASIZE DUP3 MSTORE RETURNDATASIZE PUSH0 PUSH1 0x20 DUP5 ADD RETURNDATACOPY PUSH2 0xD89 JUMP JUMPDEST PUSH1 0x60 SWAP2 POP JUMPDEST POP POP SWAP1 POP DUP1 PUSH2 0xDCA JUMPI PUSH1 0x40 MLOAD PUSH3 0x461BCD PUSH1 0xE5 SHL DUP2 MSTORE PUSH1 0x20 PUSH1 0x4 DUP3 ADD MSTORE PUSH1 0xD PUSH1 0x24 DUP3 ADD MSTORE PUSH13 0x1499599D5B990819985A5B1959 PUSH1 0x9A SHL PUSH1 0x44 DUP3 ADD MSTORE PUSH1 0x64 ADD PUSH2 0x151 JUMP JUMPDEST POP POP JUMP JUMPDEST PUSH0 DUP1 SLOAD PUSH1 0x1 PUSH1 0x1 PUSH1 0xA0 SHL SUB DUP4 DUP2 AND PUSH1 0x1 PUSH1 0x1 PUSH1 0xA0 SHL SUB NOT DUP4 AND DUP2 OR DUP5 SSTORE PUSH1 0x40 MLOAD SWAP2 SWAP1 SWAP3 AND SWAP3 DUP4 SWAP2 PUSH32 0x8BE0079C531659141344CD1FD0A4F28419497F9722A3DAAFE3B4186F6B6457E0 SWAP2 SWAP1 LOG3 POP POP JUMP JUMPDEST PUSH2 0xE25 PUSH2 0x73B JUMP JUMPDEST PUSH1 0x2 DUP1 SLOAD PUSH1 0xFF NOT AND PUSH1 0x1 OR SWAP1 SSTORE PUSH32 0x62E78CEA01BEE320CD4E420270B5EA74000D11B0C9F74754EBDBFC544B05A258 PUSH2 0x6C5 CALLER SWAP1 JUMP JUMPDEST DUP1 SELFBALANCE LT ISZERO PUSH2 0xE84 JUMPI PUSH1 0x40 MLOAD PUSH4 0xCF479181 PUSH1 0xE0 SHL DUP2 MSTORE SELFBALANCE PUSH1 0x4 DUP3 ADD MSTORE PUSH1 0x24 DUP2 ADD DUP3 SWAP1 MSTORE PUSH1 0x44 ADD PUSH2 0x151 JUMP JUMPDEST PUSH0 PUSH0 DUP4 PUSH1 0x1 PUSH1 0x1 PUSH1 0xA0 SHL SUB AND DUP4 PUSH1 0x40 MLOAD PUSH0 PUSH1 0x40 MLOAD DUP1 DUP4 SUB DUP2 DUP6 DUP8 GAS CALL SWAP3 POP POP POP RETURNDATASIZE DUP1 PUSH0 DUP2 EQ PUSH2 0xECE JUMPI PUSH1 0x40 MLOAD SWAP2 POP PUSH1 0x1F NOT PUSH1 0x3F RETURNDATASIZE ADD AND DUP3 ADD PUSH1 0x40 MSTORE RETURNDATASIZE DUP3 MSTORE RETURNDATASIZE PUSH0 PUSH1 0x20 DUP5 ADD RETURNDATACOPY PUSH2 0xED3 JUMP JUMPDEST PUSH1 0x60 SWAP2 POP JUMPDEST POP SWAP2 POP SWAP2 POP DUP2 PUSH2 0xEE6 JUMPI PUSH2 0xEE6 DUP2 PUSH2 0xF35 JUMP JUMPDEST POP POP POP POP JUMP JUMPDEST PUSH1 0x2 SLOAD PUSH1 0xFF AND PUSH2 0x441 JUMPI PUSH1 0x40 MLOAD PUSH3 0x461BCD PUSH1 0xE5 SHL DUP2 MSTORE PUSH1 0x20 PUSH1 0x4 DUP3 ADD MSTORE PUSH1 0x14 PUSH1 0x24 DUP3 ADD MSTORE PUSH20 0x14185D5CD8589B194E881B9BDD081C185D5CD959 PUSH1 0x62 SHL PUSH1 0x44 DUP3 ADD MSTORE PUSH1 0x64 ADD PUSH2 0x151 JUMP JUMPDEST DUP1 MLOAD ISZERO PUSH2 0xF44 JUMPI DUP1 MLOAD PUSH1 0x20 DUP3 ADD REVERT JUMPDEST PUSH1 0x40 MLOAD PUSH4 0xD6BDA275 PUSH1 0xE0 SHL DUP2 MSTORE PUSH1 0x4 ADD PUSH1 0x40 MLOAD DUP1 SWAP2 SUB SWAP1 REVERT JUMPDEST PUSH0 PUSH1 0x20 DUP3 DUP5 SUB SLT ISZERO PUSH2 0xF6D JUMPI PUSH0 PUSH0 REVERT JUMPDEST DUP2 CALLDATALOAD PUSH2 0xFFFF DUP2 AND DUP2 EQ PUSH2 0xF7E JUMPI PUSH0 PUSH0 REVERT JUMPDEST SWAP4 SWAP3 POP POP POP JUMP JUMPDEST DUP1 CALLDATALOAD PUSH4 0xFFFFFFFF DUP2 AND DUP2 EQ PUSH2 0xF98 JUMPI PUSH0 PUSH0 REVERT JUMPDEST SWAP2 SWAP1 POP JUMP JUMPDEST PUSH0 PUSH1 0x20 DUP3 DUP5 SUB SLT ISZERO PUSH2 0xFAD JUMPI PUSH0 PUSH0 REVERT JUMPDEST PUSH2 0xF7E DUP3 PUSH2 0xF85 JUMP JUMPDEST PUSH0 PUSH0 PUSH0 PUSH1 0x40 DUP5 DUP7 SUB SLT ISZERO PUSH2 0xFC8 JUMPI PUSH0 PUSH0 REVERT JUMPDEST DUP4 CALLDATALOAD PUSH8 0xFFFFFFFFFFFFFFFF DUP2 GT ISZERO PUSH2 0xFDE JUMPI PUSH0 PUSH0 REVERT JUMPDEST DUP5 ADD PUSH1 0x1F DUP2 ADD DUP7 SGT PUSH2 0xFEE JUMPI PUSH0 PUSH0 REVERT JUMPDEST DUP1 CALLDATALOAD PUSH8 0xFFFFFFFFFFFFFFFF DUP2 GT ISZERO PUSH2 0x1004 JUMPI PUSH0 PUSH0 REVERT JUMPDEST DUP7 PUSH1 0x20 DUP3 PUSH1 0x5 SHL DUP5 ADD ADD GT ISZERO PUSH2 0x1018 JUMPI PUSH0 PUSH0 REVERT JUMPDEST PUSH1 0x20 SWAP2 DUP3 ADD SWAP5 POP SWAP3 POP PUSH2 0x102C SWAP1 DUP6 ADD PUSH2 0xF85 JUMP JUMPDEST SWAP1 POP SWAP3 POP SWAP3 POP SWAP3 JUMP JUMPDEST PUSH0 PUSH1 0x20 DUP3 DUP5 SUB SLT ISZERO PUSH2 0x1045 JUMPI PUSH0 PUSH0 REVERT JUMPDEST POP CALLDATALOAD SWAP2 SWAP1 POP JUMP JUMPDEST PUSH1 0x1 PUSH1 0x1 PUSH1 0xA0 SHL SUB DUP2 AND DUP2 EQ PUSH2 0x57B JUMPI PUSH0 PUSH0 REVERT JUMPDEST PUSH0 PUSH1 0x20 DUP3 DUP5 SUB SLT ISZERO PUSH2 0x1070 JUMPI PUSH0 PUSH0 REVERT JUMPDEST DUP2 CALLDATALOAD PUSH2 0xF7E DUP2 PUSH2 0x104C JUMP JUMPDEST PUSH0 PUSH1 0x20 DUP3 DUP5 SUB SLT ISZERO PUSH2 0x108B JUMPI PUSH0 PUSH0 REVERT JUMPDEST DUP2 MLOAD PUSH2 0xF7E DUP2 PUSH2 0x104C JUMP JUMPDEST PUSH4 0x4E487B71 PUSH1 0xE0 SHL PUSH0 MSTORE PUSH1 0x32 PUSH1 0x4 MSTORE PUSH1 0x24 PUSH0 REVERT JUMPDEST PUSH4 0x4E487B71 PUSH1 0xE0 SHL PUSH0 MSTORE PUSH1 0x11 PUSH1 0x4 MSTORE PUSH1 0x24 PUSH0 REVERT JUMPDEST PUSH0 PUSH4 0xFFFFFFFF DUP3 AND PUSH4 0xFFFFFFFF DUP2 SUB PUSH2 0x10D9 JUMPI PUSH2 0x10D9 PUSH2 0x10AA JUMP JUMPDEST PUSH1 0x1 ADD SWAP3 SWAP2 POP POP JUMP JUMPDEST PUSH1 0x40 DUP1 DUP3 MSTORE DUP2 ADD DUP4 SWAP1 MSTORE PUSH0 DUP5 PUSH1 0x60 DUP4 ADD DUP3 JUMPDEST DUP7 DUP2 LT ISZERO PUSH2 0x111F JUMPI PUSH4 0xFFFFFFFF PUSH2 0x110A DUP5 PUSH2 0xF85 JUMP JUMPDEST AND DUP3 MSTORE PUSH1 0x20 SWAP3 DUP4 ADD SWAP3 SWAP1 SWAP2 ADD SWAP1 PUSH1 0x1 ADD PUSH2 0x10F4 JUMP JUMPDEST POP PUSH1 0x20 SWAP4 SWAP1 SWAP4 ADD SWAP4 SWAP1 SWAP4 MSTORE POP SWAP4 SWAP3 POP POP POP JUMP JUMPDEST DUP2 DUP2 SUB DUP2 DUP2 GT ISZERO PUSH2 0x1145 JUMPI PUSH2 0x1145 PUSH2 0x10AA JUMP JUMPDEST SWAP3 SWAP2 POP POP JUMP INVALID LOG2 PUSH5 0x6970667358 0x22 SLT KECCAK256 0xAF REVERT 0xD9 PUSH22 0xC57C432A97826F176D931698D65C25556E1A1A6BA659 LOG2 GASPRICE 0x4D TIMESTAMP PUSH22 0x8564736F6C634300081C003300000000000000000000 "
				},
				"gasEstimates": {
					"creation": {
						"codeDepositCost": "896200",
						"executionCost": "infinite",
						"totalCost": "infinite"
					},
					"external": {
						"burnAmount()": "2357",
						"createPremium(uint32[],uint32)": "infinite",
						"getBurnFee()": "2313",
						"getContractBalance()": "216",
						"getMaxBurnFee()": "269",
						"isTokenBurned(uint32)": "2604",
						"isUpdatedToken(uint32)": "2606",
						"nftContract()": "infinite",
						"owner()": "2407",
						"pause()": "infinite",
						"paused()": "2403",
						"renounceOwnership()": "infinite",
						"setBurnAmount(uint16)": "26713",
						"setBurnFee(uint256)": "28028",
						"transferOwnership(address)": "infinite",
						"unpause()": "infinite",
						"withdrawFunds()": "infinite",
						"withdrawPartialFunds(uint256)": "infinite"
					},
					"internal": {
						"_processBurn(uint32[] calldata,uint32)": "infinite",
						"_refundExcess()": "infinite",
						"_validateInput(uint32[] calldata,uint32)": "infinite",
						"_withdrawFunds(uint256)": "infinite"
					}
				},
				"methodIdentifiers": {
					"burnAmount()": "486a7e6b",
					"createPremium(uint32[],uint32)": "41989bef",
					"getBurnFee()": "aa4b10d1",
					"getContractBalance()": "6f9fb98a",
					"getMaxBurnFee()": "576aee51",
					"isTokenBurned(uint32)": "c3d93ecd",
					"isUpdatedToken(uint32)": "1df8473d",
					"nftContract()": "d56d229d",
					"owner()": "8da5cb5b",
					"pause()": "8456cb59",
					"paused()": "5c975abb",
					"renounceOwnership()": "715018a6",
					"setBurnAmount(uint16)": "1deedfb5",
					"setBurnFee(uint256)": "4bf2c7c9",
					"transferOwnership(address)": "f2fde38b",
					"unpause()": "3f4ba83a",
					"withdrawFunds()": "24600fc3",
					"withdrawPartialFunds(uint256)": "d4e0ed2e"
				}
			},
			"storageLayout": {
				"storage": [
					{
						"astId": 8,
						"contract": "BurnManger.sol:BurnManager",
						"label": "_owner",
						"offset": 0,
						"slot": "0",
						"type": "t_address"
					},
					{
						"astId": 266,
						"contract": "BurnManger.sol:BurnManager",
						"label": "_status",
						"offset": 0,
						"slot": "1",
						"type": "t_uint256"
					},
					{
						"astId": 165,
						"contract": "BurnManger.sol:BurnManager",
						"label": "_paused",
						"offset": 0,
						"slot": "2",
						"type": "t_bool"
					},
					{
						"astId": 666,
						"contract": "BurnManger.sol:BurnManager",
						"label": "burnFee",
						"offset": 0,
						"slot": "3",
						"type": "t_uint256"
					},
					{
						"astId": 669,
						"contract": "BurnManger.sol:BurnManager",
						"label": "burnAmount",
						"offset": 0,
						"slot": "4",
						"type": "t_uint16"
					},
					{
						"astId": 673,
						"contract": "BurnManger.sol:BurnManager",
						"label": "isBurned",
						"offset": 0,
						"slot": "5",
						"type": "t_mapping(t_uint32,t_bool)"
					},
					{
						"astId": 677,
						"contract": "BurnManger.sol:BurnManager",
						"label": "isUpdated",
						"offset": 0,
						"slot": "6",
						"type": "t_mapping(t_uint32,t_bool)"
					}
				],
				"types": {
					"t_address": {
						"encoding": "inplace",
						"label": "address",
						"numberOfBytes": "20"
					},
					"t_bool": {
						"encoding": "inplace",
						"label": "bool",
						"numberOfBytes": "1"
					},
					"t_mapping(t_uint32,t_bool)": {
						"encoding": "mapping",
						"key": "t_uint32",
						"label": "mapping(uint32 => bool)",
						"numberOfBytes": "32",
						"value": "t_bool"
					},
					"t_uint16": {
						"encoding": "inplace",
						"label": "uint16",
						"numberOfBytes": "2"
					},
					"t_uint256": {
						"encoding": "inplace",
						"label": "uint256",
						"numberOfBytes": "32"
					},
					"t_uint32": {
						"encoding": "inplace",
						"label": "uint32",
						"numberOfBytes": "4"
					}
				}
			},
			"userdoc": {
				"kind": "user",
				"methods": {},
				"version": 1
			}
		}
	}
}